:100FE2000D0A5761746572696E672053797374656F
:100FF2006D20537461727465642076342E3020281B
:10100200382D446967697420446973706C61792969
:101012000D0A004175746F20446973706C61793AEE
:101022002054696D653C2D3E44617465206576658A
:1010320072792035207365636F6E64730D0A004404
:1010420061746520466F726D61743A20595959591D
:101052004D4D44442028382D6469676974206675B3
:101062006C6C20646973706C6179290D0A00546993
:101072006D6520466F726D61743A20202048484D9C
:101082004D53532028362D6469676974207269674D
:10109200687420646973706C6179290D0A00503399
:1010A2002E33204B65793A204C6F6E672070726543
:1010B200737320746F2073657420646174652F7478
:1010C200696D650D0A0053657474696E67206F72ED
:1010D2006465723A20596561722D3E4D6F6E746877
:1010E2002D3E4461792D3E486F75722D3E4D696EDD
:0810F2002D3E5365630D0A0059
:0C161700014500C107C108420076000038
:100AC20020B30D20070AD207E4900076F0A3F022AB
:100AD20020B33A300737900077E004F070069000B8
:100AE20076E004F0900076E07004A3E064646003B2
:100AF200020C40E5456003020C407545027F01127D
:100B020025727F01122429122578D2082220B303EC
:100B1200020C40200703020C40C3900077E094646B
:100B2200900076E094004003020BB2E545B4080061
:100B32004003020C31900B3EF8282873020B560238
:100B42000B82020B96020B9A020B9E020BA2020B65
:100B5200A6020BAA900019E0600990001FE0600352
:100B6200020C317545011221EC12259D12254E12FF
:100B720024557F0112258412246BE4F51F020C31E7
:100B8200E4F5451225A01225A3E4FF122584121ACA
:100B9200E0020C317F0180127F02800E7F03800A07
:100BA2007F0480067F0580027F0612180C020C313A
:100BB200C3900077E09464900076E0940040703037
:100BC2000804C2088069E545C394024062E545D342
:100BD2009407505B0545E54594074010E4F545123E
:100BE20024ABE4FF1224291225788043E54524FD35
:100BF200601414601514601B14602114602724050E
:100C0200702D7F0180067F0280027F031225727F92
:100C12000180197F04122572E4FF80107F051225DE
:100C220072E4FF80077F06122572E4FF122429C2B4
:0F0C320007E4900076F0A3F07F14FE12238022D7
:101BCE00D2AF7580FF121D2512256B12000E122446
:101BDE00FF121D93122589120EC91222667BFF7AFF
:101BEE000F79E212229F7BFF7A10791512229F7BCA
:101BFE00FF7A10794112229F7BFF7A1079701222A0
:101C0E009F7BFF7A1079A012229F7BFF7A1079C8F2
:101C1E0012229F120AC2120C4112251B12246B12A1
:101C2E0023F81224D212243F12205B7F0A7E001268
:041C3E00238080DFA0
:102411003F065B4F666D7D077F6F39711F1C1F1E65
:082421001F1E1F1F1E1F1E1FBE
:10162300C101C102C100C103070E07E901010000A6
:10163300004800660000000000000000010B0001EC
:0F1643000800010901010C00010A0041006100CB
:10238000E4FDFCC3ED9FEC9E5015E4FBFA0BBB0093
:0F239000010AEB64784A70F50DBD00010C80E482
:01239F00221B
:0A2543007F08900066E4F0A3DFFCBF
:01254D00226B
:061F3200AB14AD13AF1269
:101F3800AE07122543EB75F00A84E5F0902411935F
:101F4800900066F0EB75F00A849024119390006776
:101F5800F0ED75F00A84E5F090241193900068F094
:101F6800ED75F00A8490241193900069F0EE75F0F5
:101F78000A84E5F09024119390006AF0EE75F00A57
:0F1F8800849024119390006BF0E4A3F0A3F02257
:0813E900AB11AD10AF0FAE0E09
:1013F1008E2C8F2D122543EB75F00A84E5F0902495
:101401001193900066F0EB75F00A8490241193908B
:101411000067F0ED75F00A84E5F0902411939000D7
:1014210068F0ED75F00A8490241193900069F0AE94
:101431002CAF2D7C007D0A1208FF74112DF58274EA
:10144100243CF583E49390006AF0AE2CAF2D7C0030
:101451007D0A1208FF7C007D0A1208FF74112DF528
:101461008274243CF583E49390006BF0AE2CAF2D95
:101471007C007D641208FF7C007D0A1208FF741154
:101481002DF58274243CF583E49390006CF0AE2C2E
:10149100AF2D7C037DE81208FF7C007D0A1208FF56
:1014A10074112DF58274243CF583E49390006DF062
:0114B1002218
:10216600AE07122543EE90241193900066F0ED9091
:10217600241193900067F0EB90241193900068F07F
:10218600E52F90241193900069F0E5309024119387
:1021960090006AF0E5319024119390006BF0E4A36F
:0421A600F0A3F02290
:101ECC00D2A3E509F4FFE4FEEF30E703D38001C3AE
:101EDC0092A0C2A1D2A1EF25E0FF0EBE08EA746663
:101EEC002508F582E43400F583E0FFE4FEEF30E7EB
:101EFC0003D38001C392A0C2A1D2A1EF25E0FF0EB3
:101F0C00BE08EAC2A2D2A2C2A3E508045407F5088F
:101F1C00E50925E0FFE509C413131354014FF50936
:051F2C007003750901BE
:011F3100228D
:062572008F0CE4F50A22C3
:1024AB00E4F50CE50B7009AB14AD13AF12021F383A
:0424BB001213E922ED
:10180C00EF24FE602914604214604D14605D146076
:10181C006D2405707A050FE50F7002050ED3943315
:10182C00E50E94084069750E07750FD080610510A0
:10183C00E510D3940C40037510011223C2E511D3AB
:10184C009F404C1223C28F1180451223C0E511D347
:10185C009F403C7511018037E5122401FFE433FEF3
:10186C007C007D181208FF8D128024E5132401FFE3
:10187C00E433FE7C007D3C1208FF8D138011E514CF
:10188C002401FFE433FE7C007D3C1208FF8D14E53F
:10189C000B7009AB14AD13AF12021F381213E922EF
:101DFC00EFC394185061EDC3943C505BEBC3943C1F
:101E0C0050558F128D138B14900019E06038A3E09D
:101E1C00FFE5129F5023E512B50709A3E0FFE51378
:101E2C00D39F501590001AE0B51216A3E0B513110C
:101E3C00A3E0FFE514D39F40089000227401F080CA
:101E4C0005E4900022F01225A6EF700BE50C70074C
:081E5C00E50B7003121F322296
:1020B9008E288F298D2A8B2BC3E52994D0E5289466
:1020C900074047D3E5299433E5289408503CE52A8D
:1020D900C394014035E52AD3940C502EE52BC394C3
:1020E9000140271223C8E52BD39F501E85280E8552
:1020F900290F852A10852B111225A6EF700CE50CE6
:0B2109007008E50BB401031213E9227B
:05000600AE0EAF0F2259
:03258E00AF102269
:03259100AF112265
:03259400AF122261
:03259700AF13225D
:03259A00AF142259
:102429008F0BE50C700FEF7009AB14AD13AF1202EF
:062439001F381213E92216
:10231400AB07AA06EB5403700AFC7D641208FFEDB8
:102324004C700FAE02AF037C017D901208FFED4CA0
:072334007003D38001C322F6
:0823C0000511AD10AF0FAE0EC8
:0223C800A90565
:1023CA00B9020812231450037F1D22E990241C939A
:0123DA00FF03
:0123DB0022DF
:102114000514E514C3943C4048E4F5140513E51391
:10212400943C403DE4F5130512E51294184032E462
:10213400F5121223C0E511D39F4026751101051035
:10214400E510D3940C401A751001050FE50F7002C9
:10215400050ED39433E50E94084006750E07750FEB
:02216400D02287
:03003B000212FFAF
:1012FF00C0E0C0F0C083C082C0D075D000C000C0B5
:10130F0001C002C003C004C005C006C00730D91C0D
:10131F00C2D9900064E0FEA3E0F5EBEEF5FBE0240C
:10132F0099F0900064E03403F0121ECC20D8030231
:10133F0013CEC2D8900062E0FEA3E0F5EAEEF5FA14
:10134F00E02400F0900062E03424F0050DE50DC3B9
:10135F009464404C750D00B290D201E50CD394000B
:10136F00400CE50A70047F0180517F00804D1225EB
:10137F00A6EF704BE51F701E900061E004F0E0C314
:10138F009405400EE4F0E50B70047F0180027F00AE
:10139F008F0BD2028029E51F64017023D20E801FAC
:1013AF00E50D75F03284E5F07015E50CD39400402F
:1013BF000EE50A70047F0180027F008F0AD203D0EE
:1013CF0007D006D005D004D003D002D001D000D072
:0A13DF00D0D082D083D0F0D0E032ED
:101D2500E4F5D8F5E9F5F9F5D99000647403F0A365
:101D35007499F0900064E0FEA3E0F5EBEEF5FBE0AE
:101D45002499F0900064E03403F075DB499000625B
:101D55007424F0A3E4F0900062E0FEA3E0F5EAEE5F
:101D6500F5FAE02400F0900062E03424F075DA49D9
:101D7500D2DED2AFE4F50DF50B900061F0E50B7006
:0E1D850009AB14AD13AF12021F381213E9227E
:06257800E4900061F02276
:10205B0030035AC203E50CD39403502A1213E9E55B
:10206B000A604AE50C24FE60111460142402703DD2
:10207B00E490006AF0A3F0A38030E4900068802A1B
:10208B00E49000668024121F32E50A6020E50C24E0
:10209B00FB600D14601024027013E490006A800A38
:0E20AB00E49000688004E4900066F0A3F02248
:0F24D20030010BC2011221141210FA121204224F
:10243F00300212C202E50B7009AB14AD13AF1202DA
:06244F001F381213E92200
:07256B00D291D290D2B222FE
:03259D00C29122C6
:0325A000D29122B3
:04165200C10AC109FF
:10000E005389F0438901758C4CE4F58AD2A9C290CC
:05001E00C20AC28C22A1
:0E24FF00200A0A758C4CE4F58AD28CD20A228F
:03000B0002250DBE
:0D250D00758C4C758A00B209200902B2904D
:01251A00328E
:10002600546F74616C20466C6F773A200030002064
:050036006D6C0D0A00D5
:10165600011D00021A000002180000C104C10501A4
:101666001C00011700C10644006E000000000116B0
:04167600000115005A
:100EC900E4F53BF53CD288D2A8F51AF51BF518F5DF
:100ED9001912257E900072120A59900072E0FCA343
:100EE900E0FDA3E0FEA3E0FF90006E120A597BFF2C
:100EF9007A00792612229FE4FFFEFDFC900072E041
:100F0900F8A3E0F9A3E0FAA3E0FBC3120A227009EF
:100F19007BFF7A007933020FCC900072E0FCA3E0EA
:100F2900FDA3E0FEA3E0F5408E3F8D3E8C3DE4F548
:100F39003BE4FFFEFDFCAB40AA3FA93EA83DD3120E
:100F49000A224040E53B940A503AE47B0AFAF9F850
:100F5900AF40AE3FAD3EAC3D120990EB2430FFAE41
:100F69003B053B742F2EF8A607AF40AE3FAD3EAC14
:100F79003DE47B0AFAF9F81209908F408E3F8D3EC5
:100F89008C3D80ADE53B700AAF3B053B742F2FF8D4
:100F99007630E4F53CE53BD39400401BE53C940AEC
:100FA9005015153B742F253BF8E6FFAE3C053C7404
:100FB900232EF8A60780DE7423253CF8E4F6FB7A95
:100FC90000792312229F7BFF7A00793512229FC272
:080FD90004E4F51DF517C20642
:010FE10022ED
:10245500200412E4F51AF51BD2A8D204F518F519D3
:06246500D205751C0222E5
:0325A300C204224D
:0A254E00E4F51AF51BF518F5192243
:10120400E51CD394004005D51C02D2050516E5164D
:10121400C3940150030212E0E4F516200403021201
:10122400C7851A18851B19D3E5199400E51894008D
:0512340050030212C787
:10123900900072E0FCA3E0FDA3E0FEA3E0F5268E9A
:10124900258D248C23900072E0F8A3E0F9A3E0FA3D
:10125900A3E0FBE4FCFDEB2519FFEA3518FEED39A7
:10126900FDEC38FC900072120A59AF26AE25AD2468
:10127900AC23900072E0F8A3E0F9A3E0FAA3E0FB45
:10128900C3120A226002D20690006EE0F8A3E0F9C8
:10129900A3E0FAA3E0FB900072E0FCA3E0FDA3E069
:1012A900FEA3E0C39BFFEE9AFEED99FDEC98FCE4EA
:0E12B9007B32FAF9F8D3120A2250031222C433
:1012C7000517E517C3940A4009E4F517300603121A
:0C12D70022C4E4F51AF51BD20530041BFC
:1012E3000515E515C394034012E4F515E51DB40196
:0B12F300047F0280027F018F1DD205E6
:0112FE0022CD
:1022C400900072E0FCA3E0FDA3E0FEA3E0FF122473
:1022D40081900072E0FCA3E0FDA3E0FEA3E0FF9088
:0822E400006E120A59C2062225
:10246B00300512C205E51DB40103021C42E51DB483
:06247B0002031214B2225C
:101C4200AB19AA1875230A7C277D10AF03AE0212C6
:101C520008FF7C007D0A1208FF8D247C037DE8AF1B
:101C620003AE021208FF7C007D0A1208FF8D257C5C
:101C7200007D64AF03AE021208FF7C007D0A1208E9
:101C8200FF8D267C007D0AAF03AE021208FF7C00A6
:101C92007D0A1208FF8D27AE02AF037C007D0A1277
:101CA20008FFAF0585252F852430852331AB26AD6E
:041CB200270221667E
:1014B200900072E0FCA3E0FDA3E0FEA3E0F52B8E1A
:1014C2002A8D298C2875230BE47B107A27F9F8AF33
:1014D2002BAE2AAD29AC28120990E47B0AFAF9F85E
:1014E200120990AF038F24E47BE87A03F9F8AF2B5B
:1014F200AE2AAD29AC28120990E47B0AFAF9F81257
:101502000990AF038F25E47B64FAF9F8AF2BAE2A7A
:10151200AD29AC28120990E47B0AFAF9F812099075
:10152200AF038F26E47B0AFAF9F8AF2BAE2AAD2976
:10153200AC28120990E47B0AFAF9F8120990AF0379
:101542008F27E47B0AFAF9F8AF2BAE2AAD29AC2833
:10155200120990AF0385252F852430852331AB26D0
:05156200AD2702216627
:052584008F1DD20522AD
:0325A600AF1D2244
:0F24E100900072E0FCA3E0FDA3E0FEA3E0FF2269
:03000300022529AA
:0D252900C0E0051BE51B7002051AD0E03272
:10047B000D0A5761746572696E67205379737465E1
:10048B006D2052656164792076322E310D0A00435E
:10049B006F6D6D616E647320417661696C61626C26
:1004AB00653A0D0A0054494D453A48483A4D4D3A84
:1004BB0053530D0A00444154453A595959593A4D31
:1004CB004D3A44440D0A00413A48483A4D4D3A538F
:1004DB00533A4D4D4D4D0D0A004449535054494D1F
:1004EB00452F44495350444154450D0A0053544F32
:1004FB00500D0A000D0A3D3D3D2057617465726930
:10050B006E67205265636F7264203D3D3D0D0A009E
:10051B00547970653A204D616E75616C205761742A
:10052B006572696E670D0A005374617274205469A9
:10053B006D653A203230000D0A00456E6420546917
:10054B006D653A20323000576174657220566F6CBE
:10055B00756D653A2000206D6C0D0A00546F746147
:10056B006C20466C6F773A20004475726174696F2A
:10057B006E3A2000206D696E2000207365630D0AB2
:10058B00003D3D3D3D3D3D3D3D3D3D3D3D3D3D3DCD
:10059B003D3D3D3D3D3D3D3D0D0A00547970653A75
:1005AB00204175746F205761746572696E670D0A0F
:1005BB0000444154453A000D0A446174652053656B
:1005CB00743A20000D0A4572726F723A20496E76AA
:1005DB00616C696420646174650D0A00466F726D0D
:1005EB0061743A205959595928323030302D3230F4
:1005FB003939293A4D4D28312D3132293A44442885
:10060B00312D3331290D0A000D0A4572726F723A82
:10061B002057726F6E6720666F726D61740D0A00E2
:10062B00466F726D61743A20444154453A59595999
:10063B00593A4D4D3A44440D0A004578616D706C42
:10064B00653A20444154453A323032353A30353AE6
:10065B0032370D0A0054494D453A000D0A54696D65
:10066B0065205365743A20000D0A4572726F723A19
:10067B0020496E76616C69642074696D650D0A00A2
:10068B00466F726D61743A20484828302D323329F9
:10069B003A4D4D28302D3539293A535328302D35C5
:1006AB0039290D0A00466F726D61743A2054494D19
:1006BB00453A48483A4D4D3A53530D0A0045786137
:1006CB006D706C653A2054494D453A31343A3330AC
:1006DB003A30300D0A004449535054494D45000DF2
:1006EB000A446973706C6179204D6F64653A2054CC
:1006FB00696D650D0A004449535044415445000D42
:10070B000A446973706C6179204D6F64653A2044BB
:10071B006174650D0A00413A000D0A4175746F2032
:10072B00536574204F4B0D0A0054696D653A2000D8
:10073B000D0A566F6C756D653A20006D6C0D0A00D5
:10074B000D0A4572726F723A20496E76616C69645C
:10075B0020706172616D730D0A0054696D653A20EA
:10076B00484828302D3233293A4D4D28302D353914
:10077B00293A535328302D3539290D0A00566F6C01
:10078B00756D653A2035302D393939396D6C0D0A57
:10079B0000466F726D61743A20413A48483A4D4DAC
:1007AB003A53533A4D4D4D4D0D0A004578616D70DE
:1007BB006C653A20413A30363A30303A30313A3083
:1007CB003130300D0A0053544F50000D0A417574EF
:1007DB006F2053746F707065640D0A000D0A4572BB
:1007EB00726F723A20556E6B6E6F776E20636D640D
:1007FB000D0A00436F6D6D616E64733A0D0A005400
:10080B00494D453A48483A4D4D3A5353202D2053C4
:10081B0065742074696D650D0A00444154453A595D
:10082B005959593A4D4D3A4444202D205365742063
:10083B00646174650D0A00413A48483A4D4D3A538C
:10084B00533A4D4D4D4D202D2053657420617574D9
:10085B006F207761746572696E670D0A00444953A6
:10086B005054494D452F4449535044415445202D34
:10087B0020446973706C6179206D6F64650D0A009B
:10088B0053544F50202D2053746F70206175746F2B
:0C089B00207761746572696E670D0A00B9
:05167A00014600C10D56
:101D930075985053877F53890F438920758BFD7541
:101DA3008DFDD28ED2ACD2AFE4F546C20DFE7F20BC
:101DB300FD7B017A007941120A967BFF7A04797BD5
:101DC30012229F7BFF7A04799A12229F7BFF7A0467
:101DD30079B012229F7BFF7A0479C012229F7BFF86
:101DE3007A0479D212229F7BFF7A0479E412229F2C
:091DF3007BFF7A0479F802229FBB
:10233B00E4FAF9F8AF32AE31AD30AC2F120990E4BC
:0C234B007B0AFAF9F8120990EB2430FF2D
:082357008F993099FDC2992213
:062299007BFF7A0579428B
:10229F008B418A428943AB41AA42A9431208A760E6
:1022AF00130543E5437002054214F91208A7FF1204
:0522BF00235780E2221C
:0B156700E0FCA3E0FDA3E0FEA3E0FF1A
:101572008F328E318D308C2FE4FFFEFDFCAB32AA10
:1015820031A930A82FC3120A2270057F3002161328
:10159200E47F107E27FDFCAB32AA31A930A82FC30D
:1015A200120A224008E47B107A2712233DE47FE8E6
:1015B2007E03FDFCAB32AA31A930A82FC3120A2246
:1015C2004008E47BE87A0312233DE47F64FEFDFCDD
:1015D200AB32AA31A930A82FC3120A2240057B647C
:1015E20012233BE47F0AFEFDFCAB32AA31A930A8EC
:1015F2002FC3120A2240057B0A12233BE47B0AFA1C
:10160200F9F8AF32AE31AD30AC2F120990EB243085
:05161200FF1223572226
:101FFC00E0FEA3E0FF7C007D641208FFAF05122019
:10200C00417F2D122357A3E0FF1220417F2D122375
:10201C0057A3E0FF1220417F20122357A3E0FF12A9
:10202C0020417F3A122357A3E0FF1220417F3A123E
:05203C002357A3E0FFA3
:10204100AE07EE75F00A842430FF122357EE75F0C7
:0A2051000A84E5F02430FF02235753
:1016BE007BFF7A0479FF12229F7BFF7A05791B123A
:1016CE00229F7BFF7A05793312229F900001121F11
:1016DE00FC1222997BFF7A05794512229F90000811
:1016EE00121FFC1222997BFF7A05795212229F90CB
:1016FE00000F1215677BFF7A05796112229F7BFF1F
:10170E007A05796712229F9000131215677BFF7A74
:10171E0005796112229F7BFF7A05797412229F90C0
:10172E000017E0FFD394004010E4FCFDFE1215728A
:10173E007BFF7A05797F12229F900018E0FFE4FC70
:10174E00FDFE1215727BFF7A05798512229F7BFFB3
:07175E007A05798C02229F3D
:101765007BFF7A0479FF12229F7BFF7A0579A61207
:10177500229F7BFF7A05793312229F900028121F42
:10178500FC1222997BFF7A05794512229F90002F42
:10179500121FFC1222997BFF7A05795212229F9023
:1017A50000361215677BFF7A05796112229F7BFF50
:1017B5007A05796712229F90003A1215677BFF7AA6
:1017C50005796112229F7BFF7A05797412229F9019
:1017D500003EE0FFD394004010E4FCFDFE121572BC
:1017E5007BFF7A05797F12229F90003FE0FFE4FCA2
:1017F500FDFE1215727BFF7A05798512229F7BFF0C
:071805007A05798C02229F95
:081F97008B288A29892A8D2B71
:101F9F00E4F52CF52DF52EE52EC3952B504AAB28E5
:101FAF00AA29A92A852E827583001208C0FFC3644F
:101FBF008094B0402AD3EF648094B95022EF3395C8
:101FCF00E0FEEF24D0FBEE34FFFAAE2CAF2D7C00F9
:101FDF007D0A1208EDEF2BF52DEE3AF52C80057EDC
:0C1FEF00FF7FFF22052E80AFAE2CAF2D2F
:011FFB0022C3
:10003E00752BFF752C05752DBC752E00752F057B48
:0E004E00017A007941121CB6EF600302012610
:10005C007B017A007941122496C3EF940FEE940041
:10006C00500302010B7B017A0079467D04121F9725
:10007C008E238F247B017A00794B7D02121F978F80
:10008C00257B017A00794E7D02121F978F26C3E5DE
:10009C002494D0E52394074054D3E5249433E523EA
:1000AC0094085049E525C394014042E525D3940CAE
:1000BC00503BE526C394014034AD25AF24AE23124A
:1000CC0023C8E526D39F5025AB26AD25AF24AE2300
:1000DC001220B97BFF7A0579C212229F90004A74D4
:1000EC002DF090004DF0E49000500201CA7BFF7A95
:1000FC000579CF12229F7BFF7A0579E70204777B83
:10010C00FF7A06791312229F7BFF7A06792B122233
:07011C009F7BFF7A06794585
:10012300020477752BFF752C06752D60752E0075EF
:100133002F057B017A007941121CB6EF600302029E
:010143000AB1
:10014400F523F524F5257B017A007941122496C321
:10015400EF940DEE940050030201EF900046E0246A
:10016400D075F00AA4FFA3E024D02FF52390004912
:10017400E024D075F00AA4FFA3E024D02FF5249046
:10018400004CE024D075F00AA4FFA3E024D02FF59E
:1001940025E523C394185041E524C3943C503AE523
:1001A40025C3943C5033AB25AD24AF23121DFC7BF7
:1001B400FF7A06796612229F900048743AF0900004
:1001C4004BF0E490004EF07B017A00794612229FB6
:1001D4007BFF7A0579420204777BFF7A06797312F2
:1001E400229F7BFF7A06798B0204777BFF7A06795C
:1001F4001312229F7BFF7A0679B012229F7BFF7A2B
:030204000679C8B0
:10020700020477752BFF752C06752DE1752E007589
:100217002F087B017A007941121CB6EF700DFF128F
:1002270024297BFF7A0679EA020477752BFF752C60
:1002370007752D01752E00752F087B017A0079410E
:10024700121CB6EF700E7F011224297BFF7A077903
:100257000A020477752BFF752C07752D21752E0063
:10026700752F027B017A007941121CB6EF600302F9
:0202770004156C
:100279007B017A007941122496C3EF940FEE940022
:1002890050030203FB900043E024D075F00AA4FF59
:10029900A3E024D02FF523900046E024D075F00A7E
:1002A900A4FFA3E024D02FF524900049E024D075C1
:1002B900F00AA4FFA3E024D02FF525E4F526F527BD
:1002C90090004CE0FF3395E0FEEF24D0FFEE34FFC1
:1002D900FE7C037DE81208EDEF2527F527EE35268C
:1002E900F526A3E0FF3395E0FEEF24D0FFEE34FFBF
:1002F900FE7C007D641208EDEF2527F527EE3526F3
:10030900F526A3E0FF3395E0FEEF24D0FFEE34FF9E
:10031900FE7D0A1208EDEF2527F527EE3526F5268D
:10032900A3E0FF3395E0FEEF24D0FFEE34FFFEEFAC
:100339002527F527EE3526F526E523C3941840032E
:100349000203E1E524C3943C40030203E1E525C32C
:10035900943C40030203E1C3E5279432E526940067
:100369004076D3E527940FE5269427506B90001A21
:10037900E523F0A3E524F0A3E525F0A3E526F0A302
:10038900E527F09000197401F0E4900022F07BFF5A
:100399007A07792412229F7BFF7A07793412229FE8
:1003A900900045743AF0900048F0E490004BF07BDF
:1003B900017A00794312229F7BFF7A07793B122247
:1003C9009FE4900050F07B017A00794C12229F7BC8
:1003D900FF7A0779460204777BFF7A07794B122265
:1003E9009F7BFF7A07796512229F7BFF7A077988BD
:1003F900807C7BFF7A06791312229F7BFF7A07792B
:0A0409009C12229F7BFF7A0779B650
:100413008062752BFF752C07752DD1752E00752FF6
:10042300047B017A007941121CB6EF700B1223A0F2
:100433007BFF7A0779D6803C7BFF7A0779E7122224
:100443009F7BFF7A0779FE12229F7BFF7A08790A46
:1004530012229F7BFF7A08792512229F7BFF7A085D
:10046300794212229F7BFF7A08796812229F7BFFD1
:080473007A08798B12229F2206
:1023F800300D1512003EC20DE4F546FE7F20FD7B30
:09240800017A007941120A9622C2
:03002300021E6456
:101E6400C0E0C083C082C0D075D000C0073098489D
:051E7400C298200D439F
:101E7900859922AF22122357E522640A6005E522DB
:101E8900B40D1874412546F582E43400F583E4F075
:101E9900E546D39400401CD20D8018E546C3941F33
:101EA9005011AF46054674412FF582E43400F5839D
:031EB900E522F02F
:101EBC00309902C299D007D0D0D082D083D0E032F2
:10167F006027001900060001006400000000000050
:10168F00000000000000000000000000000000004B
:10169F000000000000000000000000011F00011EFC
:0716AF0000C10E41004000E4
:082562007F1EAE071FEE70FAA8
:01256A00224E
:1021EC00E4900000F0120006900001EEF0A3EFF076
:1021FC0012258E900003EFF0122591900004EFF061
:10220C00122594900005EFF0122597900006EFF040
:10221C0012259A900007EFF01224E1900013020AA5
:01222C005958
:1021AA009000277401F0120006900028EEF0A3EFC9
:1021BA00F012258E90002AEFF012259190002BEF55
:1021CA00F012259490002CEFF012259790002DEF35
:1021DA00F012259A90002EEFF01224E190002302CB
:0221EA000A5990
:1019D800900005E0FF7E007C0E7D101208EDAC063D
:1019E800AD07A3E075F03CA42DFFEC35F0FEA3E0B5
:1019F8007C002FFFEC3EAB07FA90000CE0FF7E0066
:101A08007C0E7D101208EDAC06AD07A3E075F03C26
:101A1800A42DFFEC35F0FEA3E07C002FFFEC3EFE8A
:101A2800C3EF9BEE9A500874802FFF74513EFEC39B
:101A3800EF9BFFEE9AAB07FA7C007D3CFE1208FF95
:101A4800900017EFF0AE02AF037C007D3C1208FF58
:031A5800A3EDF00B
:011A5B002268
:101A5C0090002CE0FF7E007C0E7D101208EDAC0691
:101A6C00AD07A3E075F03CA42DFFEC35F0FEA3E030
:101A7C007C002FFFEC3EAB07FA900033E0FF7E00BA
:101A8C007C0E7D101208EDAC06AD07A3E075F03CA2
:101A9C00A42DFFEC35F0FEA3E07C002FFFEC3EFE06
:101AAC00C3EF9BEE9A500874802FFF74513EFEC317
:101ABC00EF9BFFEE9AAB07FA7C007D3CFE1208FF11
:101ACC0090003EEFF0AE02AF037C007D3C1208FFAD
:031ADC00A3EDF087
:011ADF0022E4
:101AE000120006900008EEF0A3EFF012258E900091
:101AF0000AEFF012259190000BEFF0122594900060
:101B00000CEFF012259790000DEFF012259A90003F
:101B10000EEFF01224E18F268E258D248C23900069
:101B200013E0F8A3E0F9A3E0FAA3E0FBC3E5269BEA
:101B3000FFE5259AFEE52499FDE52398FC90000F2A
:101B4000120A59AF26AE25AD24AC23900013120A19
:071B5000591219D80216BE5C
:101B570012000690002FEEF0A3EFF012258E9000F2
:101B670031EFF0122591900032EFF012259490009A
:101B770033EFF0122597900034EFF012259A90007A
:101B870035EFF01224E18F2E8E2D8D2C8C2B9000AB
:101B970023E0F8A3E0F9A3E0FAA3E0FBC3E52E9B5B
:101BA700FFE52D9AFEE52C99FDE52B98FC90003674
:101BB700120A59AF2EAE2DAD2CAC2B90003A120A5B
:071BC70059121A5C021765B8
:102266004390FC122589E4900019F0A37406F0E46B
:10227600A3F0A304F0A3E4F0A37464F0E4A3F0A332
:10228600F0A3F0A3F0A3120A6500000000E4F51F16
:03229600F51E2210
:100C4100E4F523209203432301209303432302204D
:100C5100940343230420950343230820960343234D
:100C610010209703432320900040E0F45523F524FE
:100C710030E02212256220921C900019E0601312CC
:100C810023A0E4F51FAB14AD13AF12121F38D20E1F
:100C910080031223DCE52430E51212256220970C33
:100CA100E51E045403F51E751F01D20EE52430E143
:100CB1006A122562209364E51E14601A14602714D9
:100CC10060392403705090001AE02401FFE433FEE0
:100CD1007C007D18801E90001BE02401FFE433FEA0
:100CE1007C007D3C800E90001CE02401FFE433FE7B
:100CF1007C007D3C1208FFEDF0801BC390001EE0DC
:100D010094DE90001DE09426500CA3E02432F09074
:100D1100001DE03400F0751F01D20EE52430E274AD
:100D210012256220946EE51E14601F146031146058
:100D3100432403705A90001AE0FF70047F17800368
:100D4100EF14FF90001AEFF0804590001BE0FF7058
:100D5100047F3B8003EF14FF90001BEFF080309085
:100D6100001CE0FF70047F3B8003EF14FF90001C28
:100D7100EFF0801BD390001EE0943290001DE094B0
:100D810000400CA3E024CEF090001DE034FFF0758C
:0A0D91001F01D20E900040E523F090
:010D9B002235
:1023DC009000197401F0E490001FF0900022F0F5C9
:0C23EC001FD20EAB14AD13AF12021F384D
:1023A000E4900019F0900022F090001FE06010E42B
:1023B000F01225A01225A3E4FF122584121B572238
:1010FA00900019E0700302120390001FE0700302CF
:10110A0011A61224E18F268E258D248C239000238C
:10111A00E0F8A3E0F9A3E0FAA3E0FBC3E5269BF518
:10112A002AE5259AF529E52499F528E52398F5274E
:10113A0090001DE0FEA3E0FFE4FCFDAB2AAA29A96A
:10114A0028A827C3120A224032E490001FF0900018
:10115A002204F01225A01225A3E4FF122584AF264B
:10116A00AE25AD24AC23122481121B57E4F51FAB24
:10117A0014AD13AF12121F38D20E22C390001EE014
:10118A00952AFE90001DE09529900020F0A3CEF04C
:10119A00E51F64016063751F01D20E22900022E0F0
:1011AA00704490001AE06512703CA3E06513703633
:1011BA00A3E0B5143190001F7401F090001DE0FF08
:1011CA00A3E0900020CFF0A3EFF01224E1900023D7
:1011DA00120A591221AA12259D1224557F0112259D
:1011EA0084751F01D20E900022E0600DE51270098D
:0911FA00E5137005E5147001F025
:0112030022C8
:100D9C0090001FE0602CA3E0FAA3E0FB7C007D0A2E
:100DAC00FFAE021208FF8D237C007D0AAF03AE025A
:100DBC001208FF7C007D0A1208FF8D24900020028F
:100DCC000E79E51E146032146054146075240360AF
:100DDC0003020EAA90001AE0FF75F00A8485F02336
:100DEC00EF75F00A8475F00A8485F024E4F525F596
:100DFC0026F527752803020EB790001BE0FF75F04F
:100E0C000A8485F023EF75F00A8475F00A8485F066
:100E1C0024E4F525F526F527752802020EB7900077
:100E2C001CE0FF75F00A8485F023EF75F00A8475D9
:100E3C00F00A8485F024E4F525F526F527752801BC
:100E4C00806990001DE0FAA3E0FB7C007D0AFFAEF8
:100E5C00021208FF8D237C007D0AAF03AE0212083C
:100E6C00FF7C007D0A1208FF8D2490001DA3E07CFE
:100E7C00007D64FFAE021208FF7C007D0A1208FFA1
:100E8C008D257C037DE8AF03AE021208FF7C007D4C
:100E9C000A1208FF8D26E4F527752805800DE4F568
:100EAC0028F527F526F525F524F52385262F852706
:0D0EBC0030852831AB25AD24AF230221661F
:0E251B00300E0AC20EE51FB40103120D9C2201
:0716B6004400720000000077
:0D253600D2A500D2A600C2A500C2A60022B8
:0A255800C2A500D2A600D2A5002201
:0F24F000A20C92A500D2A600C2A600D2A500227F
:1024BF00D2A500D2A60030A505C2A600D322C2A67F
:0324CF0000C32225
:0B22EC00AF33AE32AD31AC30120A331C
:1022F700E4FEEF30E703D38001C392A5D2A600C264
:0D230700A600EF25E0FF0EBE08E80224BF8F
:10235F00E4FFD2A5FED2A600EF25E0FFA2A5E4334D
:10236F004207C2A6000EBE08ECA20B920C1224F07C
:01237F00223B
:10222D00AD071225367FA01222F7AF051222F7E572
:10223D0033FF1222F778081222EC78101222ECAF3D
:10224D0033AE32AD31AC307818120A331222F71298
:09225D0025587F147E0002238045
:0218AC00AB0788
:1018AE00E4F544F543F542F5411225367FA01222A8
:1018BE00F7AF031222F71225367FA11222F7C20BC1
:1018CE0012235FE48F44F543F542F541C20B122318
:1018DE005FE4FCFDFE7808120A46E5444FF544E548
:1018EE00434EF543E5424DF542E5414CF541C20B01
:1018FE0012235FE4FCFDFE7810120A46E5444FF514
:10190E0044E5434EF543E5424DF542E5414CF54184
:10191E00D20B12235FE4FCFDFE7818120A46E54452
:10192E004FF544E5434EF543E5424DF542E5414C56
:0D193E00F541122558AF44AE43AD42AC4117
:01194B002279
:05258900D2A5D2A6223C
:102481008F2E8E2D8D2C8C2B8F338E328D318C3067
:05249100E4FF02222D12
:06257E00E4FF1218AC227C
:0300000002194C96
:0C194C00787FE4F6D8FD758146021993FF
:1008A700BB010689828A83E0225002E722BBFE024F
:0908B700E32289828A83E4932282
:1008C000BB010CE58229F582E5833AF583E02250ED
:1008D00006E92582F8E622BBFE06E92582F8E22237
:0D08E000E58229F582E5833AF583E4932251
:1008ED00EF8DF0A4A8F0CF8CF0A428CE8DF0A42E1F
:0208FD00FE22D9
:1008FF00BC000BBE0029EF8DF084FFADF022E4CCDD
:10090F00F875F008EF2FFFEE33FEEC33FCEE9DECA5
:10091F00984005FCEE9DFE0FD5F0E9E4CEFD22EDEB
:10092F00F8F5F0EE8420D21CFEADF075F008EF2F35
:10093F00FFED33FD4007985006D5F0F222C398FD26
:05094F000FD5F0EA22C3
:1009540075F008758200EF2FFFEE33FECD33CDCC5A
:1009640033CCC58233C5829BED9AEC99E5829840DD
:100974000CF582EE9BFEED9AFDEC99FC0FD5F0D6BA
:10098400E4CEFBE4CDFAE4CCF9A88222B800C1B9E4
:100994000059BA002DEC8BF084CFCECDFCE5F0CB22
:1009A400F97818EF2FFFEE33FEED33FDEC33FCEB5B
:1009B40033FB10D703994004EB99FB0FD8E5E4F916
:1009C400FA227818EF2FFFEE33FEED33FDEC33FC03
:1009D400C933C910D7059BE99A4007EC9BFCE99AF7
:1009E400F90FD8E0E4C9FAE4CCFB2275F010EF2F3C
:1009F400FFEE33FEED33FDCC33CCC833C810D7073C
:100A04009BEC9AE899400AED9BFDEC9AFCE899F876
:0E0A14000FD5F0DAE4CDFBE4CCFAE4C8F92209
:100A2200EB9FF5F0EA9E42F0E99D42F0E89C45F02A
:010A320022A1
:100A3300E8600FECC313FCED13FDEE13FEEF13FFA1
:030A4300D8F122C5
:100A4600E8600FEFC333FFEE33FEED33FDEC33FC0E
:030A5600D8F122B2
:0C0A5900ECF0A3EDF0A3EEF0A3EFF02210
:100A6500A8828583F0D083D082120A7C120A7C1278
:100A75000A7C120A7CE473E493A3C583C5F0C5839D
:100A8500C8C582C8F0A3C583C5F0C583C8C582C8DB
:010A9500223E
:101CB6008B288A29892AAB2BAA2CA92D1208A7FEC4
:101CC600AB28AA29A92A1208A7FF6E702BEF600D70
:101CD600E52F152F7002152E14452E70037F002256
:101CE6007401252AF52AE43529F5297401252DF5EF
:101CF6002DE4352CF52C80BEAB28AA29A92A12087A
:101D0600A7FDD3EE6480F8ED64809840037F01223E
:0F1D1600AB2BAA2CA92D1208A7FFC3ED9FFF220C
:10249600E4FFFE1208A7600C0FEF70010E09E97049
:0524A600F20A80EF22A4
:100A9600EF4E6012EF60010EEDBB010B89828A8377
:100AA600F0A3DFFCDEFA2289F05007F709DFFCA984
:0C0AB600F022BBFEFCF309DFFCA9F022DB
:10195800021BCEE493A3F8E493A34003F68001F2BC
:1019680008DFF48029E493A3F85407240CC8C33390
:10197800C4540F4420C8834004F456800146F6DF5F
:10198800E4800B0102040810204080901617E47EC2
:10199800019360BCA3FF543F30E509541FFEE49354
:1019A800A360010ECF54C025E060A840B8E493A31B
:1019B800FAE493A3F8E493A3C8C582C8CAC583CA46
:1019C800F0A3C8C582C8CAC583CADFE9DEE780BEFE
:0116BD00002C
:00000001FF
