:1010DD000D0A5761746572696E6720537973746573
:1010ED006D20537461727465640D0A0054696D65E9
:1010FD002073657474696E6720617661696C6162D5
:10110D006C650D0A004175746F20776174657269A5
:10111D006E6720696E697469616C697A65640D0A20
:01112D0000C1
:0B0E7800017100C103C1040272000000
:100A380020B30B200308D203E4F572F5732220B328
:100A48002C3003290573E5737002057264F4700491
:100A5800E57264016003020B1EE5716003020B1E60
:100A6800757102E57114FF1215D5D2042220B30363
:100A7800020B1E200303020B1EC3E57394F4E572F8
:100A88009401504EE57114602A14603714603814CC
:100A9800603924047073E566706F7571011215EB87
:100AA8001215901214C17F011200061214D7E4F532
:100AB800658056E4F5711215EE1215F1E4FF120087
:100AC8000680467F0180067F0280027F031211CBD9
:100AD8008037C3E57394F4E5729401402C30040424
:100AE800C2048025E571C39402401EE571D39404C5
:100AF80050170571E57194044008E4F57112155812
:100B08008007E57114FF1215D5C203E4F572F57379
:070B18007F14FE12141922E4
:10117E00D2AF7580FF12112E1215C712000E121566
:10118E002112137F1212A91213F67BFF7A1079DD4A
:10119E0012135A7BFF7A1079F912135A7BFF7A11C8
:1011AE00791212135A120A381206A212153D12148F
:0D11BE00D71214917F0A7E0012141980E8E8
:0C1564003F065B4F666D7D077F6F39719D
:100E83000319000000081100000000000000000129
:0B0E93000800010901010D00010A0028
:10141900E4FDFCC3ED9FEC9E5015E4FBFA0BBB0009
:0F142900010AEB64784A70F50DBD00010C80E4F8
:011438002291
:09157C007F087811E4F608DFFC99
:011585002243
:081262008F0AAB1BAD1AAF1996
:10126A00AE0712157CEB75F00A84E5F090156493CD
:10127A00F511EB75F00A8493F512ED75F00A84E521
:10128A00F093F513ED75F00A8493F514EE75F00AF0
:0F129A0084E5F093F515EE75F00A8493F51622AE
:1013D200AE0712157CEE90156493F511ED93F5129C
:1013E200EB93F513E53B93F514E53C93F515E53DD9
:0413F20093F5162237
:100FD100D2A3E509F4FFE4FEEF30E703D38001C3B8
:100FE10092A0C2A1D2A1EF25E0FF0EBE08EA7411C2
:100FF1002508F8E6FFE4FEEF30E703D38001C39252
:10100100A0C2A1D2A1EF25E0FF0EBE08EAC2A2D282
:10101100A2C2A3E508045407F508E50925E0FFE5A8
:0F10210009C413131354014FF509700375090126
:01103000229D
:0615D5008F0DE4F50A226F
:0C155800E4F50DAB1BAD1AAF1902126ACE
:1011CB00EF24FE601A14602A24027037E5192401FB
:1011DB00FFE433FE7C007D1812051C8D198024E57D
:1011EB001A2401FFE433FE7C007D3C12051C8D1A92
:1011FB008011E51B2401FFE433FE7C007D3C1205CE
:0C120B001C8D1BAB1BAD1AAF1902126A40
:10108800EFC39418504EEDC3943C5048EBC3943CC6
:1010980050428F198D1A8B1BE566602BE5199567F1
:1010A800501DE519B56707E51AD395685011E5197C
:1010B800B56711E51AB5680CE51BD3956940057548
:1010C8006F018003E4F56F121600EF7007E50D70ED
:0510D800031212642266
:03003B000207E2D7
:1007E200C0E0C0F0C083C082C0D075D000C000C0DD
:1007F20001C002C003C004C005C006C00730D9183A
:10080200C2D98510EBE50FF5FB74992510F510742C
:1008120003350FF50F120FD120D8030208F3C2D807
:10082200850CEAE50BF5FAE4250CF50C7424350B7E
:10083200F50B050EE50EC394644071750E00B2907F
:10084200120BF5051BE51BC3943C4019751B0005F3
:100852001AE51A943C400E751A000519E519941808
:100862004003751900120B1FE50DD394004024E5D7
:100872000A70047F0180027F00121262E50A607131
:10088200E50D24FE600914600824027064804C8027
:10089200528058121600EF7058E565700512126406
:1008A200804FE56564017049D2088045E50E75F018
:1008B2003284E5F0703BE50DD394004034E50A70D4
:1008C200047F0180027F00121262E50A6023E50DB7
:1008D20024FE600F1460142402701675150075163C
:1008E20000800E75130075140080067511007512D4
:1008F20000D007D006D005D004D003D002D001D05A
:0C09020000D0D0D082D083D0F0D0E03202
:10112E00E4F5D8F5E9F5F9F5D9750F03751099853C
:10113E0010EBE50FF5FB74992510F5107403350FC0
:10114E00F50F75DB49750B24750C00850CEAE50B64
:10115E00F5FAE4250CF50C7424350BF50B75DA490C
:10116E00D2DED2AFE4F50EAB1BAD1AAF1902126A86
:0715C700D291D290D2B222B2
:0315EB00C2912288
:0315EE00D2912275
:0A1586002091047F0180027F002203
:040E9E00C106C105C3
:10000E005389F0438901758C4CE4F58AD2A9C290CC
:05001E00C206C28C22A5
:0E15210020060A758C4CE4F58AD28CD2062284
:0715CE00C28CC290C206228C
:0615DB00A206E433FF222A
:03000B0002152FAC
:0D152F00758C4C758A00B205200502B29043
:01153C00327C
:100EA200014A000243000002410000044600000023
:100EB20000C100C101014500014000C102044B0014
:090EC200000000013F00013E00A8
:10137F00D288D2A8E4F543F544F541F542120DF4B5
:10138F008F498E488D478C468F4E8E4D8D4C8C4B92
:0A139F00C200E4F54AF540C2022244
:1014C100200012E4F543F544D2A8D200F541F542DB
:0614D100D2017545022264
:0315F100C2002213
:0A159000E4F543F544F541F542226D
:10150200E4F549F548F547F546FFFEFDFC021217E2
:100BF500E545D394004005D54502D201053FE53FC3
:100C0500C394015003020C9DE4F53F300071854308
:0F0C150041854442D3E5429400E541940040609C
:100C2400854925854824854723854622E4FCFDE53E
:100C3400492542F549E5483541F548ED3547F5473D
:100C4400EC3546F546AF25AE24AD23AC22AB49AA1C
:100C540048A947F8C312063F6002D202C3E549958A
:100C64004EFFE548954DFEE547954CFDE546954B11
:100C7400FCE47B32FAF9F8D312063F5003121477DE
:100C84000540E540C3940A4009E4F54030020312EC
:0C0C94001477E4F543F544D20130001B56
:100CA000053EE53EC394034012E4F53EE54AB40137
:0B0CB000047F0280027F018F4AD20106
:010CBB002216
:10147700AF49AE48AD47AC4612121785494E85486D
:0A1487004D85474C85464BC20222FA
:1012ED00120DF48F1F8E1E8D1D8C1C7F3F7E427D37
:1012FD000F7C00AB1FAA1EA91DA81CD312063F40D0
:10130D0010E4F51FF51EF51DF51CFFFEFDFC121278
:09131D0017AF1FAE1EAD1DAC1C84
:0113260022A4
:0315F40002147767
:0915A400AF4EAE4DAD4CAC4B2234
:0315F700A202222B
:1014D700300112C201E54AB40103020EEEE54AB437
:0614E7000203120CBC22FE
:100EEE00AB42AA41752F0A7C277D10AF03AE0212CA
:100EFE00051C7C007D0A12051C8D307C037DE8AF3D
:100F0E0003AE0212051C7C007D0A12051C8D317C7D
:100F1E00007D64AF03AE0212051C7C007D0A120533
:100F2E001C8D327C007D0AAF03AE0212051C7C00C4
:100F3E007D0A12051C8D33AE02AF037C007D0A12B2
:100F4E00051CAF0585313B85303C852F3DAB32AD61
:040F5E00330213D275
:100CBC00854937854836854735854634752F0BE48D
:100CCC007B107A27F9F8AF37AE36AD35AC34120558
:100CDC00ADE47B0AFAF9F81205ADAF038F30E47B73
:100CEC00E87A03F9F8AF37AE36AD35AC341205AD52
:100CFC00E47B0AFAF9F81205ADAF038F31E47B649B
:100D0C00FAF9F8AF37AE36AD35AC341205ADE47B3D
:100D1C000AFAF9F81205ADAF038F32E47B0AFAF93F
:100D2C00F8AF37AE36AD35AC341205ADE47B0AFA0C
:100D3C00F9F81205ADAF038F33E47B0AFAF9F8AF7B
:100D4C0037AE36AD35AC341205ADAF0385313B85CE
:0C0D5C00303C852F3DAB32AD330213D28A
:0315FA00020EEEF0
:0315FD00020CBC21
:050006008F4AD2012227
:03160000AF4A22CC
:0515E100AE41AF422203
:0915AD00AF49AE48AD47AC46223F
:0300030002154B98
:0D154B00C0E00544E54470020543D0E032E5
:1002EE000D0A53797374656D2052656164790D0A38
:1002FE000054494D453A48483A4D4D3A53530D0A2C
:10030E0000413A48483A4D4D3A53533A4D4D4D4DB2
:10031E000D0A0054494D453A000D0A54696D652089
:10032E005365743A20000D0A000D0A4572726F7201
:10033E003A20496E76616C69642074696D650D0AA8
:10034E0000466F726D61743A20484828302D323362
:10035E00293A4D4D28302D3539293A535328302D11
:10036E003539290D0A000D0A4572726F723A2057FF
:10037E00726F6E6720666F726D61740D0A00466F44
:10038E00726D61743A2054494D453A48483A4D4D84
:10039E003A53530D0A004578616D706C653A2054DE
:1003AE00494D453A31343A33303A30300D0A004136
:1003BE003A000D0A4175746F20536574204F4B0D32
:1003CE000A0054696D653A20000D0A566F6C756D02
:1003DE00653A20006D6C0D0A000D0A4572726F723F
:1003EE003A20496E76616C696420706172616D733A
:1003FE000D0A0054696D653A20484828302D323375
:10040E00293A4D4D28302D3539293A535328302D60
:10041E003539290D0A00566F6C756D653A203530E9
:10042E002D393939396D6C0D0A00466F726D617454
:10043E003A20413A48483A4D4D3A53533A4D4D4D74
:10044E004D0D0A004578616D706C653A20413A3069
:10045E00363A30303A30313A303130300D0A0053BE
:10046E00544F50000D0A4175746F2053746F7070A5
:10047E0065640D0A000D0A4572726F723A20556E50
:10048E006B6E6F776E20636D640D0A00436F6D6D3A
:10049E00616E64733A0D0A0054494D453A48483A24
:1004AE004D4D3A5353202D205365742074696D655C
:1004BE000D0A00413A48483A4D4D3A53533A4D4D84
:1004CE004D4D202D20536574206175746F0D0A00FB
:1004DE0053544F50202D2053746F70206175746FDC
:0304EE000D0A00F4
:050ECB00015F00C107FA
:1012A90075985053877F53890F438920758BFD7536
:1012B9008DFDD28ED2ACD2AFE4F55FC207FE7F10AE
:1012C900FDFB7A00794F1206767BFF7A0279EE12DE
:1012D900135A7BFF7A0279FF12135A7BFF7A03793B
:0412E9000F02135A83
:0815BF008F993099FDC29922B9
:061354007BFF7A037974AF
:10135A008B348A358936AB34AA35A9361204F16042
:10136A00130536E5367002053514F91204F1FF1239
:05137A0015BF80E22216
:10003E007537FF753803753921753A00753B057BA9
:0E004E00007A00794F120F62EF600302010E7C
:10005C00F52FF530F531FB7A00794F1214EDC3EF23
:10006C00940DEE940050030200F9E55424D075F081
:10007C000AA4FFE55524D02FF52FE55724D075F0B1
:10008C000AA4FFE55824D02FF530E55A24D075F09A
:10009C000AA4FFE55B24D02FF531E52FC39418504B
:1000AC003AE530C3943C5033E531C3943C502CAB0F
:1000BC0031AD30AF2F1210887BFF7A0379271213E2
:1000CC005A75563A75593AE4F55CFB7A0079541234
:1000DC00135A7BFF7A0379340202EA7BFF7A0379A5
:1000EC003712135A7BFF7A03794F0202EA12135428
:0F00FC007BFF7A03798C12135A7BFF7A0379A466
:10010B000202EA7537FF7538037539BD753A00750C
:10011B003B027B007A00794F120F62EF6003020201
:01012B009A39
:10012C00FB7A00794F1214EDC3EF940FEE9400504C
:10013C0003020286E55124D075F00AA4FFE552248F
:10014C00D02FF52FE55424D075F00AA4FFE55524E3
:10015C00D02FF530E55724D075F00AA4FFE55824CC
:10016C00D02FF531E4F532F533AF5AEF3395E0FE8D
:10017C00EF24D0FFEE34FFFE7C037DE812050AEF7E
:10018C002533F533EE3532F532AF5BEF3395E0FEC8
:10019C00EF24D0FFEE34FFFE7C007D6412050AEFE5
:1001AC002533F533EE3532F532AF5CEF3395E0FEA7
:1001BC00EF24D0FFEE34FFFE7D0A12050AEF253343
:1001CC00F533EE3532F532AF5DEF3395E0FEEF24CB
:1001DC00D0FFEE34FFFEEF2533F533EE3532F5323A
:1001EC00E52FC394185079E530C3943C5072E53137
:1001FC00C3943C506BC3E5339432E53294004060B9
:10020C00D3E533940FE53294275055852F6785300D
:10021C006885316985326A85336B756601E4F56FE3
:10022C007BFF7A0379C012135A7BFF7A0379D012C1
:10023C00135A75533A75563AE4F559FB7A007951CD
:10024C0012135A7BFF7A0379D712135AE4F55EFB2B
:10025C007A00795A12135A7BFF7A0379E20202EA86
:10026C007BFF7A0379E712135A7BFF7A0479011228
:10027C00135A7BFF7A04792480641213547BFF7A1F
:0C028C0004793812135A7BFF7A0479526F
:1002980080507537FF75380475396D753A00753BB0
:1002A800047B007A00794F120F62EF700B1214A9C9
:1002B8007BFF7A047972802A7BFF7A047983121390
:1002C8005A7BFF7A04799A12135A7BFF7A0479A62B
:1002D80012135A7BFF7A0479C112135A7BFF7A04EE
:0602E80079DE12135A2218
:1014910030071412003EC207E4F55FFE7F10FDFB2A
:0814A1007A00794F1206762251
:0300230002103197
:10103100C0E0C0D075D000C000C00730983BC29856
:031041002007364F
:1010440085992EAF2E1215BFE52E640A6005E52E94
:10105400B40D12744F255FF87600E55FD394004019
:1010640015D2078011E55FC3940F500AAF5F055F87
:06107400744F2FF8A62EB8
:0E107A00309902C299D007D000D0D0D0E03219
:100ED0000A660006000100640000000001650001D0
:0D0EE0006400C10801700004600000000003
:0815B6007F1EAE071FEE70FA64
:0115BE00220A
:1013F6004390FC1215E6E4F566756706F5687569AF
:1014060001F56A756B64F56CF56DF56EF56FF5654E
:03141600F5642258
:1006A200E4F52F209203432F01209303432F0220CE
:1006B2009403432F04209503432F08209603432FCE
:1006C20010209703432F20E570F4552FF53030E0CA
:1006D200201215B620921AE56660131214A9E4F5E9
:1006E20065AB1BAD1AAF1912126AD2088003120051
:1006F20026E53030E5121215B620970CE564045455
:1007020003F564756501D208E53030E1691215B66A
:10071200209363E56414601D14602D14603D24036E
:10072200704FE5672401FFE433FE7C007D1812055B
:100732001C8D67803CE5682401FFE433FE7C007D6C
:100742003C12051C8D688029E5692401FFE433FE13
:100752007C007D3C12051C8D698016C3E56B94DE1E
:10076200E56A9426500B7432256BF56BE4356AF515
:100772006A756501D208E53030E2611215B620943F
:100782005BE56414601A1460271460342403704714
:10079200E56770047F178004E56714FF8F67803771
:1007A200E56870047F3B8004E56814FF8F6880274A
:1007B200E56970047F3B8004E56914FF8F69801747
:1007C200D3E56B9432E56A9400400C74CE256BF548
:0F07D2006B74FF356AF56A756501D208852F7063
:0107E10022F5
:10002600756601E4F56CF56FF565D208AB1BAD1A84
:05003600AF1902126A7F
:1014A900E4F566F56FE56C600EE4F56C1215EE1265
:0814B90015F1E4FF1200062208
:100B1F00E5667003020BF4E56C7003020BAA121565
:100B2F00AD8F258E248D238C22C3E5259563F52962
:100B3F00E5249562F528E5239561F527E522956073
:100B4F00F526AE6AAF6BE4FCFDAB29AA28A927A84E
:100B5F0026C312063F402BE4F56C756F011215EE9C
:100B6F001215F1E4FF120006AF25AE24AD23AC221F
:100B7F00121217E4F565AB1BAD1AAF1912126AD238
:100B8F000822C3E56B9529F56EE56A9528F56DE5A5
:100B9F006564016050756501D20822E56F7034E518
:100BAF00196567702EE51AB56829E51BB5692475B7
:100BBF006C01856A6D856B6E1215AD8F638E628DBC
:100BCF00618C601215EB1214C17F0112000675655E
:100BDF0001D208E56F600EE519700AE51A7006E597
:050BEF001B7002F56F10
:010BF40022DE
:10090E00E56C603CAE6DAF6E7C007D0A12051C8DF1
:10091E002FAE6DAF6E7C007D0A12051C7C007D0A29
:10092E0012051C8D30AE6DAF6E7C007D6412051C01
:10093E007C007D0A12051C8D31AE6DAF6E020A0170
:10094E00E56414603014605014606F240360030279
:10095E000A19E56775F00A8485F02FE56775F00AC8
:10096E008475F00A8485F030E4F531F532F533758F
:10097E003403020A26E56875F00A8485F02FE568CF
:10098E0075F00A8475F00A8485F030E4F531F5329D
:10099E00F533753402020A26E56975F00A8485F08E
:1009AE002FE56975F00A8475F00A8485F030E4F558
:1009BE0031F532F533753401805EAE6AAF6B7C0073
:1009CE007D0A12051C8D2FAE6AAF6B7C007D0A125C
:1009DE00051C7C007D0A12051C8D30AE6AAF6B7C47
:1009EE00007D6412051C7C007D0A12051C8D31AE43
:1009FE006AAF6B7C037DE812051C7C007D0A120534
:100A0E001C8D32E4F533753405800DE4F534F53381
:100A1E00F532F531F530F52F85323B85333C853493
:0A0A2E003DAB31AD30AF2F0213D203
:0E153D0030080AC208E565B4010312090E2247
:07157000C2A1121577D2A100
:0515770000000000224D
:0515E600D2A0D2A122F9
:0F151200D2A0D2A1121577C2A0121577C2A122C2
:0A159A00C2A0121570D2A00215774E
:1013A900E4FEC2A1121577EF30E703D38001C3929F
:1013B900A0EF25E0FF1215720EBE08E6C2A11215B4
:0813C90077D2A0121572A2A058
:0113D10022F9
:10132700E4FFD2A0FE121570EF25E0FF30A00343C3
:1013370007010EBE08EFC2A1121577300903C3805B
:0C13470001D392A0121572C2A1121577FA
:011353002277
:10145900AC071215127FA01213A9AF041213A9AF7A
:0E146900051213A912159A7F0A7E00021419AB
:02143900AD07FD
:10143B001215127FA01213A9AF051213A9121512C0
:0D144B007FA11213A9C20912132712159ACE
:011458002271
:101217008F2D8E2C8D2B8C2AE4AD07FF121459AF1E
:101227002DAE2CAD2BAC2A7808120650AD077F01E6
:10123700121459AF2DAE2CAD2BAC2A7810120650D4
:10124700AD077F02121459AF2DAE2CAD2BAC2A7807
:0B12570018120650AD077F0302145967
:100DF400E4F532F531F530F52FFF121439E48F3272
:100E0400F531F530F52F7F01121439E4FCFDFE783D
:100E140008120663E5324FF532E5314EF531E5301F
:100E24004DF530E52F4CF52F7F02121439E4FCFD0B
:100E3400FE7810120663E5324FF532E5314EF53196
:100E4400E5304DF530E52F4CF52F7F03121439E4CE
:100E5400FCFDFE7818120663E5324FF532E5314E9B
:100E6400F531E5304DF530E52F4CF52FAF32AE318D
:030E7400AD30FCA2
:010E77002258
:03000000020D6886
:0C0D6800787FE4F6D8FD758173020DAFB2
:1004F100BB010689828A83E0225002E722BBFE0209
:09050100E32289828A83E493223B
:10050A00EF8DF0A4A8F0CF8CF0A428CE8DF0A42E05
:02051A00FE22BF
:10051C00BC000BBE0029EF8DF084FFADF022E4CCC3
:10052C00F875F008EF2FFFEE33FEEC33FCEE9DEC8C
:10053C00984005FCEE9DFE0FD5F0E9E4CEFD22EDD2
:10054C00F8F5F0EE8420D21CFEADF075F008EF2F1C
:10055C00FFED33FD4007985006D5F0F222C398FD0D
:05056C000FD5F0EA22AA
:1005710075F008758200EF2FFFEE33FECD33CDCC41
:1005810033CCC58233C5829BED9AEC99E5829840C4
:100591000CF582EE9BFEED9AFDEC99FC0FD5F0D6A1
:1005A100E4CEFBE4CDFAE4CCF9A88222B800C1B9CB
:1005B1000059BA002DEC8BF084CFCECDFCE5F0CB09
:1005C100F97818EF2FFFEE33FEED33FDEC33FCEB42
:1005D10033FB10D703994004EB99FB0FD8E5E4F9FD
:1005E100FA227818EF2FFFEE33FEED33FDEC33FCEA
:1005F100C933C910D7059BE99A4007EC9BFCE99ADE
:10060100F90FD8E0E4C9FAE4CCFB2275F010EF2F22
:10061100FFEE33FEED33FDCC33CCC833C810D70722
:100621009BEC9AE899400AED9BFDEC9AFCE899F85D
:0E0631000FD5F0DAE4CDFBE4CCFAE4C8F922F0
:10063F00EB9FF5F0EA9E42F0E99D42F0E89C45F011
:01064F002288
:10065000E8600FECC313FCED13FDEE13FEEF13FF88
:03066000D8F122AC
:10066300E8600FEFC333FFEE33FEED33FDEC33FCF5
:03067300D8F12299
:100F62008B348A358936AB37AA38A9391204F1FE97
:100F7200AB34AA35A9361204F1FF6E702BEF600D67
:100F8200E53B153B7002153A14453A70037F002287
:100F920074012536F536E43535F53574012539F514
:100FA20039E43538F53880BEAB34AA35A936120497
:100FB200F1FDD3EE6480F8ED64809840037F012256
:0F0FC200AB37AA38A9391204F1FFC3ED9FFF2204
:1014ED00E4FFFE1204F1600C0FEF70010E09E970BC
:0514FD00F20A80EF225D
:10067600EF4E6012EF60010EEDBB010B89828A839B
:10068600F0A3DFFCDEFA2289F05007F709DFFCA9A8
:0C069600F022BBFEFCF309DFFCA9F022FF
:100D740002117EE493A3F8E493A34003F68001F206
:100D840008DFF48029E493A3F85407240CC8C33380
:100D9400C4540F4420C8834004F456800146F6DF4F
:100DA400E4800B0102040810204080900E78E47E59
:100DB400019360BCA3FF543F30E509541FFEE49344
:100DC400A360010ECF54C025E060A840B8E493A30B
:100DD400FAE493A3F8E493A3C8C582C8CAC583CA36
:100DE400F0A3C8C582C8CAC583CADFE9DEE780BEEE
:010EED000004
:00000001FF
