:101180000D0A5761746572696E67205379737465CF
:101190006D20537461727465642076342E3020287B
:1011A000382D446967697420446973706C617929CA
:1011B0000D0A004175746F20446973706C61793A4F
:1011C0002054696D653C2D3E4461746520657665EB
:1011D00072792035207365636F6E64730D0A004465
:1011E00061746520466F726D61743A20595959597E
:1011F0004D4D44442028382D646967697420667514
:101200006C6C20646973706C6179290D0A005469F3
:101210006D6520466F726D61743A20202048484DFC
:101220004D53532028362D646967697420726967AD
:10123000687420646973706C6179290D0A005033F9
:101240002E33204B65793A204C6F6E6720707265A3
:10125000737320746F2073657420646174652F74D8
:10126000696D650D0A0053657474696E67206F724D
:101270006465723A20596561722D3E4D6F6E7468D7
:101280002D3E4461792D3E486F75722D3E4D696E3D
:081290002D3E5365630D0A00B9
:0C195900016900C103C1044200760000D7
:100C600020B30D20030AD203E4900076F0A3F02213
:100C700020B33A300337900077E004F0700690001C
:100C800076E004F0900076E07004A3E06464600312
:100C9000020DDEE5696003020DDE7569027F011257
:100CA00027127F01122575122718D2042220B303C0
:100CB000020DDE200303020DDEC3900077E0946492
:100CC000900076E094004003020D50E569B40800FE
:100CD0004003020DCF900CDCF8282873020CF402BC
:100CE0000D20020D34020D38020D3C020D40020DA4
:100CF00044020D48900019E0600990001FE0600375
:100D0000020DCF7569011222841227541226D812BF
:100D1000258B7F0112272A1225A1E4F51F020DCF92
:100D2000E4F56912275712275AE4FF12272A121BEB
:100D30008C020DCF7F0180127F02800E7F03800A1C
:100D40007F0480067F0580027F06121819020DCFEE
:100D5000C3900077E09464900076E0940040703097
:100D60000404C2048069E569C394024062E569D362
:100D70009407505B0569E56994074010E4F5691232
:100D800025F6E4FF1225751227188043E56924FD36
:100D9000601414601514601B14602114602724056E
:100DA000702D7F0180067F0280027F031227127F51
:100DB0000180197F04122712E4FF80107F0512279B
:100DC00012E4FF80077F06122712E4FF122575C286
:0F0DD00003E4900076F0A3F07F14FE1224742247
:101DCB00D2AF7580FF121D5D1226FD12000E12267A
:101DDB0068121E361227341210671223387BFF7AD3
:101DEB001179801223717BFF7A1179B31223717BE6
:101DFB00FF7A1179DF1223717BFF7A12790E12238E
:101E0B00717BFF7A12793E1223717BFF7A1279660E
:101E1B00122371120C60120DDF1226841225A112EF
:0B1E2B0025447F0A7E0012247480E82A
:10255D003F065B4F666D7D077F6F39711F1C1F1E18
:08256D001F1E1F1F1E1F1E1F71
:10196500070E07E9010100000048006600000000BD
:1019750000000000010B00010800010901010C0035
:07198500010A0041006100AE
:10247400E4FDFCC3ED9FEC9E5015E4FBFA0BBB009E
:0F248400010AEB64784A70F50DBD00010C80E48D
:012493002226
:0A26B8007F08900066E4F0A3DFFC49
:0126C20022F5
:061FD500AB14AD13AF12C6
:101FDB00AE071226B8EB75F00A84E5F090255D93F9
:101FEB00900066F0EB75F00A8490255D9390006786
:101FFB00F0ED75F00A84E5F090255D93900068F0A4
:10200B00ED75F00A8490255D93900069F0EE75F004
:10201B000A84E5F090255D9390006AF0EE75F00A66
:0F202B008490255D9390006BF0E4A3F0A3F02266
:08149D00AB11AD10AF0FAE0E54
:1014A5008E3D8F3E1226B8EB75F00A84E5F0902547
:1014B5005D93900066F0EB75F00A8490255D93903E
:1014C5000067F0ED75F00A84E5F090255D939000D6
:1014D50068F0ED75F00A8490255D93900069F0AE93
:1014E5003DAF3E7C007D0A1208FF745D2DF58274C8
:1014F500253CF583E49390006AF0AE3DAF3E7C0059
:101505007D0A1208FF7C007D0A1208FF745D2DF527
:101515008274253CF583E49390006BF0AE3DAF3EBD
:101525007C007D641208FF7C007D0A1208FF745D53
:101535002DF58274253CF583E49390006CF0AE3D67
:10154500AF3E7C037DE81208FF7C007D0A1208FF90
:10155500745D2DF58274253CF583E49390006DF060
:011565002263
:1021FE00AE071226B8EE90255D93900066F0ED9036
:10220E00255D93900067F0EB90255D93900068F04C
:10221E00E54090255D93900069F0E54190255D9332
:10222E0090006AF0E54290255D9390006BF0E4A378
:04223E00F0A3F022F7
:10215900AE071226B8EE90255D93900066F0ED90DB
:10216900255D93900067F0EB90255D93900068F0F2
:10217900E55990255D93900069F0E55A90255D93A6
:1021890090006AF0E55B90255D9390006BF0E55C4B
:1021990090255D9390006CF0E55D90255D9390002E
:0321A9006DF022B4
:101F6F00D2A3E509F4FFE4FEEF30E703D38001C30A
:101F7F0092A0C2A1D2A1EF25E0FF0EBE08EA7466BF
:101F8F002508F582E43400F583E0FFE4FEEF30E747
:101F9F0003D38001C392A0C2A1D2A1EF25E0FF0E0F
:101FAF00BE08EAC2A2D2A2C2A3E508045407F508EC
:101FBF00E50925E0FFE509C413131354014FF50993
:051FCF0070037509011B
:011FD40022EA
:062712008F0CE4F50A2221
:1025F600E4F50CE50B7009AB14AD13AF12021FDB4B
:0426060012149D22EB
:10181900EF24FE602914604214604D14605D146069
:101829006D2405707A050FE50F7002050ED3943308
:10183900E50E94084069750E07750FD08061051093
:10184900E510D3940C40037510011224F4E511D36B
:101859009F404C1224F48F1180451224F2E511D3D4
:101869009F403C7511018037E5122401FFE433FEE6
:101879007C007D181208FF8D128024E5132401FFD6
:10188900E433FE7C007D3C1208FF8D138011E514C2
:101899002401FFE433FE7C007D3C1208FF8D14E532
:1018A9000B7009AB14AD13AF12021FDB12149D228A
:101E9F00EFC394185061EDC3943C505BEBC3943C7B
:101EAF0050558F128D138B14900019E06038A3E0FA
:101EBF00FFE5129F5023E512B50709A3E0FFE513D5
:101ECF00D39F501590001AE0B51216A3E0B5131169
:101EDF00A3E0FFE514D39F40089000227401F08027
:101EEF0005E4900022F0122769EF700BE50C7007E4
:081EFF00E50B7003121FD52250
:1020FE008E398F3A8D3B8B3CC3E53A94D0E53994BB
:10210E00074047D3E53A9433E5399408503CE53B14
:10211E00C394014035E53BD3940C502EE53CC3945B
:10212E000140271224FAE53CD39F501E85390E85B7
:10213E003A0F853B10853C11122769EF700CE50CA8
:0B214E007008E50BB4010312149D2281
:0C26AC001220FEAB64AD63AF62021E9F03
:05000600AE0EAF0F2259
:03274200AF1022B3
:03274500AF1122AF
:03274800AF1222AB
:03274B00AF1322A7
:03274E00AF1422A3
:102575008F0BE50C700FEF7009AB14AD13AF1202A2
:062585001FDB12149D2271
:03275100AF0B22A9
:0F261D00E50B70047F0180027F008F0B02257593
:1023E600AB07AA06EB5403700AFC7D641208FFEDE6
:1023F6004C700FAE02AF037C017D901208FFED4CCE
:072406007003D38001C32223
:0824F2000511AD10AF0FAE0E95
:0224FA00A90532
:1024FC00B902081223E650037F1D22E99025689348
:01250C00FFCF
:01250D0022AB
:1021AC000514E514C3943C4048E4F5140513E513F9
:1021BC00943C403DE4F5130512E51294184032E4CA
:1021CC00F5121224F2E511D39F402675110105106A
:1021DC00E510D3940C401A751001050FE50F700231
:1021EC00050ED39433E50E94084006750E07750F53
:0221FC00D022EF
:03003B00020AC2F4
:100AC200C0E0C0F0C083C082C0D075D000C000C0FA
:100AD20001C002C003C004C005C006C00730D91C53
:100AE200C2D9900064E0FEA3E0F5EBEEF5FBE02452
:100AF20099F0900064E03403F0121F6F20D80302D3
:100B02000C45C2D8900062E0FEA3E0F5EAEEF5FAE9
:100B1200E02400F0900062E03424F0050DE50DC3FE
:100B220094645003020BD0750D00B2901213A212FE
:100B320021AC121298E50CD394004059E50A7004D6
:100B42007F0180027F008F0AE50CD39403502312A9
:100B5200149DE50A7003020C45E50C24FE600D1499
:100B6200600D24026003020C45020C08020C120202
:100B72000C18121FD5E50A7003020C45E50C24FB84
:100B8200600D14600D24026003020C45020C320257
:100B92000C12020C18122769EF6003020C45E51FC4
:100BA2007021900061E004F0E0C394054005E4F098
:100BB20012261DE50B7006121FD5020C4512149D5C
:100BC200020C45E51F6401707AD20A020C45E50D5C
:100BD20075F03284E5F0706BE50CD394004064E567
:100BE2000A70047F0180027F008F0AE50CD3940310
:100BF200502A12149DE50A604AE50C24FE60111485
:100C020060142402703D90006AE4F0A3F0A38030E7
:100C1200900068E4802A900066E48024121FD5E5E3
:100C22000A6020E50C24FB600D146010240270138E
:100C320090006AE4800A900068E48004900066E410
:100C4200F0A3F0D007D006D005D004D003D002D054
:0E0C520001D000D0D0D082D083D0F0D0E032DC
:101D5D00E4F5D8F5E9F5F9F5D99000647403F0A32D
:101D6D007499F0900064E0FEA3E0F5EBEEF5FBE076
:101D7D002499F0900064E03403F075DB4990006223
:101D8D007424F0A3E4F0900062E0FEA3E0F5EAEE27
:101D9D00F5FAE02400F0900062E03424F075DA49A1
:101DAD00D2DED2AFE4F50DF50B900061F0E50B70CE
:0E1DBD0009AB14AD13AF12021FDB12149D22EE
:06271800E4900061F022D4
:10243100E50B70047F0180027F008F0BE490006147
:10244100F0E50B7009AB14AD13AF12021FDB1214D0
:022451009D22CA
:0726FD00D291D290D2B2226B
:03275400C291220D
:03275700D29122FA
:0A26CE002091047F0180027F0022AA
:04198C00C106C105CA
:10000E005389F0438901758C4CE4F58AD2A9C290CC
:05001E00C206C28C22A5
:0E26680020060A758C4CE4F58AD28CD206222C
:07270400C28CC290C2062244
:06271E00A206E433FF22D5
:03000B0002267654
:0D267600758C4C758A00B205200502B290EB
:012683003224
:1025B700546F74616C20466C6F773A2000300020AE
:0525C7006D6C0D0A001F
:10199000011D00021A000002180000C100C101016F
:1019A0001C00011700C10244006E00000000011677
:0419B000000115001D
:10106700E4F54CF54DD288D2A8F51AF51BF518F51D
:1010770019122724900072120A59900072E0FCA3FB
:10108700E0FDA3E0FEA3E0FF90006E120A597BFF8C
:101097007A2579B7122371E4FFFEFDFC900072E018
:1010A700F8A3E0F9A3E0FAA3E0FBC3120A22700950
:1010B7007BFF7A2579C402116A900072E0FCA3E0F5
:1010C700FDA3E0FEA3E0F5518E508D4F8C4EE4F565
:1010D7004CE4FFFEFDFCAB51AA50A94FA84ED3121A
:1010E7000A224040E54C940A503AE47B0AFAF9F8A0
:1010F700AF51AE50AD4FAC4E120990EB2430FFAE5E
:101107004C054C74402EF8A607AF51AE50AD4FAC0E
:101117004EE47B0AFAF9F81209908F518E508D4FE1
:101127008C4E80ADE54C700AAF4C054C74402FF8DF
:101137007630E4F54DE54CD39400401BE54D940A19
:101147005015154C7440254CF8E6FFAE4D054D740F
:10115700342EF8A60780DE7434254DF8E4F6FB7AC2
:101167000079341223717BFF7A2579C6122371C265
:0811770000E4F51DF517C202AA
:01117F00224D
:10258B00200012E4F51AF51BD2A8D200F518F519A4
:06259B00D201751C0222B2
:03275A00C2002298
:0A26D800E4F51AF51BF518F51922B8
:10002600900072120A65000000007F007E007D00CD
:050036007C000225CC56
:1013A200E51CD394004005D51C02D2010516E516B2
:1013B200C39401500302147EE4F5162000030214C4
:1013C20065851A18851B19D3E5199400E518940050
:0513D200500302146548
:1013D700900072E0FCA3E0FDA3E0FEA3E0F5258EFC
:1013E700248D238C22900072E0F8A3E0F9A3E0FAA1
:1013F700A3E0FBE4FCFDEB2519FFEA3518FEED3908
:10140700FDEC38FC900072120A59AF25AE24AD23CB
:10141700AC22900072E0F8A3E0F9A3E0FAA3E0FBA6
:10142700C3120A226002D20290006EE0F8A3E0F92C
:10143700A3E0FAA3E0FB900072E0FCA3E0FDA3E0C9
:10144700FEA3E0C39BFFEE9AFEED99FDEC98FCE44A
:0E1457007B32FAF9F8D3120A225003122396C0
:101465000517E517C3940A4009E4F517300203127E
:0C1475002396E4F51AF51BD20130001B91
:101481000515E515C394034012E4F515E51DB401F6
:0B149100047F0280027F018F1DD2014A
:01149C00222D
:10239600900072E0FCA3E0FDA3E0FEA3E0FF12259F
:1023A600CC900072E0FCA3E0FDA3E0FEA3E0FF906A
:0823B600006E120A59C2022256
:1022C5001227248F688E678D668C657F3F7E427DE1
:1022D5000F7C00AB68AA67A966A865D3120A2240DD
:1022E50010E4F568F567F566F565FFFEFDFC12255A
:0922F500CCAF68AE67AD66AC65C4
:0122FE0022BD
:03275D00022396BE
:0F262C0090006EE0FCA3E0FDA3E0FEA3E0FF2220
:03276000A20222B0
:1025A100300112C201E51DB40103021C7AE51DB41C
:0625B10002031215662270
:101C7A00AB19AA1875340A7C277D10AF03AE02127D
:101C8A0008FF7C007D0A1208FF8D357C037DE8AFD2
:101C9A0003AE021208FF7C007D0A1208FF8D367C13
:101CAA00007D64AF03AE021208FF7C007D0A1208B1
:101CBA00FF8D377C007D0AAF03AE021208FF7C005D
:101CCA007D0A1208FF8D38AE02AF037C007D0A122E
:101CDA0008FFAF05853640853541853442AB37ADBF
:041CEA00380221FE9D
:10156600900072E0FCA3E0FDA3E0FEA3E0F53C8E54
:101576003B8D3A8C3975340BE47B107A27F9F8AF3A
:101586003CAE3BAD3AAC39120990E47B0AFAF9F865
:10159600120990AF038F35E47BE87A03F9F8AF3C84
:1015A600AE3BAD3AAC39120990E47B0AFAF9F8126F
:1015B6000990AF038F36E47B64FAF9F8AF3CAE3B93
:1015C600AD3AAC39120990E47B0AFAF9F81209909F
:1015D600AF038F37E47B0AFAF9F8AF3CAE3BAD3A7E
:1015E600AC39120990E47B0AFAF9F8120990AF03B4
:1015F6008F38E47B0AFAF9F8AF3CAE3BAD3AAC392A
:10160600120990AF03853640853541853442AB37A4
:05161600AD380221FEC9
:03276300021C7ADB
:03276600021566F3
:05272A008F1DD2012209
:03276900AF1D227F
:05272F00AE18AF1922F5
:0F263B00900072E0FCA3E0FDA3E0FEA3E0FF220D
:0300030002269240
:0D269200C0E0051BE51B7002051AD0E03208
:10047B000D0A5761746572696E67205379737465E1
:10048B006D2052656164792076322E310D0A00435E
:10049B006F6D6D616E647320417661696C61626C26
:1004AB00653A0D0A0054494D453A48483A4D4D3A84
:1004BB0053530D0A00444154453A595959593A4D31
:1004CB004D3A44440D0A00413A48483A4D4D3A538F
:1004DB00533A4D4D4D4D0D0A004449535054494D1F
:1004EB00452F44495350444154450D0A0053544F32
:1004FB00500D0A000D0A3D3D3D2057617465726930
:10050B006E67205265636F7264203D3D3D0D0A009E
:10051B00547970653A204D616E75616C205761742A
:10052B006572696E670D0A005374617274205469A9
:10053B006D653A203230000D0A00456E6420546917
:10054B006D653A20323000576174657220566F6CBE
:10055B00756D653A2000206D6C0D0A00546F746147
:10056B006C20466C6F773A20004475726174696F2A
:10057B006E3A2000206D696E2000207365630D0AB2
:10058B00003D3D3D3D3D3D3D3D3D3D3D3D3D3D3DCD
:10059B003D3D3D3D3D3D3D3D0D0A00547970653A75
:1005AB00204175746F205761746572696E670D0A0F
:1005BB0000444154453A000D0A446174652053656B
:1005CB00743A20000D0A4572726F723A20496E76AA
:1005DB00616C696420646174650D0A00466F726D0D
:1005EB0061743A205959595928323030302D3230F4
:1005FB003939293A4D4D28312D3132293A44442885
:10060B00312D3331290D0A000D0A4572726F723A82
:10061B002057726F6E6720666F726D61740D0A00E2
:10062B00466F726D61743A20444154453A59595999
:10063B00593A4D4D3A44440D0A004578616D706C42
:10064B00653A20444154453A323032353A30353AE6
:10065B0032370D0A0054494D453A000D0A54696D65
:10066B0065205365743A20000D0A4572726F723A19
:10067B0020496E76616C69642074696D650D0A00A2
:10068B00466F726D61743A20484828302D323329F9
:10069B003A4D4D28302D3539293A535328302D35C5
:1006AB0039290D0A00466F726D61743A2054494D19
:1006BB00453A48483A4D4D3A53530D0A0045786137
:1006CB006D706C653A2054494D453A31343A3330AC
:1006DB003A30300D0A004449535054494D45000DF2
:1006EB000A446973706C6179204D6F64653A2054CC
:1006FB00696D650D0A004449535044415445000D42
:10070B000A446973706C6179204D6F64653A2044BB
:10071B006174650D0A00413A000D0A4175746F2032
:10072B00536574204F4B0D0A0054696D653A2000D8
:10073B000D0A566F6C756D653A20006D6C0D0A00D5
:10074B000D0A4572726F723A20496E76616C69645C
:10075B0020706172616D730D0A0054696D653A20EA
:10076B00484828302D3233293A4D4D28302D353914
:10077B00293A535328302D3539290D0A00566F6C01
:10078B00756D653A2035302D393939396D6C0D0A57
:10079B0000466F726D61743A20413A48483A4D4DAC
:1007AB003A53533A4D4D4D4D0D0A004578616D70DE
:1007BB006C653A20413A30363A30303A30313A3083
:1007CB003130300D0A0053544F50000D0A417574EF
:1007DB006F2053746F707065640D0A000D0A4572BB
:1007EB00726F723A20556E6B6E6F776E20636D640D
:1007FB000D0A00436F6D6D616E64733A0D0A005400
:10080B00494D453A48483A4D4D3A5353202D2053C4
:10081B0065742074696D650D0A00444154453A595D
:10082B005959593A4D4D3A4444202D205365742063
:10083B00646174650D0A00413A48483A4D4D3A538C
:10084B00533A4D4D4D4D202D2053657420617574D9
:10085B006F207761746572696E670D0A00444953A6
:10086B005054494D452F4449535044415445202D34
:10087B0020446973706C6179206D6F64650D0A009B
:10088B0053544F50202D2053746F70206175746F2B
:0C089B00207761746572696E670D0A00B9
:0519B400016A00C109F9
:101E360075985053877F53890F438920758BFD759D
:101E46008DFDD28ED2ACD2AFE4F56AC209FE7F20F8
:101E5600FD7B017A007941120A967BFF7A04797B31
:101E66001223717BFF7A04799A1223717BFF7A041D
:101E760079B01223717BFF7A0479C01223717BFF3C
:101E86007A0479D21223717BFF7A0479E4122371E2
:091E96007BFF7A0479F802237144
:10240D00E4FAF9F8AF40AE3FAD3EAC3D120990E4B1
:0C241D007B0AFAF9F8120990EB2430FF5A
:082429008F993099FDC2992240
:06236B007BFF7A057942B8
:102371008B528A538954AB52AA53A9541208A760AD
:10238100130554E5547002055314F91208A7FF12FE
:05239100242980E22276
:0B161B00E0FCA3E0FDA3E0FEA3E0FF65
:101626008F408E3F8D3E8C3DE4FFFEFDFCAB40AA15
:101636003FA93EA83DC3120A2270057F300216C795
:10164600E47F107E27FDFCAB40AA3FA93EA83DC320
:10165600120A224008E47B107A2712240FE47FE85E
:101666007E03FDFCAB40AA3FA93EA83DC3120A2259
:101676004008E47BE87A0312240FE47F64FEFDFC55
:10168600AB40AA3FA93EA83DC3120A2240057B648F
:1016960012240DE47F0AFEFDFCAB40AA3FA93EA83A
:1016A6003DC3120A2240057B0A12240DE47B0AFA86
:1016B600F9F8AF40AE3FAD3EAC3D120990EB243099
:0516C600FF122429229F
:10209F00E0FEA3E0FF7C007D641208FFAF05122075
:1020AF00E47F2D122429A3E0FF1220E47F2D1224B8
:1020BF0029A3E0FF1220E47F20122429A3E0FF12BE
:1020CF0020E47F3A122429A3E0FF1220E47F3A1282
:0520DF002429A3E0FF2D
:1020E400AE07EE75F00A842430FF122429EE75F051
:0A20F4000A84E5F02430FF022429DD
:1016CB007BFF7A0479FF1223717BFF7A05791B125A
:1016DB0023717BFF7A05793312237190000112205D
:1016EB009F12236B7BFF7A057945122371900008BB
:1016FB0012209F12236B7BFF7A0579521223719074
:10170B00000F12161B7BFF7A0579611223717BFF89
:10171B007A05796712237190001312161B7BFF7ADF
:10172B000579611223717BFF7A057974122371900D
:10173B000017E0FFD394004010E4FCFDFE121626C8
:10174B007BFF7A05797F122371900018E0FFE4FC90
:10175B00FDFE1216267BFF7A0579851223717BFF1E
:07176B007A05798C0223715D
:101772007BFF7A0479FF1223717BFF7A0579A61227
:1017820023717BFF7A05793312237190002812208E
:101792009F12236B7BFF7A05794512237190002FEC
:1017A20012209F12236B7BFF7A05795212237190CC
:1017B200003612161B7BFF7A0579611223717BFFBB
:1017C2007A05796712237190003A12161B7BFF7A11
:1017D2000579611223717BFF7A0579741223719066
:1017E200003EE0FFD394004010E4FCFDFE121626FA
:1017F2007BFF7A05797F12237190003FE0FFE4FCC2
:10180200FDFE1216267BFF7A0579851223717BFF76
:071812007A05798C022371B5
:08203A008B398A3A893B8D3C89
:10204200E4F53DF53EF53FE53FC3953C504AAB39DB
:10205200AA3AA93B853F827583001208C0FFC36478
:102062008094B0402AD3EF648094B95022EF339524
:10207200E0FEEF24D0FBEE34FFFAAE3DAF3E7C0033
:102082007D0A1208EDEF2BF53EEE3AF53D80057E16
:0C209200FF7FFF22053F80AFAE3DAF3E58
:01209E00221F
:10003E00753CFF753D05753EBC753F007540057BF3
:0E004E00017A007941121CEEEF6003020126D8
:10005C007B017A0079411225E1C3EF940FEE9400F5
:10006C00500302010B7B017A0079467D0412203A81
:10007C008E348F357B017A00794B7D0212203A8FBA
:10008C00367B017A00794E7D0212203A8F37C3E518
:10009C003594D0E53494074054D3E5359433E534A6
:1000AC0094085049E536C394014042E536D3940C8C
:1000BC00503BE537C394014034AD36AF35AE341206
:1000CC0024FAE537D39F5025AB37AD36AF35AE3478
:1000DC001220FE7BFF7A0579C212237190004A74BC
:1000EC002DF090004DF0E49000500201CA7BFF7A95
:1000FC000579CF1223717BFF7A0579E70204777BB0
:10010C00FF7A0679131223717BFF7A06792B12235F
:07011C00717BFF7A067945B3
:10012300020477753CFF753D06753E60753F0075AB
:1001330040057B017A007941121CEEEF6003020255
:010143000AB1
:10014400F534F535F5367B017A0079411225E1C3A2
:10015400EF940DEE940050030201EF900046E0246A
:10016400D075F00AA4FFA3E024D02FF53490004901
:10017400E024D075F00AA4FFA3E024D02FF5359035
:10018400004CE024D075F00AA4FFA3E024D02FF59E
:1001940036E534C394185041E535C3943C503AE5F0
:1001A40036C3943C5033AB36AD35AF34121E9F7B0F
:1001B400FF7A067966122371900048743AF0900031
:1001C4004BF0E490004EF07B017A007946122371E3
:1001D4007BFF7A0579420204777BFF7A06797312F2
:1001E40023717BFF7A06798B0204777BFF7A067989
:1001F400131223717BFF7A0679B01223717BFF7A85
:030204000679C8B0
:10020700020477753CFF753D06753EE1753F007545
:1002170040087B017A007941121CEEEF700DFF1246
:1002270025757BFF7A0679EA020477753CFF753DF1
:1002370007753E01753F007540087B017A007941DB
:10024700121CEEEF700E7F011225757BFF7A07797E
:100257000A020477753CFF753D07753E21753F001F
:100267007540027B017A007941121CEEEF600302B0
:0202770004156C
:100279007B017A0079411225E1C3EF940FEE9400D6
:1002890050030203FB900043E024D075F00AA4FF59
:10029900A3E024D02FF534900046E024D075F00A6D
:1002A900A4FFA3E024D02FF535900049E024D075B0
:1002B900F00AA4FFA3E024D02FF536E4F537F5388A
:1002C90090004CE0FF3395E0FEEF24D0FFEE34FFC1
:1002D900FE7C037DE81208EDEF2538F538EE353759
:1002E900F537A3E0FF3395E0FEEF24D0FFEE34FFAE
:1002F900FE7C007D641208EDEF2538F538EE3537C0
:10030900F537A3E0FF3395E0FEEF24D0FFEE34FF8D
:10031900FE7D0A1208EDEF2538F538EE3537F53749
:10032900A3E0FF3395E0FEEF24D0FFEE34FFFEEFAC
:100339002538F538EE3537F537E534C394184003D9
:100349000203E1E535C3943C40030203E1E536C30A
:10035900943C40030203E1C3E5389432E537940045
:100369004076D3E538940FE5379427506B90001AFF
:10037900E534F0A3E535F0A3E536F0A3E537F0A3BE
:10038900E538F09000197401F0E4900022F07BFF49
:100399007A0779241223717BFF7A07793412237142
:1003A900900045743AF0900048F0E490004BF07BDF
:1003B900017A0079431223717BFF7A07793B122373
:1003C90071E4900050F07B017A00794C1223717B23
:1003D900FF7A0779460204777BFF7A07794B122364
:1003E900717BFF7A0779651223717BFF7A07798818
:1003F900807C7BFF7A0679131223717BFF7A077958
:0A0409009C1223717BFF7A0779B67D
:100413008062753CFF753D07753ED1753F007540A1
:10042300047B017A007941121CEEEF700B122494C5
:100433007BFF7A0779D6803C7BFF7A0779E7122323
:10044300717BFF7A0779FE1223717BFF7A08790AA1
:100453001223717BFF7A0879251223717BFF7A08B7
:1004630079421223717BFF7A0879681223717BFF2B
:080473007A08798B1223712233
:1025440030091512003EC209E4F56AFE7F20FD7BC6
:09255400017A007941120A962275
:03002300021F07B2
:101F0700C0E0C083C082C0D075D000C007309848F9
:051F1700C298200943FF
:101F1C00859933AF33122429E533640A6005E53320
:101F2C00B40D187441256AF582E43400F583E4F0AD
:101F3C00E56AD39400401CD2098018E56AC3941F4B
:101F4C005011AF6A056A74412FF582E43400F583B1
:031F5C00E533F07A
:101F5F00309902C299D007D0D0D082D083D0E0324E
:1019B9006027001900060001006400000000000013
:1019C900000000000000000000000000000000000E
:1019D9000000000000000000000000011F00011EBF
:0719E90000C10A41004000AB
:0826EC007F1EAE071FEE70FA1D
:0126F40022C3
:10228400E4900000F0120006900001EEF0A3EFF0DD
:10229400122742900003EFF0122745900004EFF05C
:1022A400122748900005EFF012274B900006EFF03C
:1022B40012274E900007EFF012263B900013020AFB
:0122C40059C0
:102242009000277401F0120006900028EEF0A3EF30
:10225200F012274290002AEFF012274590002BEF50
:10226200F012274890002CEFF012274B90002DEF30
:10227200F012274E90002EEFF012263B9000230220
:022282000A59F7
:101A8400900005E0FF7E007C0E7D101208EDAC0690
:101A9400AD07A3E075F03CA42DFFEC35F0FEA3E008
:101AA4007C002FFFEC3EAB07FA90000CE0FF7E00B9
:101AB4007C0E7D101208EDAC06AD07A3E075F03C7A
:101AC400A42DFFEC35F0FEA3E07C002FFFEC3EFEDE
:101AD400C3EF9BEE9A500874802FFF74513EFEC3EF
:101AE400EF9BFFEE9AAB07FA7C007D3CFE1208FFE9
:101AF400900017EFF0AE02AF037C007D3C1208FFAC
:031B0400A3EDF05E
:011B070022BB
:101B080090002CE0FF7E007C0E7D101208EDAC06E4
:101B1800AD07A3E075F03CA42DFFEC35F0FEA3E083
:101B28007C002FFFEC3EAB07FA900033E0FF7E000D
:101B38007C0E7D101208EDAC06AD07A3E075F03CF5
:101B4800A42DFFEC35F0FEA3E07C002FFFEC3EFE59
:101B5800C3EF9BEE9A500874802FFF74513EFEC36A
:101B6800EF9BFFEE9AAB07FA7C007D3CFE1208FF64
:101B780090003EEFF0AE02AF037C007D3C1208FF00
:031B8800A3EDF0DA
:011B8B002237
:101B8C00120006900008EEF0A3EFF012274290002E
:101B9C000AEFF012274590000BEFF0122748900047
:101BAC000CEFF012274B90000DEFF012274E900027
:101BBC000EEFF012263B8F378E368D358C3490001D
:101BCC0013E0F8A3E0F9A3E0FAA3E0FBC3E5379B2D
:101BDC00FFE5369AFEE53599FDE53498FC90000F4B
:101BEC00120A59AF37AE36AD35AC34900013120A29
:071BFC0059121A840216CBF6
:101C030012000690002FEEF0A3EFF012274290008F
:101C130031EFF0122745900032EFF0122748900081
:101C230033EFF012274B900034EFF012274E900061
:101C330035EFF012263B8F3C8E3B8D3A8C3990006A
:101C430023E0F8A3E0F9A3E0FAA3E0FBC3E53C9BA0
:101C5300FFE53B9AFEE53A99FDE53998FC9000369D
:101C6300120A59AF3CAE3BAD3AAC3990003A120A76
:071C730059121B0802177251
:102338004390FC122734E4900019F0A37406F0E4EB
:10234800A3F0A304F0A3E4F0A37464F0E4A3F0A35F
:10235800F0A3F0A3F0A3120A6500000000E4F51F43
:03236800F51E223D
:100DDF00E4F534209203433401209303433402207B
:100DEF00940343340420950343340820960343347B
:100DFF0010209703433420900040E0F45534F5352C
:100E0F0030E0221226EC20921C900019E0601312A1
:100E1F002494E4F51FAB14AD13AF12121FDBD20AEB
:100E2F00800312250EE53530E5121226EC20970CC3
:100E3F00E51E045403F51E751F01D20AE53530E196
:100E4F006A1226EC209364E51E14601A14602714AE
:100E5F0060392403705090001AE02401FFE433FE40
:100E6F007C007D18801E90001BE02401FFE433FE00
:100E7F007C007D3C800E90001CE02401FFE433FEDB
:100E8F007C007D3C1208FFEDF0801BC390001EE03C
:100E9F0094DE90001DE09426500CA3E02432F090D5
:100EAF00001DE03400F0751F01D20AE53530E27401
:100EBF001226EC20946EE51E14601F14603114602E
:100ECF00432403705A90001AE0FF70047F178003C9
:100EDF00EF14FF90001AEFF0804590001BE0FF70B9
:100EEF00047F3B8003EF14FF90001BEFF0803090E6
:100EFF00001CE0FF70047F3B8003EF14FF90001C89
:100F0F00EFF0801BD390001EE0943290001DE09410
:100F1F0000400CA3E024CEF090001DE034FFF075EC
:0A0F2F001F01D20A900040E534F0E3
:010F39002295
:10250E009000197401F0E490001FF0900022F0F595
:0C251E001FD20AAB14AD13AF12021FDB7A
:10249400E4900019F0900022F090001FE06010E436
:1024A400F012275712275AE4FF12272A121C03227C
:10129800900019E070030213A190001FE070030290
:1012A800134412263B8F258E248D238C22900023F5
:1012B800E0F8A3E0F9A3E0FAA3E0FBC3E5259BF57A
:1012C80029E5249AF528E52399F527E52298F526B6
:1012D80090001DE0FEA3E0FFE4FCFDAB29AA28A9CD
:1012E80027A826C3120A224032E490001FF090007B
:1012F8002204F012275712275AE4FF12272AAF2593
:10130800AE24AD23AC221225CC121C03E4F51FAB8E
:1013180014AD13AF12121FDBD20A22C390001EE0D5
:101328009529FE90001DE09528900020F0A3CEF0AE
:10133800E51F64016063751F01D20A22900022E054
:10134800704490001AE06512703CA3E06513703693
:10135800A3E0B5143190001F7401F090001DE0FF68
:10136800A3E0900020CFF0A3EFF012263B900023DB
:10137800120A5912224212275412258B7F01122772
:101388002A751F01D20A900022E0600DE51270094B
:09139800E5137005E5147001F085
:0113A1002229
:100F3A0090001FE0602CA3E0FAA3E0FB7C007D0A8E
:100F4A00FFAE021208FF8D347C007D0AAF03AE02A9
:100F5A001208FF7C007D0A1208FF8D3590002002DE
:100F6A001017E51E1460321460541460752403606F
:100F7A000302104890001AE0FF75F00A8485F034E5
:100F8A00EF75F00A8475F00A8485F035E4F536F5D4
:100F9A0037F53875390302105590001BE0FF75F0DC
:100FAA000A8485F034EF75F00A8475F00A8485F0B6
:100FBA0035E4F536F537F5387539020210559000E3
:100FCA001CE0FF75F00A8485F034EF75F00A847529
:100FDA00F00A8485F035E4F536F537F538753901C8
:100FEA00806990001DE0FAA3E0FB7C007D0AFFAE59
:100FFA00021208FF8D347C007D0AAF03AE0212088C
:10100A00FF7C007D0A1208FF8D3590001DA3E07C4D
:10101A00007D64FFAE021208FF7C007D0A1208FF01
:10102A008D367C037DE8AF03AE021208FF7C007D9B
:10103A000A1208FF8D37E4F538753905800DE4F595
:10104A0039F538F537F536F535F5348537408538CD
:0D105A0041853942AB36AD35AF340221FE81
:0E268400300A0AC20AE51FB40103120F3A22FF
:0719F000440072000000003A
:0D269F00D2A500D2A600C2A500C2A600224E
:0A26E200C2A500D2A600D2A5002276
:0F264A00A20892A500D2A600C2A600D2A5002227
:10260A00D2A500D2A60030A505C2A600D322C2A632
:03261A0000C322D8
:0B23BE00AF32AE31AD30AC2F120A334D
:1023C900E4FEEF30E703D38001C392A5D2A600C291
:0D23D900A600EF25E0FF0EBE08E802260A70
:10245300E4FFD2A5FED2A600EF25E0FFA2A5E43358
:102463004207C2A6000EBE08ECA207920812264A33
:012473002246
:1024D400AC0712269F7FA01223C9AF041223C9AFF1
:0E24E400051223C91226E27F0A7E000224742C
:0224B400AD0772
:1024B60012269F7FA01223C9AF051223C912269F99
:0D24C6007FA11223C9D2071224531226E26F
:0124D30022E6
:1022FF00AD0712269F7FA01223C9AF051223C9E590
:10230F0032FF1223C978081223BE78101223BEAFF2
:10231F0032AE31AD30AC2F7818120A331223C912F6
:09232F0026E27F147E00022474F2
:0218B900AB077B
:1018BB00E4F555F554F553F55212269F7FA01223EC
:1018CB00C9AF031223C912269F7FA11223C9C207D6
:1018DB00122453E48F55F554F553F552C2071224D5
:1018EB0053E4FCFDFE7808120A46E5554FF555E525
:1018FB00544EF554E5534DF553E5524CF552C20792
:10190B00122453E4FCFDFE7810120A46E5554FF500
:10191B0055E5544EF554E5534DF553E5524CF55200
:10192B00D207122453E4FCFDFE7818120A46E55543
:10193B004FF555E5544EF554E5534DF553E5524CE3
:0D194B00F5521226E2AF55AE54AD53AC522A
:01195800226C
:0F2659007F201224B4EF64556003D38001C322A5
:07270B007D557F200224D45C
:01276F002247
:012770002246
:10252A00900072E0FCA3E0FDA3E0FEA3E0F5328E8A
:0A253A00318D308C2F7F040222FF48
:0B26C3007F041218B9900072020A593F
:05273400D2A5D2A6228F
:052739001223C9C322B8
:0826F500A20B920712245322EC
:03276C000224D470
:04273E001224B4228B
:1025CC008F2D8E2C8D2B8C2A8F328E318D308C2F23
:0525DC00E4FF0222FFF4
:06272400E4FF1218B922C7
:030000000219F8EA
:0C19F800787FE4F6D8FD75816A021A3F82
:1008A700BB010689828A83E0225002E722BBFE024F
:0908B700E32289828A83E4932282
:1008C000BB010CE58229F582E5833AF583E02250ED
:1008D00006E92582F8E622BBFE06E92582F8E22237
:0D08E000E58229F582E5833AF583E4932251
:1008ED00EF8DF0A4A8F0CF8CF0A428CE8DF0A42E1F
:0208FD00FE22D9
:1008FF00BC000BBE0029EF8DF084FFADF022E4CCDD
:10090F00F875F008EF2FFFEE33FEEC33FCEE9DECA5
:10091F00984005FCEE9DFE0FD5F0E9E4CEFD22EDEB
:10092F00F8F5F0EE8420D21CFEADF075F008EF2F35
:10093F00FFED33FD4007985006D5F0F222C398FD26
:05094F000FD5F0EA22C3
:1009540075F008758200EF2FFFEE33FECD33CDCC5A
:1009640033CCC58233C5829BED9AEC99E5829840DD
:100974000CF582EE9BFEED9AFDEC99FC0FD5F0D6BA
:10098400E4CEFBE4CDFAE4CCF9A88222B800C1B9E4
:100994000059BA002DEC8BF084CFCECDFCE5F0CB22
:1009A400F97818EF2FFFEE33FEED33FDEC33FCEB5B
:1009B40033FB10D703994004EB99FB0FD8E5E4F916
:1009C400FA227818EF2FFFEE33FEED33FDEC33FC03
:1009D400C933C910D7059BE99A4007EC9BFCE99AF7
:1009E400F90FD8E0E4C9FAE4CCFB2275F010EF2F3C
:1009F400FFEE33FEED33FDCC33CCC833C810D7073C
:100A04009BEC9AE899400AED9BFDEC9AFCE899F876
:0E0A14000FD5F0DAE4CDFBE4CCFAE4C8F92209
:100A2200EB9FF5F0EA9E42F0E99D42F0E89C45F02A
:010A320022A1
:100A3300E8600FECC313FCED13FDEE13FEEF13FFA1
:030A4300D8F122C5
:100A4600E8600FEFC333FFEE33FEED33FDEC33FC0E
:030A5600D8F122B2
:0C0A5900ECF0A3EDF0A3EEF0A3EFF02210
:100A6500A8828583F0D083D082120A7C120A7C1278
:100A75000A7C120A7CE473E493A3C583C5F0C5839D
:100A8500C8C582C8F0A3C583C5F0C583C8C582C8DB
:010A9500223E
:101CEE008B398A3A893BAB3CAA3DA93E1208A7FE26
:101CFE00AB39AA3AA93B1208A7FF6E702BEF600D05
:101D0E00E54015407002153F14453F70037F0022D9
:101D1E007401253BF53BE4353AF53A7401253EF561
:101D2E003EE4353DF53D80BEAB39AA3AA93B1208DB
:101D3E00A7FDD3EE6480F8ED64809840037F012206
:0F1D4E00AB3CAA3DA93E1208A7FFC3ED9FFF22A1
:1025E100E4FFFE1208A7600C0FEF70010E09E970FD
:0525F100F20A80EF2258
:100A9600EF4E6012EF60010EEDBB010B89828A8377
:100AA600F0A3DFFCDEFA2289F05007F709DFFCA984
:0C0AB600F022BBFEFCF309DFFCA9F022DB
:101A0400021DCBE493A3F8E493A34003F68001F210
:101A140008DFF48029E493A3F85407240CC8C333E3
:101A2400C4540F4420C8834004F456800146F6DFB2
:101A3400E4800B0102040810204080901959E47ED0
:101A4400019360BCA3FF543F30E509541FFEE493A7
:101A5400A360010ECF54C025E060A840B8E493A36E
:101A6400FAE493A3F8E493A3C8C582C8CAC583CA99
:101A7400F0A3C8C582C8CAC583CADFE9DEE780BE51
:0119F70000EF
:00000001FF
