:101025000D0AE6B587E88AB1E7B3BBE7BB9FE5B72D
:10103500B2E590AFE58AA80D0A00E5BD93E5898D77
:10104500E697B6E997B4E8AEBEE7BDAEE58A9FE898
:1010550083BDE58FAFE794A80D0A00E5AE9AE69744
:10106500B6E6B587E6B0B4E58A9FE883BDE5B7B2D5
:0C107500E5889DE5A78BE58C960D0A0030
:0B0E6C00017100C103C104027200000C
:1008C90020B30B200308D203E4F572F5732220B399
:1008D9002C3003290573E5737002057264F4700402
:1008E900E572640160030209AFE57160030209AFB3
:1008F900757102E57114FF12161BD2042220B3038D
:100909000209AF2003030209AFC3E57394F4E5724A
:100919009401504EE57114602A146037146038143C
:10092900603924047073E566706F757101121631B0
:100939001215CD1215137F01120006121529E4F5BF
:10094900658056E4F571121634121637E4FF120069
:100959000680467F0180067F0280027F031211CD47
:100969008037C3E57394F4E5729401402C30040494
:10097900C2048025E571C39402401EE571D3940435
:1009890050170571E57194044008E4F57112159545
:100999008007E57114FF12161BC203E4F572F573A3
:0709A9007F14FE121450221E
:10118000D2AF7580FF12113012160D12000E12151B
:101190005E12138D1212EB1213E07BFF7A10792589
:1011A0001214077BFF7A10793F1214077BFF7A1025
:1011B00079601214071208C91202ED12157A12157D
:0D11C000291214FB7F0A7E0012145080E8F3
:0C15A1003F065B4F666D7D077F6F397160
:100E77000319000000081100000000000000000135
:0B0E87000800010901010D00010A0034
:10145000E4FDFCC3ED9FEC9E5015E4FBFA0BBB00D2
:0F146000010AEB64784A70F50DBD00010C80E4C1
:01146F00225A
:0915B9007F087811E4F608DFFC5C
:0115C2002206
:081264008F0AAB1BAD1AAF1994
:10126C00AE071215B9EB75F00A84E5F09015A19351
:10127C00F511EB75F00A8493F512ED75F00A84E51F
:10128C00F093F513ED75F00A8493F514EE75F00AEE
:0F129C0084E5F093F515EE75F00A8493F51622AC
:10142C00AE071215B9EE9015A193F511ED93F512C7
:10143C00EB93F513E53B93F514E53C93F515E53D7E
:04144C0093F51622DC
:100FC500D2A3E509F4FFE4FEEF30E703D38001C3C4
:100FD50092A0C2A1D2A1EF25E0FF0EBE08EA7411CE
:100FE5002508F8E6FFE4FEEF30E703D38001C3925E
:100FF500A0C2A1D2A1EF25E0FF0EBE08EAC2A2D28F
:10100500A2C2A3E508045407F508E50925E0FFE5B4
:0F10150009C413131354014FF509700375090132
:0110240022A9
:06161B008F0DE4F50A2228
:0C159500E4F50DAB1BAD1AAF1902126C8F
:1011CD00EF24FE601A14602A24027037E5192401F9
:1011DD00FFE433FE7C007D181200B88D198024E5E4
:1011ED001A2401FFE433FE7C007D3C1200B88D1AF9
:1011FD008011E51B2401FFE433FE7C007D3C1200D1
:0C120D00B88D1BAB1BAD1AAF1902126CA0
:10108100EFC394185051EDC3943C504BEBC3943CC7
:1010910050458F198D1A8B1BE566602EE5199567F2
:1010A100501DE519B56707E51AD395685011E51983
:1010B100B56711E51AB5680CE51BD395694005754F
:1010C1006F018003E4F56F1215FC121646EF7007ED
:0810D100E50D70031212662206
:03003B0002044577
:10044500C0E0C0F0C083C082C0D075D000C000C07D
:1004550001C002C003C004C005C006C00730D918DA
:10046500C2D98510EBE50FF5FB74992510F51074CD
:1004750003350FF50F120FC520D803020556C2D854
:10048500850CEAE50BF5FAE4250CF50C7424350B1F
:10049500F50B050EE50EC394644071750E00B29020
:1004A500120B6C051BE51BC3943C4019751B00051D
:1004B5001AE51A943C400E751A000519E5199418A9
:1004C5004003751900120A96E50DD394004024E502
:1004D5000A70047F0180027F00121264E50A6071D0
:1004E500E50D24FE600914600824027064804C80C8
:1004F500528058121646EF7058E56570051212665F
:10050500804FE56564017049D2088045E50E75F0B8
:100515003284E5F0703BE50DD394004034E50A7074
:10052500047F0180027F00121264E50A6023E50D55
:1005350024FE600F146014240270167515007516DC
:1005450000800E7513007514008006751100751274
:1005550000D007D006D005D004D003D002D001D0FA
:0C05650000D0D0D082D083D0F0D0E032A3
:10113000E4F5D8F5E9F5F9F5D9750F03751099853A
:1011400010EBE50FF5FB74992510F5107403350FBE
:10115000F50F75DB49750B24750C00850CEAE50B62
:10116000F5FAE4250CF50C7424350BF50B75DA490A
:10117000D2DED2AFE4F50EAB1BAD1AAF1902126C82
:07160D00D291D290D2B2226B
:03163100C2912241
:03163400D291222E
:0A15C3002091047F0180027F0022C6
:040E9200C106C105CF
:10000E005389F0438901758C4CE4F58AD2A9C290CC
:05001E00C206C28C22A5
:0E155E0020060A758C4CE4F58AD28CD2062247
:07161400C28CC290C2062245
:06162100A206E433FF22E3
:03000B0002156C6F
:0D156C00758C4C758A00B205200502B29006
:01157900323F
:100E9600014A00024300000241000004460000002F
:100EA60000C100C101014500014000C102044B0020
:090EB600000000013F00013E00B4
:10138D00D288D2A8E4F543F544F541F542120D6B30
:10139D008F498E488D478C468F4E8E4D8D4C8C4B84
:0A13AD00C200E4F54AF540C2022236
:10151300200012E4F543F544D2A8D200F541F54288
:06152300D2017545022211
:03163700C20022CC
:0A15CD00E4F543F544F541F5422230
:10153F00E4F549F548F547F546FFFEFDFC021219A3
:100B6C00E545D394004005D54502D201053FE53F4C
:100B7C00C394015003020C14E4F53F30007185431B
:0F0B8C0041854442D3E5429400E5419400406026
:100B9B00854925854824854723854622E4FCFDE5C8
:100BAB00492542F549E5483541F548ED3547F547C7
:100BBB00EC3546F546AF25AE24AD23AC22AB49AAA6
:100BCB0048A947F8C312028A6002D202C3E54995CD
:100BDB004EFFE548954DFEE547954CFDE546954B9B
:100BEB00FCE47B32FAF9F8D312028A50031214AEEA
:100BFB000540E540C3940A4009E4F5403002031276
:0C0C0B0014AEE4F543F544D20130001BA8
:100C1700053EE53EC394034012E4F53EE54AB401C0
:0B0C2700047F0280027F018F4AD2018F
:010C3200229F
:1014AE00AF49AE48AD47AC4612121985494E854834
:0A14BE004D85474C85464BC20222C3
:10132600120D6B8F1F8E1E8D1D8C1C7F3F7E427D86
:101336000F7C00AB1FAA1EA91DA81CD312028A404F
:1013460010E4F51FF51EF51DF51CFFFEFDFC12123F
:0913560019AF1FAE1EAD1DAC1C49
:01135F00226B
:03163A000214AEE9
:0915E100AF4EAE4DAD4CAC4B22F7
:03163D00A20222E4
:10152900300112C201E54AB40103020EE2E54AB4F0
:061539000203120C332234
:100EE200AB42AA41752F0A7C277D10AF03AE0212D6
:100EF20000B87C007D0A1200B88D307C037DE8AF1B
:100F020003AE021200B87C007D0A1200B88D317C5B
:100F1200007D64AF03AE021200B87C007D0A1200AD
:100F2200B88D327C007D0AAF03AE021200B87C009D
:100F32007D0A1200B88D33AE02AF037C007D0A1227
:100F420000B8AF0585313B85303C852F3DAB32ADD6
:040F52003302142C26
:100C3300854937854836854735854634752F0BE416
:100C43007B107A27F9F8AF37AE36AD35AC341201E5
:100C5300F8E47B0AFAF9F81201F8AF038F30E47B6A
:100C6300E87A03F9F8AF37AE36AD35AC341201F894
:100C7300E47B0AFAF9F81201F8AF038F31E47B64DD
:100C8300FAF9F8AF37AE36AD35AC341201F8E47B80
:100C93000AFAF9F81201F8AF038F32E47B0AFAF982
:100CA300F8AF37AE36AD35AC341201F8E47B0AFA4F
:100CB300F9F81201F8AF038F33E47B0AFAF9F8AFBE
:100CC30037AE36AD35AC341201F8AF0385313B8511
:0C0CD300303C852F3DAB32AD3302142CB9
:03164000020EE2B5
:03164300020C3363
:050006008F4AD2012227
:03164600AF4A2286
:05162700AE41AF4222BC
:0915EA00AF49AE48AD47AC462202
:030003000215885B
:0D158800C0E00544E54470020543D0E032A8
:10069B000D0AE6B587E88AB1E7B3BBE7BB9FE590E8
:1006AB00AFE58AA80D0A0054494D453A48483A4DE2
:1006BB004D3A53530D0A0054494D453A000D0AE685
:1006CB0097B6E997B4E8AEBEE7BDAEE68890E58A8B
:1006DB009F3A20000D0A000D0AE99499E8AFAF3A52
:1006EB0020E697A0E69588E79A84E697B6E997B453
:1006FB00E580BC0D0A00E697B6E997B4E6A0BCE529
:10070B00BC8F3A20484828302D3233293A4D4D289A
:10071B00302D3539293A535328302D3539290D0AC7
:10072B00000D0AE99499E8AFAF3A20E697B6E9973E
:10073B00B4E6A0BCE5BC8FE99499E8AFAF0D0A0015
:10074B00E6ADA3E7A1AEE6A0BCE5BC8F3A205449C9
:10075B004D453A48483A4D4D3A53530D0A00E4BEC5
:10076B008BE5A6823A2054494D453A31343A333021
:10077B003A30300D0A000D0AE99499E8AFAF3A20F0
:10078B00E69CAAE79FA5E591BDE4BBA40D0A00E694
:10079B0094AFE68C81E79A84E591BDE4BBA43A2043
:1007AB0054494D453A48483A4D4D3A53530D0A007A
:050EBF00015F00C10706
:1012EB0075985053877F53890F438920758BFD75F4
:1012FB008DFDD28ED2ACD2AFE4F55FC207FE7F106C
:10130B00FDFB7A00794F1202C17BFF7A06799B12A3
:0B131B0014077BFF7A0679B20214076A
:081605008F993099FDC2992272
:101407008B328A338934AB32AA33A93412003E6057
:10141700130534E5347002053314F912003EFF1248
:05142700160580E22221
:1009B0007535FF7536067537C27538007539057B94
:0E09C000007A00794F120F56EF6003020A838F
:1009CE00F52FF530F531FB7A00794F120026C3EF83
:1009DE00940DEE94005003020A69E55424D075F08C
:1009EE000AA4FFE55524D02FF52FE55724D075F036
:1009FE000AA4FFE55824D02FF530E55A24D075F01F
:100A0E000AA4FFE55B24D02FF531E52FC3941850CF
:100A1E0039E530C3943C5032E531C3943C502BAB96
:100A2E0031AD30AF2F1210817BFF7A0679C81214C8
:100A3E000775563A75593AE4F55CFB7A007954120B
:100A4E0014077BFF7A0679DF803A7BFF7A0679E21C
:100A5E001214077BFF7A07790180297BFF7A0779C9
:100A6E002C1214077BFF7A07794B1214077BFF7A3F
:030A7E000779698C
:100A8100800F7BFF7A0779811214077BFF7A077940
:050A91009A1214072277
:1014FB003007141209B0C207E4F55FFE7F10FDFB45
:08150B007A00794F1202C1229F
:030023000210D9EF
:1010D900C0E0C0D075D000C000C00730983BC298AE
:0310E900200736A7
:1010EC0085992EAF2E121605E52E640A6005E52EA5
:1010FC00B40D12744F255FF87600E55FD394004071
:10110C0015D2078011E55FC3940F500AAF5F055FDE
:06111C00744F2FF8A62E0F
:0E112200309902C299D007D000D0D0D0E03270
:100EC4000A660006000100640000000001650001DC
:0D0ED4006400C1080170000460000000000F
:0815F3007F1EAE071FEE70FA27
:0115FB0022CD
:1013E0004390FC12162CE4F566756706F56875697E
:1013F00001F56A756B64F56CF56DF56EF56F12129B
:07140000ABE4F565F5642281
:1002ED00E4F52FC209209203432F01209303432FDE
:1002FD0002209403432F04209503432F08209603D7
:10030D00432F10209703432F20E570F4552FF53020
:10031D0030E0201215F320921AE56660131214C80E
:10032D00E4F565AB1BAD1AAF1912126CD208800340
:10033D001214E2E53030E5121215F320970CE56446
:10034D00045403F564756501D208E53030E171128E
:10035D0015F320936BE56414601F14603114604332
:10036D0024037057E5672401FFE433FE7C007D18FC
:10037D001200B88D67D2098042E5682401FFE4338D
:10038D00FE7C007D3C1200B88D68D209802DE56998
:10039D002401FFE433FE7C007D3C1200B88D69D250
:1003AD00098018C3E56B94DEE56A9426500D74320E
:1003BD00256BF56BE4356AF56AD209756501D208CE
:1003CD00E53030E2691215F3209463E56414601C86
:1003DD0014602B14603A2403704FE56770047F1787
:1003ED008004E56714FF8F67D209803DE5687004CE
:1003FD007F3B8004E56814FF8F68D209802BE56987
:10040D0070047F3B8004E56914FF8F69D209801960
:10041D00D3E56B9432E56A9400400E74CE256BF5EE
:10042D006B74FF356AF56AD209756501D20830091A
:07043D00031215FC852F706E
:010444002295
:1014E200756601E4F56CF56F1215FCE4F565D2083A
:0914F200AB1BAD1AAF1902126C1C
:1014C800E4F566F56FE56C600EE4F56C12163412FF
:0A14D8001637E4FF1200060215FCAF
:100A9600E5667003020B6BE56C7003020B21121501
:100AA600EA8F258E248D238C22C3E5259563F529AF
:100AB600E5249562F528E5239561F527E5229560FD
:100AC600F526AE6AAF6BE4FCFDAB29AA28A927A8D8
:100AD60026C312028A402BE4F56C756F0112163498
:100AE600121637E4FF120006AF25AE24AD23AC2262
:100AF600121219E4F565AB1BAD1AAF1912126CD2BE
:100B06000822C3E56B9529F56EE56A9528F56DE52E
:100B16006564016050756501D20822E56F7034E5A1
:100B2600196567702EE51AB56829E51BB569247540
:100B36006C01856A6D856B6E1215EA8F638E628D08
:100B4600618C601216311215137F0112000675654D
:100B560001D208E56F600EE519700AE51A7006E520
:050B66001B7002F56F99
:010B6B002267
:10057100E56C603CAE6DAF6E7C007D0A1200B88DFB
:100581002FAE6DAF6E7C007D0A1200B87C007D0A33
:100591001200B88D30AE6DAF6E7C007D641200B874
:1005A1007C007D0A1200B88D31AE6DAF6E0206641B
:1005B100E56414603014605014606F24036003021A
:1005C100067CE56775F00A8485F02FE56775F00A0A
:1005D1008475F00A8485F030E4F531F532F5337530
:1005E1003403020689E56875F00A8485F02FE56811
:1005F10075F00A8475F00A8485F030E4F531F5323E
:10060100F533753402020689E56975F00A8485F0CF
:100611002FE56975F00A8475F00A8485F030E4F5F8
:1006210031F532F533753401805EAE6AAF6B7C0013
:100631007D0A1200B88D2FAE6AAF6B7C007D0A1265
:1006410000B87C007D0A1200B88D30AE6AAF6B7CB9
:10065100007D641200B87C007D0A1200B88D31AEB5
:100661006AAF6B7C037DE81200B87C007D0A120042
:10067100B88D32E4F533753405800DE4F534F53386
:10068100F532F531F530F52F85323B85333C853434
:0A0691003DAB31AD30AF2F02142C49
:0E157A0030080AC208E565B4010312057122AB
:0915FC007B007A007966020DEF14
:1012AB007B007A0079661207BBE4F56CF56DF56E81
:1012BB00E566602BE519D39567501DE519B56707F2
:1012CB00E51AD395685011E519B56710E51AB5689D
:1012DB000BE51BD395694004756F0122E4F56F2272
:0715AD00C2A11215B4D2A186
:0515B400000000002210
:05162C00D2A0D2A122B2
:0F154F00D2A0D2A11215B4C2A01215B4C2A1220B
:0A15D700C2A01215ADD2A00215B497
:1013B700E4FEC2A11215B4EF30E703D38001C39254
:1013C700A0EF25E0FF1215AF0EBE08E6C2A1121569
:0813D700B4D2A01215AFA2A0D0
:0113DF0022EB
:10136000E4FFD2A0FE1215ADEF25E0FF30A003434D
:1013700007010EBE08EFC2A11215B4300903C380E5
:0C13800001D392A01215AFC2A11215B447
:01138C00223E
:10149000AC0712154F7FA01213B7AF041213B7AFEA
:0E14A000051213B71215D77F0A7E00021450F2
:02147000AD07C6
:1014720012154F7FA01213B7AF051213B712154FF3
:0D1482007FA11213B7C2091213601215D713
:01148F00223A
:101219008F2D8E2C8D2B8C2AE4AD07FF121490AFE5
:101229002DAE2CAD2BAC2A780812029BAD077F019D
:10123900121490AF2DAE2CAD2BAC2A781012029B54
:10124900AD077F02121490AF2DAE2CAD2BAC2A78CE
:0B1259001812029BAD077F03021490E7
:100D6B00E4F532F531F530F52FFF121470E48F32C4
:100D7B00F531F530F52F7F01121470E4FCFDFE7890
:100D8B00081202AEE5324FF532E5314EF531E53062
:100D9B004DF530E52F4CF52F7F02121470E4FCFD5E
:100DAB00FE78101202AEE5324FF532E5314EF531D9
:100DBB00E5304DF530E52F4CF52F7F03121470E421
:100DCB00FCFDFE78181202AEE5324FF532E5314EDE
:100DDB00F531E5304DF530E52F4CF52FAF32AE3117
:030DEB00AD30FC2C
:010DEE0022E2
:100DEF008B328A33893412003EFD7F10121490AB80
:100DFF0032AA33A934900001120057FD7F1112144B
:100E0F0090AB32AA33A934900002120057FD7F1223
:100E1F00121490AB32AA33A934900003120057FD7D
:100E2F007F13121490AB32AA33A93490000412012D
:100E3F0038FD7F14121490AB32AA33A934900004FA
:100E4F00120138E5F0FD7F15121490AB32AA33A9C9
:0D0E5F0034900009120057FD7F1602149018
:1007BB008B2F8A3089317F10121470AB2FAA30A97E
:1007CB0031EF1200847F11121470AB2FAA30A931B4
:1007DB00900001EF1200967F12121470AB2FAA300B
:1007EB00A931900002EF1200967F13121470AB2FF9
:1007FB00AA30A931900003EF1200967F14121470E7
:10080B00AB2FAA30A931900004E48FF012018FE9CD
:10081B002404F9E43AFAC003C00212010DFBAAF05A
:10082B007F15121470EF4AFFEBD002D003CF8FF07D
:10083B001201707F16121470AB2FAA30A9319000E1
:10084B0009EF120096900006E4120096900007E460
:10085B00F5F012018F900001120057D39417400E40
:10086B00AB2FAA30A9319000017406120096AB2F62
:10087B00AA30A931900002120057D3943B40079045
:10088B000002E4120096900003120057D3943B40F1
:10089B00089000037401120096900004120138FFB7
:1008AB00AEF0C39432EE94004009D3EF940FEE9464
:0E08BB0027400A900004E475F06412018F22B9
:03000000020CDF10
:0C0CDF00787FE4F6D8FD758173020D26C5
:10003E00BB010689828A83E0225002E722BBFE02C0
:09004E00E32289828A83E49322F3
:10005700BB010CE58229F582E5833AF583E022505E
:1000670006E92582F8E622BBFE06E92582F8E222A8
:0D007700E58229F582E5833AF583E49322C2
:10008400BB010689828A83F0225002F722BBFE015B
:02009400F32255
:10009600F8BB010DE58229F582E5833AF583E8F0A0
:1000A600225006E92582C8F622BBFE05E92582C84C
:0200B600F22234
:1000B800BC000BBE0029EF8DF084FFADF022E4CC2C
:1000C800F875F008EF2FFFEE33FEEC33FCEE9DECF5
:1000D800984005FCEE9DFE0FD5F0E9E4CEFD22ED3B
:1000E800F8F5F0EE8420D21CFEADF075F008EF2F85
:1000F800FFED33FD4007985006D5F0F222C398FD76
:050108000FD5F0EA2212
:10010D00BB010A89828A83E0F5F0A3E022500687BD
:10011D00F009E71922BBFE07E3F5F009E31922897F
:0B012D00828A83E493F5F074019322B2
:10013800BB0110E58229F582E5833AF583E0F5F005
:10014800A3E0225009E92582F886F008E622BBFEE2
:100158000AE92582F8E2F5F008E222E5832AF58328
:08016800E993F5F0A3E99322ED
:10017000BB010A89828A83F0E5F0A3F0225006F7DA
:0F01800009A7F01922BBFE06F3E5F009F31922D7
:10018F00F8BB0111E58229F582E5833AF583E8F0A2
:10019F00E5F0A3F0225009E92582C8F608A6F0225F
:0D01AF00BBFE09E92582C8F2E5F008F22246
:1001BC0075F008758200EF2FFFEE33FECD33CDCCFA
:1001CC0033CCC58233C5829BED9AEC99E58298407D
:1001DC000CF582EE9BFEED9AFDEC99FC0FD5F0D65A
:1001EC00E4CEFBE4CDFAE4CCF9A88222B800C1B984
:1001FC000059BA002DEC8BF084CFCECDFCE5F0CBC2
:10020C00F97818EF2FFFEE33FEED33FDEC33FCEBFA
:10021C0033FB10D703994004EB99FB0FD8E5E4F9B5
:10022C00FA227818EF2FFFEE33FEED33FDEC33FCA2
:10023C00C933C910D7059BE99A4007EC9BFCE99A96
:10024C00F90FD8E0E4C9FAE4CCFB2275F010EF2FDB
:10025C00FFEE33FEED33FDCC33CCC833C810D707DB
:10026C009BEC9AE899400AED9BFDEC9AFCE899F816
:0E027C000FD5F0DAE4CDFBE4CCFAE4C8F922A9
:10028A00EB9FF5F0EA9E42F0E99D42F0E89C45F0CA
:01029A002241
:10029B00E8600FECC313FCED13FDEE13FEEF13FF41
:0302AB00D8F12265
:1002AE00E8600FEFC333FFEE33FEED33FDEC33FCAE
:0302BE00D8F12252
:100F56008B328A338934AB35AA36A93712003EFE66
:100F6600AB32AA33A93412003EFF6E702BEF600D30
:100F7600E53915397002153814453870037F00229B
:100F860074012534F534E43533F53374012537F52A
:100F960037E43536F53680BEAB32AA33A9341200B3
:100FA6003EFDD3EE6480F8ED64809840037F012215
:0F0FB600AB35AA36A93712003EFFC3ED9FFF22CD
:10002600E4FFFE12003E600C0FEF70010E09E9704E
:05003600F20A80EF2238
:1002C100EF4E6012EF60010EEDBB010B89828A8354
:1002D100F0A3DFFCDEFA2289F05007F709DFFCA961
:0C02E100F022BBFEFCF309DFFCA9F022B8
:100CEB00021180E493A3F8E493A34003F68001F28E
:100CFB0008DFF48029E493A3F85407240CC8C3330A
:100D0B00C4540F4420C8834004F456800146F6DFD8
:100D1B00E4800B0102040810204080900E6CE47EEE
:100D2B00019360BCA3FF543F30E509541FFEE493CD
:100D3B00A360010ECF54C025E060A840B8E493A394
:100D4B00FAE493A3F8E493A3C8C582C8CAC583CABF
:100D5B00F0A3C8C582C8CAC583CADFE9DEE780BE77
:010EE1000010
:00000001FF
