:1014D4000D0A5761746572696E6720537973746578
:1014E4006D20537461727465642076332E310D0A55
:1014F400004175746F20446973706C61793A2054AB
:10150400696D653C2D3E446174652065766572792C
:101514002035207365636F6E64730D0A0050332E9B
:1015240033204B65793A204C6F6E67207072657377
:101534007320746F2073657420646174652F7469FB
:101544006D650D0A0053657474696E67206F72646B
:1015540065723A20596561722D3E4D6F6E74682D27
:101564003E4461792D3E486F75722D3E4D696E2D56
:071574003E5365630D0A0000
:0C180900016600C103C104420071000030
:100C4A0020B30D20030AD203E4900071F0A3F0222E
:100C5A0020B33A300337900072E004F07006900037
:100C6A0071E004F0900071E07004A3E06464600332
:100C7A00020DC8E5666003020DC87566027F01129F
:100C8A0025A97F0112240C1225CFD2042220B303F6
:100C9A00020DC8200303020DC8C3900072E09464D9
:100CAA00900071E094004003020D3AE566B4080032
:100CBA004003020DB9900CC6F8282873020CDE0214
:100CCA000D0A020D1E020D22020D26020D2A020D28
:100CDA002E020D32900019E0600990001FE06003B7
:100CEA00020DB97566011220DE1225E912256F126E
:100CFA0024227F011225BB122438E4F51F020DB904
:100D0A00E4F5661225EC1225EFE4FF1225BB121A50
:100D1A003B020DB97F0180127F02800E7F03800A99
:100D2A007F0480067F0580027F061216C9020DB96C
:100D3A00C3900072E09464900071E09400407030B7
:100D4A000404C2048069E566C394024062E566D37E
:100D5A009407505B0566E56694074010E4F5661251
:100D6A00248DE4FF12240C1225CF8043E56624FD6E
:100D7A00601414601514601B146021146027240584
:100D8A00702D7F0180067F0280027F031225A97FD2
:100D9A000180197F041225A9E4FF80107F0512251E
:100DAA00A9E4FF80077F061225A9E4FF12240CC2DA
:0F0DBA0003E4900071F0A3F07F14FE1222EB22ED
:101FF100D2AF7580FF121F3A12259412000E1224DF
:10200100FF121C771225C51210511221D17BFF7AC4
:102011001479D412220A7BFF7A1479F512220A7BF1
:10202100FF7A15792112220A7BFF7A15794912224A
:102031000A120C4A120DC912251B1224381223DB75
:092041007F0A7E001222EB80E808
:1023F4003F065B4F666D7D077F6F39711F1C1F1E83
:082404001F1E1F1F1E1F1E1FDB
:10181500071307E90101000000480061000000000E
:1018250000000000010E00010800010901010F0080
:06183500010B00010A0096
:1022EB00E4FDFCC3ED9FEC9E5015E4FBFA0BBB0029
:0F22FB00010AEB64784A70F50DBD00010C80E418
:01230A0022B0
:0A254F007F08900061E4F0A3DFFCB8
:01255900225F
:061E7B00AB19AD18AF1712
:101E8100AE0712254FEB75F00A84E5F09023F49329
:101E9100900061F0EB75F00A849023F49390006256
:101EA100F0ED75F00A84E5F09023F493900063F06F
:101EB100ED75F00A849023F493900064F0EE75F0D0
:101EC1000A84E5F09023F493900065F0EE75F00A32
:0A1ED100849023F493900066F02241
:081C0C00AB16AD15AF14AE13C9
:021C1400AA051F
:101C16007C007D641208FFAE0512254FEB75F00AB5
:101C260084E5F09023F493900061F0EB75F00A845C
:101C36009023F493900062F0EA75F00A84E5F09040
:101C460023F493900063F0EA75F00A849023F493EA
:101C5600900064F0EE75F00A84E5F09023F493901A
:101C66000065F0EE75F00A849023F493900066F018
:011C7600224B
:10211F00AE0712254FEE9023F493900061F0ED90EF
:10212F0023F493900062F0EB9023F493900063F00C
:10213F00E5409023F493900064F0E5419023F493ED
:0F214F00900065F0E5429023F493900066F02233
:101DB000D2A3E509F4FFE4FEEF30E703D38001C3CB
:101DC00092A0C2A1D2A1EF25E0FF0EBE08EA746185
:101DD0002508F582E43400F583E0FFE4FEEF30E708
:101DE00003D38001C392A0C2A1D2A1EF25E0FF0ED0
:101DF000BE08EAC2A2D2A2C2A3E508045407F508AD
:101E0000E50925E0FFE509C413131354014FF50953
:051E10007003750901DB
:011E150022AA
:0625A9008F0FE4F50B2288
:10248D00E4F50FE50E7009AB19AD18AF17021E81FB
:04249D00121C0C22DF
:1016C900EF24FE602914604214604D14605D1460BB
:1016D9006D2405707A0514E51470020513D394334B
:1016E900E513940840697513077514D080610515D1
:1016F900E515D3940C400375150112238BE516D318
:101709009F404C12238B8F168045122389E516D3EF
:101719009F403C7516018037E5172401FFE433FE2D
:101729007C007D181208FF8D178024E5182401FF1D
:10173900E433FE7C007D3C1208FF8D188011E51909
:101749002401FFE433FE7C007D3C1208FF8D19E57E
:101759000E7009AB19AD18AF17021E81121C0C22AD
:101CE000EFC394185061EDC3943C505BEBC3943C3C
:101CF00050558F178D188B19900019E06038A3E0AC
:101D0000FFE5179F5023E517B50709A3E0FFE51886
:101D1000D39F501590001AE0B51716A3E0B518111F
:101D2000A3E0FFE519D39F40089000227401F080E2
:101D300005E4900022F01225FEEF700BE50F70070E
:081D4000E50E7003121E7B2268
:101F96008E398F3A8D3B8B3CC3E53A94D0E5399424
:101FA600074047D3E53A9433E5399408503CE53B7E
:101FB600C394014035E53BD3940C502EE53CC394C5
:101FC600014027122391E53CD39F501E8539138586
:101FD6003A14853B15853C161225FEEF700CE50F6D
:0B1FE6007008E50EB40103121C0C2271
:0C254300121F96AB65AD64AF63021CE094
:05000600AE13AF14224F
:0325D700AF15221B
:0325DA00AF162217
:0325DD00AF172213
:0325E000AF18220F
:0325E300AF19220B
:10240C008F0EE50F700FEF7009AB19AD18AF1702F7
:06241C001E81121C0C22BF
:0325E600AF0E2213
:0F24B400E50E70047F0180027F008F0E02240C62
:10227F00AB07AA06EB5403700AFC7D641208FFED4E
:10228F004C700FAE02AF037C017D901208FFED4C36
:07229F007003D38001C3228C
:082389000516AD15AF14AE13EB
:02239100A9059C
:10239300B9020812227F50037F1D22E99023FF9385
:0123A300FF3A
:0123A4002216
:10204A000519E519C3943C4048E4F5190518E51843
:10205A00943C403DE4F5180517E51794184032E41E
:10206A00F517122389E516D39F4026751601051523
:10207A00E515D3940C401A7515010514E514700280
:10208A000513D39433E513940840067513077514A2
:02209A00D02252
:03003B00020AC2F4
:100AC200C0E0C0F0C083C082C0D075D000C000C0FA
:100AD20001C002C003C004C005C006C00730D91857
:100AE200C2D98512EBE511F5FB74992512F5127442
:100AF200033511F511121DB020D803020C2FC2D8F4
:100B0200850DEAE50CF5FAE4250DF50D7424350C96
:100B1200F50C0510E510C394645003020BCC75105C
:100B220000B29012127412204A12116AE50FD39485
:100B3200004059E50B70047F0180027F008F0BE5B6
:100B42000FD394035023121C0CE50B7003020C2FDD
:100B5200E50F24FE600D14600D24026003020C2FC9
:100B6200020C1E020C23020C28121E7BE50B7003E2
:100B7200020C2FE50F24FB600D14600D24026003AC
:100B8200020C2F020C1E020C23020C281225FEEF6F
:100B92006003020C2FE51F7027050AE50AC39405BE
:100BA200400F750A00E50E70047F0180027F008FFE
:100BB2000EE50E7006121E7B020C2F121C0C806DAD
:100BC200E51F64017067D20A8063E51075F0328414
:100BD200E5F07059E50FD394004052E50B70047FA5
:100BE2000180027F008F0BE50FD39403501A121C71
:100BF2000CE50B6038E50F24FE600914600824023E
:100C0200702B8018801B801E121E7BE50B601EE578
:100C12000F24FB600C14600E24027011900065809A
:100C2200089000638003900061E4F0A3F0D007D045
:100C320006D005D004D003D002D001D000D0D0D04D
:080C420082D083D0F0D0E03233
:101F3A00E4F5D8F5E9F5F9F5D9751103751299851E
:101F4A0012EBE511F5FB74992512F512740335119C
:101F5A00F51175DB49750C24750D00850DEAE50C44
:101F6A00F5FAE4250DF50D7424350CF50C75DA49EE
:101F7A00D2DED2AFE4F510F50EF50AE50E7009AB24
:0C1F8A0019AD18AF17021E81121C0C22AA
:0425CF00E4F50A2203
:10230B00E50E70047F0180027F008F0EE4F50AE575
:10231B000E7009AB19AD18AF17021E81121C0C22DF
:07259400D291D290D2B222D5
:0325E900C291227A
:0325EC00D2912267
:0A2565002091047F0180027F002214
:04183B00C106C1051C
:10000E005389F0438901758C4CE4F58AD2A9C290CC
:05001E00C206C28C22A5
:0E24FF0020060A758C4CE4F58AD28CD2062297
:07259B00C28CC290C20622AF
:0625AF00A206E433FF2246
:03000B0002250DBE
:0D250D00758C4C758A00B205200502B29055
:01251A00328E
:10244E00546F74616C20466C6F773A200030002018
:05245E006D6C0D0A0089
:10183F00015E00025B000002590000C100C10101FE
:10184F005D00015800C1024400690000000001570B
:04185F00000156002E
:10105100E4F54CF54DD288D2A8F55BF55CF559F570
:101061005A1225B590006D120A5990006DE0FCA34B
:10107100E0FDA3E0FEA3E0FF900069120A597BFFA7
:101081007A24794E12220AE4FFFEFDFC90006DE005
:10109100F8A3E0F9A3E0FAA3E0FBC3120A22700966
:1010A1007BFF7A24795B02115490006DE0FCA3E090
:1010B100FDA3E0FEA3E0F5518E508D4F8C4EE4F57B
:1010C1004CE4FFFEFDFCAB51AA50A94FA84ED31230
:1010D1000A224040E54C940A503AE47B0AFAF9F8B6
:1010E100AF51AE50AD4FAC4E120990EB2430FFAE74
:1010F1004C054C74402EF8A607AF51AE50AD4FAC25
:101101004EE47B0AFAF9F81209908F518E508D4FF7
:101111008C4E80ADE54C700AAF4C054C74402FF8F5
:101121007630E4F54DE54CD39400401BE54D940A2F
:101131005015154C7440254CF8E6FFAE4D054D7425
:10114100342EF8A60780DE7434254DF8E4F6FB7AD8
:1011510000793412220A7BFF7A24795D12220AC2B5
:0811610000E4F55EF558C2023E
:011169002263
:10242200200012E4F55BF55CD2A8D200F559F55A0A
:06243200D201755D0222DB
:0325EF00C2002205
:0A256F00E4F55BF55CF559F55A221E
:1000260090006D120A65000000007F007E007D00D2
:050036007C00022463C0
:10127400E55DD394004005D55D02D2010557E557DD
:10128400C394015003021350E4F5572000030213E2
:1012940037855B59855C5AD3E55A9400E559940027
:0512A4005003021337A6
:1012A90090006DE0FCA3E0FDA3E0FEA3E0F5258E30
:1012B900248D238C2290006DE0F8A3E0F9A3E0FAD5
:1012C900A3E0FBE4FCFDEB255AFFEA3559FEED39B5
:1012D900FDEC38FC90006D120A59AF25AE24AD2300
:1012E900AC2290006DE0F8A3E0F9A3E0FAA3E0FBDB
:1012F900C3120A226002D202900069E0F8A3E0F961
:10130900A3E0FAA3E0FB90006DE0FCA3E0FDA3E0FD
:10131900FEA3E0C39BFFEE9AFEED99FDEC98FCE479
:0E1329007B32FAF9F8D3120A22500312222F57
:101337000558E558C3940A4009E4F55830020312EA
:0C134700222FE4F55BF55CD20130001BA6
:101353000556E556C394034012E4F556E55EB40121
:0B136300047F0280027F018F5ED20138
:01136E00225C
:10222F0090006DE0FCA3E0FDA3E0FEA3E0FF12240D
:10223F006390006DE0FCA3E0FDA3E0FEA3E0FF9040
:08224F000069120A59C20222C3
:10215E001225B58F1D8E1C8D1B8C1A7F3F7E427DE6
:10216E000F7C00AB1DAA1CA91BA81AD3120A224071
:10217E0010E4F51DF51CF51BF51AFFFEFDFC1224EF
:09218E0063AF1DAE1CAD1BAC1AC1
:012197002225
:0325F20002222F93
:0F24C300900069E0FCA3E0FDA3E0FEA3E0FF2290
:0325F500A202221D
:10243800300112C201E55EB40103021B29E55EB456
:06244800020312136F22D3
:101B2900AB5AAA5975340A7C277D10AF03AE02124D
:101B390008FF7C007D0A1208FF8D357C037DE8AF24
:101B490003AE021208FF7C007D0A1208FF8D367C65
:101B5900007D64AF03AE021208FF7C007D0A120803
:101B6900FF8D377C007D0AAF03AE021208FF7C00AF
:101B79007D0A1208FF8D38AE02AF037C007D0A1280
:101B890008FFAF05853640853541853442AB37AD11
:041B99003802211FCE
:10136F0090006DE0FCA3E0FDA3E0FEA3E0F53C8E52
:10137F003B8D3A8C3975340BE47B107A27F9F8AF33
:10138F003CAE3BAD3AAC39120990E47B0AFAF9F85E
:10139F00120990AF038F35E47BE87A03F9F8AF3C7D
:1013AF00AE3BAD3AAC39120990E47B0AFAF9F81268
:1013BF000990AF038F36E47B64FAF9F8AF3CAE3B8C
:1013CF00AD3AAC39120990E47B0AFAF9F812099098
:1013DF00AF038F37E47B0AFAF9F8AF3CAE3BAD3A77
:1013EF00AC39120990E47B0AFAF9F8120990AF03AD
:1013FF008F38E47B0AFAF9F8AF3CAE3BAD3AAC3923
:10140F00120990AF03853640853541853442AB379D
:05141F00AD3802211FA1
:0325F800021B299A
:0325FB0002136F59
:0525BB008F5ED2012239
:0325FE00AF5E22AB
:0525C000AE59AF5A22E4
:0F24D20090006DE0FCA3E0FDA3E0FEA3E0FF227D
:03000300022529AA
:0D252900C0E0055CE55C7002055BD0E032AF
:10047B000D0A5761746572696E67205379737465E1
:10048B006D2052656164792076322E310D0A00435E
:10049B006F6D6D616E647320417661696C61626C26
:1004AB00653A0D0A0054494D453A48483A4D4D3A84
:1004BB0053530D0A00444154453A595959593A4D31
:1004CB004D3A44440D0A00413A48483A4D4D3A538F
:1004DB00533A4D4D4D4D0D0A004449535054494D1F
:1004EB00452F44495350444154450D0A0053544F32
:1004FB00500D0A000D0A3D3D3D2057617465726930
:10050B006E67205265636F7264203D3D3D0D0A009E
:10051B00547970653A204D616E75616C205761742A
:10052B006572696E670D0A005374617274205469A9
:10053B006D653A203230000D0A00456E6420546917
:10054B006D653A20323000576174657220566F6CBE
:10055B00756D653A2000206D6C0D0A00546F746147
:10056B006C20466C6F773A20004475726174696F2A
:10057B006E3A2000206D696E2000207365630D0AB2
:10058B00003D3D3D3D3D3D3D3D3D3D3D3D3D3D3DCD
:10059B003D3D3D3D3D3D3D3D0D0A00547970653A75
:1005AB00204175746F205761746572696E670D0A0F
:1005BB0000444154453A000D0A446174652053656B
:1005CB00743A20000D0A4572726F723A20496E76AA
:1005DB00616C696420646174650D0A00466F726D0D
:1005EB0061743A205959595928323030302D3230F4
:1005FB003939293A4D4D28312D3132293A44442885
:10060B00312D3331290D0A000D0A4572726F723A82
:10061B002057726F6E6720666F726D61740D0A00E2
:10062B00466F726D61743A20444154453A59595999
:10063B00593A4D4D3A44440D0A004578616D706C42
:10064B00653A20444154453A323032353A30353AE6
:10065B0032370D0A0054494D453A000D0A54696D65
:10066B0065205365743A20000D0A4572726F723A19
:10067B0020496E76616C69642074696D650D0A00A2
:10068B00466F726D61743A20484828302D323329F9
:10069B003A4D4D28302D3539293A535328302D35C5
:1006AB0039290D0A00466F726D61743A2054494D19
:1006BB00453A48483A4D4D3A53530D0A0045786137
:1006CB006D706C653A2054494D453A31343A3330AC
:1006DB003A30300D0A004449535054494D45000DF2
:1006EB000A446973706C6179204D6F64653A2054CC
:1006FB00696D650D0A004449535044415445000D42
:10070B000A446973706C6179204D6F64653A2044BB
:10071B006174650D0A00413A000D0A4175746F2032
:10072B00536574204F4B0D0A0054696D653A2000D8
:10073B000D0A566F6C756D653A20006D6C0D0A00D5
:10074B000D0A4572726F723A20496E76616C69645C
:10075B0020706172616D730D0A0054696D653A20EA
:10076B00484828302D3233293A4D4D28302D353914
:10077B00293A535328302D3539290D0A00566F6C01
:10078B00756D653A2035302D393939396D6C0D0A57
:10079B0000466F726D61743A20413A48483A4D4DAC
:1007AB003A53533A4D4D4D4D0D0A004578616D70DE
:1007BB006C653A20413A30363A30303A30313A3083
:1007CB003130300D0A0053544F50000D0A417574EF
:1007DB006F2053746F707065640D0A000D0A4572BB
:1007EB00726F723A20556E6B6E6F776E20636D640D
:1007FB000D0A00436F6D6D616E64733A0D0A005400
:10080B00494D453A48483A4D4D3A5353202D2053C4
:10081B0065742074696D650D0A00444154453A595D
:10082B005959593A4D4D3A4444202D205365742063
:10083B00646174650D0A00413A48483A4D4D3A538C
:10084B00533A4D4D4D4D202D2053657420617574D9
:10085B006F207761746572696E670D0A00444953A6
:10086B005054494D452F4449535044415445202D34
:10087B0020446973706C6179206D6F64650D0A009B
:10088B0053544F50202D2053746F70206175746F2B
:0C089B00207761746572696E670D0A00B9
:05186300016700C1094E
:101C770075985053877F53890F438920758BFD755E
:101C87008DFDD28ED2ACD2AFE4F567C209FE7F20BC
:101C9700FD7B017A007941120A967BFF7A04797BF2
:101CA70012220A7BFF7A04799A12220A7BFF7A04AE
:101CB70079B012220A7BFF7A0479C012220A7BFFCD
:101CC7007A0479D212220A7BFF7A0479E412220A73
:091CD7007BFF7A0479F802220A6D
:1022A600E4FAF9F8AF40AE3FAD3EAC3D120990E41A
:0C22B6007B0AFAF9F8120990EB2430FFC3
:0822C2008F993099FDC29922A9
:062204007BFF7A05794220
:10220A008B528A538954AB52AA53A9541208A76015
:10221A00130554E5547002055314F91208A7FF1266
:05222A0022C280E22247
:0B142400E0FCA3E0FDA3E0FEA3E0FF5E
:10142F008F408E3F8D3E8C3DE4FFFEFDFCAB40AA0E
:10143F003FA93EA83DC3120A2270057F300214D087
:10144F00E47F107E27FDFCAB40AA3FA93EA83DC319
:10145F00120A224008E47B107A271222A8E47FE8C0
:10146F007E03FDFCAB40AA3FA93EA83DC3120A2252
:10147F004008E47BE87A031222A8E47F64FEFDFCB7
:10148F00AB40AA3FA93EA83DC3120A2240057B6488
:10149F001222A6E47F0AFEFDFCAB40AA3FA93EA89C
:1014AF003DC3120A2240057B0A1222A6E47B0AFAE8
:1014BF00F9F8AF40AE3FAD3EAC3D120990EB243092
:0514CF00FF1222C22201
:101EDB00E0FEA3E0FF7C007D641208FFAF05121F3C
:101EEB00207F2D1222C2A3E0FF121F207F2D122272
:101EFB00C2A3E0FF121F207F201222C2A3E0FF1219
:101F0B001F207F3A1222C2A3E0FF121F207F3A123A
:051F1B0022C2A3E0FF5B
:101F2000AE07EE75F00A842430FF1222C2EE75F07F
:0A1F30000A84E5F02430FF0222C20B
:10157B007BFF7A0479FF12220A7BFF7A05791B1213
:10158B00220A7BFF7A05793312220A900001121E80
:10159B00DB1222047BFF7A05794512220A900008A0
:1015AB00121EDB1222047BFF7A05795212220A905B
:1015BB00000F1214247BFF7A05796112220A7BFF3C
:1015CB007A05796712220A9000131214247BFF7A92
:1015DB0005796112220A7BFF7A05797412220A902F
:1015EB000017E0FFD394004010E4FCFDFE12142F13
:1015FB007BFF7A05797F12220A900018E0FFE4FC4A
:10160B00FDFE12142F7BFF7A05798512220A7BFFD0
:07161B007A05798C02220A16
:101622007BFF7A0479FF12220A7BFF7A0579A612E0
:10163200220A7BFF7A05793312220A900028121EB1
:10164200DB1222047BFF7A05794512220A90002FD1
:10165200121EDB1222047BFF7A05795212220A90B3
:1016620000361214247BFF7A05796112220A7BFF6D
:101672007A05796712220A90003A1214247BFF7AC3
:1016820005796112220A7BFF7A05797412220A9087
:10169200003EE0FFD394004010E4FCFDFE12142F44
:1016A2007BFF7A05797F12220A90003FE0FFE4FC7B
:1016B200FDFE12142F7BFF7A05798512220A7BFF29
:0716C2007A05798C02220A6F
:081E16008B398A3A893B8D3CAF
:101E1E00E4F53DF53EF53FE53FC3953C504AAB3901
:101E2E00AA3AA93B853F827583001208C0FFC3649E
:101E3E008094B0402AD3EF648094B95022EF33954A
:101E4E00E0FEEF24D0FBEE34FFFAAE3DAF3E7C0059
:101E5E007D0A1208EDEF2BF53EEE3AF53D80057E3C
:0C1E6E00FF7FFF22053F80AFAE3DAF3E7E
:011E7A002245
:10003E00753CFF753D05753EBC753F007540057BF3
:0E004E00017A007941121B9DEF60030201262A
:10005C007B017A007941122478C3EF940FEE94005F
:10006C00500302010B7B017A0079467D04121E16A7
:10007C008E348F357B017A00794B7D02121E168FE0
:10008C00367B017A00794E7D02121E168F37C3E53E
:10009C003594D0E53494074054D3E5359433E534A6
:1000AC0094085049E536C394014042E536D3940C8C
:1000BC00503BE537C394014034AD36AF35AE341206
:1000CC002391E537D39F5025AB37AD36AF35AE34E2
:1000DC00121F967BFF7A0579C212220A90004A748D
:1000EC002DF090004DF0E49000500201CA7BFF7A95
:1000FC000579CF12220A7BFF7A0579E70204777B18
:10010C00FF7A06791312220A7BFF7A06792B1222C8
:07011C000A7BFF7A0679451A
:10012300020477753CFF753D06753E60753F0075AB
:1001330040057B017A007941121B9DEF60030202A7
:010143000AB1
:10014400F534F535F5367B017A007941122478C30C
:10015400EF940DEE940050030201EF900046E0246A
:10016400D075F00AA4FFA3E024D02FF53490004901
:10017400E024D075F00AA4FFA3E024D02FF5359035
:10018400004CE024D075F00AA4FFA3E024D02FF59E
:1001940036E534C394185041E535C3943C503AE5F0
:1001A40036C3943C5033AB36AD35AF34121CE07BD0
:1001B400FF7A06796612220A900048743AF0900099
:1001C4004BF0E490004EF07B017A00794612220A4B
:1001D4007BFF7A0579420204777BFF7A06797312F2
:1001E400220A7BFF7A06798B0204777BFF7A0679F1
:1001F4001312220A7BFF7A0679B012220A7BFF7A55
:030204000679C8B0
:10020700020477753CFF753D06753EE1753F007545
:1002170040087B017A007941121B9DEF700DFF1298
:10022700240C7BFF7A0679EA020477753CFF753D5B
:1002370007753E01753F007540087B017A007941DB
:10024700121B9DEF700E7F0112240C7BFF7A07793A
:100257000A020477753CFF753D07753E21753F001F
:100267007540027B017A007941121B9DEF60030202
:0202770004156C
:100279007B017A007941122478C3EF940FEE940040
:1002890050030203FB900043E024D075F00AA4FF59
:10029900A3E024D02FF534900046E024D075F00A6D
:1002A900A4FFA3E024D02FF535900049E024D075B0
:1002B900F00AA4FFA3E024D02FF536E4F537F5388A
:1002C90090004CE0FF3395E0FEEF24D0FFEE34FFC1
:1002D900FE7C037DE81208EDEF2538F538EE353759
:1002E900F537A3E0FF3395E0FEEF24D0FFEE34FFAE
:1002F900FE7C007D641208EDEF2538F538EE3537C0
:10030900F537A3E0FF3395E0FEEF24D0FFEE34FF8D
:10031900FE7D0A1208EDEF2538F538EE3537F53749
:10032900A3E0FF3395E0FEEF24D0FFEE34FFFEEFAC
:100339002538F538EE3537F537E534C394184003D9
:100349000203E1E535C3943C40030203E1E536C30A
:10035900943C40030203E1C3E5389432E537940045
:100369004076D3E538940FE5379427506B90001AFF
:10037900E534F0A3E535F0A3E536F0A3E537F0A3BE
:10038900E538F09000197401F0E4900022F07BFF49
:100399007A07792412220A7BFF7A07793412220A12
:1003A900900045743AF0900048F0E490004BF07BDF
:1003B900017A00794312220A7BFF7A07793B1222DC
:1003C9000AE4900050F07B017A00794C12220A7BF2
:1003D900FF7A0779460204777BFF7A07794B122265
:1003E9000A7BFF7A07796512220A7BFF7A077988E7
:1003F900807C7BFF7A06791312220A7BFF7A0779C0
:0A0409009C12220A7BFF7A0779B6E5
:100413008062753CFF753D07753ED1753F007540A1
:10042300047B017A007941121B9DEF700B12232B81
:100433007BFF7A0779D6803C7BFF7A0779E7122224
:100443000A7BFF7A0779FE12220A7BFF7A08790A70
:1004530012220A7BFF7A08792512220A7BFF7A0887
:10046300794212220A7BFF7A08796812220A7BFFFB
:080473007A08798B12220A229B
:1023DB0030091512003EC209E4F567FE7F20FD7B34
:0923EB00017A007941120A9622E0
:03002300021D4873
:101D4800C0E0C083C082C0D075D000C007309848BA
:051D5800C298200943C0
:101D5D00859933AF331222C2E533640A6005E5334A
:101D6D00B40D1874412567F582E43400F583E4F071
:101D7D00E567D39400401CD2098018E567C3941F12
:101D8D005011AF67056774412FF582E43400F58378
:031D9D00E533F03B
:101DA000309902C299D007D0D0D082D083D0E0320F
:101868006027001900060001006400000000000065
:101878000000000000000000000000000000000060
:101888000000000000000000000000011F00011E11
:0718980000C10A41004000FD
:082583007F1EAE071FEE70FA87
:01258B00222D
:1020DE00E4900000F0120006900001EEF0A3EFF085
:1020EE001225D7900003EFF01225DA900004EFF0DE
:1020FE001225DD900005EFF01225E0900006EFF0BE
:10210E001225E3900007EFF01224D2900013020A7A
:01211E005967
:10209C009000277401F0120006900028EEF0A3EFD8
:1020AC00F01225D790002AEFF01225DA90002BEFD2
:1020BC00F01225DD90002CEFF01225E090002DEFB2
:1020CC00F01225E390002EEFF01224D290002302A0
:0220DC000A599F
:10193300900005E0FF7E007C0E7D101208EDAC06E2
:10194300AD07A3E075F03CA42DFFEC35F0FEA3E05A
:101953007C002FFFEC3EAB07FA90000CE0FF7E000B
:101963007C0E7D101208EDAC06AD07A3E075F03CCC
:10197300A42DFFEC35F0FEA3E07C002FFFEC3EFE30
:10198300C3EF9BEE9A500874802FFF74513EFEC341
:10199300EF9BFFEE9AAB07FA7C007D3CFE1208FF3B
:1019A300900017EFF0AE02AF037C007D3C1208FFFE
:0319B300A3EDF0B1
:0119B600220E
:1019B70090002CE0FF7E007C0E7D101208EDAC0637
:1019C700AD07A3E075F03CA42DFFEC35F0FEA3E0D6
:1019D7007C002FFFEC3EAB07FA900033E0FF7E0060
:1019E7007C0E7D101208EDAC06AD07A3E075F03C48
:1019F700A42DFFEC35F0FEA3E07C002FFFEC3EFEAC
:101A0700C3EF9BEE9A500874802FFF74513EFEC3BC
:101A1700EF9BFFEE9AAB07FA7C007D3CFE1208FFB6
:101A270090003EEFF0AE02AF037C007D3C1208FF52
:031A3700A3EDF02C
:011A3A002289
:101A3B00120006900008EEF0A3EFF01225D79000ED
:101A4B000AEFF01225DA90000BEFF01225DD900073
:101A5B000CEFF01225E090000DEFF01225E3900053
:101A6B000EEFF01224D28F378E368D358C349000DA
:101A7B0013E0F8A3E0F9A3E0FAA3E0FBC3E5379B7F
:101A8B00FFE5369AFEE53599FDE53498FC90000F9D
:101A9B00120A59AF37AE36AD35AC34900013120A7B
:071AAB005912193302157BEB
:101AB20012000690002FEEF0A3EFF01225D790004F
:101AC20031EFF01225DA900032EFF01225DD9000AE
:101AD20033EFF01225E0900034EFF01225E390008E
:101AE20035EFF01224D28F3C8E3B8D3A8C39900028
:101AF20023E0F8A3E0F9A3E0FAA3E0FBC3E53C9BF3
:101B0200FFE53B9AFEE53A99FDE53998FC900036EF
:101B1200120A59AF3CAE3BAD3AAC3990003A120AC8
:071B2200591219B702162247
:1021D1004390FC1225C5E4900019F0A37406F0E4C5
:1021E100A3F0A304F0A3E4F0A37464F0E4A3F0A3C8
:1021F100F0A3F0A3F0A3120A6500000000E4F51FAC
:03220100F51E22A5
:100DC900E4F5342092034334012093034334022091
:100DD9009403433404209503433408209603433491
:100DE90010209703433420900040E0F45534F53542
:100DF90030E02212258320921C900019E060131222
:100E0900232BE4F51FAB19AD18AF17121E81D20AB7
:100E190080031223A5E53530E51212258320970CAE
:100E2900E51E045403F51E751F01D20AE53530E1AC
:100E39006A122583209364E51E14601A146027142E
:100E490060392403705090001AE02401FFE433FE56
:100E59007C007D18801E90001BE02401FFE433FE16
:100E69007C007D3C800E90001CE02401FFE433FEF1
:100E79007C007D3C1208FFEDF0801BC390001EE052
:100E890094DE90001DE09426500CA3E02432F090EB
:100E9900001DE03400F0751F01D20AE53530E27417
:100EA90012258320946EE51E14601F1460311460AE
:100EB900432403705A90001AE0FF70047F178003DF
:100EC900EF14FF90001AEFF0804590001BE0FF70CF
:100ED900047F3B8003EF14FF90001BEFF0803090FC
:100EE900001CE0FF70047F3B8003EF14FF90001C9F
:100EF900EFF0801BD390001EE0943290001DE09427
:100F090000400CA3E024CEF090001DE034FFF07502
:0A0F19001F01D20A900040E534F0F9
:010F230022AB
:1023A5009000197401F0E490001FF0900022F0F500
:0C23B5001FD20AAB19AD18AF17021E8131
:10232B00E4900019F0900022F090001FE06010E4A0
:10233B00F01225EC1225EFE4FF1225BB121AB22284
:10116A00900019E0700302127390001FE0700302EE
:10117A0012161224D28F258E248D238C22900023BE
:10118A00E0F8A3E0F9A3E0FAA3E0FBC3E5259BF5A9
:10119A0029E5249AF528E52399F527E52298F526E5
:1011AA0090001DE0FEA3E0FFE4FCFDAB29AA28A9FC
:1011BA0027A826C3120A224032E490001FF09000AA
:1011CA002204F01225EC1225EFE4FF1225BBAF250D
:1011DA00AE24AD23AC22122463121AB2E4F51FAB7B
:1011EA0019AD18AF17121E81D20A22C390001EE051
:1011FA009529FE90001DE09528900020F0A3CEF0DE
:10120A00E51F64016063751F01D20A22900022E083
:10121A00704490001AE06517703CA3E065187036B8
:10122A00A3E0B5193190001F7401F090001DE0FF92
:10123A00A3E0900020CFF0A3EFF01224D290002375
:10124A00120A5912209C1225E91224227F01122522
:10125A00BB751F01D20A900022E0600DE5177009E4
:09126A00E5187005E5197001F0AA
:011273002258
:100F240090001FE0602CA3E0FAA3E0FB7C007D0AA4
:100F3400FFAE021208FF8D347C007D0AAF03AE02BF
:100F44001208FF7C007D0A1208FF8D3590002002F4
:100F54001001E51E1460321460541460752403609B
:100F64000302103290001AE0FF75F00A8485F03411
:100F7400EF75F00A8475F00A8485F035E4F536F5EA
:100F840037F53875390302103F90001BE0FF75F008
:100F94000A8485F034EF75F00A8475F00A8485F0CC
:100FA40035E4F536F537F53875390202103F90000F
:100FB4001CE0FF75F00A8485F034EF75F00A84753F
:100FC400F00A8485F035E4F536F537F538753901DE
:100FD400806990001DE0FAA3E0FB7C007D0AFFAE6F
:100FE400021208FF8D347C007D0AAF03AE021208A2
:100FF400FF7C007D0A1208FF8D3590001DA3E07C64
:10100400007D64FFAE021208FF7C007D0A1208FF17
:101014008D367C037DE8AF03AE021208FF7C007DB1
:101024000A1208FF8D37E4F538753905800DE4F5AB
:1010340039F538F537F536F535F5348537408538E3
:0D10440041853942AB36AD35AF3402211F76
:0E251B00300A0AC20AE51FB40103120F24227F
:07189F0044006D0000000091
:0D253600D2A500D2A600C2A500C2A60022B8
:0A257900C2A500D2A600D2A50022E0
:0F24E100A20892A500D2A600C2A600D2A5002292
:1024A100D2A500D2A60030A505C2A600D322C2A69D
:0324B10000C32243
:0B225700AF32AE31AD30AC2F120A33B5
:10226200E4FEEF30E703D38001C392A5D2A600C2F9
:0D227200A600EF25E0FF0EBE08E80224A143
:1022CA00E4FFD2A5FED2A600EF25E0FFA2A5E433E3
:1022DA004207C2A6000EBE08ECA20792081224E129
:0122EA0022D1
:10236B00AC071225367FA0122262AF04122262AF95
:0E237B00051222621225797F0A7E000222EBF3
:02234B00AD07DC
:10234D001225367FA0122262AF05122262122536A7
:0D235D007FA1122262D2071222CA12257936
:01236A002250
:10219800AD071225367FA0122262AF05122262E532
:1021A80032FF12226278081222577810122257AF93
:1021B80032AE31AD30AC2F7818120A3312226212C7
:0921C80025797F147E000222EB50
:02176900AB07CC
:10176B00E4F555F554F553F5521225367FA01222A8
:10177B0062AF031222621225367FA1122262C207C8
:10178B001222CAE48F55F554F553F552C2071222B3
:10179B00CAE4FCFDFE7808120A46E5554FF555E5FF
:1017AB00544EF554E5534DF553E5524CF552C207E3
:1017BB001222CAE4FCFDFE7810120A46E5554FF5DD
:1017CB0055E5544EF554E5534DF553E5524CF55252
:1017DB00D2071222CAE4FCFDFE7818120A46E55520
:1017EB004FF555E5544EF554E5534DF553E5524C35
:0D17FB00F552122579AF55AE54AD53AC52E6
:0118080022BD
:0F24F0007F2012234BEF64556003D38001C3227A
:0725A2007D557F2002236B31
:0126040022B3
:0126050022B2
:1023C10090006DE0FCA3E0FDA3E0FEA3E0F5328EFA
:0A23D100318D308C2F7F040221981B
:0B255A007F0412176990006D020A59FF
:0525C500D2A5D2A62200
:0525CA00122262C32291
:08258C00A20B92071222CA22E1
:0326010002236B46
:0425D30012234B2262
:102463008F2D8E2C8D2B8C2A8F328E318D308C2F8D
:05247300E4FF022198C6
:0625B500E4FF1217692289
:030000000218A73C
:0C18A700787FE4F6D8FD7581670218EE2A
:1008A700BB010689828A83E0225002E722BBFE024F
:0908B700E32289828A83E4932282
:1008C000BB010CE58229F582E5833AF583E02250ED
:1008D00006E92582F8E622BBFE06E92582F8E22237
:0D08E000E58229F582E5833AF583E4932251
:1008ED00EF8DF0A4A8F0CF8CF0A428CE8DF0A42E1F
:0208FD00FE22D9
:1008FF00BC000BBE0029EF8DF084FFADF022E4CCDD
:10090F00F875F008EF2FFFEE33FEEC33FCEE9DECA5
:10091F00984005FCEE9DFE0FD5F0E9E4CEFD22EDEB
:10092F00F8F5F0EE8420D21CFEADF075F008EF2F35
:10093F00FFED33FD4007985006D5F0F222C398FD26
:05094F000FD5F0EA22C3
:1009540075F008758200EF2FFFEE33FECD33CDCC5A
:1009640033CCC58233C5829BED9AEC99E5829840DD
:100974000CF582EE9BFEED9AFDEC99FC0FD5F0D6BA
:10098400E4CEFBE4CDFAE4CCF9A88222B800C1B9E4
:100994000059BA002DEC8BF084CFCECDFCE5F0CB22
:1009A400F97818EF2FFFEE33FEED33FDEC33FCEB5B
:1009B40033FB10D703994004EB99FB0FD8E5E4F916
:1009C400FA227818EF2FFFEE33FEED33FDEC33FC03
:1009D400C933C910D7059BE99A4007EC9BFCE99AF7
:1009E400F90FD8E0E4C9FAE4CCFB2275F010EF2F3C
:1009F400FFEE33FEED33FDCC33CCC833C810D7073C
:100A04009BEC9AE899400AED9BFDEC9AFCE899F876
:0E0A14000FD5F0DAE4CDFBE4CCFAE4C8F92209
:100A2200EB9FF5F0EA9E42F0E99D42F0E89C45F02A
:010A320022A1
:100A3300E8600FECC313FCED13FDEE13FEEF13FFA1
:030A4300D8F122C5
:100A4600E8600FEFC333FFEE33FEED33FDEC33FC0E
:030A5600D8F122B2
:0C0A5900ECF0A3EDF0A3EEF0A3EFF02210
:100A6500A8828583F0D083D082120A7C120A7C1278
:100A75000A7C120A7CE473E493A3C583C5F0C5839D
:100A8500C8C582C8F0A3C583C5F0C583C8C582C8DB
:010A9500223E
:101B9D008B398A3A893BAB3CAA3DA93E1208A7FE78
:101BAD00AB39AA3AA93B1208A7FF6E702BEF600D57
:101BBD00E54015407002153F14453F70037F00222C
:101BCD007401253BF53BE4353AF53A7401253EF5B4
:101BDD003EE4353DF53D80BEAB39AA3AA93B12082E
:101BED00A7FDD3EE6480F8ED64809840037F012259
:0F1BFD00AB3CAA3DA93E1208A7FFC3ED9FFF22F4
:10247800E4FFFE1208A7600C0FEF70010E09E97067
:05248800F20A80EF22C2
:100A9600EF4E6012EF60010EEDBB010B89828A8377
:100AA600F0A3DFFCDEFA2289F05007F709DFFCA984
:0C0AB600F022BBFEFCF309DFFCA9F022DB
:1018B300021FF1E493A3F8E493A34003F68001F23B
:1018C30008DFF48029E493A3F85407240CC8C33336
:1018D300C4540F4420C8834004F456800146F6DF05
:1018E300E4800B0102040810204080901809E47E74
:1018F300019360BCA3FF543F30E509541FFEE493FA
:10190300A360010ECF54C025E060A840B8E493A3C0
:10191300FAE493A3F8E493A3C8C582C8CAC583CAEB
:10192300F0A3C8C582C8CAC583CADFE9DEE780BEA3
:0118A6000041
:00000001FF
