:100B1300D2AF7580FFE4FBFDFF120ADC120982806D
:010B2300FED3
:0A0B2E003F065B4F666D7D077F6F89
:100AFA0003180000000810000000000000000001B8
:080B0A000801010900010A01C4
:100ABC00E4FDFCC3ED9FEC9E5015E4FBFA0BBB0070
:0F0ACC00010AEB64784A70F50DBD00010C80E45F
:010ADB0022F8
:1009D200D2A3E4FEED30E703D38001C392A0C2A10B
:1009E200D2A1ED25E0FD0EBE08EAE4FEEF30E703FA
:1009F200D38001C392A0C2A1D2A1EF25E0FF0EBE17
:0F0A020008EAC2A2D2A2C2A37F017E00020ABCF0
:060A11008B1B8A1C891DED
:100A1700E4F51EAB1BAA1CA91D851E827583001257
:100A27000A8FFFAE1EE508A806088002C333D8FC6C
:100A3700F4FD1209D2051EE51EC3940840D57DFFBB
:080A4700E4FF1209D275080159
:010A4F002284
:090B24007F087810E4F608DFFCFC
:010B2D0022A5
:100A5000AE07120B24EB75F00A84E5F0900B2E9391
:100A6000F510EB75F00A8493F511ED75F00A84E545
:100A7000F093F512ED75F00A8493F513EE75F00A14
:0F0A800084E5F093F514EE75F00A8493F51522D2
:10092200D2A3E50AF4FFE4FEEF30E703D38001C36C
:1009320092A0C2A1D2A1EF25E0FF0EBE08EA741078
:100942002509F8E6FFE4FEEF30E703D38001C39206
:10095200A0C2A1D2A1EF25E0FF0EBE08EAC2A2D238
:10096200A2C2A3E509045407F509E50A25E0FFE55B
:0F0972000AC413131354014FF50A7003750A01D9
:010981002253
:03003B00020800B8
:10080000C0E0C0F0C083C082C0D075D000C000C0BE
:1008100003C005C006C00730D918C2D9850FEBE563
:100820000EF5FB7499250FF50F7403350EF50E12B6
:10083000092230D84CC2D8850CEAE50BF5FAE4253C
:100840000CF50C7424350BF50B050DE50DC3946404
:10085000402F750D00B290051AE51A943C401975A9
:100860001A000519E519943C400E7519000518E5A4
:100870001894184003751800AB1AAD19AF18120A76
:1008800050D007D006D005D003D000D0D0D082D031
:0608900083D0F0D0E0323D
:10098200E4F5D8F5E9F5F9F5D9750E03750F9985F2
:100992000FEBE50EF5FB7499250FF50F7403350E79
:1009A200F50E75DB49750B24750C00850CEAE50B19
:1009B200F5FAE4250CF50C7424350BF50B75DA49C0
:1009C200D2DED2AFE4F50DAB1AAD19AF18020A5060
:100ADC00EFD3941740037F0022EDD3943B40037F68
:0E0AEC000022EBD3943B40037F00227F0122C7
:030000000208965D
:0C089600787FE4F6D8FD75811E0208DDB5
:100A8F00BB010CE58229F582E5833AF583E022501C
:100A9F0006E92582F8E622BBFE06E92582F8E22266
:0D0AAF00E58229F582E5833AF583E4932280
:1008A200020B13E493A3F8E493A34003F68001F24E
:1008B20008DFF48029E493A3F85407240CC8C33357
:1008C200C4540F4420C8834004F456800146F6DF26
:1008D200E4800B0102040810204080900AFAE47EB2
:1008E200019360BCA3FF543F30E509541FFEE4931B
:1008F200A360010ECF54C025E060A840B8E493A3E2
:10090200FAE493A3F8E493A3C8C582C8CAC583CA0C
:10091200F0A3C8C582C8CAC583CADFE9DEE780BEC4
:010B120000E2
:00000001FF
