:101502000D0A5761746572696E6720537973746549
:101512006D20537461727465642076332E310D0A26
:10152200004175746F20446973706C61793A20547C
:10153200696D653C2D3E44617465206576657279FE
:101542002035207365636F6E64730D0A0050332E6D
:1015520033204B65793A204C6F6E67207072657349
:101562007320746F2073657420646174652F7469CD
:101572006D650D0A0053657474696E67206F72643D
:1015820065723A20596561722D3E4D6F6E74682DF9
:101592003E4461792D3E486F75722D3E4D696E2D28
:0715A2003E5365630D0A00D2
:0B177500016E00C103C104026F000000
:100DB90020B30B200308D203E4F56FF5702220B3AA
:100DC9002E30032B0570E5707002056F6464456F62
:100DD9006003020F0FE56E6003020F0F756E027F4D
:100DE900011221557F01121FAD12217BD20422204D
:100DF900B303020F0F200303020F0FC3E5709464BE
:100E0900E56F94005078E56EB408004003020F02C4
:100E1900900E20F8282873020E38020E5B020E6C21
:100E2900020E70020E74020E78020E7C020E809081
:100E39000020E06003020F02756E01122195122154
:100E490001121FC37F01122167121FD9E4F568023D
:100E59000F02E4F56E12219812219BE4FF1221671B
:100E6900020F027F0180127F02800E7F03800A7FBA
:100E79000480067F0580027F061215A9807BC3E5E1
:100E8900709464E56F94004070300404C204806972
:100E9900E56EC394024062E56ED39407505B056E1C
:100EA900E56E94074010E4F56E122019E4FF121F55
:100EB900AD12217B8043E56E24FD60141460151486
:100EC900601B1460211460272405702D7F018006A2
:100ED9007F0280027F031221557F0180197F04124E
:100EE9002155E4FF80107F05122155E4FF80077F1B
:100EF90006122155E4FF121FADC203E4F56FF57028
:070F09007F14FE121E8F226F
:101C6D00D2AF7580FF121BB612214012000E12204A
:101C7D008E12186B122171121193121DF57BFF7AC2
:101C8D00157902121DD07BFF7A157923121DD07B99
:101C9D00FF7A15794F121DD07BFF7A157977121DBA
:101CAD00D0120DB9120F101220AA121FD9121F7CBB
:091CBD007F0A7E00121E8F80E8F0
:101F95003F065B4F666D7D077F6F39711F1C1F1EE6
:081FA5001F1E1F1F1E1F1E1F3F
:10178000071307E9010100000048002A00000000DB
:1017900000000000010E00010800010901010F0016
:0617A000010B00010A002C
:101E8F00E4FDFCC3ED9FEC9E5015E4FBFA0BBB0089
:0F1E9F00010AEB64784A70F50DBD00010C80E478
:011EAE002211
:0A20EC007F0890002AE4F0A3DFFC57
:0120F60022C7
:061B5600AB19AD18AF173A
:101B5C00AE071220ECEB75F00A84E5F0901F95931C
:101B6C0090002AF0EB75F00A84901F959390002B4F
:101B7C00F0ED75F00A84E5F0901F959390002CF031
:101B8C00ED75F00A84901F959390002DF0EE75F092
:101B9C000A84E5F0901F959390002EF0EE75F00AF4
:0A1BAC0084901F959390002FF02203
:08194C00AB16AD15AF14AE138C
:02195400AA05E2
:101956007C007D64120AABAE051220ECEB75F00A32
:1019660084E5F0901F959390002AF0EB75F00A84B9
:10197600901F959390002BF0EA75F00A84E5F0909D
:101986001F959390002CF0EA75F00A84901F9593AA
:1019960090002DF0EE75F00A84E5F0901F95939077
:1019A600002EF0EE75F00A84901F959390002FF0AC
:0119B600220E
:101D1800AE071220ECEE901F959390002AF0ED90FC
:101D28001F959390002BF0EB901F959390002CF04B
:101D3800E540901F959390002DF0E541901F9593F5
:0F1D480090002EF0E542901F959390002FF0220F
:101AF000D2A3E509F4FFE4FEEF30E703D38001C38E
:101B000092A0C2A1D2A1EF25E0FF0EBE08EA742A7E
:101B10002508F582E43400F583E0FFE4FEEF30E7CA
:101B200003D38001C392A0C2A1D2A1EF25E0FF0E92
:101B3000BE08EAC2A2D2A2C2A3E508045407F5086F
:101B4000E50925E0FFE509C413131354014FF50916
:051B500070037509019E
:011B5500226D
:062155008F0FE4F50B22E0
:10201900E4F50FE50E7009AB19AD18AF17021B5C9B
:0420290012194C221A
:1015A900EF24FE602914604214604D14605D1460DC
:1015B9006D2405707A0514E51470020513D394336C
:1015C900E513940840697513077514D080610515F2
:1015D900E515D3940C4003751501121F2CE516D39C
:1015E9009F404C121F2C8F168045121F2AE516D3D7
:1015F9009F403C7516018037E5172401FFE433FE4F
:101609007C007D18120AAB8D178024E5182401FF90
:10161900E433FE7C007D3C120AAB8D188011E5197C
:101629002401FFE433FE7C007D3C120AAB8D19E5F1
:101639000E7009AB19AD18AF17021B5C12194C22B9
:101A2000EFC394185061EDC3943C505BEBC3943CFE
:101A300050558F178D188B19900020E06038A3E067
:101A4000FFE5179F5023E517B50709A3E0FFE51849
:101A5000D39F5015900021E0B51716A3E0B51811DB
:101A6000A3E0FFE519D39F40089000297401F0809E
:101A700005E4900029F01221AAEF700BE50F700722
:081A8000E50E7003121B562253
:101C12008E428F438D448B45C3E54394D0E5429475
:101C2200074047D3E5439433E5429408503CE544EA
:101C3200C394014035E544D3940C502EE545C3943A
:101C4200014027121F32E545D39F501E854213855E
:101C520043148544158545161221AAEF700CE50F31
:0B1C62007008E50EB4010312194C22BB
:0C20E000121C12AB41AD40AF3F021A20B1
:05000600AE13AF14224F
:03218300AF152273
:03218600AF16226F
:03218900AF17226B
:03218C00AF182267
:03218F00AF192263
:101FAD008F0EE50F700FEF7009AB19AD18AF17025B
:061FBD001B5C12194C220E
:03219200AF0E226B
:0F206100E50E70047F0180027F008F0E021FAD1D
:101E4700AB07AA06EB5403700AFC7D64120AABEDDC
:101E57004C700FAE02AF037C017D90120AABED4CC4
:071E67007003D38001C322C8
:081F2A000516AD15AF14AE134E
:021F3200A905FF
:101F3400B90208121E4750037F1D22E9901FA09387
:011F4400FF9D
:011F45002279
:101CC6000519E519C3943C4048E4F5190518E518CB
:101CD600943C403DE4F5180517E51794184032E4A6
:101CE600F517121F2AE516D39F402675160105150E
:101CF600E515D3940C401A7515010514E514700208
:101D06000513D39433E51394084006751307751429
:021D1600D022D9
:03003B00020C3183
:100C3100C0E0C0F0C083C082C0D075D000C000C089
:100C410001C002C003C004C005C006C00730D918E6
:100C5100C2D98512EBE511F5FB74992512F51274D1
:100C6100033511F511121AF020D803020D9EC2D8D6
:100C7100850DEAE50CF5FAE4250DF50D7424350C26
:100C8100F50C0510E510C394645003020D3B75107B
:100C910000B29012138F121CC6121293E50FD39457
:100CA100004059E50B70047F0180027F008F0BE546
:100CB1000FD39403502312194CE50B7003020D9EC0
:100CC100E50F24FE600D14600D24026003020D9EE9
:100CD100020D8D020D92020D97121B56E50B70034A
:100CE100020D9EE50F24FB600D14600D24026003CC
:100CF100020D9E020D8D020D92020D971221AAEF97
:100D01006003020D9EE5687027050AE50AC3940594
:100D1100400F750A00E50E70047F0180027F008F8D
:100D21000EE50E7006121B56020D9E12194C806DB7
:100D3100E56864017067D20A8063E51075F032845A
:100D4100E5F07059E50FD394004052E50B70047F34
:100D51000180027F008F0BE50FD39403501A121903
:100D61004CE50B6038E50F24FE600914600824028D
:100D7100702B8018801B801E121B56E50B601EE530
:100D81000F24FB600C14600E2402701190002E8061
:100D91000890002C800390002AE4F0A3F0D007D043
:100DA10006D005D004D003D002D001D000D0D0D0DD
:080DB10082D083D0F0D0E032C3
:101BB600E4F5D8F5E9F5F9F5D975110375129985A6
:101BC60012EBE511F5FB74992512F5127403351124
:101BD600F51175DB49750C24750D00850DEAE50CCC
:101BE600F5FAE4250DF50D7424350CF50C75DA4976
:101BF600D2DED2AFE4F510F50EF50AE50E7009ABAC
:0C1C060019AD18AF17021B5C12194C221C
:04217B00E4F50A225B
:101EAF00E50E70047F0180027F008F0EE4F50AE5D6
:101EBF000E7009AB19AD18AF17021B5C12194C222B
:07214000D291D290D2B2222D
:03219500C29122D2
:03219800D29122BF
:0A20F7002091047F0180027F002287
:0417A600C106C105B2
:10000E005389F0438901758C4CE4F58AD2A9C290CC
:05001E00C206C28C22A5
:0E208E0020060A758C4CE4F58AD28CD206220C
:07214700C28CC290C2062207
:06215B00A206E433FF229E
:03000B0002209C34
:0D209C00758C4C758A00B205200502B290CB
:0120A9003204
:10002600546F74616C20466C6F773A200030002064
:050036006D6C0D0A00D5
:1017AA00015E00025B000002590000C100C1010194
:1017BA005D00015800C102045F00000000015700EB
:0317CA00015600C5
:10119300E4F54CF54DD288D2A8F55BF55CF559F52D
:1011A3005A1221618F6D8E6C8D6B8C6A8F628E618A
:1011B3008D608C5F7BFF7A007926121DD0E4FFFEE1
:1011C300FDFCAB6DAA6CA96BA86AC3120BCE7009A8
:1011D3007BFF7A00793302127D856D51856C5085D2
:1011E3006B4F856A4EE4F54CE4FFFEFDFCAB51AA60
:1011F30050A94FA84ED3120BCE4040E54C940A5051
:101203003AE47B0AFAF9F8AF51AE50AD4FAC4E1247
:101213000B3CEB2430FFAE4C054C74402EF8A60774
:10122300AF51AE50AD4FAC4EE47B0AFAF9F8120B56
:101233003C8F518E508D4F8C4E80ADE54C700AAF74
:101243004C054C74402FF87630E4F54DE54CD394BF
:1012530000401BE54D940A5015154C7440254CF87D
:10126300E6FFAE4D054D74342EF8A60780DE7434C8
:10127300254DF8E4F6FB7A007934121DD07BFF7A12
:0F128300007935121DD0C200E4F55EF558C202A5
:011292002239
:101FC300200012E4F55BF55CD2A8D200F559F55A6E
:061FD300D201755D02223F
:03219B00C200225D
:0A210100E4F55BF55CF559F55A2290
:10205100E4F56DF56CF56BF56AFFFEFDFC021FEF13
:10138F00E55DD394004005D55D02D2010557E557C1
:10139F00C394015003021437E4F557300071855B95
:0F13AF0059855C5AD3E55A9400E5599400406083
:1013BE00856D25856C24856B23856A22E4FCFDE50D
:1013CE006D255AF56DE56C3559F56CED356BF56B94
:1013DE00EC356AF56AAF25AE24AD23AC22AB6DAA0F
:1013EE006CA96BF8C3120BCE6002D202C3E56D95E9
:1013FE0062FFE56C9561FEE56B9560FDE56A955FB4
:10140E00FCE47B32FAF9F8D3120BCE5003121F62B2
:10141E000558E558C3940A4009E4F5583002031202
:0C142E001F62E4F55BF55CD20130001B8E
:10143A000556E556C394034012E4F556E55EB40139
:0B144A00047F0280027F018F5ED20150
:011455002274
:101F6200AF6DAE6CAD6BAC6A121FEF856D62856CA6
:0A1F720061856B60856A5FC2022280
:101D57001221618F1D8E1C8D1B8C1A7F3F7E427D49
:101D67000F7C00AB1DAA1CA91BA81AD3120BCE40CF
:101D770010E4F51DF51CF51BF51AFFFEFDFC121FFF
:091D8700EFAF1DAE1CAD1BAC1A40
:011D90002230
:03219E00021F62BB
:09211500AF62AE61AD60AC5F2267
:0321A100A2022275
:101FD900300112C201E55EB401030217F7E55EB4F0
:061FE9000203121456224F
:1017F700AB5AAA5975340A7C277D10AF03AE021283
:101807000AAB7C007D0A120AAB8D357C037DE8AFFD
:1018170003AE02120AAB7C007D0A120AAB8D367C3E
:10182700007D64AF03AE02120AAB7C007D0A120A88
:10183700AB8D377C007D0AAF03AE02120AAB7C008A
:101847007D0A120AAB8D38AE02AF037C007D0A1207
:101857000AABAF05853640853541853442AB37AD98
:0418670038021D180E
:10145600856D3C856C3B856B3A856A3975340BE442
:101466007B107A27F9F8AF3CAE3BAD3AAC39120B9C
:101476003CE47B0AFAF9F8120B3CAF038F35E47BA8
:10148600E87A03F9F8AF3CAE3BAD3AAC39120B3C07
:10149600E47B0AFAF9F8120B3CAF038F36E47B645F
:1014A600FAF9F8AF3CAE3BAD3AAC39120B3CE47BF3
:1014B6000AFAF9F8120B3CAF038F37E47B0AFAF904
:1014C600F8AF3CAE3BAD3AAC39120B3CE47B0AFAC2
:1014D600F9F8120B3CAF038F38E47B0AFAF9F8AF40
:1014E6003CAE3BAD3AAC39120B3CAF03853640857A
:0C14F6003541853442AB37AD38021D187B
:0321A4000217F728
:0321A700021456C9
:052167008F5ED2012291
:0321AA00AF5E2203
:05216C00AE59AF5A223C
:09211E00AF6DAE6CAD6BAC6A2232
:030003000220C612
:0D20C600C0E0055CE55C7002055BD0E03217
:1005CB000D0A5761746572696E6720537973746590
:1005DB006D2052656164792076322E300D0A00430E
:1005EB006F6D6D616E647320417661696C61626CD5
:1005FB00653A0D0A0054494D453A48483A4D4D3A33
:10060B0053530D0A00444154453A595959593A4DDF
:10061B004D3A44440D0A004441544554494D453A22
:10062B00595959593A4D4D3A44443A48483A4D4D27
:10063B003A53530D0A00413A48483A4D4D3A5353F9
:10064B003A4D4D4D4D0D0A004449535054494D45BB
:10065B002F44495350444154450D0A0053544F50B5
:10066B000D0A004441544554494D453A000D0A4486
:10067B0061746554696D65205365743A20000D0AE9
:10068B00000D0A4572726F723A20496E76616C6981
:10069B0064206461746574696D650D0A00466F7240
:1006AB006D61743A205959595928323030302D32F6
:1006BB00303939293A4D4D28312D3132293A4444BC
:1006CB0028312D3331293A484828302D3233293AF5
:1006DB004D4D28302D3539293A535328302D353986
:1006EB00290D0A000D0A4572726F723A2057726F0C
:1006FB006E6720666F726D61740D0A00466F726DC6
:10070B0061743A204441544554494D453A5959591D
:10071B00593A4D4D3A44443A48483A4D4D3A535361
:10072B000D0A004578616D706C653A204441544563
:10073B0054494D453A323032353A30353A32373A00
:10074B0031343A33303A30300D0A00444154453A93
:10075B00000D0A44617465205365743A20000D0A3C
:10076B004572726F723A20496E76616C69642064CF
:10077B006174650D0A00466F726D61743A205959A8
:10078B00595928323030302D32303939293A4D4DC4
:10079B0028312D3132293A444428312D3331290D5A
:1007AB000A00466F726D61743A20444154453A59C0
:1007BB005959593A4D4D3A44440D0A004578616DEB
:1007CB00706C653A20444154453A323032353A30F8
:1007DB00353A32370D0A0054494D453A000D0A544B
:1007EB00696D65205365743A20000D0A4572726F6E
:1007FB00723A20496E76616C69642074696D650D7F
:10080B000A00466F726D61743A20484828302D32C9
:10081B0033293A4D4D28302D3539293A5353283049
:10082B002D3539290D0A00466F726D61743A2054CB
:10083B00494D453A48483A4D4D3A53530D0A0045F8
:10084B0078616D706C653A2054494D453A31343AB4
:10085B0033303A30300D0A004449535054494D451A
:10086B00000D0A446973706C6179204D6F64653AB1
:10087B002054696D650D0A00444953504441544559
:10088B00000D0A446973706C6179204D6F64653A91
:10089B0020446174650D0A00413A000D0A417574DC
:1008AB006F20536574204F4B0D0A0054696D653AE8
:1008BB0020000D0A566F6C756D653A20006D6C0D3E
:1008CB000A000D0A4572726F723A20496E76616C9E
:1008DB00696420706172616D730D0A0054696D65F6
:1008EB003A20484828302D3233293A4D4D28302DA7
:1008FB003539293A535328302D3539290D0A0056ED
:10090B006F6C756D653A2035302D393939396D6C11
:10091B000D0A00466F726D61743A20413A48483AAD
:10092B004D4D3A53533A4D4D4D4D0D0A004578619F
:10093B006D706C653A20413A30363A30303A30318E
:10094B003A303130300D0A0053544F50000D0A41EC
:10095B0075746F2053746F707065640D0A000D0A07
:10096B004572726F723A20556E6B6E6F776E2063A5
:10097B006D640D0A00436F6D6D616E64733A0D0A01
:10098B000054494D453A48483A4D4D3A5353202D62
:10099B00205365742074696D650D0A0044415445FC
:1009AB003A595959593A4D4D3A4444202D205365E3
:1009BB007420646174650D0A004441544554494DDB
:1009CB00453A595959593A4D4D3A44443A48483A9F
:1009DB004D4D3A5353202D2053657420626F74682C
:1009EB000D0A00413A48483A4D4D3A53533A4D4D52
:1009FB004D4D202D20536574206175746F207761E8
:100A0B00746572696E670D0A004449535054494D21
:100A1B00452F4449535044415445202D204469737C
:100A2B00706C6179206D6F64650D0A0053544F50E3
:100A3B00202D2053746F70206175746F2077617453
:080A4B006572696E670D0A0077
:0517CD00011E00C1092E
:10186B0075985053877F53890F438920758BFD756E
:10187B008DFDD28ED2ACD2AFE4F51EC209FE7F2015
:10188B00FD7B017A007900120C057BFF7A0579CB81
:10189B00121DD07BFF7A0579EA121DD07BFF7A06E9
:1018AB007900121DD07BFF7A067910121DD07BFFB9
:1018BB007A067922121DD07BFF7A067941121DD050
:1018CB007BFF7A067953121DD07BFF7A067967026C
:0218DB001DD01E
:082130008F993099FDC299223C
:061DCA007BFF7A0679EFB1
:101DD0008B528A538954AB52AA53A954120A5360A6
:101DE000130554E5547002055314F9120A53FF12F7
:051DF000213080E22219
:0419B7007B017D0231
:0819BB008B3B8A3C893D8D3E07
:1019C300E4F53FF540F541E541C3953E504AAB3B55
:1019D300AA3CA93D854182758300120A6CFFC3644A
:1019E3008094B0402AD3EF648094B95022EF3395AA
:1019F300E0FEEF24D0FBEE34FFFAAE3FAF407C00B5
:101A03007D0A120A99EF2BF540EE3AF53F80057EE9
:0C1A1300FF7FFF22054180AFAE3FAF40D7
:011A1F0022A4
:10003E00753EFF753F0675406E7541007542097B32
:0E004E00017A0079001218DDEF6003020186CE
:10005C007B017A007900122004C3EF941CEE94000B
:10006C0050030201717B017A0079097D041219BBDE
:10007C008E348F357A00790E1219B78F367A007953
:10008C00111219B78F377B017A0079147D0212197E
:10009C00BB8F387B017A0079177D021219BB8F391F
:1000AC007B017A00791A7D021219BB8F3AC3E535B0
:1000BC0094D0E5349407500302015FD3E5359433B3
:1000CC00E5349408400302015FE536C39401500304
:1000DC0002015FE536D3940C5079E537C3940140A7
:1000EC0072AD36AF35AE34121F32E537D39F506345
:1000FC00E538C39418505CE539C3943C5055E53A47
:10010C00C3943C504E85383F853940853A41AB37D6
:10011C00AD36AF35AE341220E07BFF7A067978121B
:10012C001DD07B017A007909121DD090000D742D21
:10013C00F0900010F09000137420F0900016743AB8
:10014C00F0900019F0E490001CF07B017A00790922
:10015C000202457BFF7A06798C121DD07BFF7A0652
:10016C0079A80205C7121DCA7BFF7A077907121DF1
:07017C00D07BFF7A07792E0A
:100183000205C7753EFF753F0775405675410075FB
:1001930042057B017A0079001218DDEF6003020249
:0101A30078E3
:1001A4007B017A007900122004C3EF940FEE9400CF
:1001B40050030202637B017A0079057D041219BBA6
:1001C4008E348F357B017A00790A7D021219BB8F38
:1001D400367B017A00790D7D021219BB8F37C3E596
:1001E4003594D0E53494074064D3E5359433E5344D
:1001F40094085059E536C394014052E536D3940C23
:10020400504BE537C394014044AD36AF35AE34129C
:100214001F32E537D39F5035AB37AD36AF35AE34EB
:10022400121C127BFF7A07795C121DD090000974AE
:100234002DF090000CF0E490000FF07B017A00792F
:1002440005121DD07BFF7A0679890205C77BFF7AE8
:10025400077969121DD07BFF7A0779810205C712DD
:100264001DCA7BFF7A0779AD121DD07BFF7A07790F
:01027400C7C2
:100275000205C7753EFF753F077540E2754100757C
:1002850042057B017A0079001218DDEF6003020355
:010295005612
:10029600F534F535F5367B017A007900122004C372
:1002A600EF940DEE94005003020341900005E02404
:1002B600D075F00AA4FFA3E024D02FF534900008EF
:1002C600E024D075F00AA4FFA3E024D02FF53590E2
:1002D600000BE024D075F00AA4FFA3E024D02FF58C
:1002E60036E534C394185041E535C3943C503AE59D
:1002F60036C3943C5033AB36AD35AF34121A207B3F
:10030600FF7A0779E8121DD0900007743AF0900042
:100316000AF0E490000DF07B017A007905121DD0F9
:100326007BFF7A0679890205C77BFF7A0779F51282
:100336001DD07BFF7A08790D0205C7121DCA7BFF07
:0D0346007A087932121DD07BFF7A08794ABF
:100353000205C7753EFF753F08754063754100751B
:1003630042087B017A0079001218DDEF700DFF124D
:100373001FAD7BFF7A08796C0205C7753EFF753F99
:10038300087540837541007542087B017A00790046
:100393001218DDEF700E7F01121FAD7BFF7A087913
:1003A3008C0205C7753EFF753F087540A375410074
:1003B3007542027B017A0079001218DDEF600302B7
:0203C300055CD7
:1003C5007B017A007900122004C3EF940FEE9400AC
:1003D5005003020548900002E024D075F00AA4FFFE
:1003E500A3E024D02FF534900005E024D075F00A61
:1003F500A4FFA3E024D02FF535900008E024D075A4
:10040500F00AA4FFA3E024D02FF536E4F537F5383C
:1004150090000BE0FF3395E0FEEF24D0FFEE34FFB4
:10042500FE7C037DE8120A99EF2538F538EE35375D
:10043500F537A3E0FF3395E0FEEF24D0FFEE34FF60
:10044500FE7C007D64120A99EF2538F538EE3537C4
:10045500F537A3E0FF3395E0FEEF24D0FFEE34FF40
:10046500FE7D0A120A99EF2538F538EE3537F5374E
:10047500A3E0FF3395E0FEEF24D0FFEE34FFFEEF5F
:100485002538F538EE3537F537E534C3941840038C
:1004950002052DE535C3943C400302052DE536C321
:1004A500943C400302052DC3E5389432E5379400AA
:1004B5004076D3E538940FE5379427506B900021AB
:1004C500E534F0A3E535F0A3E536F0A3E537F0A371
:1004D500E538F09000207401F0E4900029F07BFFEE
:1004E5007A0879A6121DD07BFF7A0879B6121DD03D
:1004F500900004743AF0900007F0E490000AF07B55
:10050500017A007902121DD07BFF7A0879BD121D90
:10051500D0E490000FF07B017A00790B121DD07B9F
:10052500FF7A0879C80205C77BFF7A0879CD121DC5
:10053500D07BFF7A0879E7121DD07BFF7A09790A0B
:100545000205C7121DCA7BFF7A09791E121DD07BD1
:05055500FF7A0979386E
:10055A00806B753EFF753F097540537541007542C2
:10056A00047B017A0079001218DDEF700B121F0D5F
:10057A007BFF7A09795880457BFF7A097969121DD0
:10058A00D07BFF7A097980121DD07BFF7A09798C9A
:10059A00121DD07BFF7A0979A7121DD07BFF7A0939
:1005AA0079C4121DD07BFF7A0979EE121DD07BFF28
:1005BA007A0A7914121DD07BFF7A0A7937121DD074
:0105CA00220E
:101F7C0030091512003EC209E4F51EFE7F20FD7BE0
:091F8C00017A007900120C052213
:03002300021A8836
:101A8800C0E0C083C082C0D075D000C0073098487D
:051A9800C29820094383
:101A9D00859933AF33122130E533640A6005E533A0
:101AAD00B40D187400251EF582E43400F583E4F0BE
:101ABD00E51ED39400401CD2098018E51EC3941F67
:101ACD005011AF1E051E74002FF582E43400F5830E
:031ADD00E533F0FE
:101AE000309902C299D007D0D0D082D083D0E032D2
:1017D2004A002000060001006400000000016800C9
:0E17E200016700C10A016900046300000000F5
:082127007F1EAE071FEE70FAE7
:01212F00228D
:101DF5004390FC122171E4900020F0A37406F0E4F6
:101E0500A3F0A304F0A3E4F0A37464F0E4A3F0A3A7
:0A1E1500F0A3F0A3F0F568F56722D2
:100F1000E4F5342092034334012093034334022048
:100F20009403433404209503433408209603433448
:100F300010209703433420E569F45534F53530E04B
:100F40002212212720921C900020E06013121F0D16
:100F5000E4F568AB19AD18AF17121B5CD20A800319
:100F6000121F46E53530E51212212720970CE56760
:100F7000045403F567756801D20AE53530E16A1259
:100F80002127209364E56714601A146027146039E0
:100F900024037050900021E02401FFE433FE7C0024
:100FA0007D18801E900022E02401FFE433FE7C00C7
:100FB0007D3C800E900023E02401FFE433FE7C00A2
:100FC0007D3C120AABEDF0801BC3900025E094DE5F
:100FD000900024E09426500CA3E02432F0900024EA
:100FE000E03400F0756801D20AE53530E274122170
:100FF0002720946EE56714601F1460311460432449
:1010000003705A900021E0FF70047F178003EF14F3
:10101000FF900021EFF08045900022E0FF70047FF8
:101020003B8003EF14FF900022EFF080309000230C
:10103000E0FF70047F3B8003EF14FF900023EFF08C
:10104000801BD3900025E09432900024E09400406F
:101050000CA3E024CEF0900024E034FFF07568018A
:05106000D20A8534698D
:011065002268
:101F46009000207401F0E4900026F0900029F0F54E
:0C1F560068D20AAB19AD18AF17021B5C73
:101F0D00E4900020F0900029F0900026E0600DE4B0
:0D1F1D00F012219812219BE4FF122167228F
:10129300900020E0700302138E900026E07003029A
:1012A300133212211E8F258E248D238C22C3E52514
:1012B3009566F529E5249565F528E5239564F527D5
:1012C300E5229563F526900024E0FEA3E0FFE4FC0D
:1012D300FDAB29AA28A927A826C3120BCE402FE4C9
:1012E300900026F090002904F012219812219BE42B
:1012F300FF122167AF25AE24AD23AC22121FEFE40A
:10130300F568AB19AD18AF17121B5CD20A22C39054
:101313000025E09529FE900024E09528900027F011
:10132300A3CEF0E56864016062756801D20A229079
:101333000029E07043900021E06517703BA3E0654E
:10134300187035A3E0B519309000267401F09000B1
:1013530024E0FFA3E0900027CFF0A3EFF012211EBB
:101363008F668E658D648C63122195121FC37F0176
:10137300122167756801D20A900029E0600DE51714
:0B1383007009E5187005E5197001F015
:01138E00223C
:10106600900026E0602CA3E0FAA3E0FB7C007D0A5A
:10107600FFAE02120AAB8D347C007D0AAF03AE02CE
:10108600120AAB7C007D0A120AAB8D35900027024E
:101096001143E567146032146054146075240360CC
:1010A60003021174900021E0FF75F00A8485F03484
:1010B600EF75F00A8475F00A8485F035E4F536F5A7
:1010C60037F538753903021181900022E0FF75F07B
:1010D6000A8485F034EF75F00A8475F00A8485F089
:1010E60035E4F536F537F538753902021181900089
:1010F60023E0FF75F00A8485F034EF75F00A8475F5
:10110600F00A8485F035E4F536F537F5387539019A
:101116008069900024E0FAA3E0FB7C007D0AFFAE24
:1011260002120AAB8D347C007D0AAF03AE02120AAE
:10113600AB7C007D0A120AAB8D35900024A3E07CBF
:10114600007D64FFAE02120AAB7C007D0A120AAB78
:101156008D367C037DE8AF03AE02120AAB7C007DC0
:101166000A120AAB8D37E4F538753905800DE4F5BA
:1011760039F538F537F536F535F5348537408538A0
:0D11860041853942AB36AD35AF34021D183E
:0E20AA00300A0AC20AE568B401031210662269
:0617F000046A0000000085
:0D20D300D2A500D2A600C2A500C2A6002220
:0A210B00C2A500D2A600D2A5002252
:0F207000A20892A500D2A600C2A600D2A5002207
:10202D00D2A500D2A60030A505C2A600D322C2A615
:03203D0000C322BB
:0B1E1F00AF32AE31AD30AC2F120BDF44
:101E2A00E4FEEF30E703D38001C392A5D2A600C235
:0D1E3A00A600EF25E0FF0EBE08E802202DF7
:101E6E00E4FFD2A5FED2A600EF25E0FFA2A5E43343
:101E7E004207C2A6000EBE08ECA2079208122070FE
:011E8E002231
:101EEF00AC071220D37FA0121E2AAF04121E2AAFF6
:0E1EFF0005121E2A12210B7F0A7E00021E8F82
:021ECF00AD075D
:101ED1001220D37FA0121E2AAF05121E2A1220D370
:0D1EE1007FA1121E2AD207121E6E12210BC5
:011EEE0022D1
:101D9100AD071220D37FA0121E2AAF05121E2AE51D
:101DA10032FF121E2A7808121E1F7810121E1FAF52
:101DB10032AE31AD30AC2F7818120BDF121E2A1261
:091DC100210B7F147E00021E8F2D
:02164900AB07ED
:10164B00E4F555F554F553F5521220D37FA0121E35
:10165B002AAF03121E2A1220D37FA1121E2AC20701
:10166B00121E6EE48F55F554F553F552C207121E38
:10167B006EE4FCFDFE7808120BF2E5554FF555E5CF
:10168B00544EF554E5534DF553E5524CF552C20704
:10169B00121E6EE4FCFDFE7810120BF2E5554FF5B1
:1016AB0055E5544EF554E5534DF553E5524CF55273
:1016BB00D207121E6EE4FCFDFE7818120BF2E555F4
:1016CB004FF555E5544EF554E5534DF553E5524C56
:0D16DB00F55212210BAF55AE54AD53AC5279
:0116E80022DF
:0F207F007F20121ECFEF64556003D38001C32270
:07214E007D557F20021EEF0A
:0121B000220C
:0121B100220B
:10204000856D32856C31856B30856A2F7F04021D6A
:0120500091FE
:0E20B8007F041216498F6D8E6C8D6B8C6A2220
:05217100D2A5D2A62258
:05217600121E2AC32225
:08213800A20B9207121E6E2299
:0321AD00021EEF20
:04217F00121ECF223B
:101FEF008F2D8E2C8D2B8C2A8F328E318D308C2F06
:051FFF00E4FF021D914A
:06216100E4FF1216492202
:030000000216E9FC
:0C16E900787FE4F6D8FD758170021730A0
:100A5300BB010689828A83E0225002E722BBFE02A1
:090A6300E32289828A83E49322D4
:100A6C00BB010CE58229F582E5833AF583E022503F
:100A7C0006E92582F8E622BBFE06E92582F8E22289
:0D0A8C00E58229F582E5833AF583E49322A3
:100A9900EF8DF0A4A8F0CF8CF0A428CE8DF0A42E71
:020AA900FE222B
:100AAB00BC000BBE0029EF8DF084FFADF022E4CC2F
:100ABB00F875F008EF2FFFEE33FEEC33FCEE9DECF8
:100ACB00984005FCEE9DFE0FD5F0E9E4CEFD22ED3E
:100ADB00F8F5F0EE8420D21CFEADF075F008EF2F88
:100AEB00FFED33FD4007985006D5F0F222C398FD79
:050AFB000FD5F0EA2216
:100B000075F008758200EF2FFFEE33FECD33CDCCAC
:100B100033CCC58233C5829BED9AEC99E58298402F
:100B20000CF582EE9BFEED9AFDEC99FC0FD5F0D60C
:100B3000E4CEFBE4CDFAE4CCF9A88222B800C1B936
:100B40000059BA002DEC8BF084CFCECDFCE5F0CB74
:100B5000F97818EF2FFFEE33FEED33FDEC33FCEBAD
:100B600033FB10D703994004EB99FB0FD8E5E4F968
:100B7000FA227818EF2FFFEE33FEED33FDEC33FC55
:100B8000C933C910D7059BE99A4007EC9BFCE99A49
:100B9000F90FD8E0E4C9FAE4CCFB2275F010EF2F8E
:100BA000FFEE33FEED33FDCC33CCC833C810D7078E
:100BB0009BEC9AE899400AED9BFDEC9AFCE899F8C9
:0E0BC0000FD5F0DAE4CDFBE4CCFAE4C8F9225C
:100BCE00EB9FF5F0EA9E42F0E99D42F0E89C45F07D
:010BDE0022F4
:100BDF00E8600FECC313FCED13FDEE13FEEF13FFF4
:030BEF00D8F12218
:100BF200E8600FEFC333FFEE33FEED33FDEC33FC61
:030C0200D8F12204
:1018DD008B3B8A3C893DAB3EAA3FA940120A53FE81
:1018ED00AB3BAA3CA93D120A53FF6E702BEF600D66
:1018FD00E54215427002154114454170037F0022E7
:10190D007401253DF53DE4353CF53C74012540F56C
:10191D0040E4353FF53F80BEAB3BAA3CA93D120AE2
:10192D0053FDD3EE6480F8ED64809840037F01226F
:0F193D00AB3EAA3FA940120A53FFC3ED9FFF2202
:10200400E4FFFE120A53600C0FEF70010E09E97031
:05201400F20A80EF223A
:100C0500EF4E6012EF60010EEDBB010B89828A8306
:100C1500F0A3DFFCDEFA2289F05007F709DFFCA913
:0C0C2500F022BBFEFCF309DFFCA9F0226A
:1016F500021C6DE493A3F8E493A34003F68001F282
:1017050008DFF48029E493A3F85407240CC8C333F5
:10171500C4540F4420C8834004F456800146F6DFC4
:10172500E4800B0102040810204080901775E47EC8
:10173500019360BCA3FF543F30E509541FFEE493B9
:10174500A360010ECF54C025E060A840B8E493A380
:10175500FAE493A3F8E493A3C8C582C8CAC583CAAB
:10176500F0A3C8C582C8CAC583CADFE9DEE780BE63
:0117F60000F2
:00000001FF
