:0B0A7C00011C00C100C101021D0000B0
:1005750020B30B200008D200E4F51DF51E2220B3A0
:100585002C300029051EE51E7002051D64F470045B
:10059500E51D64016003020654E51C600302065470
:1005A500751C02E51C14FF120CE8D2012220B303CE
:1005B500020654200003020654C3E51E94F4E51D0B
:1005C50094015047E51C1460231460301460311405
:1005D50060322404706C751C01120CFF120C711230
:1005E5000C457F01120006120C5B8056E4F51C12C7
:1005F5000D02120D05E4FF12000680467F018006FC
:100605007F0280027F03120AC88037C3E51E94F477
:10061500E51D9401402C300104C2018025E51CC371
:100625009402401EE51CD394045017051CE51C9448
:10063500044008E4F51C120C9E8007E51C14FF120B
:100645000CE8C200E4F51DF51E7F14FE120BF32223
:100B5B00D2AF7580FF120A2C120CDA12000E120C97
:100B6B0083120C131209D6120575120C5B120C2D85
:090B7B007F0A7E00120BF380EEEC
:0C0CAA003F065B4F666D7D077F6F397160
:100A87000319000000081100000000000000000129
:0B0A97000800010901010D00010A0028
:100BF300E4FDFCC3ED9FEC9E5015E4FBFA0BBB0038
:0F0C0300010AEB64784A70F50DBD00010C80E426
:010C120022BF
:090CB6007F087811E4F608DFFC68
:010CBF002212
:080B14008F0AAB1BAD1AAF19EB
:100B1C00AE07120CB6EB75F00A84E5F0900CAA93B4
:100B2C00F511EB75F00A8493F512ED75F00A84E576
:100B3C00F093F513ED75F00A8493F514EE75F00A45
:0F0B4C0084E5F093F515EE75F00A8493F5162203
:100BCF00AE07120CB6EE900CAA93F511ED93F51239
:100BDF00EB93F513E54F93F514E55093F515E551A8
:040BEF0093F5162242
:10091F00D2A3E509F4FFE4FEEF30E703D38001C370
:10092F0092A0C2A1D2A1EF25E0FF0EBE08EA74117A
:10093F002508F8E6FFE4FEEF30E703D38001C3920A
:10094F00A0C2A1D2A1EF25E0FF0EBE08EAC2A2D23B
:10095F00A2C2A3E508045407F508E50925E0FFE561
:0F096F0009C413131354014FF5097003750901DF
:01097E002256
:060CE8008F0DE4F50A2265
:0C0C9E00E4F50DAB1BAD1AAF19020B1CE6
:100AC800EF24FE601A14602A24027037E519240105
:100AD800FFE433FE7C007D181200698D198024E53F
:100AE8001A2401FFE433FE7C007D3C1200698D1A54
:100AF8008011E51B2401FFE433FE7C007D3C1200DD
:0C0B0800698D1BAB1BAD1AAF19020B1C52
:100B8400EFC39418501FEDC3943C5019EBC3943C2D
:100B940050138F198D1A8B1B120D0EEF7007E50D74
:060BA4007003120B162283
:03003B0002035F5E
:10035F00C0E0C0F0C083C082C0D075D000C000C064
:10036F0001C002C003C004C005C006C00730D918C1
:10037F00C2D98510EBE50FF5FB74992510F51074B4
:10038F0003350FF50F12091F20D803020474C2D8CA
:10039F00850CEAE50BF5FAE4250CF50C7424350B06
:1003AF00F50B050EE50EC394644060750E00B29018
:1003BF00120707051BE51BC3943C4019751B00056D
:1003CF001AE51A943C400E751A000519E519941890
:1003DF004003751900E50DD394004024E50A70041D
:1003EF007F0180027F00120B14E50A6078E50D246F
:1003FF00FE60091460082402706B80538059805F7F
:10040F00120D0EEF705F120B16805AE50E75F01479
:10041F0084E5F0700B120D0EEF6005120707804593
:10042F00E50E75F03284E5F0703BE50DD394004096
:10043F0034E50A70047F0180027F00120B14E50A75
:10044F006023E50D24FE600F1460142402701675EE
:10045F001500751600800E75130075140080067553
:10046F001100751200D007D006D005D004D003D0EC
:10047F0002D001D000D0D0D082D083D0F0D0E032E3
:100A2C00E4F5D8F5E9F5F9F5D9750F037510998545
:100A3C0010EBE50FF5FB74992510F5107403350FC9
:100A4C00F50F75DB49750B24750C00850CEAE50B6D
:100A5C00F5FAE4250CF50C7424350BF50B75DA4915
:100A6C00D2DED2AFE4F50EAB1BAD1AAF19020B1CE4
:070CDA00C291D290D2B222B8
:030CFF00D291226D
:030D0200C2912279
:060CEE00A291E433FF2295
:020AA200C1048D
:10000E005389F0438901758C99758AC0D2A9C29023
:05001E00C204C28C22A7
:0E0C830020040A758C99758AC0D28CD2042286
:070CE100C28CC290C2042284
:060CF400A204E433FF221C
:03000B00020CC024
:090CC000758C99758AC0B290325E
:100AA400015D0002560000025400000459000000D9
:0E0AB40000C102C103015800015300015200AD
:100C1300D288D2A8E4F556F557F554F555F55CF5A9
:0A0C23005BF55AF559C202F55D2297
:100C4500200212E4F556F557D2A8D202F554F5550F
:060C5500D20375580222D3
:030D0500C2022205
:100C7100E4F556F557F554F555F55CF55BF55AF580
:020C81005922F6
:10070700E558D394004005D55802D2030553E55365
:10071700C39401407BE4F55330026ED3E557940050
:10072700E5569400401CAE56AF577C0F7DA01200D3
:10073700578E548F55C3E5559419E55494005008C6
:100747008000755400755519D3E5579400E5569404
:10075700004021AE56AF577C0F7DA012018CE55C9F
:100767002FF55CE55B3EF55BE55A3DF55AE5593CEF
:10077700F5598015E55C2464F55CE4355BF55BE4CD
:10078700355AF55AE43559F559E4F556F557D20374
:0307970030021B12
:10079A000552E552C394034012E4F552E55DB401F3
:0B07AA00047F0280027F018F5DD203FC
:0107B5002221
:100C5B00300312C203E55DB401030208B1E55DB4D4
:060C6B00020312065522EF
:1008B10075430AAE54AF557C277D101200697C0048
:1008C1007D0A1200698D44AE54AF557C037DE81258
:1008D10000697C007D0A1200698D45AE54AF557CDC
:1008E100007D641200697C007D0A120069AB05AECF
:1008F10054AF557C007D0A1200697C007D0A12000C
:1009010069AA05AE54AF557C007D0A120069AF0596
:0E091100AD0285454F854450854351020BCF02
:10065500E47BE87A03F9F8AF5CAE5BAD5AAC5912AE
:1006650000FA8F4B8E4A8D498C4875430BE47B10FD
:100675007A27F9F81200FAE47B0AFAF9F81200FA77
:10068500AF038F44E47BE87A03F9F8AF4BAE4AAD8C
:1006950049AC481200FAE47B0AFAF9F81200FAAFFD
:1006A500038F45E47B64FAF9F8AF4BAE4AAD49AC2C
:1006B500481200FAE47B0AFAF9F81200FAAF038F40
:1006C50046E47B0AFAF9F8AF4BAE4AAD49AC48129D
:1006D50000FAE47B0AFAF9F81200FAAF038F47E44F
:1006E5007B0AFAF9F8AF4BAE4AAD49AC481200FAAD
:1006F500AF0385454F854450854351AB46AD470211
:020705000BCF18
:030D08000208B12D
:030D0B0002065588
:050006008F5DD2032212
:030D0E00AF5D22B4
:050CFA00AE54AF5522CD
:090CC900AF5CAE5BAD5AAC5922E0
:03000300020C915B
:0D0C9100C0E00557E55770020556D0E0326F
:1001E5000D0A3D3D3D3D3D3D3D3D3D3D3D3D3D3D9D
:1001F5003D3D3D3D3D3D3D3D3D3D3D3D3D3D0D0A8D
:100205000020E6B587E88AB1E7B3BBE7BB9FE4B852
:10021500B2E58FA3E68EA7E588B6E7958CE99DA2A2
:10022500200D0A003D3D3D3D3D3D3D3D3D3D3D3DB6
:100235003D3D3D3D3D3D3D3D3D3D3D3D3D3D3D3DE9
:100245000D0A00E591BDE4BBA4E6A0BCE5BC8F3A70
:100255002054494D453A48483A4D4D3A53530D0AB5
:1002650000E4BE8BE5A6823A2054494D453A313427
:100275003A33303A30300D0A0054494D453A000DB5
:100285000AE697B6E997B4E8AEBEE7BDAEE6889054
:10029500E58A9F3A20000D0A000D0AE99499E8AF16
:1002A500AF3A20E697A0E69588E79A84E697B6E9FF
:1002B50097B4E580BC0D0A00E697B6E997B4E6A0C9
:1002C500BCE5BC8F3A20484828302D3233293A4DB9
:1002D5004D28302D3539293A535328302D353929B4
:1002E5000D0A000D0AE99499E8AFAF3A20E697B6F2
:1002F500E997B4E6A0BCE5BC8FE99499E8AFAF0DEA
:100305000A00E6ADA3E7A1AEE6A0BCE5BC8F3A20A6
:1003150054494D453A48483A4D4D3A53530D0A0014
:100325000D0AE99499E8AFAF3A20E69CAAE79FA5A4
:10033500E591BDE4BBA40D0A00E694AFE68C81E728
:100345009A84E591BDE4BBA43A2054494D453A4809
:0A035500483A4D4D3A53530D0A008B
:050AC200014100C10527
:1009D60075985053877F53890F438920758BFD7512
:1009E6008DFDD28ED2ACD2AFE4F541C205FE7F209A
:1009F600FDFB7A0079211201B97BFF7A0179E512B4
:100A06000BAA7BFF7A027906120BAA7BFF7A027980
:100A160029120BAA7BFF7A027948120BAA7BFF7A6E
:060A2600027966020BAA32
:080CD2008F993099FDC29922AF
:100BAA008B468A478948AB46AA47A94812003E6045
:100BBA00130548E5487002054714F912003EFF1272
:050BCA000CD280E222C4
:10048F007549FF754A02754B7E754C00754D057B9E
:0E049F00007A007921120842EF600302056224
:1004AD00F543F544F545FB7A007921120026C3EF9B
:1004BD00940DEE94005003020548E52624D075F006
:1004CD000AA4FFE52724D02FF543E52924D075F0A4
:1004DD000AA4FFE52A24D02FF544E52C24D075F08D
:1004ED000AA4FFE52D24D02FF545E543C3941850FC
:1004FD0039E544C3943C5032E545C3943C502BAB95
:10050D0045AD44AF43120B847BFF7A027984120B05
:10051D00AA75283A752B3AE4F52EFB7A0079261246
:10052D000BAA7BFF7A02799B803A7BFF7A02799E38
:10053D00120BAA7BFF7A0279BD80297BFF7A0279A3
:10054D00E8120BAA7BFF7A037907120BAA7BFF7ABD
:03055D00027966BA
:10056000800F7BFF7A037925120BAA7BFF7A037930
:050570003E120BAA225F
:100C2D0030051412048FC205E4F541FE7F20FDFB53
:080C3D007A0079211201B922AD
:0300230002097F50
:10097F00C0E0C0D075D000C000C00730983BC2980F
:03098F002005360A
:10099200859942AF42120CD2E542640A6005E542F3
:1009A200B40D1274212541F87600E541D39400403C
:1009B20015D2058011E541C3941F500AAF4105418C
:0609C20074212FF8A6428B
:0E09C800309902C299D007D000D0D0D0E032D2
:030000000207B63E
:0C07B600787FE4F6D8FD75815D0207FD38
:10003E00BB010689828A83E0225002E722BBFE02C0
:09004E00E32289828A83E49322F3
:10005700EF8DF0A4A8F0CF8CF0A428CE8DF0A42EBD
:02006700FE2277
:10006900BC000BBE0029EF8DF084FFADF022E4CC7B
:10007900F875F008EF2FFFEE33FEEC33FCEE9DEC44
:10008900984005FCEE9DFE0FD5F0E9E4CEFD22ED8A
:10009900F8F5F0EE8420D21CFEADF075F008EF2FD4
:1000A900FFED33FD4007985006D5F0F222C398FDC5
:0500B9000FD5F0EA2262
:1000BE0075F008758200EF2FFFEE33FECD33CDCCF9
:1000CE0033CCC58233C5829BED9AEC99E58298407C
:1000DE000CF582EE9BFEED9AFDEC99FC0FD5F0D659
:1000EE00E4CEFBE4CDFAE4CCF9A88222B800C1B983
:1000FE000059BA002DEC8BF084CFCECDFCE5F0CBC1
:10010E00F97818EF2FFFEE33FEED33FDEC33FCEBF9
:10011E0033FB10D703994004EB99FB0FD8E5E4F9B4
:10012E00FA227818EF2FFFEE33FEED33FDEC33FCA1
:10013E00C933C910D7059BE99A4007EC9BFCE99A95
:10014E00F90FD8E0E4C9FAE4CCFB2275F010EF2FDA
:10015E00FFEE33FEED33FDCC33CCC833C810D707DA
:10016E009BEC9AE899400AED9BFDEC9AFCE899F815
:0E017E000FD5F0DAE4CDFBE4CCFAE4C8F922A8
:10018C00EC8EF0A4CCC5F0CCCDF8EFA4CEC5F02D00
:10019C00FDE43CFCE8A42EC8C5F03DFDE43CFCEFBE
:0D01AC00A4FFE5F028FEE43DFDE43CFC224C
:100842008B468A478948AB49AA4AA94B12003EFE09
:10085200AB46AA47A94812003EFF6E702BEF600D0F
:10086200E54D154D7002154C14454C70037F002266
:1008720074012548F548E43547F5477401254BF5E1
:100882004BE4354AF54A80BEAB46AA47A948120056
:100892003EFDD3EE6480F8ED64809840037F012230
:0F08A200AB49AA4AA94B12003EFFC3ED9FFF22AC
:10002600E4FFFE12003E600C0FEF70010E09E9704E
:05003600F20A80EF2238
:1001B900EF4E6012EF60010EEDBB010B89828A835D
:1001C900F0A3DFFCDEFA2289F05007F709DFFCA96A
:0C01D900F022BBFEFCF309DFFCA9F022C1
:1007C200020B5BE493A3F8E493A34003F68001F2E7
:1007D20008DFF48029E493A3F85407240CC8C33338
:1007E200C4540F4420C8834004F456800146F6DF07
:1007F200E4800B0102040810204080900A7CE47E11
:10080200019360BCA3FF543F30E509541FFEE493FB
:10081200A360010ECF54C025E060A840B8E493A3C2
:10082200FAE493A3F8E493A3C8C582C8CAC583CAED
:10083200F0A3C8C582C8CAC583CADFE9DEE780BEA5
:010AC700002E
:00000001FF
