:0B0EC900011C00C100C101021D00005F
:100A920020B30B200008D200E4F51DF51E2220B37E
:100AA2002C300029051EE51E7002051D64F4700439
:100AB200E51D64016003020B71E51C6003020B710A
:100AC200751C02E51C14FF121088D2012220B30308
:100AD200020B71200003020B71C3E51E94F4E51DA5
:100AE20094015047E51C14602314603014603114E3
:100AF20060322404706C751C011210A412101912B9
:100B02000FD87F0112109A120FEE8056E4F51C12D4
:100B120010A71210AAE4FF12109A80467F018006E5
:100B22007F0280027F03120E7D8037C3E51E94F49C
:100B3200E51D9401402C300104C2018025E51CC34F
:100B42009402401EE51CD394045017051CE51C9426
:100B5200044008E4F51C1210468007E51C14FF123D
:100B62001088C200E4F51DF51E7F14FE120F9E22AE
:100F7B00D2AF7580FF120E2D12107A1210041210C0
:100F8B002B120FBE120A92120FEE7F0A7E00120F67
:030F9B009E80F144
:0C1052003F065B4F666D7D077F6F3971B4
:100ED40003190000000811000000000000000001D8
:0B0EE4000800010901010D00010A00D7
:100F9E00E4FDFCC3ED9FEC9E5015E4FBFA0BBB0089
:0F0FAE00010AEB64784A70F50DBD00010C80E478
:010FBD002211
:09105E007F087811E4F608DFFCBC
:011067002266
:080F10008F0AAB1BAD1AAF19EB
:100F1800AE0712105EEB75F00A84E5F0901052935C
:100F2800F511EB75F00A8493F512ED75F00A84E576
:100F3800F093F513ED75F00A8493F514EE75F00A45
:0F0F480084E5F093F515EE75F00A8493F5162203
:100F5700AE0712105EEE90105293F511ED93F51255
:100F6700EB93F513E52D93F514E52E93F515E52F82
:040F770093F51622B6
:100DCD00D2A3E509F4FFE4FEEF30E703D38001C3BE
:100DDD0092A0C2A1D2A1EF25E0FF0EBE08EA7411C8
:100DED002508F8E6FFE4FEEF30E703D38001C39258
:100DFD00A0C2A1D2A1EF25E0FF0EBE08EAC2A2D289
:100E0D00A2C2A3E508045407F508E50925E0FFE5AE
:0F0E1D0009C413131354014FF50970037509012C
:010E2C0022A3
:061088008F0DE4F50A22C1
:0C104600E4F50DAB1BAD1AAF19020F183A
:100E7D00EF24FE601A14602A24027037E51924014C
:100E8D00FFE433FE7C007D181208128D198024E5D5
:100E9D001A2401FFE433FE7C007D3C1208128D1AEA
:100EAD008011E51B2401FFE433FE7C007D3C12081C
:0C0EBD00128D1BAB1BAD1AAF19020F18F1
:03003B0002096255
:10096200C0E0C0F0C083C082C0D075D000C000C05B
:1009720001C002C003C004C005C006C00730D918B8
:10098200C2D98510EBE50FF5FB74992510F51074AB
:1009920003350FF50F120DCD20D803020A77C2D806
:1009A200850CEAE50BF5FAE4250CF50C7424350BFD
:1009B200F50B050EE50EC394644060750E00B2900F
:1009C200120C24051BE51BC3943C4019751B000542
:1009D2001AE51A943C400E751A000519E519941887
:1009E2004003751900E50DD394004024E50A700414
:1009F2007F0180027F00120F10E50A6078E50D2466
:100A0200FE60091460082402706B80538059805F75
:100A12001210B3EF705F120F12805AE50E75F014C8
:100A220084E5F0700B1210B3EF6005120C248045C0
:100A3200E50E75F03284E5F0703BE50DD39400408D
:100A420034E50A70047F0180027F00120F10E50A6C
:100A52006023E50D24FE600F1460142402701675E5
:100A62001500751600800E7513007514008006754A
:100A72001100751200D007D006D005D004D003D0E3
:100A820002D001D000D0D0D082D083D0F0D0E032DA
:100E2D00E4F5D8F5E9F5F9F5D9750F037510998540
:100E3D0010EBE50FF5FB74992510F5107403350FC4
:100E4D00F50F75DB49750B24750C00850CEAE50B68
:100E5D00F5FAE4250CF50C7424350BF50B75DA4910
:100E6D00D2DED2AFE4F50EAB1BAD1AAF19020F18DF
:07107A00C291D290D2B22214
:0310A400D29122C4
:0310A700C29122D1
:06108E00A291E433FF22F1
:020EEF00C1043C
:101004005389F0438901758C99758AC0D2A9C2901D
:05101400C204C28C22A1
:0E102B0020040A758C99758AC0D28CD20422DA
:07108100C28CC290C20422E0
:06109400A204E433FF2278
:03000B0002106878
:09106800758C99758AC0B29032B2
:100EF100013B000234000002320000043700000010
:0E0F010000C102C103013600013100013000C1
:100FBE00D288D2A8E4F534F535F532F533F53AF5A5
:0A0FCE0039F538F537C202F53B2271
:100FD800200212E4F534F535D2A8D202F532F53301
:060FE800D203753602225F
:0310AA00C202225D
:10101900E4F534F535F532F533F53AF539F538F5C2
:0210290037226C
:100C2400E536D394004005D53602D2030531E531CB
:100C3400C39401407BE4F53130026ED3E535940072
:100C4400E5349400401CAE34AF357C0F7DA012080F
:100C5400008E328F33C3E5339419E5329400500883
:100C64008000753200753319D3E5359400E534946A
:100C7400004021AE34AF357C0F7DA0120935E53A32
:100C84002FF53AE5393EF539E5383DF538E5373C99
:100C9400F5378015E53A2464F53AE43539F539E455
:100CA4003538F538E43537F537E4F534F535D2031E
:030CB40030021BF0
:100CB7000530E530C394034012E4F530E53BB40159
:0B0CC700047F0280027F018F3BD203FC
:010CD20022FF
:100FEE00300312C203E53BB40103020D5FE53BB4CF
:060FFE000203120B722237
:100D5F0075210AAE32AF337C277D101208127C004A
:100D6F007D0A1208128D22AE32AF337C037DE8125A
:100D7F0008127C007D0A1208128D23AE32AF337C2D
:100D8F00007D641208127C007D0A120812AB05AEBA
:100D9F0032AF337C007D0A1208127C007D0A1208E4
:100DAF0012AA05AE32AF337C007D0A120812AF05CE
:0E0DBF00AD0285232D85222E85212F020F5790
:100B7200E47BE87A03F9F8AF3AAE39AD38AC371214
:100B820008A38F298E288D278C2675210BE47B10D4
:100B92007A27F9F81208A3E47B0AFAF9F81208A3F3
:100BA200AF038F22E47BE87A03F9F8AF29AE28ADD0
:100BB20027AC261208A3E47B0AFAF9F81208A3AFBD
:100BC200038F23E47B64FAF9F8AF29AE28AD27AC92
:100BD200261208A3E47B0AFAF9F81208A3AF038FDE
:100BE20024E47B0AFAF9F8AF29AE28AD27AC261225
:100BF20008A3E47B0AFAF9F81208A3AF038F25E4ED
:100C02007B0AFAF9F8AF29AE28AD27AC261208A361
:100C1200AF0385232D85222E85212FAB24AD2502FE
:020C22000F576A
:0310AD00020D5FD2
:0310B000020B72BE
:05109A008F3BD2032290
:0310B300AF3B222E
:05109F00AE32AF332268
:09107100AF3AAE39AD38AC3722BC
:03000300021039AF
:0D103900C0E00535E53570020534D0E03229
:03000000020CD31C
:0C0CD300787FE4F6D8FD75813B020D1A15
:10080000EF8DF0A4A8F0CF8CF0A428CE8DF0A42E0C
:02081000FE22C6
:10081200BC000BBE0029EF8DF084FFADF022E4CCCA
:10082200F875F008EF2FFFEE33FEEC33FCEE9DEC93
:10083200984005FCEE9DFE0FD5F0E9E4CEFD22EDD9
:10084200F8F5F0EE8420D21CFEADF075F008EF2F23
:10085200FFED33FD4007985006D5F0F222C398FD14
:050862000FD5F0EA22B1
:1008670075F008758200EF2FFFEE33FECD33CDCC48
:1008770033CCC58233C5829BED9AEC99E5829840CB
:100887000CF582EE9BFEED9AFDEC99FC0FD5F0D6A8
:10089700E4CEFBE4CDFAE4CCF9A88222B800C1B9D2
:1008A7000059BA002DEC8BF084CFCECDFCE5F0CB10
:1008B700F97818EF2FFFEE33FEED33FDEC33FCEB49
:1008C70033FB10D703994004EB99FB0FD8E5E4F904
:1008D700FA227818EF2FFFEE33FEED33FDEC33FCF1
:1008E700C933C910D7059BE99A4007EC9BFCE99AE5
:1008F700F90FD8E0E4C9FAE4CCFB2275F010EF2F2A
:10090700FFEE33FEED33FDCC33CCC833C810D70729
:100917009BEC9AE899400AED9BFDEC9AFCE899F864
:0E0927000FD5F0DAE4CDFBE4CCFAE4C8F922F7
:10093500EC8EF0A4CCC5F0CCCDF8EFA4CEC5F02D4F
:10094500FDE43CFCE8A42EC8C5F03DFDE43CFCEF0D
:0D095500A4FFE5F028FEE43DFDE43CFC229B
:100CDF00020F7BE493A3F8E493A34003F68001F2A1
:100CEF0008DFF48029E493A3F85407240CC8C33316
:100CFF00C4540F4420C8834004F456800146F6DFE5
:100D0F00E4800B0102040810204080900EC9E47E9D
:100D1F00019360BCA3FF543F30E509541FFEE493D9
:100D2F00A360010ECF54C025E060A840B8E493A3A0
:100D3F00FAE493A3F8E493A3C8C582C8CAC583CACB
:100D4F00F0A3C8C582C8CAC583CADFE9DEE780BE83
:010F0F0000E1
:00000001FF
