:1012F5000D0A5761746572696E6720537973746559
:101305006D20537461727465640D0A0054696D65CE
:101315002073657474696E6720617661696C6162BA
:101325006C650D0A004175746F207761746572698B
:101335006E6720696E697469616C697A65640D0A06
:0113450000A7
:0B100600016600C103C1040267000086
:100C7E0020B30B200308D203E4F567F5682220B3F6
:100C8E002C3003290568E5687002056764F470046A
:100C9E00E56764016003020D66E5666003020D669A
:100CAE00756602E56614FF12180CD2042220B303F7
:100CBE00020D66200303020D66C3E56894F4E56732
:100CCE0094015050E56614602C14603914603A1487
:100CDE00603B24047075900010E0706F7566011211
:100CEE0018311217B81216917F011200061216A7AC
:100CFE00E4F51A8056E4F566121834121837E4FF3C
:100D0E0012000680467F0180067F0280027F03125A
:100D1E0013E68037C3E56894F4E5679401402C3000
:100D2E000404C2048025E566C39402401EE566D322
:100D3E00940450170566E56694044008E4F56612BF
:100D4E00178B8007E56614FF12180CC203E4F567D3
:090D5E00F5687F14FE1215C7228E
:10134600D2AF7580FF1213961217F712000E1217FE
:1013560039121432121823120A821215547BFF7A9C
:101366001279F512152F7BFF7A13791112152F7B3F
:10137600FF7A13792A12152F120C7E1206D812172D
:10138600551216A71216787F0A7E001215C780E836
:0C1797003F065B4F666D7D077F6F397168
:10101100035F00000048001A00000000000000000B
:0C102100015600015701015B000158005E
:1015C700E4FDFCC3ED9FEC9E5015E4FBFA0BBB005A
:0F15D700010AEB64784A70F50DBD00010C80E449
:0115E60022E2
:0A17A3007F0890001AE4F0A3DFFCB9
:0117AD002219
:081293008F58AB61AD60AF5F45
:10129B00AE071217A3EB75F00A84E5F0901797933E
:1012AB0090001AF0EB75F00A849017979390001B3F
:1012BB00F0ED75F00A84E5F09017979390001CF011
:1012CB00ED75F00A849017979390001DF0EE75F072
:1012DB000A84E5F09017979390001EF0EE75F00AD4
:0A12EB00849017979390001FF022E3
:10147700AE071217A3EE9017979390001AF0ED900E
:1014870017979390001BF0EB9017979390001CF021
:10149700E5409017979390001DF0E54190179793BB
:0F14A70090001EF0E5429017979390001FF022DF
:1011C900D2A3E557F4FFE4FEEF30E703D38001C370
:1011D90092A0C2A1D2A1EF25E0FF0EBE08EA741ABF
:1011E9002556F582E43400F583E0FFE4FEEF30E7AD
:1011F90003D38001C392A0C2A1D2A1EF25E0FF0EC3
:10120900BE08EAC2A2D2A2C2A3E556045407F55603
:10121900E55725E0FFE557C413131354014FF5575C
:05122900700375570180
:01122E00229D
:06180C008F5BE4F5582299
:0C178B00E4F55BAB61AD60AF5F02129B48
:1013E600EF24FE601A14602A24027037E55F240198
:1013F600FFE433FE7C007D181205528D5F8024E5E4
:10140600602401FFE433FE7C007D3C1205528D60B2
:101416008011E5612401FFE433FE7C007D3C12056A
:0C142600528D61AB61AD60AF5F02129BA4
:10122F00EFC39418505DEDC3943C5057EBC3943CFF
:10123F0050518F5F8D608B61900010E06038A3E09C
:10124F00FFE55F9F5023E55FB50709A3E0FFE5606A
:10125F00D39F5015900011E0B55F16A3E0B5601154
:10126F00A3E0FFE561D39F40089000197401F0805F
:10127F0005E4900019F0121846EF7007E55B700354
:04128F001212952280
:03003B0002095B5C
:10095B00C0E0C0F0C083C082C0D075D000C000C062
:10096B0001C002C003C004C005C006C00730D918BF
:10097B00C2D9855EEBE55DF5FB7499255EF55E747A
:10098B0003355DF55D1211C920D803020A67C2D881
:10099B00855AEAE559F5FAE4255AF55A742435597E
:1009AB00F559055CE55CC394644071755C00B290CD
:1009BB00120D670561E561C3943C40197561000533
:1009CB0060E560943C400E756000055FE55F941830
:1009DB004003755F00120B82E55BD394004024E566
:1009EB005870047F0180027F00121293E558606CEF
:1009FB00E55B24FE60091460082402705F804C8064
:100A0B004F8052121846EF7053E51A70051212956B
:100A1B00804AE51A64017044D20A8040E55C75F0A7
:100A2B003284E5F07036E55BD39400402FE55870C7
:100A3B00047F0180027F00121293E558601EE55B74
:100A4B0024FE600C14600E2402701190001E8008AE
:100A5B0090001C800390001AE4F0A3F0D007D0069E
:100A6B00D005D004D003D002D001D000D0D0D0829A
:070A7B00D083D0F0D0E0327F
:10139600E4F5D8F5E9F5F9F5D9755D03755E998536
:1013A6005EEBE55DF5FB7499255EF55E7403355DD0
:1013B600F55D75DB49755924755A00855AEAE55974
:1013C600F5FAE4255AF55A74243559F55975DA496A
:1013D600D2DED2AFE4F55CAB61AD60AF5F02129BCB
:0717F700D291D290D2B22280
:03183100C291223F
:03183400D291222C
:0A17AE002091047F0180027F0022D9
:04102D00C106C10532
:10000E005389F0438901758C4CE4F58AD2A9C290CC
:05001E00C206C28C22A5
:0E17390020060A758C4CE4F58AD28CD206226A
:0717FE00C28CC290C206225A
:06181200A206E433FF22F0
:03000B0002174792
:0D174700758C4C758A00B205200502B29029
:011754003262
:10002600546F74616C20466C6F773A200030002064
:050036006D6C0D0A00D5
:10103100011000020D0000020B0000C100C10101FE
:101041000F00010A00C102041100000000010900A3
:0310510001080093
:100A8200E4F54CF54DD288D2A8F50DF50EF50BF52F
:100A92000C1218188F658E648D638C628F148E13FE
:100AA2008D128C117BFF7A00792612152FE4FFFE3E
:100AB200FDFCAB65AA64A963A862C312067570093E
:100AC2007BFF7A007933020B6C8565518564508512
:100AD200634F85624EE4F54CE4FFFEFDFCAB51AA88
:100AE20050A94FA84ED31206754040E54C940A50C7
:100AF2003AE47B0AFAF9F8AF51AE50AD4FAC4E1260
:100B020005E3EB2430FFAE4C054C74402EF8A607EB
:100B1200AF51AE50AD4FAC4EE47B0AFAF9F8120574
:100B2200E38F518E508D4F8C4E80ADE54C700AAFE5
:100B32004C054C74402FF87630E4F54DE54CD394D7
:100B420000401BE54D940A5015154C7440254CF895
:100B5200E6FFAE4D054D74342EF8A60780DE7434E0
:100B6200254DF8E4F6FB7A00793412152F7BFF7AD3
:0F0B720000793512152FC200E4F510F50AC20202
:010B81002251
:10169100200012E4F50DF50ED2A8D200F50BF50CE1
:0616A100D201750F0222C8
:03183700C20022CA
:0A17B800E4F50DF50EF50BF50C221B
:10170B00E4F565F564F563F562FFFEFDFC0216BDBD
:100D6700E50FD394004005D50F02D2010509E50927
:100D7700C394015003020E0FE4F509300071850D8D
:0F0D87000B850E0CD3E50C9400E50B9400406037
:100D9600856525856424856323856222E4FCFDE55B
:100DA60065250CF565E564350BF564ED3563F5638E
:100DB600EC3562F562AF25AE24AD23AC22AB65AA55
:100DC60064A963F8C31206756002D202C3E565958D
:100DD60014FFE5649513FEE5639512FDE562951132
:100DE600FCE47B32FAF9F8D3120675500312165E4C
:100DF600050AE50AC3940A4009E4F50A300203121B
:0C0E0600165EE4F50DF50ED20130001B65
:100E12000508E508C394034012E4F508E510B4019F
:0B0E2200047F0280027F018F10D201CC
:010E2D0022A2
:10165E00AF65AE64AD63AC621216BD85651485646C
:0A166E0013856312856211C2022287
:1014B6001218188F1F8E1E8D1D8C1C7F3F7E427D3D
:1014C6000F7C00AB1FAA1EA91DA81CD312067540CF
:1014D60010E4F51FF51EF51DF51CFFFEFDFC1216AA
:0914E600BDAF1FAE1EAD1DAC1C14
:0114EF0022DA
:03183A0002165E35
:0917CC00AF14AE13AD12AC1122F2
:03183D00A20222E2
:1016A700300112C201E510B4010302107EE510B447
:0616B7000203120E2E22B8
:10107E00AB0CAA0B75340A7C277D10AF03AE02129F
:10108E0005527C007D0A1205528D357C037DE8AF3A
:10109E0003AE021205527C007D0A1205528D367C7B
:1010AE00007D64AF03AE021205527C007D0A12056C
:1010BE00528D377C007D0AAF03AE021205527C00C2
:1010CE007D0A1205528D38AE02AF037C007D0A12E6
:1010DE000552AF05853640853541853442AB37AD77
:0410EE003802147739
:100E2E0085653C85643B85633A85623975340BE490
:100E3E007B107A27F9F8AF3CAE3BAD3AAC391205D0
:100E4E00E3E47B0AFAF9F81205E3AF038F35E47B8E
:100E5E00E87A03F9F8AF3CAE3BAD3AAC391205E394
:100E6E00E47B0AFAF9F81205E3AF038F36E47B64EC
:100E7E00FAF9F8AF3CAE3BAD3AAC391205E3E47B80
:100E8E000AFAF9F81205E3AF038F37E47B0AFAF991
:100E9E00F8AF3CAE3BAD3AAC391205E3E47B0AFA4F
:100EAE00F9F81205E3AF038F38E47B0AFAF9F8AFCD
:100EBE003CAE3BAD3AAC391205E3AF038536408507
:0C0ECE003541853442AB37AD3802147753
:0318400002107E15
:03184300020E2E64
:050006008F10D2012261
:03184600AF1022BE
:05181E00AE0BAF0C222F
:0917D500AF65AE64AD63AC6222A5
:0300030002177170
:0D177100C0E0050EE50E7002050DD0E0325F
:100324000D0A53797374656D2052656164790D0A01
:100334000054494D453A48483A4D4D3A53530D0AF5
:1003440000413A48483A4D4D3A53533A4D4D4D4D7C
:100354000D0A0054494D453A000D0A54696D652053
:100364005365743A20000D0A000D0A4572726F72CB
:100374003A20496E76616C69642074696D650D0A72
:1003840000466F726D61743A20484828302D32332C
:10039400293A4D4D28302D3539293A535328302DDB
:1003A4003539290D0A000D0A4572726F723A2057C9
:1003B400726F6E6720666F726D61740D0A00466F0E
:1003C400726D61743A2054494D453A48483A4D4D4E
:1003D4003A53530D0A004578616D706C653A2054A8
:1003E400494D453A31343A33303A30300D0A004100
:1003F4003A000D0A4175746F20536574204F4B0DFC
:100404000A0054696D653A20000D0A566F6C756DCB
:10041400653A20006D6C0D0A000D0A4572726F7208
:100424003A20496E76616C696420706172616D7303
:100434000D0A0054696D653A20484828302D32333E
:10044400293A4D4D28302D3539293A535328302D2A
:100454003539290D0A00566F6C756D653A203530B3
:100464002D393939396D6C0D0A00466F726D61741E
:100474003A20413A48483A4D4D3A53533A4D4D4D3E
:100484004D0D0A004578616D706C653A20413A3033
:10049400363A30303A30313A303130300D0A005388
:1004A400544F50000D0A4175746F2053746F70706F
:1004B40065640D0A000D0A4572726F723A20556E1A
:1004C4006B6E6F776E20636D640D0A00436F6D6D04
:1004D400616E64733A0D0A0054494D453A48483AEE
:1004E4004D4D3A5353202D205365742074696D6526
:1004F4000D0A00413A48483A4D4D3A53533A4D4D4E
:100504004D4D202D20536574206175746F0D0A00C4
:1005140053544F50202D2053746F70206175746FA5
:030524000D0A00BD
:05105400016900C10963
:1014320075985053877F53890F438920758BFD75AB
:101442008DFDD28ED2ACD2AFE4F569C209FE7F1017
:10145200FD7B017A0079001206AC7BFF7A037924C6
:1014620012152F7BFF7A03793512152F7BFF7A0332
:05147200794502152F71
:0817E7008F993099FDC299228F
:061529007BFF7A0379AAA2
:10152F008B528A538954AB52AA53A9541205276080
:10153F00130554E5547002055314F9120527FF12D1
:05154F0017E780E22215
:10003E00753CFF753D03753E57753F007540057B5A
:0E004E00017A0079001210F2EF600302011C2B
:10005C00F534F535F5367B017A0079001216D2C3EA
:10006C00EF940DEE94005003020107900005E0247C
:10007C00D075F00AA4FFA3E024D02FF5349000082B
:10008C00E024D075F00AA4FFA3E024D02FF535901E
:10009C00000BE024D075F00AA4FFA3E024D02FF5C8
:1000AC0036E534C394185041E535C3943C503AE5D9
:1000BC0036C3943C5033AB36AD35AF3412122F7B74
:1000CC00FF7A03795D12152F900007743AF09000B7
:1000DC000AF0E490000DF07B017A00790512152FDF
:1000EC007BFF7A03796A0203207BFF7A03796D1216
:1000FC00152F7BFF7A0379850203201215297BFFCC
:0D010C007A0379C212152F7BFF7A0379DA8E
:10011900020320753CFF753D03753EF3753F00757D
:1001290040027B017A0079001210F2EF60030202AB
:01013900D0F5
:10013A007B017A0079001216D2C3EF940FEE940075
:10014A0050030202BC900002E024D075F00AA4FF1A
:10015A00A3E024D02FF534900005E024D075F00AEE
:10016A00A4FFA3E024D02FF535900008E024D07531
:10017A00F00AA4FFA3E024D02FF536E4F537F538CA
:10018A0090000BE0FF3395E0FEEF24D0FFEE34FF42
:10019A00FE7C037DE8120540EF2538F538EE353749
:1001AA00F537A3E0FF3395E0FEEF24D0FFEE34FFEE
:1001BA00FE7C007D64120540EF2538F538EE3537B0
:1001CA00F537A3E0FF3395E0FEEF24D0FFEE34FFCE
:1001DA00FE7D0A120540EF2538F538EE3537F5373A
:1001EA00A3E0FF3395E0FEEF24D0FFEE34FFFEEFED
:1001FA002538F538EE3537F537E534C3941840031A
:10020A000202A2E535C3943C40030202A2E536C3CA
:10021A00943C40030202A2C3E5389432E5379400C5
:10022A004076D3E538940FE5379427506B90001148
:10023A00E534F0A3E535F0A3E536F0A3E537F0A3FE
:10024A00E538F09000107401F0E4900019F07BFF9B
:10025A007A0379F612152F7BFF7A04790612152F85
:10026A00900004743AF0900007F0E490000AF07BE2
:10027A00017A00790212152F7BFF7A04790D121583
:10028A002FE490000FF07B017A00790B12152F7B77
:10029A00FF7A0479180203207BFF7A04791D12156C
:1002AA002F7BFF7A04793712152F7BFF7A04795A4C
:1002BA0080641215297BFF7A04796E12152F7BFF51
:0402CA007A047988B1
:1002CE008050753CFF753D04753EA3753F0075402B
:1002DE00047B017A0079001210F2EF700B121625D2
:1002EE007BFF7A0479A8802A7BFF7A0479B91215EC
:1002FE002F7BFF7A0479D012152F7BFF7A0479DCDD
:10030E0012152F7BFF7A0479F712152F7BFF7A05D2
:06031E00791412152F22D4
:1016780030091512003EC209E4F569FE7F10FD7BB2
:09168800017A0079001206AC227F
:0300230002116166
:10116100C0E0C083C082C0D075D000C007309848AD
:05117100C298200943B3
:10117600859933AF331217E7E533640A6005E53323
:10118600B40D1874002569F582E43400F583E4F0A3
:10119600E569D39400401CD2098018E569C3940F11
:1011A6005011AF69056974002FF582E43400F583A8
:0311B600E533F02E
:1011B900309902C299D007D0D0D082D083D0E03202
:101059004A001000060001006400000000011A00A7
:0E106900011900C10A011B000415000000005F
:0817DE007F1EAE071FEE70FA3A
:0117E60022E0
:101554004390FC121823E4900010F0A37406F0E406
:10156400A3F0A304F0A3E4F0A37464F0E4A3F0A351
:0A157400F0A3F0A3F0F51AF5192218
:1006D800E4F5342092034334012093034334022089
:1006E8009403433404209503433408209603433489
:1006F80010209703433420E51BF45534F53530E0DA
:10070800221217DE20921C900010E06013121625AA
:10071800E4F51AAB61AD60AF5F12129BD20A800399
:10072800121642E53530E5121217DE20970CE5194E
:10073800045403F519751A01D20AE53530E16A1235
:1007480017DE209364E51914601A146027146039C1
:1007580024037050900011E02401FFE433FE7C0074
:100768007D18801E900012E02401FFE433FE7C0017
:100778007D3C800E900013E02401FFE433FE7C00F2
:100788007D3C120552EDF0801BC3900015E094DE0D
:10079800900014E09426500CA3E02432F09000144A
:1007A800E03400F0751A01D20AE53530E274121708
:1007B800DE20946EE51914601F1460311460432420
:1007C80003705A900011E0FF70047F178003EF1444
:1007D800FF900011EFF08045900012E0FF70047F59
:1007E8003B8003EF14FF900012EFF080309000136D
:1007F800E0FF70047F3B8003EF14FF900013EFF0DD
:10080800801BD3900015E09432900014E0940040CF
:100818000CA3E024CEF0900014E034FFF0751A0128
:05082800D20A85341B1B
:01082D0022A8
:101642009000107401F0E4900016F0900019F0F58B
:0C1652001AD20AAB61AD60AF5F02129BC0
:10162500E4900010F0900019F0900016E0600DE4D1
:0D163500F0121834121837E4FF12000622DC
:100B8200900010E07003020C7D900016E0700302EA
:100B92000C211217D58F258E248D238C22C3E52597
:100BA2009518F529E5249517F528E5239516F527D7
:100BB200E5229515F526900014E0FEA3E0FFE4FC83
:100BC200FDAB29AA28A927A826C3120675402FE43F
:100BD200900016F090001904F0121834121837E43D
:100BE200FF120006AF25AE24AD23AC221216BDE4DF
:100BF200F51AAB61AD60AF5F12129BD20A22C390AD
:100C02000015E09529FE900014E09528900017F059
:100C1200A3CEF0E51A64016062751A01D20A22902D
:100C22000019E07043900011E0655F703BA3E0653E
:100C3200607035A3E0B561309000167401F0900049
:100C420014E0FFA3E0900017CFF0A3EFF01217D546
:100C52008F188E178D168C151218311216917F016E
:100C6200120006751A01D20A900019E0600DE55FC4
:0B0C72007009E5607005E5617001F09D
:010C7D002254
:10082E00900016E0602CA3E0FAA3E0FB7C007D0AAA
:10083E00FFAE021205528D347C007D0AAF03AE026C
:10084E001205527C007D0A1205528D35900017025A
:10085E00090BE5191460321460541460752403609A
:10086E000302093C900011E0FF75F00A8485F03414
:10087E00EF75F00A8475F00A8485F035E4F536F5E7
:10088E0037F538753903020949900012E0FF75F00B
:10089E000A8485F034EF75F00A8475F00A8485F0C9
:1008AE0035E4F536F537F538753902020949900009
:1008BE0013E0FF75F00A8485F034EF75F00A847545
:1008CE00F00A8485F035E4F536F537F538753901DB
:1008DE008069900014E0FAA3E0FB7C007D0AFFAE75
:1008EE00021205528D347C007D0AAF03AE02120552
:1008FE00527C007D0A1205528D35900014A3E07CC7
:10090E00007D64FFAE021205527C007D0A12055274
:10091E008D367C037DE8AF03AE021205527C007D5E
:10092E000A1205528D37E4F538753905800DE4F558
:10093E0039F538F537F536F535F5348537408538E0
:0D094E0041853942AB36AD35AF3402147728
:0E175500300A0AC20AE51AB4010312082E2255
:061077000462000000000D
:0D177E00D2A500D2A600C2A500C2A600227E
:0A17C200C2A500D2A600D2A50022A5
:0F171B00A20892A500D2A600C2A600D2A5002265
:1016E700D2A500D2A60030A505C2A600D322C2A665
:0316F70000C3220B
:0B157E00AF32AE31AD30AC2F1206864C
:10158900E4FEEF30E703D38001C392A5D2A600C2DF
:0D159900A600EF25E0FF0EBE08E80216E7F1
:1015A600E4FFD2A5FED2A600EF25E0FFA2A5E43314
:1015B6004207C2A6000EBE08ECA207920812171B2D
:0115C6002202
:10160700AC0712177E7FA0121589AF04121589AF98
:0E161700051215891217C27F0A7E000215C740
:0215E700AD074E
:1015E90012177E7FA0121589AF0512158912177E71
:0D15F9007FA1121589D2071215A61217C284
:0116060022C1
:1014F000AD0712177E7FA0121589AF05121589E579
:1015000032FF121589780812157E781012157EAFF9
:1015100032AE31AD30AC2F78181206861215891212
:0915200017C27F147E000215C7FA
:020EDA00AB0764
:100EDC00E4F555F554F553F55212177E7FA0121513
:100EEC0089AF0312158912177E7FA1121589C207CB
:100EFC001215A6E48F55F554F553F552C207121589
:100F0C00A6E4FCFDFE7808120699E5554FF555E56B
:100F1C00544EF554E5534DF553E5524CF552C2077A
:100F2C001215A6E4FCFDFE7810120699E5554FF556
:100F3C0055E5544EF554E5534DF553E5524CF552E9
:100F4C00D2071215A6E4FCFDFE7818120699E55599
:100F5C004FF555E5544EF554E5534DF553E5524CCC
:0D0F6C00F5521217C2AF55AE54AD53AC5242
:010F79002255
:0F172A007F201215E7EF64556003D38001C322BF
:071805007D557F200216074C
:01184C002279
:01184D002278
:1016FA0085653285643185633085622F7F040214E3
:01170A00F0EE
:0E1763007F04120EDA8F658E648D638C622215
:05182300D2A5D2A622AF
:05182800121589C32226
:0817EF00A20B92071215A622BD
:031849000216077D
:04182D001215E72287
:1016BD008F2D8E2C8D2B8C2A8F328E318D308C2F41
:0516CD00E4FF0214F02F
:06181800E4FF120EDA22CB
:03000000020F7A72
:0C0F7A00787FE4F6D8FD758169020FC194
:10052700BB010689828A83E0225002E722BBFE02D2
:09053700E32289828A83E4932205
:10054000EF8DF0A4A8F0CF8CF0A428CE8DF0A42ECF
:02055000FE2289
:10055200BC000BBE0029EF8DF084FFADF022E4CC8D
:10056200F875F008EF2FFFEE33FEEC33FCEE9DEC56
:10057200984005FCEE9DFE0FD5F0E9E4CEFD22ED9C
:10058200F8F5F0EE8420D21CFEADF075F008EF2FE6
:10059200FFED33FD4007985006D5F0F222C398FDD7
:0505A2000FD5F0EA2274
:1005A70075F008758200EF2FFFEE33FECD33CDCC0B
:1005B70033CCC58233C5829BED9AEC99E58298408E
:1005C7000CF582EE9BFEED9AFDEC99FC0FD5F0D66B
:1005D700E4CEFBE4CDFAE4CCF9A88222B800C1B995
:1005E7000059BA002DEC8BF084CFCECDFCE5F0CBD3
:1005F700F97818EF2FFFEE33FEED33FDEC33FCEB0C
:1006070033FB10D703994004EB99FB0FD8E5E4F9C6
:10061700FA227818EF2FFFEE33FEED33FDEC33FCB3
:10062700C933C910D7059BE99A4007EC9BFCE99AA7
:10063700F90FD8E0E4C9FAE4CCFB2275F010EF2FEC
:10064700FFEE33FEED33FDCC33CCC833C810D707EC
:100657009BEC9AE899400AED9BFDEC9AFCE899F827
:0E0667000FD5F0DAE4CDFBE4CCFAE4C8F922BA
:10067500EB9FF5F0EA9E42F0E99D42F0E89C45F0DB
:010685002252
:10068600E8600FECC313FCED13FDEE13FEEF13FF52
:03069600D8F12276
:10069900E8600FEFC333FFEE33FEED33FDEC33FCBF
:0306A900D8F12263
:1010F2008B398A3A893BAB3CAA3DA93E120527FEB1
:10110200AB39AA3AA93B120527FF6E702BEF600D8F
:10111200E54015407002153F14453F70037F0022E1
:101122007401253BF53BE4353AF53A7401253EF569
:101132003EE4353DF53D80BEAB39AA3AA93B1205E6
:1011420027FDD3EE6480F8ED64809840037F01228E
:0F115200AB3CAA3DA93E120527FFC3ED9FFF222C
:1016D200E4FFFE120527600C0FEF70010E09E9709E
:0516E200F20A80EF2276
:1006AC00EF4E6012EF60010EEDBB010B89828A8365
:1006BC00F0A3DFFCDEFA2289F05007F709DFFCA972
:0C06CC00F022BBFEFCF309DFFCA9F022C9
:100F8600021346E493A3F8E493A34003F68001F228
:100F960008DFF48029E493A3F85407240CC8C3336C
:100FA600C4540F4420C8834004F456800146F6DF3B
:100FB600E4800B0102040810204080901006E47EB5
:100FC600019360BCA3FF543F30E509541FFEE49330
:100FD600A360010ECF54C025E060A840B8E493A3F7
:100FE600FAE493A3F8E493A3C8C582C8CAC583CA22
:100FF600F0A3C8C582C8CAC583CADFE9DEE780BEDA
:01107D000072
:00000001FF
