:101180000D0A5761746572696E67205379737465CF
:101190006D20537461727465642076342E3020287B
:1011A000382D446967697420446973706C617929CA
:1011B0000D0A004175746F20446973706C61793A4F
:1011C0002054696D653C2D3E4461746520657665EB
:1011D00072792035207365636F6E64730D0A004465
:1011E00061746520466F726D61743A20595959597E
:1011F0004D4D44442028382D646967697420667514
:101200006C6C20646973706C6179290D0A005469F3
:101210006D6520466F726D61743A20202048484DFC
:101220004D53532028362D646967697420726967AD
:10123000687420646973706C6179290D0A005033F9
:101240002E33204B65793A204C6F6E6720707265A3
:10125000737320746F2073657420646174652F74D8
:10126000696D650D0A0053657474696E67206F724D
:101270006465723A20596561722D3E4D6F6E7468D7
:101280002D3E4461792D3E486F75722D3E4D696E3D
:081290002D3E5365630D0A00B9
:0C195900015600C103C1044200760000EA
:100C600020B30D20030AD203E4900076F0A3F02213
:100C700020B33A300337900077E004F0700690001C
:100C800076E004F0900076E07004A3E06464600312
:100C9000020DDEE5566003020DDE7556027F01127D
:100CA00025A17F0112246E1225A7D2042220B303AE
:100CB000020DDE200303020DDEC3900077E0946492
:100CC000900076E094004003020D50E556B4080011
:100CD0004003020DCF900CDCF8282873020CF402BC
:100CE0000D20020D34020D38020D3C020D40020DA4
:100CF00044020D48900019E0600990001FE0600375
:100D0000020DCF7556011222311225CC12257D120B
:100D100024847F011225B312249AE4F51F020DCF1B
:100D2000E4F5561225CF1225D2E4FF1225B3121B8B
:100D30008C020DCF7F0180127F02800E7F03800A1C
:100D40007F0480067F0580027F06121819020DCFEE
:100D5000C3900077E09464900076E0940040703097
:100D60000404C2048069E556C394024062E556D388
:100D70009407505B0556E55694074010E4F556126B
:100D800024DAE4FF12246E1225A78043E55624FDE1
:100D9000601414601514601B14602114602724056E
:100DA000702D7F0180067F0280027F031225A17FC4
:100DB0000180197F041225A1E4FF80107F05122510
:100DC000A1E4FF80077F061225A1E4FF12246EC272
:0F0DD00003E4900076F0A3F07F14FE1223C522F7
:101DCB00D2AF7580FF121D5D12259A12000E1225DF
:101DDB002E121E361225B81210671222AB7BFF7A19
:101DEB001179801222E47BFF7A1179B31222E47B02
:101DFB00FF7A1179DF1222E47BFF7A12790E12221D
:101E0B00E47BFF7A12793E1222E47BFF7A12796629
:101E1B001222E4120C60120DDF12254A12249A12C0
:0B1E2B00243D7F0A7E001223C580E8E2
:102456003F065B4F666D7D077F6F39711F1C1F1E20
:082466001F1E1F1F1E1F1E1F79
:10196500070E07E9010100000048006600000000BD
:1019750000000000010B00010800010901010C0035
:07198500010A0041006100AE
:1023C500E4FDFCC3ED9FEC9E5015E4FBFA0BBB004E
:0F23D500010AEB64784A70F50DBD00010C80E43D
:0123E40022D6
:0A2572007F08900066E4F0A3DFFC90
:01257C00223C
:061FD500AB14AD13AF12C6
:101FDB00AE07122572EB75F00A84E5F09024569348
:101FEB00900066F0EB75F00A84902456939000678E
:101FFB00F0ED75F00A84E5F090245693900068F0AC
:10200B00ED75F00A8490245693900069F0EE75F00C
:10201B000A84E5F09024569390006AF0EE75F00A6E
:0F202B00849024569390006BF0E4A3F0A3F0226E
:08149D00AB11AD10AF0FAE0E54
:1014A5008E3D8F3E122572EB75F00A84E5F090248F
:1014B5005693900066F0EB75F00A8490245693904D
:1014C5000067F0ED75F00A84E5F0902456939000DE
:1014D50068F0ED75F00A8490245693900069F0AE9B
:1014E5003DAF3E7C007D0A1208FF74562DF58274CF
:1014F500243CF583E49390006AF0AE3DAF3E7C005A
:101505007D0A1208FF7C007D0A1208FF74562DF52E
:101515008274243CF583E49390006BF0AE3DAF3EBE
:101525007C007D641208FF7C007D0A1208FF74565A
:101535002DF58274243CF583E49390006CF0AE3D68
:10154500AF3E7C037DE81208FF7C007D0A1208FF90
:1015550074562DF58274243CF583E49390006DF068
:011565002263
:1021AB00AE07122572EE90245693900066F0ED90D8
:1021BB00245693900067F0EB90245693900068F0B0
:1021CB00E54090245693900069F0E5419024569396
:1021DB0090006AF0E5429024569390006BF0E4A3D4
:0421EB00F0A3F0224B
:101F6F00D2A3E509F4FFE4FEEF30E703D38001C30A
:101F7F0092A0C2A1D2A1EF25E0FF0EBE08EA7466BF
:101F8F002508F582E43400F583E0FFE4FEEF30E747
:101F9F0003D38001C392A0C2A1D2A1EF25E0FF0E0F
:101FAF00BE08EAC2A2D2A2C2A3E508045407F508EC
:101FBF00E50925E0FFE509C413131354014FF50993
:051FCF0070037509011B
:011FD40022EA
:0625A1008F0CE4F50A2294
:1024DA00E4F50CE50B7009AB14AD13AF12021FDB68
:0424EA0012149D2209
:10181900EF24FE602914604214604D14605D146069
:101829006D2405707A050FE50F7002050ED3943308
:10183900E50E94084069750E07750FD08061051093
:10184900E510D3940C4003751001122407E511D358
:101859009F404C1224078F118045122405E511D3AE
:101869009F403C7511018037E5122401FFE433FEE6
:101879007C007D181208FF8D128024E5132401FFD6
:10188900E433FE7C007D3C1208FF8D138011E514C2
:101899002401FFE433FE7C007D3C1208FF8D14E532
:1018A9000B7009AB14AD13AF12021FDB12149D228A
:101E9F00EFC394185061EDC3943C505BEBC3943C7B
:101EAF0050558F128D138B14900019E06038A3E0FA
:101EBF00FFE5129F5023E512B50709A3E0FFE513D5
:101ECF00D39F501590001AE0B51216A3E0B5131169
:101EDF00A3E0FFE514D39F40089000227401F08027
:101EEF0005E4900022F01225D5EF700BE50C70077A
:081EFF00E50B7003121FD52250
:1020FE008E398F3A8D3B8B3CC3E53A94D0E53994BB
:10210E00074047D3E53A9433E5399408503CE53B14
:10211E00C394014035E53BD3940C502EE53CC3945B
:10212E0001402712240DE53CD39F501E85390E85A4
:10213E003A0F853B10853C111225D5EF700CE50C3E
:0B214E007008E50BB4010312149D2281
:05000600AE0EAF0F2259
:0325BD00AF10223A
:0325C000AF112236
:0325C300AF122232
:0325C600AF13222E
:0325C900AF14222A
:10246E008F0BE50C700FEF7009AB14AD13AF1202AA
:06247E001FDB12149D2279
:0F250100E50B70047F0180027F008F0B02246EB8
:10235900AB07AA06EB5403700AFC7D641208FFED73
:102369004C700FAE02AF037C017D901208FFED4C5B
:072379007003D38001C322B1
:082405000511AD10AF0FAE0E82
:02240D00A9051F
:10240F00B9020812235950037F1D22E990246193CA
:01241F00FFBD
:012420002299
:102159000514E514C3943C4048E4F5140513E5134C
:10216900943C403DE4F5130512E51294184032E41D
:10217900F512122405E511D39F40267511010510AA
:10218900E510D3940C401A751001050FE50F700284
:10219900050ED39433E50E94084006750E07750FA6
:0221A900D02242
:03003B00020AC2F4
:100AC200C0E0C0F0C083C082C0D075D000C000C0FA
:100AD20001C002C003C004C005C006C00730D91C53
:100AE200C2D9900064E0FEA3E0F5EBEEF5FBE02452
:100AF20099F0900064E03403F0121F6F20D80302D3
:100B02000C45C2D8900062E0FEA3E0F5EAEEF5FAE9
:100B1200E02400F0900062E03424F0050DE50DC3FE
:100B220094645003020BD0750D00B2901213A212FE
:100B32002159121298E50CD394004059E50A700429
:100B42007F0180027F008F0AE50CD39403502312A9
:100B5200149DE50A7003020C45E50C24FE600D1499
:100B6200600D24026003020C45020C08020C120202
:100B72000C18121FD5E50A7003020C45E50C24FB84
:100B8200600D14600D24026003020C45020C320257
:100B92000C12020C181225D5EF6003020C45E51F5A
:100BA2007021900061E004F0E0C394054005E4F098
:100BB200122501E50B7006121FD5020C4512149D79
:100BC200020C45E51F6401707AD20A020C45E50D5C
:100BD20075F03284E5F0706BE50CD394004064E567
:100BE2000A70047F0180027F008F0AE50CD3940310
:100BF200502A12149DE50A604AE50C24FE60111485
:100C020060142402703D90006AE4F0A3F0A38030E7
:100C1200900068E4802A900066E48024121FD5E5E3
:100C22000A6020E50C24FB600D146010240270138E
:100C320090006AE4800A900068E48004900066E410
:100C4200F0A3F0D007D006D005D004D003D002D054
:0E0C520001D000D0D0D082D083D0F0D0E032DC
:101D5D00E4F5D8F5E9F5F9F5D99000647403F0A32D
:101D6D007499F0900064E0FEA3E0F5EBEEF5FBE076
:101D7D002499F0900064E03403F075DB4990006223
:101D8D007424F0A3E4F0900062E0FEA3E0F5EAEE27
:101D9D00F5FAE02400F0900062E03424F075DA49A1
:101DAD00D2DED2AFE4F50DF50B900061F0E50B70CE
:0E1DBD0009AB14AD13AF12021FDB12149D22EE
:0625A700E4900061F02247
:07259A00D291D290D2B222CF
:0325CC00C2912297
:0325CF00D2912284
:04198C00C106C105CA
:10000E005389F0438901758C4CE4F58AD2A9C290CC
:05001E00C206C28C22A5
:0E252E0020060A758C4CE4F58AD28CD2062267
:03000B0002253C8F
:0D253C00758C4C758A00B205200502B29026
:01254900325F
:10002600546F74616C20466C6F773A200030002064
:050036006D6C0D0A00D5
:10199000011D00021A000002180000C100C101016F
:1019A0001C00011700C10244006E00000000011677
:0419B000000115001D
:10106700E4F54CF54DD288D2A8F51AF51BF518F51D
:10107700191225AD900072120A59900072E0FCA374
:10108700E0FDA3E0FEA3E0FF90006E120A597BFF8C
:101097007A0079261222E4E4FFFEFDFC900072E05C
:1010A700F8A3E0F9A3E0FAA3E0FBC3120A22700950
:1010B7007BFF7A00793302116A900072E0FCA3E0AB
:1010C700FDA3E0FEA3E0F5518E508D4F8C4EE4F565
:1010D7004CE4FFFEFDFCAB51AA50A94FA84ED3121A
:1010E7000A224040E54C940A503AE47B0AFAF9F8A0
:1010F700AF51AE50AD4FAC4E120990EB2430FFAE5E
:101107004C054C74402EF8A607AF51AE50AD4FAC0E
:101117004EE47B0AFAF9F81209908F518E508D4FE1
:101127008C4E80ADE54C700AAF4C054C74402FF8DF
:101137007630E4F54DE54CD39400401BE54D940A19
:101147005015154C7440254CF8E6FFAE4D054D740F
:10115700342EF8A60780DE7434254DF8E4F6FB7AC2
:101167000079341222E47BFF7A0079351222E4C237
:0811770000E4F51DF517C202AA
:01117F00224D
:10248400200012E4F51AF51BD2A8D200F518F519AC
:06249400D201751C0222BA
:0325D200C2002222
:0A257D00E4F51AF51BF518F5192214
:1013A200E51CD394004005D51C02D2010516E516B2
:1013B200C39401500302147EE4F5162000030214C4
:1013C20065851A18851B19D3E5199400E518940050
:0513D200500302146548
:1013D700900072E0FCA3E0FDA3E0FEA3E0F5258EFC
:1013E700248D238C22900072E0F8A3E0F9A3E0FAA1
:1013F700A3E0FBE4FCFDEB2519FFEA3518FEED3908
:10140700FDEC38FC900072120A59AF25AE24AD23CB
:10141700AC22900072E0F8A3E0F9A3E0FAA3E0FBA6
:10142700C3120A226002D20290006EE0F8A3E0F92C
:10143700A3E0FAA3E0FB900072E0FCA3E0FDA3E0C9
:10144700FEA3E0C39BFFEE9AFEED99FDEC98FCE44A
:0E1457007B32FAF9F8D3120A2250031223094D
:101465000517E517C3940A4009E4F517300203127E
:0C1475002309E4F51AF51BD20130001B1E
:101481000515E515C394034012E4F515E51DB401F6
:0B149100047F0280027F018F1DD2014A
:01149C00222D
:10230900900072E0FCA3E0FDA3E0FEA3E0FF12242D
:10231900B0900072E0FCA3E0FDA3E0FEA3E0FF9013
:08232900006E120A59C20222E3
:10249A00300112C201E51DB40103021C7AE51DB424
:0624AA0002031215662278
:101C7A00AB19AA1875340A7C277D10AF03AE02127D
:101C8A0008FF7C007D0A1208FF8D357C037DE8AFD2
:101C9A0003AE021208FF7C007D0A1208FF8D367C13
:101CAA00007D64AF03AE021208FF7C007D0A1208B1
:101CBA00FF8D377C007D0AAF03AE021208FF7C005D
:101CCA007D0A1208FF8D38AE02AF037C007D0A122E
:101CDA0008FFAF05853640853541853442AB37ADBF
:041CEA00380221ABF0
:10156600900072E0FCA3E0FDA3E0FEA3E0F53C8E54
:101576003B8D3A8C3975340BE47B107A27F9F8AF3A
:101586003CAE3BAD3AAC39120990E47B0AFAF9F865
:10159600120990AF038F35E47BE87A03F9F8AF3C84
:1015A600AE3BAD3AAC39120990E47B0AFAF9F8126F
:1015B6000990AF038F36E47B64FAF9F8AF3CAE3B93
:1015C600AD3AAC39120990E47B0AFAF9F81209909F
:1015D600AF038F37E47B0AFAF9F8AF3CAE3BAD3A7E
:1015E600AC39120990E47B0AFAF9F8120990AF03B4
:1015F6008F38E47B0AFAF9F8AF3CAE3BAD3AAC392A
:10160600120990AF03853640853541853442AB37A4
:05161600AD380221AB1C
:0525B3008F1DD2012282
:0325D500AF1D2215
:0F251000900072E0FCA3E0FDA3E0FEA3E0FF2239
:030003000225587B
:0D255800C0E0051BE51B7002051AD0E03243
:10047B000D0A5761746572696E67205379737465E1
:10048B006D2052656164792076322E310D0A00435E
:10049B006F6D6D616E647320417661696C61626C26
:1004AB00653A0D0A0054494D453A48483A4D4D3A84
:1004BB0053530D0A00444154453A595959593A4D31
:1004CB004D3A44440D0A00413A48483A4D4D3A538F
:1004DB00533A4D4D4D4D0D0A004449535054494D1F
:1004EB00452F44495350444154450D0A0053544F32
:1004FB00500D0A000D0A3D3D3D2057617465726930
:10050B006E67205265636F7264203D3D3D0D0A009E
:10051B00547970653A204D616E75616C205761742A
:10052B006572696E670D0A005374617274205469A9
:10053B006D653A203230000D0A00456E6420546917
:10054B006D653A20323000576174657220566F6CBE
:10055B00756D653A2000206D6C0D0A00546F746147
:10056B006C20466C6F773A20004475726174696F2A
:10057B006E3A2000206D696E2000207365630D0AB2
:10058B00003D3D3D3D3D3D3D3D3D3D3D3D3D3D3DCD
:10059B003D3D3D3D3D3D3D3D0D0A00547970653A75
:1005AB00204175746F205761746572696E670D0A0F
:1005BB0000444154453A000D0A446174652053656B
:1005CB00743A20000D0A4572726F723A20496E76AA
:1005DB00616C696420646174650D0A00466F726D0D
:1005EB0061743A205959595928323030302D3230F4
:1005FB003939293A4D4D28312D3132293A44442885
:10060B00312D3331290D0A000D0A4572726F723A82
:10061B002057726F6E6720666F726D61740D0A00E2
:10062B00466F726D61743A20444154453A59595999
:10063B00593A4D4D3A44440D0A004578616D706C42
:10064B00653A20444154453A323032353A30353AE6
:10065B0032370D0A0054494D453A000D0A54696D65
:10066B0065205365743A20000D0A4572726F723A19
:10067B0020496E76616C69642074696D650D0A00A2
:10068B00466F726D61743A20484828302D323329F9
:10069B003A4D4D28302D3539293A535328302D35C5
:1006AB0039290D0A00466F726D61743A2054494D19
:1006BB00453A48483A4D4D3A53530D0A0045786137
:1006CB006D706C653A2054494D453A31343A3330AC
:1006DB003A30300D0A004449535054494D45000DF2
:1006EB000A446973706C6179204D6F64653A2054CC
:1006FB00696D650D0A004449535044415445000D42
:10070B000A446973706C6179204D6F64653A2044BB
:10071B006174650D0A00413A000D0A4175746F2032
:10072B00536574204F4B0D0A0054696D653A2000D8
:10073B000D0A566F6C756D653A20006D6C0D0A00D5
:10074B000D0A4572726F723A20496E76616C69645C
:10075B0020706172616D730D0A0054696D653A20EA
:10076B00484828302D3233293A4D4D28302D353914
:10077B00293A535328302D3539290D0A00566F6C01
:10078B00756D653A2035302D393939396D6C0D0A57
:10079B0000466F726D61743A20413A48483A4D4DAC
:1007AB003A53533A4D4D4D4D0D0A004578616D70DE
:1007BB006C653A20413A30363A30303A30313A3083
:1007CB003130300D0A0053544F50000D0A417574EF
:1007DB006F2053746F707065640D0A000D0A4572BB
:1007EB00726F723A20556E6B6E6F776E20636D640D
:1007FB000D0A00436F6D6D616E64733A0D0A005400
:10080B00494D453A48483A4D4D3A5353202D2053C4
:10081B0065742074696D650D0A00444154453A595D
:10082B005959593A4D4D3A4444202D205365742063
:10083B00646174650D0A00413A48483A4D4D3A538C
:10084B00533A4D4D4D4D202D2053657420617574D9
:10085B006F207761746572696E670D0A00444953A6
:10086B005054494D452F4449535044415445202D34
:10087B0020446973706C6179206D6F64650D0A009B
:10088B0053544F50202D2053746F70206175746F2B
:0C089B00207761746572696E670D0A00B9
:0519B400015700C1090C
:101E360075985053877F53890F438920758BFD759D
:101E46008DFDD28ED2ACD2AFE4F557C209FE7F200B
:101E5600FD7B017A007941120A967BFF7A04797B31
:101E66001222E47BFF7A04799A1222E47BFF7A0439
:101E760079B01222E47BFF7A0479C01222E47BFF58
:101E86007A0479D21222E47BFF7A0479E41222E4FE
:091E96007BFF7A0479F80222E4D2
:10238000E4FAF9F8AF40AE3FAD3EAC3D120990E43F
:0C2390007B0AFAF9F8120990EB2430FFE8
:08239C008F993099FDC29922CE
:0622DE007BFF7A05794246
:1022E4008B528A538954AB52AA53A9541208A7603B
:1022F400130554E5547002055314F91208A7FF128C
:05230400239C80E22291
:0B161B00E0FCA3E0FDA3E0FEA3E0FF65
:101626008F408E3F8D3E8C3DE4FFFEFDFCAB40AA15
:101636003FA93EA83DC3120A2270057F300216C795
:10164600E47F107E27FDFCAB40AA3FA93EA83DC320
:10165600120A224008E47B107A27122382E47FE8EC
:101666007E03FDFCAB40AA3FA93EA83DC3120A2259
:101676004008E47BE87A03122382E47F64FEFDFCE3
:10168600AB40AA3FA93EA83DC3120A2240057B648F
:10169600122380E47F0AFEFDFCAB40AA3FA93EA8C8
:1016A6003DC3120A2240057B0A122380E47B0AFA14
:1016B600F9F8AF40AE3FAD3EAC3D120990EB243099
:0516C600FF12239C222D
:10209F00E0FEA3E0FF7C007D641208FFAF05122075
:1020AF00E47F2D12239CA3E0FF1220E47F2D122347
:1020BF009CA3E0FF1220E47F2012239CA3E0FF12D9
:1020CF0020E47F3A12239CA3E0FF1220E47F3A1210
:0520DF00239CA3E0FFBB
:1020E400AE07EE75F00A842430FF12239CEE75F0DF
:0A20F4000A84E5F02430FF02239C6B
:1016CB007BFF7A0479FF1222E47BFF7A05791B12E8
:1016DB0022E47BFF7A0579331222E4900001122079
:1016EB009F1222DE7BFF7A0579451222E4900008D7
:1016FB0012209F1222DE7BFF7A0579521222E49090
:10170B00000F12161B7BFF7A0579611222E47BFF17
:10171B007A0579671222E490001312161B7BFF7A6D
:10172B000579611222E47BFF7A0579741222E49029
:10173B000017E0FFD394004010E4FCFDFE121626C8
:10174B007BFF7A05797F1222E4900018E0FFE4FC1E
:10175B00FDFE1216267BFF7A0579851222E47BFFAC
:07176B007A05798C0222E4EB
:101772007BFF7A0479FF1222E47BFF7A0579A612B5
:1017820022E47BFF7A0579331222E49000281220AA
:101792009F1222DE7BFF7A0579451222E490002F08
:1017A20012209F1222DE7BFF7A0579521222E490E8
:1017B200003612161B7BFF7A0579611222E47BFF49
:1017C2007A0579671222E490003A12161B7BFF7A9F
:1017D2000579611222E47BFF7A0579741222E49082
:1017E200003EE0FFD394004010E4FCFDFE121626FA
:1017F2007BFF7A05797F1222E490003FE0FFE4FC50
:10180200FDFE1216267BFF7A0579851222E47BFF04
:071812007A05798C0222E443
:08203A008B398A3A893B8D3C89
:10204200E4F53DF53EF53FE53FC3953C504AAB39DB
:10205200AA3AA93B853F827583001208C0FFC36478
:102062008094B0402AD3EF648094B95022EF339524
:10207200E0FEEF24D0FBEE34FFFAAE3DAF3E7C0033
:102082007D0A1208EDEF2BF53EEE3AF53D80057E16
:0C209200FF7FFF22053F80AFAE3DAF3E58
:01209E00221F
:10003E00753CFF753D05753EBC753F007540057BF3
:0E004E00017A007941121CEEEF6003020126D8
:10005C007B017A0079411224C5C3EF940FEE940012
:10006C00500302010B7B017A0079467D0412203A81
:10007C008E348F357B017A00794B7D0212203A8FBA
:10008C00367B017A00794E7D0212203A8F37C3E518
:10009C003594D0E53494074054D3E5359433E534A6
:1000AC0094085049E536C394014042E536D3940C8C
:1000BC00503BE537C394014034AD36AF35AE341206
:1000CC00240DE537D39F5025AB37AD36AF35AE3465
:1000DC001220FE7BFF7A0579C21222E490004A744A
:1000EC002DF090004DF0E49000500201CA7BFF7A95
:1000FC000579CF1222E47BFF7A0579E70204777B3E
:10010C00FF7A0679131222E47BFF7A06792B1222EE
:07011C00E47BFF7A06794540
:10012300020477753CFF753D06753E60753F0075AB
:1001330040057B017A007941121CEEEF6003020255
:010143000AB1
:10014400F534F535F5367B017A0079411224C5C3BF
:10015400EF940DEE940050030201EF900046E0246A
:10016400D075F00AA4FFA3E024D02FF53490004901
:10017400E024D075F00AA4FFA3E024D02FF5359035
:10018400004CE024D075F00AA4FFA3E024D02FF59E
:1001940036E534C394185041E535C3943C503AE5F0
:1001A40036C3943C5033AB36AD35AF34121E9F7B0F
:1001B400FF7A0679661222E4900048743AF09000BF
:1001C4004BF0E490004EF07B017A0079461222E471
:1001D4007BFF7A0579420204777BFF7A06797312F2
:1001E40022E47BFF7A06798B0204777BFF7A067917
:1001F400131222E47BFF7A0679B01222E47BFF7AA1
:030204000679C8B0
:10020700020477753CFF753D06753EE1753F007545
:1002170040087B017A007941121CEEEF700DFF1246
:10022700246E7BFF7A0679EA020477753CFF753DF9
:1002370007753E01753F007540087B017A007941DB
:10024700121CEEEF700E7F0112246E7BFF7A077986
:100257000A020477753CFF753D07753E21753F001F
:100267007540027B017A007941121CEEEF600302B0
:0202770004156C
:100279007B017A0079411224C5C3EF940FEE9400F3
:1002890050030203FB900043E024D075F00AA4FF59
:10029900A3E024D02FF534900046E024D075F00A6D
:1002A900A4FFA3E024D02FF535900049E024D075B0
:1002B900F00AA4FFA3E024D02FF536E4F537F5388A
:1002C90090004CE0FF3395E0FEEF24D0FFEE34FFC1
:1002D900FE7C037DE81208EDEF2538F538EE353759
:1002E900F537A3E0FF3395E0FEEF24D0FFEE34FFAE
:1002F900FE7C007D641208EDEF2538F538EE3537C0
:10030900F537A3E0FF3395E0FEEF24D0FFEE34FF8D
:10031900FE7D0A1208EDEF2538F538EE3537F53749
:10032900A3E0FF3395E0FEEF24D0FFEE34FFFEEFAC
:100339002538F538EE3537F537E534C394184003D9
:100349000203E1E535C3943C40030203E1E536C30A
:10035900943C40030203E1C3E5389432E537940045
:100369004076D3E538940FE5379427506B90001AFF
:10037900E534F0A3E535F0A3E536F0A3E537F0A3BE
:10038900E538F09000197401F0E4900022F07BFF49
:100399007A0779241222E47BFF7A0779341222E45E
:1003A900900045743AF0900048F0E490004BF07BDF
:1003B900017A0079431222E47BFF7A07793B122202
:1003C900E4E4900050F07B017A00794C1222E47B3E
:1003D900FF7A0779460204777BFF7A07794B122265
:1003E900E47BFF7A0779651222E47BFF7A07798833
:1003F900807C7BFF7A0679131222E47BFF7A0779E6
:0A0409009C1222E47BFF7A0779B60B
:100413008062753CFF753D07753ED1753F007540A1
:10042300047B017A007941121CEEEF700B1223E575
:100433007BFF7A0779D6803C7BFF7A0779E7122224
:10044300E47BFF7A0779FE1222E47BFF7A08790ABC
:100453001222E47BFF7A0879251222E47BFF7A08D3
:1004630079421222E47BFF7A0879681222E47BFF47
:080473007A08798B1222E422C1
:10243D0030091512003EC209E4F557FE7F20FD7BE1
:09244D00017A007941120A96227D
:03002300021F07B2
:101F0700C0E0C083C082C0D075D000C007309848F9
:051F1700C298200943FF
:101F1C00859933AF3312239CE533640A6005E533AE
:101F2C00B40D1874412557F582E43400F583E4F0C0
:101F3C00E557D39400401CD2098018E557C3941F71
:101F4C005011AF57055774412FF582E43400F583D7
:031F5C00E533F07A
:101F5F00309902C299D007D0D0D082D083D0E0324E
:1019B9006027001900060001006400000000000013
:1019C900000000000000000000000000000000000E
:1019D9000000000000000000000000011F00011EBF
:0719E90000C10A41004000AB
:082591007F1EAE071FEE70FA79
:01259900221F
:10223100E4900000F0120006900001EEF0A3EFF030
:102241001225BD900003EFF01225C0900004EFF0BD
:102251001225C3900005EFF01225C6900006EFF09D
:102261001225C9900007EFF0122510900013020A01
:012271005913
:1021EF009000277401F0120006900028EEF0A3EF84
:1021FF00F01225BD90002AEFF01225C090002BEFB2
:10220F00F01225C390002CEFF01225C690002DEF91
:10221F00F01225C990002EEFF01225109000230226
:02222F000A594A
:101A8400900005E0FF7E007C0E7D101208EDAC0690
:101A9400AD07A3E075F03CA42DFFEC35F0FEA3E008
:101AA4007C002FFFEC3EAB07FA90000CE0FF7E00B9
:101AB4007C0E7D101208EDAC06AD07A3E075F03C7A
:101AC400A42DFFEC35F0FEA3E07C002FFFEC3EFEDE
:101AD400C3EF9BEE9A500874802FFF74513EFEC3EF
:101AE400EF9BFFEE9AAB07FA7C007D3CFE1208FFE9
:101AF400900017EFF0AE02AF037C007D3C1208FFAC
:031B0400A3EDF05E
:011B070022BB
:101B080090002CE0FF7E007C0E7D101208EDAC06E4
:101B1800AD07A3E075F03CA42DFFEC35F0FEA3E083
:101B28007C002FFFEC3EAB07FA900033E0FF7E000D
:101B38007C0E7D101208EDAC06AD07A3E075F03CF5
:101B4800A42DFFEC35F0FEA3E07C002FFFEC3EFE59
:101B5800C3EF9BEE9A500874802FFF74513EFEC36A
:101B6800EF9BFFEE9AAB07FA7C007D3CFE1208FF64
:101B780090003EEFF0AE02AF037C007D3C1208FF00
:031B8800A3EDF0DA
:011B8B002237
:101B8C00120006900008EEF0A3EFF01225BD9000B5
:101B9C000AEFF01225C090000BEFF01225C3900055
:101BAC000CEFF01225C690000DEFF01225C9900035
:101BBC000EEFF01225108F378E368D358C34900049
:101BCC0013E0F8A3E0F9A3E0FAA3E0FBC3E5379B2D
:101BDC00FFE5369AFEE53599FDE53498FC90000F4B
:101BEC00120A59AF37AE36AD35AC34900013120A29
:071BFC0059121A840216CBF6
:101C030012000690002FEEF0A3EFF01225BD900016
:101C130031EFF01225C0900032EFF01225C390008F
:101C230033EFF01225C6900034EFF01225C990006F
:101C330035EFF01225108F3C8E3B8D3A8C39900096
:101C430023E0F8A3E0F9A3E0FAA3E0FBC3E53C9BA0
:101C5300FFE53B9AFEE53A99FDE53998FC9000369D
:101C6300120A59AF3CAE3BAD3AAC3990003A120A76
:071C730059121B0802177251
:1022AB004390FC1225B8E4900019F0A37406F0E4F7
:1022BB00A3F0A304F0A3E4F0A37464F0E4A3F0A3ED
:1022CB00F0A3F0A3F0A3120A6500000000E4F51FD1
:0322DB00F51E22CB
:100DDF00E4F534209203433401209303433402207B
:100DEF00940343340420950343340820960343347B
:100DFF0010209703433420900040E0F45534F5352C
:100E0F0030E02212259120921C900019E0601312FD
:100E1F0023E5E4F51FAB14AD13AF12121FDBD20A9B
:100E2F008003122421E53530E51212259120970C0D
:100E3F00E51E045403F51E751F01D20AE53530E196
:100E4F006A122591209364E51E14601A146027140A
:100E5F0060392403705090001AE02401FFE433FE40
:100E6F007C007D18801E90001BE02401FFE433FE00
:100E7F007C007D3C800E90001CE02401FFE433FEDB
:100E8F007C007D3C1208FFEDF0801BC390001EE03C
:100E9F0094DE90001DE09426500CA3E02432F090D5
:100EAF00001DE03400F0751F01D20AE53530E27401
:100EBF0012259120946EE51E14601F14603114608A
:100ECF00432403705A90001AE0FF70047F178003C9
:100EDF00EF14FF90001AEFF0804590001BE0FF70B9
:100EEF00047F3B8003EF14FF90001BEFF0803090E6
:100EFF00001CE0FF70047F3B8003EF14FF90001C89
:100F0F00EFF0801BD390001EE0943290001DE09410
:100F1F0000400CA3E024CEF090001DE034FFF075EC
:0A0F2F001F01D20A900040E534F0E3
:010F39002295
:102421009000197401F0E490001FF0900022F0F583
:0C2431001FD20AAB14AD13AF12021FDB68
:1023E500E4900019F0900022F090001FE06010E4E6
:1023F500F01225CF1225D2E4FF1225B3121C0322B9
:10129800900019E070030213A190001FE070030290
:1012A80013441225108F258E248D238C2290002321
:1012B800E0F8A3E0F9A3E0FAA3E0FBC3E5259BF57A
:1012C80029E5249AF528E52399F527E52298F526B6
:1012D80090001DE0FEA3E0FFE4FCFDAB29AA28A9CD
:1012E80027A826C3120A224032E490001FF090007B
:1012F8002204F01225CF1225D2E4FF1225B3AF2520
:10130800AE24AD23AC221224B0121C03E4F51FABAB
:1013180014AD13AF12121FDBD20A22C390001EE0D5
:101328009529FE90001DE09528900020F0A3CEF0AE
:10133800E51F64016063751F01D20A22900022E054
:10134800704490001AE06512703CA3E06513703693
:10135800A3E0B5143190001F7401F090001DE0FF68
:10136800A3E0900020CFF0A3EFF012251090002307
:10137800120A591221EF1225CC1224847F0112255A
:10138800B3751F01D20A900022E0600DE5127009C2
:09139800E5137005E5147001F085
:0113A1002229
:100F3A0090001FE0602CA3E0FAA3E0FB7C007D0A8E
:100F4A00FFAE021208FF8D347C007D0AAF03AE02A9
:100F5A001208FF7C007D0A1208FF8D3590002002DE
:100F6A001017E51E1460321460541460752403606F
:100F7A000302104890001AE0FF75F00A8485F034E5
:100F8A00EF75F00A8475F00A8485F035E4F536F5D4
:100F9A0037F53875390302105590001BE0FF75F0DC
:100FAA000A8485F034EF75F00A8475F00A8485F0B6
:100FBA0035E4F536F537F5387539020210559000E3
:100FCA001CE0FF75F00A8485F034EF75F00A847529
:100FDA00F00A8485F035E4F536F537F538753901C8
:100FEA00806990001DE0FAA3E0FB7C007D0AFFAE59
:100FFA00021208FF8D347C007D0AAF03AE0212088C
:10100A00FF7C007D0A1208FF8D3590001DA3E07C4D
:10101A00007D64FFAE021208FF7C007D0A1208FF01
:10102A008D367C037DE8AF03AE021208FF7C007D9B
:10103A000A1208FF8D37E4F538753905800DE4F595
:10104A0039F538F537F536F535F5348537408538CD
:0D105A0041853942AB36AD35AF340221ABD4
:0E254A00300A0AC20AE51FB40103120F3A223A
:0719F000440072000000003A
:0D256500D2A500D2A600C2A500C2A6002289
:0A258700C2A500D2A600D2A50022D2
:0F251F00A20892A500D2A600C2A600D2A5002253
:1024EE00D2A500D2A60030A505C2A600D322C2A650
:0324FE0000C322F6
:0B233100AF32AE31AD30AC2F120A33DA
:10233C00E4FEEF30E703D38001C392A5D2A600C21E
:0D234C00A600EF25E0FF0EBE08E80224EE1B
:1023A400E4FFD2A5FED2A600EF25E0FFA2A5E43308
:1023B4004207C2A6000EBE08ECA207920812251F0F
:0123C40022F6
:10227200AD071225657FA012233CAF0512233CE572
:1022820032FF12233C78081223317810122331AF27
:1022920032AE31AD30AC2F7818120A3312233C1211
:0922A20025877F147E000223C58C
:0218B900AB077B
:1018BB00E4F555F554F553F5521225657FA0122327
:1018CB003CAF0312233C1225657FA112233CC207B8
:1018DB001223A4E48F55F554F553F552C207122386
:1018EB00A4E4FCFDFE7808120A46E5554FF555E5D4
:1018FB00544EF554E5534DF553E5524CF552C20792
:10190B001223A4E4FCFDFE7810120A46E5554FF5B0
:10191B0055E5544EF554E5534DF553E5524CF55200
:10192B00D2071223A4E4FCFDFE7818120A46E555F3
:10193B004FF555E5544EF554E5534DF553E5524CE3
:0D194B00F552122587AF55AE54AD53AC5286
:01195800226C
:0525B800D2A5D2A6220D
:1024B0008F2D8E2C8D2B8C2A8F328E318D308C2F40
:0524C000E4FF0222729E
:0625AD00E4FF1218B92240
:030000000219F8EA
:0C19F800787FE4F6D8FD758157021A3F95
:1008A700BB010689828A83E0225002E722BBFE024F
:0908B700E32289828A83E4932282
:1008C000BB010CE58229F582E5833AF583E02250ED
:1008D00006E92582F8E622BBFE06E92582F8E22237
:0D08E000E58229F582E5833AF583E4932251
:1008ED00EF8DF0A4A8F0CF8CF0A428CE8DF0A42E1F
:0208FD00FE22D9
:1008FF00BC000BBE0029EF8DF084FFADF022E4CCDD
:10090F00F875F008EF2FFFEE33FEEC33FCEE9DECA5
:10091F00984005FCEE9DFE0FD5F0E9E4CEFD22EDEB
:10092F00F8F5F0EE8420D21CFEADF075F008EF2F35
:10093F00FFED33FD4007985006D5F0F222C398FD26
:05094F000FD5F0EA22C3
:1009540075F008758200EF2FFFEE33FECD33CDCC5A
:1009640033CCC58233C5829BED9AEC99E5829840DD
:100974000CF582EE9BFEED9AFDEC99FC0FD5F0D6BA
:10098400E4CEFBE4CDFAE4CCF9A88222B800C1B9E4
:100994000059BA002DEC8BF084CFCECDFCE5F0CB22
:1009A400F97818EF2FFFEE33FEED33FDEC33FCEB5B
:1009B40033FB10D703994004EB99FB0FD8E5E4F916
:1009C400FA227818EF2FFFEE33FEED33FDEC33FC03
:1009D400C933C910D7059BE99A4007EC9BFCE99AF7
:1009E400F90FD8E0E4C9FAE4CCFB2275F010EF2F3C
:1009F400FFEE33FEED33FDCC33CCC833C810D7073C
:100A04009BEC9AE899400AED9BFDEC9AFCE899F876
:0E0A14000FD5F0DAE4CDFBE4CCFAE4C8F92209
:100A2200EB9FF5F0EA9E42F0E99D42F0E89C45F02A
:010A320022A1
:100A3300E8600FECC313FCED13FDEE13FEEF13FFA1
:030A4300D8F122C5
:100A4600E8600FEFC333FFEE33FEED33FDEC33FC0E
:030A5600D8F122B2
:0C0A5900ECF0A3EDF0A3EEF0A3EFF02210
:100A6500A8828583F0D083D082120A7C120A7C1278
:100A75000A7C120A7CE473E493A3C583C5F0C5839D
:100A8500C8C582C8F0A3C583C5F0C583C8C582C8DB
:010A9500223E
:101CEE008B398A3A893BAB3CAA3DA93E1208A7FE26
:101CFE00AB39AA3AA93B1208A7FF6E702BEF600D05
:101D0E00E54015407002153F14453F70037F0022D9
:101D1E007401253BF53BE4353AF53A7401253EF561
:101D2E003EE4353DF53D80BEAB39AA3AA93B1208DB
:101D3E00A7FDD3EE6480F8ED64809840037F012206
:0F1D4E00AB3CAA3DA93E1208A7FFC3ED9FFF22A1
:1024C500E4FFFE1208A7600C0FEF70010E09E9701A
:0524D500F20A80EF2275
:100A9600EF4E6012EF60010EEDBB010B89828A8377
:100AA600F0A3DFFCDEFA2289F05007F709DFFCA984
:0C0AB600F022BBFEFCF309DFFCA9F022DB
:101A0400021DCBE493A3F8E493A34003F68001F210
:101A140008DFF48029E493A3F85407240CC8C333E3
:101A2400C4540F4420C8834004F456800146F6DFB2
:101A3400E4800B0102040810204080901959E47ED0
:101A4400019360BCA3FF543F30E509541FFEE493A7
:101A5400A360010ECF54C025E060A840B8E493A36E
:101A6400FAE493A3F8E493A3C8C582C8CAC583CA99
:101A7400F0A3C8C582C8CAC583CADFE9DEE780BE51
:0119F70000EF
:00000001FF
