:100AC2000D0A5761746572696E6720537973746594
:100AD2006D20537461727465642076342E3220283E
:100AE20046756C6C20382D446967697420446973BB
:100AF200706C6179290D0A004175746F2044697325
:100B0200706C61793A2054696D653C2D3E44617484
:100B1200652065766572792035207365636F6E6432
:100B2200730D0A004461746520466F726D61743AF8
:100B320020595959594D4D44442028382D6469672C
:100B420069742066756C6C20646973706C617929B4
:100B52000D0A0054696D6520466F726D61743A200A
:100B620048482D4D4D2D53532028382D646967690F
:100B7200742066756C6C20646973706C6179290DE0
:100B82000A00466C6F7720466F726D61743A205886
:100B920058585858585831302F31312028382D6440
:100BA200696769742C20372D646967697420666CE3
:100BB2006F772076616C7565290D0A004175746F37
:100BC20020466F726D61743A2058585858585858D8
:100BD200412F422F632F642028382D64696769747E
:100BE20020706172616D20646973706C6179290D86
:100BF2000A0050332E33204B65793A204C6F6E67D2
:100C020020707265737320746F2073657420646141
:100C120074652F74696D650D0A0053657474696E8D
:100C220067206F726465723A20596561722D3E4D7C
:100C32006F6E74682D3E4461792D3E486F75722D3A
:0C0C42003E4D696E2D3E5365630D0A00A7
:0C178C00014D00C107C1084200760000BA
:100C4E0020B30D20070AD207E4900076F0A3F0221D
:100C5E0020B33A300737900077E004F0700690002A
:100C6E0076E004F0900076E07004A3E06464600324
:100C7E00020DCCE54D6003020DCC754D027F0112C5
:100C8E0026E97F011225B21226EFD2082220B303E5
:100C9E00020DCC200703020DCCC3900077E09464C4
:100CAE00900076E094004003020D3EE54DB408003E
:100CBE004003020DBD900CCAF8282873020CE20204
:100CCE000D0E020D22020D26020D2A020D2E020D10
:100CDE0032020D36900019E0600990001FE06003AB
:100CEE00020DBD754D0112235712271412268E12B6
:100CFE00257F7F011226FB1225DEE4F54C020DBD89
:100D0E00E4F54D12271712271AE4FF1226FB121CC8
:100D1E00DD020DBD7F0180127F02800E7F03800AEF
:100D2E007F0480067F0580027F06121983020DBDA7
:100D3E00C3900077E09464900076E09400407030A9
:100D4E000804C2088069E54DC394024062E54DD3A4
:100D5E009407505B054DE54D94074010E4F54D1298
:100D6E00261EE4FF1225B21226EF8043E54D24FD28
:100D7E00601414601514601B146021146027240580
:100D8E00702D7F0180067F0280027F031226E97F8D
:100D9E000180197F041226E9E4FF80107F051226D8
:100DAE00E9E4FF80077F061226E9E4FF1225B2C2AE
:0F0DBE0007E4900076F0A3F07F14FE1224EB22DE
:101B4F00D2AF7580FF121E3A1226E212000E122635
:101B5F0072121EA8122700120F281223D17BFF7AB0
:101B6F000A79C212240A7BFF7A0A79FA12240A7BB5
:101B7F00FF7A0B792612240A7BFF7A0B79551224F0
:101B8F000A7BFF7A0B798412240A7BFF7A0B79BECA
:101B9F0012240A7BFF7A0B79F412240A7BFF7A0C4A
:101BAF00791C12240A120C4E120DCD12269C1225EE
:101BBF00DE1225991226451225C81221737F0A7E3F
:061BCF00001224EB80DF90
:102547003F065B4F666D7D077F6F39715F777C58FC
:0C2557001F1C1F1E1F1E1F1F1E1F1E1F0B
:10179800C101C102C100C103070E07E90101000030
:1017A800004800660000000000000000010B000176
:0F17B8000800010901010C00010A004100610055
:1024EB00E4FDFCC3ED9FEC9E5015E4FBFA0BBB0027
:0F24FB00010AEB64784A70F50DBD00010C80E416
:01250A0022AE
:0A26C4007F08900066E4F0A3DFFC3D
:0126CE0022E9
:061F1100AB14AD13AF128A
:101F1700AE071226C4EB75F00A84E5F090254793C7
:101F2700900066F0EB75F00A849025479390006760
:101F3700F0A37440F0ED75F00A84E5F0902547931F
:101F4700900069F0ED75F00A849025479390006A38
:101F5700F0A37440F0EE75F00A84E5F090254793FE
:101F670090006CF0EE75F00A849025479390006D11
:021F7700F02256
:08161300AB11AD10AF0FAE0EDC
:10161B008E2C8F2D1226C4EB75F00A84E5F09025E5
:10162B004793900066F0EB75F00A849025479390F2
:10163B000067F0ED75F00A84E5F090254793900074
:10164B0068F0ED75F00A8490254793900069F0AE31
:10165B002CAF2D7C007D0A1208FF74472DF5827488
:10166B00253CF583E49390006AF0AE2CAF2D7C0003
:10167B007D0A1208FF7C007D0A1208FF74472DF5C6
:10168B008274253CF583E49390006BF0AE2CAF2D68
:10169B007C007D641208FF7C007D0A1208FF7447F2
:1016AB002DF58274253CF583E49390006CF0AE2C01
:1016BB00AF2D7C037DE81208FF7C007D0A1208FF2A
:1016CB0074472DF58274253CF583E49390006DF0FF
:0116DB0022EC
:10222C00AE071226C4EE90254793900066F0ED9011
:10223C00254793900067F0EB90254793900068F04A
:10224C00E53190254793900069F0E532902547934E
:10225C0090006AF0E5339025479390006BF0E534DD
:10226C009025479390006CF0E535902547939000AE
:03227C006DF022E0
:1022D100AE071226C4EE90254793900066F0ED906C
:1022E100254793900067F0EB90254793900068F0A5
:1022F100E54890254793900069F0E549902547937B
:1023010090006AF0E54A9025479390006BF0E4A3B2
:04231100F0A3F02223
:10204900D2A3E509F4FFE4FEEF30E703D38001C32F
:1020590092A0C2A1D2A1EF25E0FF0EBE08EA7466E4
:102069002508F582E43400F583E0FFE4FEEF30E76C
:1020790003D38001C392A0C2A1D2A1EF25E0FF0E34
:10208900BE08EAC2A2D2A2C2A3E508045407F50811
:10209900E50925E0FFE509C413131354014FF509B8
:0520A900700375090140
:0120AE00220F
:0626E9008F0CE4F50A224B
:10261E00E4F50CE50B7009AB14AD13AF12021F17E6
:04262E00121613224B
:10198300EF24FE602914604214604D14605D1460FE
:101993006D2405707A050FE50F7002050ED394339D
:1019A300E50E94084069750E07750FD08061051028
:1019B300E510D3940C400375100112252DE511D3C6
:1019C3009F404C12252D8F11804512252BE511D3F5
:1019D3009F403C7511018037E5122401FFE433FE7B
:1019E3007C007D181208FF8D128024E5132401FF6B
:1019F300E433FE7C007D3C1208FF8D138011E51457
:101A03002401FFE433FE7C007D3C1208FF8D14E5C6
:101A13000B7009AB14AD13AF12021F17121613226A
:101F7900EFC394185061EDC3943C505BEBC3943CA0
:101F890050558F128D138B14900019E06038A3E01F
:101F9900FFE5129F5023E512B50709A3E0FFE513FA
:101FA900D39F501590001AE0B51216A3E0B513118E
:101FB900A3E0FFE514D39F40089000227401F0804C
:101FC90005E4900022F012271DEF700BE50C700755
:081FD900E50B7003121F112239
:1021D1008E288F298D2A8B2BC3E52994D0E528944D
:1021E100074047D3E5299433E5289408503CE52A74
:1021F100C394014035E52AD3940C502EE52BC394AA
:10220100014027122533E52BD39F501E85280E85CB
:10221100290F852A10852B1112271DEF700CE50C53
:0B2221007008E50BB401031216132235
:05000600AE0EAF0F2259
:03270500AF1022F0
:03270800AF1122EC
:03270B00AF1222E8
:03270E00AF1322E4
:03271100AF1422E0
:1025B2008F0BE50C700FEF7009AB14AD13AF120265
:0625C2001F171216132280
:10247F00AB07AA06EB5403700AFC7D641208FFED4C
:10248F004C700FAE02AF037C017D901208FFED4C34
:07249F007003D38001C3228A
:08252B000511AD10AF0FAE0E5B
:02253300A905F8
:10253500B9020812247F50037F1D22E99025569386
:01254500FF96
:012546002272
:10227F000514E514C3943C4048E4F5140513E51325
:10228F00943C403DE4F5130512E51294184032E4F6
:10229F00F51212252BE511D39F402675110105105C
:1022AF00E510D3940C401A751001050FE50F70025D
:1022BF00050ED39433E50E94084006750E07750F7F
:0222CF00D0221B
:03003B0002152982
:10152900C0E0C0F0C083C082C0D075D000C000C088
:1015390001C002C003C004C005C006C00730D91CE1
:10154900C2D9900064E0FEA3E0F5EBEEF5FBE024E0
:1015590099F0900064E03403F012204920D8030286
:1015690015F8C2D8900062E0FEA3E0F5EAEEF5FABC
:10157900E02400F0900062E03424F0050DE50DC38D
:101589009464404C750D00B290D201E50CD39400DF
:10159900400CE50A70047F0180517F00804D1227BD
:1015A9001DEF704BE54C701E900061E004F0E0C344
:1015B9009405400EE4F0E50B70047F0180027F0082
:1015C9008F0BD2028029E54C64017023D20E801F53
:1015D900E50D75F03284E5F07015E50CD394004003
:1015E9000EE50A70047F0180027F008F0AD203D0C2
:1015F90007D006D005D004D003D002D001D000D046
:0A160900D0D082D083D0F0D0E032C0
:101E3A00E4F5D8F5E9F5F9F5D99000647403F0A34F
:101E4A007499F0900064E0FEA3E0F5EBEEF5FBE098
:101E5A002499F0900064E03403F075DB4990006245
:101E6A007424F0A3E4F0900062E0FEA3E0F5EAEE49
:101E7A00F5FAE02400F0900062E03424F075DA49C3
:101E8A00D2DED2AFE4F50DF50B900061F0E50B70F0
:0E1E9A0009AB14AD13AF12021F17121613225C
:0626EF00E4900061F022FE
:1021730030035AC203E50CD39403502A121613E515
:102183000A604AE50C24FE60111460142402703DB9
:10219300E490006AF0A3F0A38030E4900068802A02
:1021A300E49000668024121F11E50A6020E50C24E8
:1021B300FB600D14601024027013E490006C800A1D
:0E21C300E49000698004E4900066F0A3F0222E
:0F26450030010BC20112227F12104512114F22D9
:1025C800300212C202E50B7009AB14AD13AF120250
:0625D8001F17121613226A
:0726E200D291D290D2B22286
:03271400C291224D
:03271700D291223A
:0417C700C10AC10989
:10000E005389F0438901758C4CE4F58AD2A9C290CC
:05001E00C20AC28C22A1
:0E267200200A0A758C4CE4F58AD28CD20A221A
:03000B000226804A
:0D268000758C4C758A00B209200902B290D9
:01268D00321A
:10002600546F74616C20466C6F773A200030002064
:050036006D6C0D0A00D5
:1017CB00011F00021C0000041800000000C104C12E
:1017DB0005011E00011700C10644006E0000000049
:0617EB00011600011500CB
:100F2800E4F53BF53CD288D2A8F51CF51DF51BF578
:100F38001AF519F5181226F5900072120A59900040
:100F480072E0FCA3E0FDA3E0FEA3E0FF90006E12B8
:100F58000A597BFF7A00792612240AE4FFFEFDFC79
:100F6800900072E0F8A3E0F9A3E0FAA3E0FBC31253
:100F78000A2270097BFF7A00793302102F900072E1
:100F8800E0FCA3E0FDA3E0FEA3E0F5408E3F8D3E2C
:100F98008C3DE4F53BE4FFFEFDFCAB40AA3FA93ED7
:100FA800A83DD3120A224040E53B940A503AE47B1C
:100FB8000AFAF9F8AF40AE3FAD3EAC3D120990EBEE
:100FC8002430FFAE3B053B742F2EF8A607AF40AE8A
:100FD8003FAD3EAC3DE47B0AFAF9F81209908F4028
:100FE8008E3F8D3E8C3D80ADE53B700AAF3B053BA7
:100FF800742F2FF87630E4F53CE53BD39400401B82
:10100800E53C940A5015153B742F253BF8E6FFAED6
:101018003C053C74232EF8A60780DE7423253CF893
:10102800E4F6FB7A00792312240A7BFF7A007935EB
:0C10380012240AC204E4F51FF517C206DA
:011044002289
:10257F00200416E4F51CF51DD2A8D204F51BF51A9C
:0A258F00F519F518D205751E022299
:03271A00C20422D4
:0E268E00E4F51CF51DF51BF51AF519F51822DB
:10114F00E51ED394004005D51E02D2050516E516FF
:10115F00C39401500302122DE4F51620040302126A
:10116F0014851D1B851C1AF519F518FFFEFDFCAB28
:10117F001BAA1AA919A818D3120A22500302121473
:10118F00900072E0FCA3E0FDA3E0FEA3E0F5268E45
:10119F00258D248C23900072A3A3A3E0251BFFEEC3
:1011AF00351AFEED3519FDEC3518FC900072120A58
:1011BF0059AF26AE25AD24AC23900072E0F8A3E022
:1011CF00F9A3E0FAA3E0FBC3120A226002D2069051
:1011DF00006EE0F8A3E0F9A3E0FAA3E0FB90007241
:1011EF00E0FCA3E0FDA3E0FEA3E0C39BFFEE9AFEAD
:1011FF00ED99FDEC98FCE47B32FAF9F8D3120A2250
:05120F00500312242F22
:101214000517E517C3940A4009E4F51730060312CD
:0C122400242FE4F51CF51DD20530041B3E
:101230000515E515C394034012E4F515E51FB40147
:0B124000047F0280027F018F1FD20597
:01124B002280
:10242F00900072E0FCA3E0FDA3E0FEA3E0FF122505
:10243F00F4900072E0FCA3E0FDA3E0FEA3E0FF90A8
:08244F00006E120A59C20622B8
:1025DE00300512C205E51FB40103021348E51FB40E
:0625EE00020312124C2250
:10134800851B2D851A2C85192B85182A75230AE4E7
:101358007B0AFAF9F8AF2DAE2CAD2BAC2A12099006
:10136800AF038F24E47B0AFAF9F8AF2DAE2CAD2B2E
:10137800AC2A120990E47B0AFAF9F8120990AF0333
:101388008F25E47B64FAF9F8AF2DAE2CAD2BAC2A8F
:10139800120990E47B0AFAF9F8120990AF038F2634
:1013A800E47BE87A03F9F8AF2DAE2CAD2BAC2A120A
:1013B8000990E47B0AFAF9F8120990AF038F27E441
:1013C8007B107A27F9F8AF2DAE2CAD2BAC2A120979
:1013D80090E47B0AFAF9F8120990AF038F287BA0F2
:1013E8007A8679017800AF2DAE2CAD2BAC2A120984
:1013F80090E47B0AFAF9F8120990AF038F297B4031
:101408007A42790F7800AF2DAE2CAD2BAC2A120999
:1014180090E47B0AFAF9F8120990AF038526318522
:1014280027328528338529348F35AB25AD24AF2362
:0314380002222C61
:10124C00900072E0FCA3E0FDA3E0FEA3E0F52D8E80
:10125C002C8D2B8C2A75230BE47B0AFAF9F8AF2D15
:10126C00AE2CAD2BAC2A120990AF038F24E47B0A71
:10127C00FAF9F8AF2DAE2CAD2BAC2A120990E47B09
:10128C000AFAF9F8120990AF038F25E47B64FAF996
:10129C00F8AF2DAE2CAD2BAC2A120990E47B0AFAD8
:1012AC00F9F8120990AF038F26E47BE87A03F9F87A
:1012BC00AF2DAE2CAD2BAC2A120990E47B0AFAF9B7
:1012CC00F8120990AF038F27E47B107A27F9F8AF57
:1012DC002DAE2CAD2BAC2A120990E47B0AFAF9F84E
:1012EC00120990AF038F287BA07A8679017800AF22
:1012FC002DAE2CAD2BAC2A120990E47B0AFAF9F82E
:10130C00120990AF038F297B407A42790F7800AF96
:10131C002DAE2CAD2BAC2A120990E47B0AFAF9F80D
:10132C00120990AF0385263185273285283385290C
:0C133C00348F35AB25AD24AF2302222CEA
:0526FB008F1FD2052233
:03271D00AF1F22C9
:0F265400900072E0FCA3E0FDA3E0FEA3E0FF22F4
:030003000226AA28
:0D26AA00C0E0051DE51D7002051CD0E032EA
:10047B000D0A5761746572696E67205379737465E1
:10048B006D2052656164792076322E310D0A00435E
:10049B006F6D6D616E647320417661696C61626C26
:1004AB00653A0D0A0054494D453A48483A4D4D3A84
:1004BB0053530D0A00444154453A595959593A4D31
:1004CB004D3A44440D0A00413A48483A4D4D3A538F
:1004DB00533A4D4D4D4D0D0A004449535054494D1F
:1004EB00452F44495350444154450D0A0053544F32
:1004FB00500D0A000D0A3D3D3D2057617465726930
:10050B006E67205265636F7264203D3D3D0D0A009E
:10051B00547970653A204D616E75616C205761742A
:10052B006572696E670D0A005374617274205469A9
:10053B006D653A203230000D0A00456E6420546917
:10054B006D653A20323000576174657220566F6CBE
:10055B00756D653A2000206D6C0D0A00546F746147
:10056B006C20466C6F773A20004475726174696F2A
:10057B006E3A2000206D696E2000207365630D0AB2
:10058B00003D3D3D3D3D3D3D3D3D3D3D3D3D3D3DCD
:10059B003D3D3D3D3D3D3D3D0D0A00547970653A75
:1005AB00204175746F205761746572696E670D0A0F
:1005BB0000444154453A000D0A446174652053656B
:1005CB00743A20000D0A4572726F723A20496E76AA
:1005DB00616C696420646174650D0A00466F726D0D
:1005EB0061743A205959595928323030302D3230F4
:1005FB003939293A4D4D28312D3132293A44442885
:10060B00312D3331290D0A000D0A4572726F723A82
:10061B002057726F6E6720666F726D61740D0A00E2
:10062B00466F726D61743A20444154453A59595999
:10063B00593A4D4D3A44440D0A004578616D706C42
:10064B00653A20444154453A323032353A30353AE6
:10065B0032370D0A0054494D453A000D0A54696D65
:10066B0065205365743A20000D0A4572726F723A19
:10067B0020496E76616C69642074696D650D0A00A2
:10068B00466F726D61743A20484828302D323329F9
:10069B003A4D4D28302D3539293A535328302D35C5
:1006AB0039290D0A00466F726D61743A2054494D19
:1006BB00453A48483A4D4D3A53530D0A0045786137
:1006CB006D706C653A2054494D453A31343A3330AC
:1006DB003A30300D0A004449535054494D45000DF2
:1006EB000A446973706C6179204D6F64653A2054CC
:1006FB00696D650D0A004449535044415445000D42
:10070B000A446973706C6179204D6F64653A2044BB
:10071B006174650D0A00413A000D0A4175746F2032
:10072B00536574204F4B0D0A0054696D653A2000D8
:10073B000D0A566F6C756D653A20006D6C0D0A00D5
:10074B000D0A4572726F723A20496E76616C69645C
:10075B0020706172616D730D0A0054696D653A20EA
:10076B00484828302D3233293A4D4D28302D353914
:10077B00293A535328302D3539290D0A00566F6C01
:10078B00756D653A2035302D393939396D6C0D0A57
:10079B0000466F726D61743A20413A48483A4D4DAC
:1007AB003A53533A4D4D4D4D0D0A004578616D70DE
:1007BB006C653A20413A30363A30303A30313A3083
:1007CB003130300D0A0053544F50000D0A417574EF
:1007DB006F2053746F707065640D0A000D0A4572BB
:1007EB00726F723A20556E6B6E6F776E20636D640D
:1007FB000D0A00436F6D6D616E64733A0D0A005400
:10080B00494D453A48483A4D4D3A5353202D2053C4
:10081B0065742074696D650D0A00444154453A595D
:10082B005959593A4D4D3A4444202D205365742063
:10083B00646174650D0A00413A48483A4D4D3A538C
:10084B00533A4D4D4D4D202D2053657420617574D9
:10085B006F207761746572696E670D0A00444953A6
:10086B005054494D452F4449535044415445202D34
:10087B0020446973706C6179206D6F64650D0A009B
:10088B0053544F50202D2053746F70206175746F2B
:0C089B00207761746572696E670D0A00B9
:0517F100014E00C10DD6
:101EA80075985053877F53890F438920758BFD752B
:101EB8008DFDD28ED2ACD2AFE4F54EC20DFE7F209E
:101EC800FD7B017A007941120A967BFF7A04797BBF
:101ED80012240A7BFF7A04799A12240A7BFF7A0477
:101EE80079B012240A7BFF7A0479C012240A7BFF96
:101EF8007A0479D212240A7BFF7A0479E412240A3C
:091F08007BFF7A0479F802240A37
:1024A600E4FAF9F8AF32AE31AD30AC2F120990E450
:0C24B6007B0AFAF9F8120990EB2430FFC1
:0824C2008F993099FDC29922A7
:062404007BFF7A0579421E
:10240A008B418A428943AB41AA42A9431208A76079
:10241A00130543E5437002054214F91208A7FF1297
:05242A0024C280E22243
:0B16DC00E0FCA3E0FDA3E0FEA3E0FFA4
:1016E7008F328E318D308C2FE4FFFEFDFCAB32AA9A
:1016F70031A930A82FC3120A2270057F300217883C
:10170700E47F107E27FDFCAB32AA31A930A82FC396
:10171700120A224008E47B107A271224A8E47FE803
:101727007E03FDFCAB32AA31A930A82FC3120A22CF
:101737004008E47BE87A031224A8E47F64FEFDFCFA
:10174700AB32AA31A930A82FC3120A2240057B6405
:101757001224A6E47F0AFEFDFCAB32AA31A930A809
:101767002FC3120A2240057B0A1224A6E47B0AFA39
:10177700F9F8AF32AE31AD30AC2F120990EB24300F
:05178700FF1224C22244
:10211400E0FEA3E0FF7C007D641208FFAF051221FE
:10212400597F2D1224C2A3E0FF1221597F2D1224BE
:10213400C2A3E0FF1221597F201224C2A3E0FF12A0
:1021440021597F3A1224C2A3E0FF1221597F3A1287
:0521540024C2A3E0FF1E
:10215900AE07EE75F00A842430FF1224C2EE75F042
:0A2169000A84E5F02430FF0224C2CE
:101835007BFF7A0479FF12240A7BFF7A05791B1254
:10184500240A7BFF7A05793312240A9000011221BC
:10185500141224047BFF7A05794512240A900008A6
:101865001221141224047BFF7A05795212240A905E
:10187500000F1216DC7BFF7A05796112240A7BFFC3
:101885007A05796712240A9000131216DC7BFF7A19
:1018950005796112240A7BFF7A05797412240A906E
:1018A5000017E0FFD394004010E4FCFDFE1216E79C
:1018B5007BFF7A05797F12240A900018E0FFE4FC8B
:1018C500FDFE1216E77BFF7A05798512240A7BFF58
:0718D5007A05798C02240A58
:1018DC007BFF7A0479FF12240A7BFF7A0579A61222
:1018EC00240A7BFF7A05793312240A9000281221EE
:1018FC00141224047BFF7A05794512240A90002FD8
:10190C001221141224047BFF7A05795212240A90B6
:10191C0000361216DC7BFF7A05796112240A7BFFF4
:10192C007A05796712240A90003A1216DC7BFF7A4A
:10193C0005796112240A7BFF7A05797412240A90C6
:10194C00003EE0FFD394004010E4FCFDFE1216E7CD
:10195C007BFF7A05797F12240A90003FE0FFE4FCBC
:10196C00FDFE1216E77BFF7A05798512240A7BFFB0
:07197C007A05798C02240AB0
:0820AF008B288A29892A8D2B58
:1020B700E4F52CF52DF52EE52EC3952B504AAB28CC
:1020C700AA29A92A852E827583001208C0FFC36436
:1020D7008094B0402AD3EF648094B95022EF3395AF
:1020E700E0FEEF24D0FBEE34FFFAAE2CAF2D7C00E0
:1020F7007D0A1208EDEF2BF52DEE3AF52C80057EC3
:0C210700FF7FFF22052E80AFAE2CAF2D15
:0121130022A9
:10003E00752BFF752C05752DBC752E00752F057B48
:0E004E00017A007941121DCBEF6003020126FA
:10005C007B017A007941122609C3EF940FEE9400CC
:10006C00500302010B7B017A0079467D041220AF0C
:10007C008E238F247B017A00794B7D021220AF8F67
:10008C00257B017A00794E7D021220AF8F26C3E5C5
:10009C002494D0E52394074054D3E5249433E523EA
:1000AC0094085049E525C394014042E525D3940CAE
:1000BC00503BE526C394014034AD25AF24AE23124A
:1000CC002533E526D39F5025AB26AD25AF24AE2393
:1000DC001221D17BFF7A0579C212240A90004A744E
:1000EC002DF090004DF0E49000500201CA7BFF7A95
:1000FC000579CF12240A7BFF7A0579E70204777B16
:10010C00FF7A06791312240A7BFF7A06792B1224C4
:07011C000A7BFF7A0679451A
:10012300020477752BFF752C06752D60752E0075EF
:100133002F057B017A007941121DCBEF6003020288
:010143000AB1
:10014400F523F524F5257B017A007941122609C3AC
:10015400EF940DEE940050030201EF900046E0246A
:10016400D075F00AA4FFA3E024D02FF52390004912
:10017400E024D075F00AA4FFA3E024D02FF5249046
:10018400004CE024D075F00AA4FFA3E024D02FF59E
:1001940025E523C394185041E524C3943C503AE523
:1001A40025C3943C5033AB25AD24AF23121F797B78
:1001B400FF7A06796612240A900048743AF0900097
:1001C4004BF0E490004EF07B017A00794612240A49
:1001D4007BFF7A0579420204777BFF7A06797312F2
:1001E400240A7BFF7A06798B0204777BFF7A0679EF
:1001F4001312240A7BFF7A0679B012240A7BFF7A51
:030204000679C8B0
:10020700020477752BFF752C06752DE1752E007589
:100217002F087B017A007941121DCBEF700DFF1279
:1002270025B27BFF7A0679EA020477752BFF752CD6
:1002370007752D01752E00752F087B017A0079410E
:10024700121DCBEF700E7F011225B27BFF7A077963
:100257000A020477752BFF752C07752D21752E0063
:10026700752F027B017A007941121DCBEF600302E3
:0202770004156C
:100279007B017A007941122609C3EF940FEE9400AD
:1002890050030203FB900043E024D075F00AA4FF59
:10029900A3E024D02FF523900046E024D075F00A7E
:1002A900A4FFA3E024D02FF524900049E024D075C1
:1002B900F00AA4FFA3E024D02FF525E4F526F527BD
:1002C90090004CE0FF3395E0FEEF24D0FFEE34FFC1
:1002D900FE7C037DE81208EDEF2527F527EE35268C
:1002E900F526A3E0FF3395E0FEEF24D0FFEE34FFBF
:1002F900FE7C007D641208EDEF2527F527EE3526F3
:10030900F526A3E0FF3395E0FEEF24D0FFEE34FF9E
:10031900FE7D0A1208EDEF2527F527EE3526F5268D
:10032900A3E0FF3395E0FEEF24D0FFEE34FFFEEFAC
:100339002527F527EE3526F526E523C3941840032E
:100349000203E1E524C3943C40030203E1E525C32C
:10035900943C40030203E1C3E5279432E526940067
:100369004076D3E527940FE5269427506B90001A21
:10037900E523F0A3E524F0A3E525F0A3E526F0A302
:10038900E527F09000197401F0E4900022F07BFF5A
:100399007A07792412240A7BFF7A07793412240A0E
:1003A900900045743AF0900048F0E490004BF07BDF
:1003B900017A00794312240A7BFF7A07793B1224D8
:1003C9000AE4900050F07B017A00794C12240A7BF0
:1003D900FF7A0779460204777BFF7A07794B122463
:1003E9000A7BFF7A07796512240A7BFF7A077988E5
:1003F900807C7BFF7A06791312240A7BFF7A0779BE
:0A0409009C12240A7BFF7A0779B6E3
:100413008062752BFF752C07752DD1752E00752FF6
:10042300047B017A007941121DCBEF700B12250B6F
:100433007BFF7A0779D6803C7BFF7A0779E7122422
:100443000A7BFF7A0779FE12240A7BFF7A08790A6E
:1004530012240A7BFF7A08792512240A7BFF7A0883
:10046300794212240A7BFF7A08796812240A7BFFF7
:080473007A08798B12240A2299
:10259900300D1512003EC20DE4F54EFE7F20FD7B85
:0925A900017A007941120A962220
:03002300021FE1D8
:101FE100C0E0C083C082C0D075D000C0073098481F
:051FF100C298200D4321
:101FF600859922AF221224C2E522640A6005E522F1
:10200600B40D187441254EF582E43400F583E4F0EE
:10201600E54ED39400401CD20D8018E54EC3941FA4
:102026005011AF4E054E74412FF582E43400F5830E
:03203600E522F0B0
:10203900309902C299D007D0D0D082D083D0E03273
:1017F60060270019000600010064000000000000D8
:1018060000000000000000000000000000000000D2
:101816000000000000000000000000014C00014B29
:0718260000C10E410040006B
:0826D9007F1EAE071FEE70FA30
:0126E10022D6
:10235700E4900000F0120006900001EEF0A3EFF009
:10236700122705900003EFF0122708900004EFF002
:1023770012270B900005EFF012270E900006EFF0E2
:10238700122711900007EFF0122654900013020A4B
:0123970059EC
:102315009000277401F0120006900028EEF0A3EF5C
:10232500F012270590002AEFF012270890002BEFF6
:10233500F012270B90002CEFF012270E90002DEFD6
:10234500F012271190002EEFF01226549000230270
:022355000A5923
:101BD500900005E0FF7E007C0E7D101208EDAC063E
:101BE500AD07A3E075F03CA42DFFEC35F0FEA3E0B6
:101BF5007C002FFFEC3EAB07FA90000CE0FF7E0067
:101C05007C0E7D101208EDAC06AD07A3E075F03C27
:101C1500A42DFFEC35F0FEA3E07C002FFFEC3EFE8B
:101C2500C3EF9BEE9A500874802FFF74513EFEC39C
:101C3500EF9BFFEE9AAB07FA7C007D3CFE1208FF96
:101C4500900017EFF0AE02AF037C007D3C1208FF59
:031C5500A3EDF00C
:011C58002269
:101C590090002CE0FF7E007C0E7D101208EDAC0692
:101C6900AD07A3E075F03CA42DFFEC35F0FEA3E031
:101C79007C002FFFEC3EAB07FA900033E0FF7E00BB
:101C89007C0E7D101208EDAC06AD07A3E075F03CA3
:101C9900A42DFFEC35F0FEA3E07C002FFFEC3EFE07
:101CA900C3EF9BEE9A500874802FFF74513EFEC318
:101CB900EF9BFFEE9AAB07FA7C007D3CFE1208FF12
:101CC90090003EEFF0AE02AF037C007D3C1208FFAE
:031CD900A3EDF088
:011CDC0022E5
:101CDD00120006900008EEF0A3EFF0122705900019
:101CED000AEFF012270890000BEFF012270B90006F
:101CFD000CEFF012270E90000DEFF012271190004F
:101D0D000EEFF01226548F268E258D248C239000F5
:101D1D0013E0F8A3E0F9A3E0FAA3E0FBC3E5269BEB
:101D2D00FFE5259AFEE52499FDE52398FC90000F2B
:101D3D00120A59AF26AE25AD24AC23900013120A1A
:071D4D0059121BD5021835E5
:101D540012000690002FEEF0A3EFF012270590007A
:101D640031EFF0122708900032EFF012270B9000A9
:101D740033EFF012270E900034EFF0122711900089
:101D840035EFF01226548F2E8E2D8D2C8C2B900037
:101D940023E0F8A3E0F9A3E0FAA3E0FBC3E52E9B5C
:101DA400FFE52D9AFEE52C99FDE52B98FC90003675
:101DB400120A59AF2EAE2DAD2CAC2B90003A120A5C
:071DC40059121C590218DC42
:1023D1004390FC122700E4900019F0A37406F0E486
:1023E100A3F0A304F0A3E4F0A37464F0E4A3F0A3C6
:1023F100F0A3F0A3F0A3120A6500000000E4F54C7D
:03240100F54B2276
:100DCD00E4F52320920343230120930343230220C0
:100DDD0094034323042095034323082096034323C0
:100DED0010209703432320900040E0F45523F52471
:100DFD0030E0221226D920921C900019E0601312C7
:100E0D00250BE4F54CAB14AD13AF12121F17D20E18
:100E1D008003122563E52430E5121226D920970CA4
:100E2D00E54B045403F54B754C01D20EE52430E12E
:100E3D006A1226D9209364E54B14601A14602714A6
:100E4D0060392403705090001AE02401FFE433FE52
:100E5D007C007D18801E90001BE02401FFE433FE12
:100E6D007C007D3C800E90001CE02401FFE433FEED
:100E7D007C007D3C1208FFEDF0801BC390001EE04E
:100E8D0094DE90001DE09426500CA3E02432F090E7
:100E9D00001DE03400F0754C01D20EE52430E274F3
:100EAD001226D920946EE54B14601F146031146026
:100EBD00432403705A90001AE0FF70047F178003DB
:100ECD00EF14FF90001AEFF0804590001BE0FF70CB
:100EDD00047F3B8003EF14FF90001BEFF0803090F8
:100EED00001CE0FF70047F3B8003EF14FF90001C9B
:100EFD00EFF0801BD390001EE0943290001DE09423
:100F0D0000400CA3E024CEF090001DE034FFF075FE
:0A0F1D004C01D20E900040E523F0D5
:010F270022A7
:102563009000197401F0E490001FF0900022F0F540
:0C2573004CD20EAB14AD13AF12021F17B8
:10250B00E4900019F0900022F090001FE06010E4BE
:10251B00F012271712271AE4FF1226FB121D542262
:10104500900019E0700302114E90001FE07003023A
:1010550010F11226548F268E258D248C2390002383
:10106500E0F8A3E0F9A3E0FAA3E0FBC3E5269BF5CE
:101075002AE5259AF529E52499F528E52398F52704
:1010850090001DE0FEA3E0FFE4FCFDAB2AAA29A920
:1010950028A827C3120A224032E490001FF09000CE
:1010A5002204F012271712271AE4FF1226FBAF2697
:1010B500AE25AD24AC231225F4121D54E4F54CAB3A
:1010C50014AD13AF12121F17D20E22C390001EE0EB
:1010D500952AFE90001DE09529900020F0A3CEF002
:1010E500E54C64016063754C01D20E22900022E04C
:1010F500704490001AE06512703CA3E065137036E9
:10110500A3E0B5143190001F7401F090001DE0FFBD
:10111500A3E0900020CFF0A3EFF012265490002317
:10112500120A5912231512271412257F7F01122640
:10113500FB754C01D20E900022E0600DE51270099E
:09114500E5137005E5147001F0DA
:01114E00227E
:06143B0090001FE06003B9
:01144100A307
:10144200804EE54B14601514601A1460402403604A
:101452000302150075230F90001A800E75230E905B
:10146200001B800675230D90001CE0FF75F00A84B6
:1014720085F024EF75F00A8475F00A8485F025E47E
:0D148200F52AF529F528F527F526021511A4
:10148F0090001DE0F52BA3E0F52C75230CAE2BAFD0
:10149F002C7C007D0A1208FF8D24AE2BAF2C7C0014
:1014AF007D0A1208FF7C007D0A1208FF8D25AE2BE6
:1014BF00AF2C7C007D641208FF7C007D0A1208FFB0
:1014CF008D26AE2BAF2C7C037DE81208FF7C007DB0
:1014DF000A1208FF8D27AE2BAF2C7C277D10120828
:0F14EF00FF7C007D0A1208FF8D28E4F529F52AFD
:1014FE008011E4F52AF529F528F527F526F525F5C9
:10150E0024F5238526318527328528338529348590
:0B151E002A35AB25AD24AF2302222CA0
:0E269C00300E0AC20EE54CB4010312143B22AC
:07182D0044007200000000FE
:0D26B700D2A500D2A600C2A500C2A6002236
:0A26CF00C2A500D2A600D2A5002289
:0F266300A20C92A500D2A600C2A600D2A500220A
:10263200D2A500D2A60030A505C2A600D322C2A60A
:0326420000C322B0
:0B245700AF33AE32AD31AC30120A33AF
:10246200E4FEEF30E703D38001C392A5D2A600C2F7
:0D247200A600EF25E0FF0EBE08E8022632AE
:1024CA00E4FFD2A5FED2A600EF25E0FFA2A5E433E1
:1024DA004207C2A6000EBE08ECA20B920C1226639B
:0124EA0022CF
:10239800AD071226B77FA0122462AF05122462E5AA
:1023A80033FF12246278081224577810122457AF8A
:1023B80033AE32AD31AC307818120A3312246212BF
:0923C80026CF7F147E000224EBF5
:021A2300AB070F
:101A2500E4F544F543F542F5411226B77FA01224AB
:101A350062AF031224621226B77FA1122462C20B81
:101A45001224CAE48F44F543F542F541C20B122432
:101A5500CAE4FCFDFE7808120A46E5444FF544E564
:101A6500434EF543E5424DF542E5414CF541C20B88
:101A75001224CAE4FCFDFE7810120A46E5444FF52F
:101A850044E5434EF543E5424DF542E5414CF5410C
:101A9500D20B1224CAE4FCFDFE7818120A46E5446E
:101AA5004FF544E5434EF543E5424DF542E5414CDE
:0D1AB500F5411226CFAF44AE43AD42AC4127
:011AC2002201
:05270000D2A5D2A622C3
:1025F4008F2E8E2D8D2C8C2B8F338E328D318C30F3
:05260400E4FF02239831
:0626F500E4FF121A23228B
:03000000021AC31E
:0C1AC300787FE4F6D8FD75814E021B0A06
:1008A700BB010689828A83E0225002E722BBFE024F
:0908B700E32289828A83E4932282
:1008C000BB010CE58229F582E5833AF583E02250ED
:1008D00006E92582F8E622BBFE06E92582F8E22237
:0D08E000E58229F582E5833AF583E4932251
:1008ED00EF8DF0A4A8F0CF8CF0A428CE8DF0A42E1F
:0208FD00FE22D9
:1008FF00BC000BBE0029EF8DF084FFADF022E4CCDD
:10090F00F875F008EF2FFFEE33FEEC33FCEE9DECA5
:10091F00984005FCEE9DFE0FD5F0E9E4CEFD22EDEB
:10092F00F8F5F0EE8420D21CFEADF075F008EF2F35
:10093F00FFED33FD4007985006D5F0F222C398FD26
:05094F000FD5F0EA22C3
:1009540075F008758200EF2FFFEE33FECD33CDCC5A
:1009640033CCC58233C5829BED9AEC99E5829840DD
:100974000CF582EE9BFEED9AFDEC99FC0FD5F0D6BA
:10098400E4CEFBE4CDFAE4CCF9A88222B800C1B9E4
:100994000059BA002DEC8BF084CFCECDFCE5F0CB22
:1009A400F97818EF2FFFEE33FEED33FDEC33FCEB5B
:1009B40033FB10D703994004EB99FB0FD8E5E4F916
:1009C400FA227818EF2FFFEE33FEED33FDEC33FC03
:1009D400C933C910D7059BE99A4007EC9BFCE99AF7
:1009E400F90FD8E0E4C9FAE4CCFB2275F010EF2F3C
:1009F400FFEE33FEED33FDCC33CCC833C810D7073C
:100A04009BEC9AE899400AED9BFDEC9AFCE899F876
:0E0A14000FD5F0DAE4CDFBE4CCFAE4C8F92209
:100A2200EB9FF5F0EA9E42F0E99D42F0E89C45F02A
:010A320022A1
:100A3300E8600FECC313FCED13FDEE13FEEF13FFA1
:030A4300D8F122C5
:100A4600E8600FEFC333FFEE33FEED33FDEC33FC0E
:030A5600D8F122B2
:0C0A5900ECF0A3EDF0A3EEF0A3EFF02210
:100A6500A8828583F0D083D082120A7C120A7C1278
:100A75000A7C120A7CE473E493A3C583C5F0C5839D
:100A8500C8C582C8F0A3C583C5F0C583C8C582C8DB
:010A9500223E
:101DCB008B288A29892AAB2BAA2CA92D1208A7FEAE
:101DDB00AB28AA29A92A1208A7FF6E702BEF600D5A
:101DEB00E52F152F7002152E14452E70037F002240
:101DFB007401252AF52AE43529F5297401252DF5D9
:101E0B002DE4352CF52C80BEAB28AA29A92A120863
:101E1B00A7FDD3EE6480F8ED64809840037F012228
:0F1E2B00AB2BAA2CA92D1208A7FFC3ED9FFF22F6
:10260900E4FFFE1208A7600C0FEF70010E09E970D4
:05261900F20A80EF222F
:100A9600EF4E6012EF60010EEDBB010B89828A8377
:100AA600F0A3DFFCDEFA2289F05007F709DFFCA984
:0C0AB600F022BBFEFCF309DFFCA9F022DB
:101ACF00021B4FE493A3F8E493A34003F68001F2C3
:101ADF0008DFF48029E493A3F85407240CC8C33318
:101AEF00C4540F4420C8834004F456800146F6DFE7
:101AFF00E4800B010204081020408090178CE47ED4
:101B0F00019360BCA3FF543F30E509541FFEE493DB
:101B1F00A360010ECF54C025E060A840B8E493A3A2
:101B2F00FAE493A3F8E493A3C8C582C8CAC583CACD
:101B3F00F0A3C8C582C8CAC583CADFE9DEE780BE85
:0118340000B3
:00000001FF
