:0A0A2D003F065B4F666D7D077F6F8B
:1009E100080E0000000000000000010D17010A3B85
:0A09F100010937020B0000010801A4
:1009C100E4FDFCC3ED9FEC9E5015E4FBFA0BBB006C
:0F09D100010AEB64784A70F50DBD00010C80E45B
:0109E00022F4
:10091600D2A3E4FEED30E703D38001C392A0C2A1C7
:10092600D2A1ED25E0FD0EBE08EAE4FEEF30E703B6
:10093600D38001C392A0C2A1D2A1EF25E0FF0EBED3
:0F09460008EAC2A2D2A2C2A37F017E000209C1A9
:060955008B168A178918B9
:10095B00E4F519AB16AA17A918851982758300122D
:10096B000994FFAE19E508A806088002C333D8FC2A
:10097B00F4FD1209160519E519C3940840D57DFF3E
:08098B00E4FF120916750801D2
:010993002241
:090A23007F08780EE4F608DFFC00
:010A2C0022A7
:1008D300120A23E50975F00A84E5F0900A2D93F5D1
:1008E3000EE50975F00A8493F50FE50A75F00A849D
:1008F300E5F093F510E50A75F00A8493F511E50D1B
:1009030075F00A84E5F093F512E50D75F00A84930A
:03091300F51322B7
:100A12005389F0438901758C4B758AFDD2A9D28C1A
:010A220022B1
:1009FC00D2AF120A127580FF1208D37B007A0079ED
:060A0C000E12095580F2F4
:03000B0002088C5C
:10088C00C0E0C0D0758C4B758AFD050CE50C700270
:10089C00050BC39414E50B94004027750B00750CE5
:1008AC00000509E509943C4019750900050AE50A9B
:1008BC00943C400E750A00050DE50D941840037527
:0708CC000D00D0D0D0E03296
:03000000020800F3
:0C080000787FE4F6D8FD758119020847E6
:10099400BB010CE58229F582E5833AF583E0225018
:1009A40006E92582F8E622BBFE06E92582F8E22262
:0D09B400E58229F582E5833AF583E493227C
:10080C000209FCE493A3F8E493A34003F68001F2FD
:10081C0008DFF48029E493A3F85407240CC8C333ED
:10082C00C4540F4420C8834004F456800146F6DFBC
:10083C00E4800B01020408102040809009E1E47E62
:10084C00019360BCA3FF543F30E509541FFEE493B1
:10085C00A360010ECF54C025E060A840B8E493A378
:10086C00FAE493A3F8E493A3C8C582C8CAC583CAA3
:10087C00F0A3C8C582C8CAC583CADFE9DEE780BE5B
:0109FB0000FB
:00000001FF
