:10100D000D0AE6B587E88AB1E7B3BBE7BB9FE5B745
:10101D00B2E590AFE58AA80D0A00E5BD93E5898D8F
:10102D00E697B6E997B4E8AEBEE7BDAEE58A9FE8B0
:10103D0083BDE58FAFE794A80D0A00E5AE9AE6975C
:10104D00B6E6B587E6B0B4E58A9FE883BDE5B7B2ED
:0C105D00E5889DE5A78BE58C960D0A0048
:0B0E5400017100C103C1040272000024
:1008B10020B30B200308D203E4F572F5732220B3B1
:1008C1002C3003290573E5737002057264F470041A
:1008D100E57264016003020997E5716003020997FB
:1008E100757102E57114FF1215A4D2042220B3031D
:1008F100020997200303020997C3E57394F4E57293
:100901009401504EE57114602A1460371460381454
:10091100603924047073E566706F7571011215BA40
:1009210012155612149C7F011200061214B2E4F53E
:10093100658056E4F5711215BD1215C0E4FF120071
:100941000680467F0180067F0280027F0312115DCF
:100951008037C3E57394F4E5729401402C300404AC
:10096100C2048025E571C39402401EE571D394044D
:1009710050170571E57194044008E4F57112151ED4
:100981008007E57114FF1215A4C203E4F572F57333
:070991007F14FE1213C222C5
:10111000D2AF7580FF1210C012159612000E121475
:10112000E71212DD12123B12139F7BFF7A10790D2A
:101130001213567BFF7A1079271213567BFF7A1011
:1011400079481213561208B11202ED121503121447
:0D115000B212146D7F0A7E001213C280E8F7
:0C152A003F065B4F666D7D077F6F3971D7
:100E5F00031900000008110000000000000000014D
:0B0E6F000800010901010D00010A004C
:1013C200E4FDFCC3ED9FEC9E5015E4FBFA0BBB0061
:0F13D200010AEB64784A70F50DBD00010C80E450
:0113E10022E9
:091542007F087811E4F608DFFCD3
:01154B00227D
:0811F4008F0AAB1BAD1AAF1905
:1011FC00AE07121542EB75F00A84E5F090152A93B0
:10120C00F511EB75F00A8493F512ED75F00A84E58F
:10121C00F093F513ED75F00A8493F514EE75F00A5E
:0F122C0084E5F093F515EE75F00A8493F516221C
:10137B00AE07121542EE90152A93F511ED93F51267
:10138B00EB93F513E53B93F514E53C93F515E53D30
:04139B0093F516228E
:100FAD00D2A3E509F4FFE4FEEF30E703D38001C3DC
:100FBD0092A0C2A1D2A1EF25E0FF0EBE08EA7411E6
:100FCD002508F8E6FFE4FEEF30E703D38001C39276
:100FDD00A0C2A1D2A1EF25E0FF0EBE08EAC2A2D2A7
:100FED00A2C2A3E508045407F508E50925E0FFE5CD
:0F0FFD0009C413131354014FF50970037509014B
:01100C0022C1
:0615A4008F0DE4F50A22A0
:0C151E00E4F50DAB1BAD1AAF190211FC77
:10115D00EF24FE601A14602A24027037E519240169
:10116D00FFE433FE7C007D181200B88D198024E554
:10117D001A2401FFE433FE7C007D3C1200B88D1A69
:10118D008011E51B2401FFE433FE7C007D3C120041
:0C119D00B88D1BAB1BAD1AAF190211FC82
:10133000EFC39418501FEDC3943C5019EBC3943C79
:1013400050138F198D1A8B1B1215CFEF7007E50DF7
:0613500070031211F622E9
:03003B0002042D8F
:10042D00C0E0C0F0C083C082C0D075D000C000C095
:10043D0001C002C003C004C005C006C00730D918F2
:10044D00C2D98510EBE50FF5FB74992510F51074E5
:10045D0003350FF50F120FAD20D80302053EC2D89C
:10046D00850CEAE50BF5FAE4250CF50C7424350B37
:10047D00F50B050EE50EC394644071750E00B29038
:10048D00120B54051BE51BC3943C4019751B00054D
:10049D001AE51A943C400E751A000519E5199418C1
:1004AD004003751900120A7EE50DD394004024E532
:1004BD000A70047F0180027F001211F4E50A607159
:1004CD00E50D24FE600914600824027064804C80E0
:1004DD005280581215CFEF7058E56570051211F660
:1004ED00804FE56564017049D2088045E50E75F0D1
:1004FD003284E5F0703BE50DD394004034E50A708D
:10050D00047F0180027F001211F4E50A6023E50DDE
:10051D0024FE600F146014240270167515007516F4
:10052D0000800E751300751400800675110075128C
:10053D0000D007D006D005D004D003D002D001D012
:0C054D0000D0D0D082D083D0F0D0E032BB
:1010C000E4F5D8F5E9F5F9F5D9750F0375109985AB
:1010D00010EBE50FF5FB74992510F5107403350F2F
:1010E000F50F75DB49750B24750C00850CEAE50BD3
:1010F000F5FAE4250CF50C7424350BF50B75DA497B
:10110000D2DED2AFE4F50EAB1BAD1AAF190211FC63
:07159600D291D290D2B222E3
:0315BA00C29122B9
:0315BD00D29122A6
:0A154C002091047F0180027F00223D
:040E7A00C106C105E7
:10000E005389F0438901758C4CE4F58AD2A9C290CC
:05001E00C206C28C22A5
:0E14E70020060A758C4CE4F58AD28CD20622BF
:07159D00C28CC290C20622BD
:0615AA00A206E433FF225B
:03000B000214F5E7
:0D14F500758C4C758A00B205200502B2907E
:0115020032B6
:100E7E00014A000243000002410000044600000047
:100E8E0000C100C101014500014000C102044B0038
:090E9E00000000013F00013E00CC
:1012DD00D288D2A8E4F543F544F541F542120D53F9
:1012ED008F498E488D478C468F4E8E4D8D4C8C4B35
:0A12FD00C200E4F54AF540C20222E7
:10149C00200012E4F543F544D2A8D200F541F54200
:0614AC00D2017545022289
:0315C000C2002244
:0A155600E4F543F544F541F54222A7
:1014C800E4F549F548F547F546FFFEFDFC0211A98C
:100B5400E545D394004005D54502D201053FE53F64
:100B6400C394015003020BFCE4F53F30007185434C
:0F0B740041854442D3E5429400E541940040603E
:100B8300854925854824854723854622E4FCFDE5E0
:100B9300492542F549E5483541F548ED3547F547DF
:100BA300EC3546F546AF25AE24AD23AC22AB49AABE
:100BB30048A947F8C312028A6002D202C3E54995E5
:100BC3004EFFE548954DFEE547954CFDE546954BB3
:100BD300FCE47B32FAF9F8D312028A500312142090
:100BE3000540E540C3940A4009E4F540300203128E
:0C0BF3001420E4F543F544D20130001B4F
:100BFF00053EE53EC394034012E4F53EE54AB401D9
:0B0C0F00047F0280027F018F4AD201A7
:010C1A0022B7
:10142000AF49AE48AD47AC461211A985494E854833
:0A1430004D85474C85464BC2022251
:10127600120D538F1F8E1E8D1D8C1C7F3F7E427D4F
:101286000F7C00AB1FAA1EA91DA81CD312028A4000
:1012960010E4F51FF51EF51DF51CFFFEFDFC1211F1
:0912A600A9AF1FAE1EAD1DAC1C6A
:0112AF00221C
:0315C300021420EF
:09156A00AF4EAE4DAD4CAC4B226E
:0315C600A202225C
:1014B200300112C201E54AB40103020ECAE54AB480
:0614C2000203120C1B22C4
:100ECA00AB42AA41752F0A7C277D10AF03AE0212EE
:100EDA0000B87C007D0A1200B88D307C037DE8AF33
:100EEA0003AE021200B87C007D0A1200B88D317C74
:100EFA00007D64AF03AE021200B87C007D0A1200C6
:100F0A00B88D327C007D0AAF03AE021200B87C00B5
:100F1A007D0A1200B88D33AE02AF037C007D0A123F
:100F2A0000B8AF0585313B85303C852F3DAB32ADEE
:040F3A003302137BF0
:100C1B00854937854836854735854634752F0BE42E
:100C2B007B107A27F9F8AF37AE36AD35AC341201FD
:100C3B00F8E47B0AFAF9F81201F8AF038F30E47B82
:100C4B00E87A03F9F8AF37AE36AD35AC341201F8AC
:100C5B00E47B0AFAF9F81201F8AF038F31E47B64F5
:100C6B00FAF9F8AF37AE36AD35AC341201F8E47B98
:100C7B000AFAF9F81201F8AF038F32E47B0AFAF99A
:100C8B00F8AF37AE36AD35AC341201F8E47B0AFA67
:100C9B00F9F81201F8AF038F33E47B0AFAF9F8AFD6
:100CAB0037AE36AD35AC341201F8AF0385313B8529
:0C0CBB00303C852F3DAB32AD3302137B83
:0315C900020ECA45
:0315CC00020C1BF3
:050006008F4AD2012227
:0315CF00AF4A22FE
:0515B000AE41AF422234
:09157300AF49AE48AD47AC462279
:03000300021511D2
:0D151100C0E00544E54470020543D0E0321F
:100683000D0AE6B587E88AB1E7B3BBE7BB9FE59000
:10069300AFE58AA80D0A0054494D453A48483A4DFA
:1006A3004D3A53530D0A0054494D453A000D0AE69D
:1006B30097B6E997B4E8AEBEE7BDAEE68890E58AA3
:1006C3009F3A20000D0A000D0AE99499E8AFAF3A6A
:1006D30020E697A0E69588E79A84E697B6E997B46B
:1006E300E580BC0D0A00E697B6E997B4E6A0BCE541
:1006F300BC8F3A20484828302D3233293A4D4D28B3
:10070300302D3539293A535328302D3539290D0ADF
:10071300000D0AE99499E8AFAF3A20E697B6E99756
:10072300B4E6A0BCE5BC8FE99499E8AFAF0D0A002D
:10073300E6ADA3E7A1AEE6A0BCE5BC8F3A205449E1
:100743004D453A48483A4D4D3A53530D0A00E4BEDD
:100753008BE5A6823A2054494D453A31343A333039
:100763003A30300D0A000D0AE99499E8AFAF3A2008
:10077300E69CAAE79FA5E591BDE4BBA40D0A00E6AC
:1007830094AFE68C81E79A84E591BDE4BBA43A205B
:1007930054494D453A48483A4D4D3A53530D0A0092
:050EA700015F00C1071E
:10123B0075985053877F53890F438920758BFD75A4
:10124B008DFDD28ED2ACD2AFE4F55FC207FE7F101C
:10125B00FDFB7A00794F1202C17BFF7A067983126C
:0B126B0013567BFF7A06799A02135697
:08158E008F993099FDC29922EA
:101356008B328A338934AB32AA33A93412003E6009
:10136600130534E5347002053314F912003EFF12FA
:05137600158E80E2224B
:100998007535FF7536067537AA7538007539057BC4
:0E09A800007A00794F120F3EEF6003020A6BD7
:1009B600F52FF530F531FB7A00794F120026C3EF9B
:1009C600940DEE94005003020A51E55424D075F0BC
:1009D6000AA4FFE55524D02FF52FE55724D075F04E
:1009E6000AA4FFE55824D02FF530E55A24D075F037
:1009F6000AA4FFE55B24D02FF531E52FC3941850E8
:100A060039E530C3943C5032E531C3943C502BABAE
:100A160031AD30AF2F1213307BFF7A0679B0121347
:100A26005675563A75593AE4F55CFB7A00795412D4
:100A360013567BFF7A0679C7803A7BFF7A0679CA16
:100A46001213567BFF7A0679E980297BFF7A0779AC
:100A5600141213567BFF7A0779331213567BFF7AEB
:030A6600077951BC
:100A6900800F7BFF7A0779691213567BFF7A077922
:050A7900821213562259
:10146D00300714120998C207E4F55FFE7F10FDFBEB
:08147D007A00794F1202C1222E
:030023000210695F
:10106900C0E0C0D075D000C000C00730983BC2981E
:0310790020073617
:10107C0085992EAF2E12158EE52E640A6005E52E8D
:10108C00B40D12744F255FF87600E55FD3940040E1
:10109C0015D2078011E55FC3940F500AAF5F055F4F
:0610AC00744F2FF8A62E80
:0E10B200309902C299D007D000D0D0D0E032E1
:100EAC000A660006000100640000000001650001F4
:0D0EBC006400C10801700004600000000027
:08157C007F1EAE071FEE70FA9E
:011584002244
:10139F004390FC1215B5E4F566756706F568756937
:1013AF0001F56A756B64F56CF56DF56EF56FF565A6
:0313BF00F56422B0
:1002ED00E4F52F209203432F01209303432F022087
:1002FD009403432F04209503432F08209603432F87
:10030D0010209703432F20E570F4552FF53030E082
:10031D002012157C20921AE566601312143AE4F54A
:10032D0065AB1BAD1AAF191211FCD2088003121464
:10033D0054E53030E51212157C20970CE564045419
:10034D0003F564756501D208E53030E16912157C5D
:10035D00209363E56414601D14602D14603D240327
:10036D00704FE5672401FFE433FE7C007D18120019
:10037D00B88D67803CE5682401FFE433FE7C007D89
:10038D003C1200B88D688029E5692401FFE433FE35
:10039D007C007D3C1200B88D698016C3E56B94DE40
:1003AD00E56A9426500B7432256BF56BE4356AF5CE
:1003BD006A756501D208E53030E26112157C209432
:1003CD005BE56414601A14602714603424037047CD
:1003DD00E56770047F178004E56714FF8F6780372A
:1003ED00E56870047F3B8004E56814FF8F68802703
:1003FD00E56970047F3B8004E56914FF8F69801700
:10040D00D3E56B9432E56A9400400C74CE256BF500
:0F041D006B74FF356AF56A756501D208852F701B
:01042C0022AD
:10145400756601E4F56CF56F121585E4F565D2083F
:09146400AB1BAD1AAF190211FC1B
:10143A00E4F566F56FE56C600EE4F56C1215BD1205
:0A144A0015C0E4FF1200060215852C
:100A7E00E5667003020B53E56C7003020B09121549
:100A8E00738F258E248D238C22C3E5259563F5293E
:100A9E00E5249562F528E5239561F527E522956015
:100AAE00F526AE6AAF6BE4FCFDAB29AA28A927A8F0
:100ABE0026C312028A402BE4F56C756F011215BD28
:100ACE001215C0E4FF120006AF25AE24AD23AC22F2
:100ADE001211A9E4F565AB1BAD1AAF191211FCD2B8
:100AEE000822C3E56B9529F56EE56A9528F56DE547
:100AFE006564016050756501D20822E56F7034E5BA
:100B0E00196567702EE51AB56829E51BB569247558
:100B1E006C01856A6D856B6E1215738F638E628D97
:100B2E00618C601215BA12149C7F01120006756555
:100B3E0001D208E56F600EE519700AE51A7006E538
:050B4E001B7002F56FB1
:010B5300227F
:10055900E56C603CAE6DAF6E7C007D0A1200B88D13
:100569002FAE6DAF6E7C007D0A1200B87C007D0A4B
:100579001200B88D30AE6DAF6E7C007D641200B88C
:100589007C007D0A1200B88D31AE6DAF6E02064C4B
:10059900E56414603014605014606F240360030232
:1005A9000664E56775F00A8485F02FE56775F00A3A
:1005B9008475F00A8485F030E4F531F532F5337548
:1005C9003403020671E56875F00A8485F02FE56841
:1005D90075F00A8475F00A8485F030E4F531F53256
:1005E900F533753402020671E56975F00A8485F000
:1005F9002FE56975F00A8475F00A8485F030E4F511
:1006090031F532F533753401805EAE6AAF6B7C002B
:100619007D0A1200B88D2FAE6AAF6B7C007D0A127D
:1006290000B87C007D0A1200B88D30AE6AAF6B7CD1
:10063900007D641200B87C007D0A1200B88D31AECD
:100649006AAF6B7C037DE81200B87C007D0A12005A
:10065900B88D32E4F533753405800DE4F534F5339E
:10066900F532F531F530F52F85323B85333C85344C
:0A0679003DAB31AD30AF2F02137B13
:0E15030030080AC208E565B40103120559223A
:091585007B007A007966020DD7A3
:101485007B007A0079661207A3E5666009E4F566D4
:07149500F56CF56DF56E2208
:07153600C2A112153DD2A174
:05153D00000000002287
:0515B500D2A0D2A1222A
:0F14D800D2A0D2A112153DC2A012153DC2A12271
:0A156000C2A0121536D2A002153DFC
:10130700E4FEC2A112153DEF30E703D38001C3927B
:10131700A0EF25E0FF1215380EBE08E6C2A1121590
:081327003DD2A0121538A2A06E
:01132F00229B
:1012B000E4FFD2A0FE121536EF25E0FF30A0034375
:1012C00007010EBE08EFC2A112153D300903C3800D
:0C12D00001D392A0121538C2A112153DE6
:0112DC0022EF
:10140200AC071214D87FA0121307AF04121307AF50
:0E141200051213071215607F0A7E000213C236
:0213E200AD0755
:1013E4001214D87FA0121307AF051213071214D8D2
:0D13F4007FA1121307C2091212B01215607A
:0114010022C8
:1011A9008F2D8E2C8D2B8C2AE4AD07FF121402AFE4
:1011B9002DAE2CAD2BAC2A780812029BAD077F010E
:1011C900121402AF2DAE2CAD2BAC2A781012029B53
:1011D900AD077F02121402AF2DAE2CAD2BAC2A78CD
:0B11E9001812029BAD077F03021402E6
:100D5300E4F532F531F530F52FFF1213E2E48F326B
:100D6300F531F530F52F7F011213E2E4FCFDFE7837
:100D7300081202AEE5324FF532E5314EF531E5307A
:100D83004DF530E52F4CF52F7F021213E2E4FCFD05
:100D9300FE78101202AEE5324FF532E5314EF531F1
:100DA300E5304DF530E52F4CF52F7F031213E2E4C8
:100DB300FCFDFE78181202AEE5324FF532E5314EF6
:100DC300F531E5304DF530E52F4CF52FAF32AE312F
:030DD300AD30FC44
:010DD60022FA
:100DD7008B318A32893312003EFD7F10121402AB29
:100DE70031AA32A933900001120057FD7F11121466
:100DF70002AB31AA32A933900002120057FD7F12CD
:100E0700121402AB31AA32A933900003120057FD26
:100E17007F13121402AB31AA32A9339000041201D6
:100E270038FD7F14121402AB31AA32A933900004A3
:100E3700120138E5F0FD7F15121402AB31AA32A971
:0D0E470033900009120057FD7F16021402BF
:1007A3008B748A7589767F101213E2AB74AA75A9CC
:1007B30076EF1200847F111213E2AB74AA75A97647
:1007C300900001EF1200967F121213E2AB74AA7528
:1007D300A976900002EF1200967F131213E2AB7416
:1007E300AA75A976900003EF1200967F141213E204
:1007F300AB74AA75A976900004E48FF012018FE917
:100803002404F9E43AFAC003C00212010DFBAAF072
:100813007F151213E2EF4AFFEBD002D003CF8FF024
:100823001201707F161213E2AB74AA75A9769000B9
:1008330009EF120096900006E4120096900007E478
:10084300F5F012018F900001120057D39417400E58
:10085300AB74AA75A9769000017406120096AB7466
:10086300AA75A976900002120057D3943B400790D3
:100873000002E4120096900003120057D3943B4009
:10088300089000037401120096900004120138FFCF
:10089300AEF0C39432EE94004009D3EF940FEE947C
:0E08A30027400A900004E475F06412018F22D1
:03000000020CC728
:0C0CC700787FE4F6D8FD758176020D0EF2
:10003E00BB010689828A83E0225002E722BBFE02C0
:09004E00E32289828A83E49322F3
:10005700BB010CE58229F582E5833AF583E022505E
:1000670006E92582F8E622BBFE06E92582F8E222A8
:0D007700E58229F582E5833AF583E49322C2
:10008400BB010689828A83F0225002F722BBFE015B
:02009400F32255
:10009600F8BB010DE58229F582E5833AF583E8F0A0
:1000A600225006E92582C8F622BBFE05E92582C84C
:0200B600F22234
:1000B800BC000BBE0029EF8DF084FFADF022E4CC2C
:1000C800F875F008EF2FFFEE33FEEC33FCEE9DECF5
:1000D800984005FCEE9DFE0FD5F0E9E4CEFD22ED3B
:1000E800F8F5F0EE8420D21CFEADF075F008EF2F85
:1000F800FFED33FD4007985006D5F0F222C398FD76
:050108000FD5F0EA2212
:10010D00BB010A89828A83E0F5F0A3E022500687BD
:10011D00F009E71922BBFE07E3F5F009E31922897F
:0B012D00828A83E493F5F074019322B2
:10013800BB0110E58229F582E5833AF583E0F5F005
:10014800A3E0225009E92582F886F008E622BBFEE2
:100158000AE92582F8E2F5F008E222E5832AF58328
:08016800E993F5F0A3E99322ED
:10017000BB010A89828A83F0E5F0A3F0225006F7DA
:0F01800009A7F01922BBFE06F3E5F009F31922D7
:10018F00F8BB0111E58229F582E5833AF583E8F0A2
:10019F00E5F0A3F0225009E92582C8F608A6F0225F
:0D01AF00BBFE09E92582C8F2E5F008F22246
:1001BC0075F008758200EF2FFFEE33FECD33CDCCFA
:1001CC0033CCC58233C5829BED9AEC99E58298407D
:1001DC000CF582EE9BFEED9AFDEC99FC0FD5F0D65A
:1001EC00E4CEFBE4CDFAE4CCF9A88222B800C1B984
:1001FC000059BA002DEC8BF084CFCECDFCE5F0CBC2
:10020C00F97818EF2FFFEE33FEED33FDEC33FCEBFA
:10021C0033FB10D703994004EB99FB0FD8E5E4F9B5
:10022C00FA227818EF2FFFEE33FEED33FDEC33FCA2
:10023C00C933C910D7059BE99A4007EC9BFCE99A96
:10024C00F90FD8E0E4C9FAE4CCFB2275F010EF2FDB
:10025C00FFEE33FEED33FDCC33CCC833C810D707DB
:10026C009BEC9AE899400AED9BFDEC9AFCE899F816
:0E027C000FD5F0DAE4CDFBE4CCFAE4C8F922A9
:10028A00EB9FF5F0EA9E42F0E99D42F0E89C45F0CA
:01029A002241
:10029B00E8600FECC313FCED13FDEE13FEEF13FF41
:0302AB00D8F12265
:1002AE00E8600FEFC333FFEE33FEED33FDEC33FCAE
:0302BE00D8F12252
:100F3E008B328A338934AB35AA36A93712003EFE7E
:100F4E00AB32AA33A93412003EFF6E702BEF600D48
:100F5E00E53915397002153814453870037F0022B3
:100F6E0074012534F534E43533F53374012537F542
:100F7E0037E43536F53680BEAB32AA33A9341200CB
:100F8E003EFDD3EE6480F8ED64809840037F01222D
:0F0F9E00AB35AA36A93712003EFFC3ED9FFF22E5
:10002600E4FFFE12003E600C0FEF70010E09E9704E
:05003600F20A80EF2238
:1002C100EF4E6012EF60010EEDBB010B89828A8354
:1002D100F0A3DFFCDEFA2289F05007F709DFFCA961
:0C02E100F022BBFEFCF309DFFCA9F022B8
:100CD300021110E493A3F8E493A34003F68001F216
:100CE30008DFF48029E493A3F85407240CC8C33322
:100CF300C4540F4420C8834004F456800146F6DFF1
:100D0300E4800B0102040810204080900E54E47E1E
:100D1300019360BCA3FF543F30E509541FFEE493E5
:100D2300A360010ECF54C025E060A840B8E493A3AC
:100D3300FAE493A3F8E493A3C8C582C8CAC583CAD7
:100D4300F0A3C8C582C8CAC583CADFE9DEE780BE8F
:010EC9000028
:00000001FF
