:0D0A4700D2AF7580FF120982120A6880FE8E
:0A0A5E003F065B4F666D7D077F6F5A
:100A31000317000000080F00000000000000000183
:050A410008000109019D
:100A1100E4FDFCC3ED9FEC9E5015E4FBFA0BBB001B
:0F0A2100010AEB64784A70F50DBD00010C80E40A
:010A300022A3
:090A54007F08780FE4F608DFFCCE
:010A5D002276
:1009D200AE07120A54EB75F00A84E5F0900A5E93B2
:1009E200F50FEB75F00A8493F510ED75F00A84E5C6
:1009F200F093F511ED75F00A8493F512EE75F00A95
:0F0A020084E5F093F513EE75F00A8493F5142252
:10092200D2A3E509F4FFE4FEEF30E703D38001C36D
:1009320092A0C2A1D2A1EF25E0FF0EBE08EA740F79
:100942002508F8E6FFE4FEEF30E703D38001C39207
:10095200A0C2A1D2A1EF25E0FF0EBE08EAC2A2D238
:10096200A2C2A3E508045407F508E50925E0FFE55E
:0F09720009C413131354014FF5097003750901DC
:010981002253
:03003B00020800B8
:10080000C0E0C0F0C083C082C0D075D000C000C0BE
:1008100003C005C006C00730D918C2D9850EEBE564
:100820000DF5FB7499250EF50E7403350DF50D12BB
:10083000092230D84CC2D8850BEAE50AF5FAE4253E
:100840000BF50B7424350AF50A050CE50CC394640A
:10085000402F750C00B2900519E519943C401975AC
:1008600019000518E518943C400E7518000517E5A9
:100870001794184003751700AB19AD18AF1712097C
:10088000D2D007D006D005D003D000D0D0D082D0AF
:0608900083D0F0D0E0323D
:10098200E4F5D8F5E9F5F9F5D9750D03750E9985F4
:100992000EEBE50DF5FB7499250EF50E7403350D7E
:1009A200F50D75DB49750A24750B00850BEAE50A1E
:1009B200F5FAE4250BF50B7424350AF50A75DA49C4
:1009C200D2DED2AFE4F50CAB19AD18AF170209D2E3
:070A6800C291D290D2B2222C
:030A7500D29122F9
:030A7800C2912206
:060A6F00A291E433FF2216
:030000000208965D
:0C089600787FE4F6D8FD7581190208DDBA
:1008A200020A47E493A3F8E493A34003F68001F21B
:1008B20008DFF48029E493A3F85407240CC8C33357
:1008C200C4540F4420C8834004F456800146F6DF26
:1008D200E4800B0102040810204080900A31E47E7B
:1008E200019360BCA3FF543F30E509541FFEE4931B
:1008F200A360010ECF54C025E060A840B8E493A3E2
:10090200FAE493A3F8E493A3C8C582C8CAC583CA0C
:10091200F0A3C8C582C8CAC583CADFE9DEE780BEC4
:010A460000AF
:00000001FF
