:100FE2000D0A5761746572696E672053797374656F
:100FF2006D20537461727465642076342E3120281A
:10100200382D446967697420446973706C61792969
:101012000D0A004175746F20446973706C61793AEE
:101022002054696D653C2D3E44617465206576658A
:1010320072792035207365636F6E64730D0A004404
:1010420061746520466F726D61743A20595959591D
:101052004D4D44442028382D6469676974206675B3
:101062006C6C20646973706C6179290D0A00546993
:101072006D6520466F726D61743A2048482D4D4D62
:101082002D53532028382D64696769742066756C66
:101092006C20646973706C6179290D0A0050332EDB
:1010A20033204B65793A204C6F6E672070726573FE
:1010B2007320746F2073657420646174652F746982
:1010C2006D650D0A0053657474696E67206F7264F2
:1010D20065723A20596561722D3E4D6F6E74682DAE
:1010E2003E4461792D3E486F75722D3E4D696E2DDD
:0710F2003E5365630D0A0087
:0C161600014500C107C108420076000039
:100AC20020B30D20070AD207E4900076F0A3F022AB
:100AD20020B33A300737900077E004F070069000B8
:100AE20076E004F0900076E07004A3E064646003B2
:100AF200020C40E5456003020C407545027F01127D
:100B020025747F0112242B12257AD2082220B303E6
:100B1200020C40200703020C40C3900077E094646B
:100B2200900076E094004003020BB2E545B4080061
:100B32004003020C31900B3EF8282873020B560238
:100B42000B82020B96020B9A020B9E020BA2020B65
:100B5200A6020BAA900019E0600990001FE0600352
:100B6200020C317545011221EE12259F12255012F9
:100B720024577F0112258612246DE4F51F020C31E1
:100B8200E4F5451225A21225A5E4FF122586121AC4
:100B9200DF020C317F0180127F02800E7F03800A08
:100BA2007F0480067F0580027F0612180B020C313B
:100BB200C3900077E09464900076E0940040703037
:100BC2000804C2088069E545C394024062E545D342
:100BD2009407505B0545E54594074010E4F545123E
:100BE20024ADE4FF12242B12257A8043E54524FD2F
:100BF200601414601514601B14602114602724050E
:100C0200702D7F0180067F0280027F031225747F90
:100C12000180197F04122574E4FF80107F051225DC
:100C220074E4FF80077F06122574E4FF12242BC2AE
:0F0C320007E4900076F0A3F07F14FE12238222D5
:101BCD00D2AF7580FF121D2412256D12000E122545
:101BDD0001121D9212258B120EC91222687BFF7AFB
:101BED000F79E21222A17BFF7A1079151222A17BC7
:101BFD00FF7A1079411222A17BFF7A10797012229F
:101C0D00A17BFF7A10799F1222A17BFF7A1079C7F1
:101C1D001222A1120AC2120C4112251D12246D129C
:101C2D0023FA1224D412244112205D7F0A7E001261
:041C3D00238280DF9F
:102413003F065B4F666D7D077F6F39711F1C1F1E63
:082423001F1E1F1F1E1F1E1FBC
:10162200C101C102C100C103070E07E901010000A7
:10163200004800660000000000000000010B0001ED
:0F1642000800010901010C00010A0041006100CC
:10238200E4FDFCC3ED9FEC9E5015E4FBFA0BBB0091
:0F239200010AEB64784A70F50DBD00010C80E480
:0123A1002219
:0A2545007F08900066E4F0A3DFFCBD
:01254F002269
:061DFB00AB14AD13AF12A2
:101E0100AE07122545EB75F00A84E5F09024139393
:101E1100900066F0EB75F00A8490241393900067AC
:101E2100F0A37440F0ED75F00A84E5F0902413936B
:101E3100900069F0ED75F00A849024139390006A84
:101E4100F0A37440F0EE75F00A84E5F0902413934A
:101E510090006CF0EE75F00A849024139390006D5D
:021E6100F0226D
:0813E800AB11AD10AF0FAE0E0A
:1013F0008E2C8F2D122545EB75F00A84E5F0902494
:101400001393900066F0EB75F00A84902413939088
:101410000067F0ED75F00A84E5F0902413939000D6
:1014200068F0ED75F00A8490241393900069F0AE93
:101430002CAF2D7C007D0A1208FF74132DF58274E9
:10144000243CF583E49390006AF0AE2CAF2D7C0031
:101450007D0A1208FF7C007D0A1208FF74132DF527
:101460008274243CF583E49390006BF0AE2CAF2D96
:101470007C007D641208FF7C007D0A1208FF741353
:101480002DF58274243CF583E49390006CF0AE2C2F
:10149000AF2D7C037DE81208FF7C007D0A1208FF57
:1014A00074132DF58274243CF583E49390006DF061
:0114B0002219
:10216800AE07122545EE90241393900066F0ED908B
:10217800241393900067F0EB90241393900068F079
:10218800E52F90241393900069F0E5309024139381
:1021980090006AF0E5319024139390006BF0E4A36B
:0421A800F0A3F0228E
:101F3300D2A3E509F4FFE4FEEF30E703D38001C346
:101F430092A0C2A1D2A1EF25E0FF0EBE08EA7466FB
:101F53002508F582E43400F583E0FFE4FEEF30E783
:101F630003D38001C392A0C2A1D2A1EF25E0FF0E4B
:101F7300BE08EAC2A2D2A2C2A3E508045407F50828
:101F8300E50925E0FFE509C413131354014FF509CF
:051F9300700375090157
:011F98002226
:062574008F0CE4F50A22C1
:1024AD00E4F50CE50B7009AB14AD13AF12021E0170
:0424BD001213E822EC
:10180B00EF24FE602914604214604D14605D146077
:10181B006D2405707A050FE50F7002050ED3943316
:10182B00E50E94084069750E07750FD080610510A1
:10183B00E510D3940C40037510011223C4E511D3AA
:10184B009F404C1223C48F1180451223C2E511D344
:10185B009F403C7511018037E5122401FFE433FEF4
:10186B007C007D181208FF8D128024E5132401FFE4
:10187B00E433FE7C007D3C1208FF8D138011E514D0
:10188B002401FFE433FE7C007D3C1208FF8D14E540
:10189B000B7009AB14AD13AF12021E011213E82229
:101E6300EFC394185061EDC3943C505BEBC3943CB7
:101E730050558F128D138B14900019E06038A3E036
:101E8300FFE5129F5023E512B50709A3E0FFE51311
:101E9300D39F501590001AE0B51216A3E0B51311A5
:101EA300A3E0FFE514D39F40089000227401F08063
:101EB30005E4900022F01225A8EF700BE50C7007E3
:081EC300E50B7003121DFB2268
:1020BB008E288F298D2A8B2BC3E52994D0E5289464
:1020CB00074047D3E5299433E5289408503CE52A8B
:1020DB00C394014035E52AD3940C502EE52BC394C1
:1020EB000140271223CAE52BD39F501E85280E854E
:1020FB00290F852A10852B111225A8EF700CE50CE2
:0B210B007008E50BB401031213E8227A
:05000600AE0EAF0F2259
:03259000AF102267
:03259300AF112263
:03259600AF12225F
:03259900AF13225B
:03259C00AF142257
:10242B008F0BE50C700FEF7009AB14AD13AF1202ED
:06243B001E011213E8224D
:10231600AB07AA06EB5403700AFC7D641208FFEDB6
:102326004C700FAE02AF037C017D901208FFED4C9E
:072336007003D38001C322F4
:0823C2000511AD10AF0FAE0EC6
:0223CA00A90563
:1023CC00B9020812231650037F1D22E990241E9394
:0123DC00FF01
:0123DD0022DD
:102116000514E514C3943C4048E4F5140513E5138F
:10212600943C403DE4F5130512E51294184032E460
:10213600F5121223C2E511D39F4026751101051031
:10214600E510D3940C401A751001050FE50F7002C7
:10215600050ED39433E50E94084006750E07750FE9
:02216600D02285
:03003B000212FEB0
:1012FE00C0E0C0F0C083C082C0D075D000C000C0B6
:10130E0001C002C003C004C005C006C00730D91C0E
:10131E00C2D9900064E0FEA3E0F5EBEEF5FBE0240D
:10132E0099F0900064E03403F0121F3320D80302CA
:10133E0013CDC2D8900062E0FEA3E0F5EAEEF5FA16
:10134E00E02400F0900062E03424F0050DE50DC3BA
:10135E009464404C750D00B290D201E50CD394000C
:10136E00400CE50A70047F0180517F00804D1225EC
:10137E00A8EF704BE51F701E900061E004F0E0C313
:10138E009405400EE4F0E50B70047F0180027F00AF
:10139E008F0BD2028029E51F64017023D20E801FAD
:1013AE00E50D75F03284E5F07015E50CD394004030
:1013BE000EE50A70047F0180027F008F0AD203D0EF
:1013CE0007D006D005D004D003D002D001D000D073
:0A13DE00D0D082D083D0F0D0E032EE
:101D2400E4F5D8F5E9F5F9F5D99000647403F0A366
:101D34007499F0900064E0FEA3E0F5EBEEF5FBE0AF
:101D44002499F0900064E03403F075DB499000625C
:101D54007424F0A3E4F0900062E0FEA3E0F5EAEE60
:101D6400F5FAE02400F0900062E03424F075DA49DA
:101D7400D2DED2AFE4F50DF50B900061F0E50B7007
:0E1D840009AB14AD13AF12021E011213E822B8
:06257A00E4900061F02274
:10205D0030035AC203E50CD39403502A1213E8E55A
:10206D000A604AE50C24FE60111460142402703DD0
:10207D00E490006AF0A3F0A38030E4900068802A19
:10208D00E49000668024121DFBE50A6020E50C2417
:10209D00FB600D14601024027013E490006C800A34
:0E20AD00E49000698004E4900066F0A3F02245
:0F24D40030010BC2011221161210F9121203224D
:10244100300212C202E50B7009AB14AD13AF1202D8
:062451001E011213E82237
:07256D00D291D290D2B222FC
:03259F00C29122C4
:0325A200D29122B1
:04165100C10AC10900
:10000E005389F0438901758C4CE4F58AD2A9C290CC
:05001E00C20AC28C22A1
:0E250100200A0A758C4CE4F58AD28CD20A228C
:03000B0002250FBC
:0D250F00758C4C758A00B209200902B2904B
:01251C00328C
:10002600546F74616C20466C6F773A200030002064
:050036006D6C0D0A00D5
:10165500011D00021A000002180000C104C10501A5
:101665001C00011700C10644006E000000000116B1
:04167500000115005B
:100EC900E4F53BF53CD288D2A8F51AF51BF518F5DF
:100ED90019122580900072120A59900072E0FCA341
:100EE900E0FDA3E0FEA3E0FF90006E120A597BFF2C
:100EF9007A0079261222A1E4FFFEFDFC900072E03F
:100F0900F8A3E0F9A3E0FAA3E0FBC3120A227009EF
:100F19007BFF7A007933020FCC900072E0FCA3E0EA
:100F2900FDA3E0FEA3E0F5408E3F8D3E8C3DE4F548
:100F39003BE4FFFEFDFCAB40AA3FA93EA83DD3120E
:100F49000A224040E53B940A503AE47B0AFAF9F850
:100F5900AF40AE3FAD3EAC3D120990EB2430FFAE41
:100F69003B053B742F2EF8A607AF40AE3FAD3EAC14
:100F79003DE47B0AFAF9F81209908F408E3F8D3EC5
:100F89008C3D80ADE53B700AAF3B053B742F2FF8D4
:100F99007630E4F53CE53BD39400401BE53C940AEC
:100FA9005015153B742F253BF8E6FFAE3C053C7404
:100FB900232EF8A60780DE7423253CF8E4F6FB7A95
:100FC9000079231222A17BFF7A0079351222A1C26E
:080FD90004E4F51DF517C20642
:010FE10022ED
:10245700200412E4F51AF51BD2A8D204F518F519D1
:06246700D205751C0222E3
:0325A500C204224B
:0A255000E4F51AF51BF518F5192241
:10120300E51CD394004005D51C02D2050516E5164E
:10121300C3940150030212DFE4F516200403021203
:10122300C6851A18851B19D3E5199400E51894008F
:0512330050030212C689
:10123800900072E0FCA3E0FDA3E0FEA3E0F5268E9B
:10124800258D248C23900072E0F8A3E0F9A3E0FA3E
:10125800A3E0FBE4FCFDEB2519FFEA3518FEED39A8
:10126800FDEC38FC900072120A59AF26AE25AD2469
:10127800AC23900072E0F8A3E0F9A3E0FAA3E0FB46
:10128800C3120A226002D20690006EE0F8A3E0F9C9
:10129800A3E0FAA3E0FB900072E0FCA3E0FDA3E06A
:1012A800FEA3E0C39BFFEE9AFEED99FDEC98FCE4EB
:0E12B8007B32FAF9F8D3120A2250031222C632
:1012C6000517E517C3940A4009E4F517300603121B
:0C12D60022C6E4F51AF51BD20530041BFB
:1012E2000515E515C394034012E4F515E51DB40197
:0B12F200047F0280027F018F1DD205E7
:0112FD0022CE
:1022C600900072E0FCA3E0FDA3E0FEA3E0FF122471
:1022D60083900072E0FCA3E0FDA3E0FEA3E0FF9084
:0822E600006E120A59C2062223
:10246D00300512C205E51DB40103021C41E51DB482
:06247D0002031214B1225B
:101C4100AB19AA1875230A7C277D10AF03AE0212C7
:101C510008FF7C007D0A1208FF8D247C037DE8AF1C
:101C610003AE021208FF7C007D0A1208FF8D257C5D
:101C7100007D64AF03AE021208FF7C007D0A1208EA
:101C8100FF8D267C007D0AAF03AE021208FF7C00A7
:101C91007D0A1208FF8D27AE02AF037C007D0A1278
:101CA10008FFAF0585252F852430852331AB26AD6F
:041CB100270221687D
:1014B100900072E0FCA3E0FDA3E0FEA3E0F52B8E1B
:1014C1002A8D298C2875230BE47B107A27F9F8AF34
:1014D1002BAE2AAD29AC28120990E47B0AFAF9F85F
:1014E100120990AF038F24E47BE87A03F9F8AF2B5C
:1014F100AE2AAD29AC28120990E47B0AFAF9F81258
:101501000990AF038F25E47B64FAF9F8AF2BAE2A7B
:10151100AD29AC28120990E47B0AFAF9F812099076
:10152100AF038F26E47B0AFAF9F8AF2BAE2AAD2977
:10153100AC28120990E47B0AFAF9F8120990AF037A
:101541008F27E47B0AFAF9F8AF2BAE2AAD29AC2834
:10155100120990AF0385252F852430852331AB26D1
:05156100AD2702216826
:052586008F1DD20522AB
:0325A800AF1D2242
:0F24E300900072E0FCA3E0FDA3E0FEA3E0FF2267
:0300030002252BA8
:0D252B00C0E0051BE51B7002051AD0E03270
:10047B000D0A5761746572696E67205379737465E1
:10048B006D2052656164792076322E310D0A00435E
:10049B006F6D6D616E647320417661696C61626C26
:1004AB00653A0D0A0054494D453A48483A4D4D3A84
:1004BB0053530D0A00444154453A595959593A4D31
:1004CB004D3A44440D0A00413A48483A4D4D3A538F
:1004DB00533A4D4D4D4D0D0A004449535054494D1F
:1004EB00452F44495350444154450D0A0053544F32
:1004FB00500D0A000D0A3D3D3D2057617465726930
:10050B006E67205265636F7264203D3D3D0D0A009E
:10051B00547970653A204D616E75616C205761742A
:10052B006572696E670D0A005374617274205469A9
:10053B006D653A203230000D0A00456E6420546917
:10054B006D653A20323000576174657220566F6CBE
:10055B00756D653A2000206D6C0D0A00546F746147
:10056B006C20466C6F773A20004475726174696F2A
:10057B006E3A2000206D696E2000207365630D0AB2
:10058B00003D3D3D3D3D3D3D3D3D3D3D3D3D3D3DCD
:10059B003D3D3D3D3D3D3D3D0D0A00547970653A75
:1005AB00204175746F205761746572696E670D0A0F
:1005BB0000444154453A000D0A446174652053656B
:1005CB00743A20000D0A4572726F723A20496E76AA
:1005DB00616C696420646174650D0A00466F726D0D
:1005EB0061743A205959595928323030302D3230F4
:1005FB003939293A4D4D28312D3132293A44442885
:10060B00312D3331290D0A000D0A4572726F723A82
:10061B002057726F6E6720666F726D61740D0A00E2
:10062B00466F726D61743A20444154453A59595999
:10063B00593A4D4D3A44440D0A004578616D706C42
:10064B00653A20444154453A323032353A30353AE6
:10065B0032370D0A0054494D453A000D0A54696D65
:10066B0065205365743A20000D0A4572726F723A19
:10067B0020496E76616C69642074696D650D0A00A2
:10068B00466F726D61743A20484828302D323329F9
:10069B003A4D4D28302D3539293A535328302D35C5
:1006AB0039290D0A00466F726D61743A2054494D19
:1006BB00453A48483A4D4D3A53530D0A0045786137
:1006CB006D706C653A2054494D453A31343A3330AC
:1006DB003A30300D0A004449535054494D45000DF2
:1006EB000A446973706C6179204D6F64653A2054CC
:1006FB00696D650D0A004449535044415445000D42
:10070B000A446973706C6179204D6F64653A2044BB
:10071B006174650D0A00413A000D0A4175746F2032
:10072B00536574204F4B0D0A0054696D653A2000D8
:10073B000D0A566F6C756D653A20006D6C0D0A00D5
:10074B000D0A4572726F723A20496E76616C69645C
:10075B0020706172616D730D0A0054696D653A20EA
:10076B00484828302D3233293A4D4D28302D353914
:10077B00293A535328302D3539290D0A00566F6C01
:10078B00756D653A2035302D393939396D6C0D0A57
:10079B0000466F726D61743A20413A48483A4D4DAC
:1007AB003A53533A4D4D4D4D0D0A004578616D70DE
:1007BB006C653A20413A30363A30303A30313A3083
:1007CB003130300D0A0053544F50000D0A417574EF
:1007DB006F2053746F707065640D0A000D0A4572BB
:1007EB00726F723A20556E6B6E6F776E20636D640D
:1007FB000D0A00436F6D6D616E64733A0D0A005400
:10080B00494D453A48483A4D4D3A5353202D2053C4
:10081B0065742074696D650D0A00444154453A595D
:10082B005959593A4D4D3A4444202D205365742063
:10083B00646174650D0A00413A48483A4D4D3A538C
:10084B00533A4D4D4D4D202D2053657420617574D9
:10085B006F207761746572696E670D0A00444953A6
:10086B005054494D452F4449535044415445202D34
:10087B0020446973706C6179206D6F64650D0A009B
:10088B0053544F50202D2053746F70206175746F2B
:0C089B00207761746572696E670D0A00B9
:05167900014600C10D57
:101D920075985053877F53890F438920758BFD7542
:101DA2008DFDD28ED2ACD2AFE4F546C20DFE7F20BD
:101DB200FD7B017A007941120A967BFF7A04797BD6
:101DC2001222A17BFF7A04799A1222A17BFF7A0464
:101DD20079B01222A17BFF7A0479C01222A17BFF83
:101DE2007A0479D21222A17BFF7A0479E41222A129
:091DF2007BFF7A0479F80222A1BA
:10233D00E4FAF9F8AF32AE31AD30AC2F120990E4BA
:0C234D007B0AFAF9F8120990EB2430FF2B
:082359008F993099FDC2992211
:06229B007BFF7A05794289
:1022A1008B418A428943AB41AA42A9431208A760E4
:1022B100130543E5437002054214F91208A7FF1202
:0522C100235980E22218
:0B156600E0FCA3E0FDA3E0FEA3E0FF1B
:101571008F328E318D308C2FE4FFFEFDFCAB32AA11
:1015810031A930A82FC3120A2270057F300216122A
:10159100E47F107E27FDFCAB32AA31A930A82FC30E
:1015A100120A224008E47B107A2712233FE47FE8E5
:1015B1007E03FDFCAB32AA31A930A82FC3120A2247
:1015C1004008E47BE87A0312233FE47F64FEFDFCDC
:1015D100AB32AA31A930A82FC3120A2240057B647D
:1015E10012233DE47F0AFEFDFCAB32AA31A930A8EB
:1015F1002FC3120A2240057B0A12233DE47B0AFA1B
:10160100F9F8AF32AE31AD30AC2F120990EB243086
:05161100FF1223592225
:101FFE00E0FEA3E0FF7C007D641208FFAF05122017
:10200E00437F2D122359A3E0FF1220437F2D12236D
:10201E0059A3E0FF1220437F20122359A3E0FF12A1
:10202E0020437F3A122359A3E0FF1220437F3A1236
:05203E002359A3E0FF9F
:10204300AE07EE75F00A842430FF122359EE75F0C3
:0A2053000A84E5F02430FF0223594F
:1016BD007BFF7A0479FF1222A17BFF7A05791B1239
:1016CD0022A17BFF7A0579331222A1900001121F0E
:1016DD00FE12229B7BFF7A0579451222A19000080C
:1016ED00121FFE12229B7BFF7A0579521222A190C6
:1016FD00000F1215667BFF7A0579611222A17BFF1F
:10170D007A0579671222A19000131215667BFF7A74
:10171D000579611222A17BFF7A0579741222A190BD
:10172D000017E0FFD394004010E4FCFDFE1215718C
:10173D007BFF7A05797F1222A1900018E0FFE4FC6F
:10174D00FDFE1215717BFF7A0579851222A17BFFB3
:07175D007A05798C0222A13C
:101764007BFF7A0479FF1222A17BFF7A0579A61206
:1017740022A17BFF7A0579331222A1900028121F3F
:10178400FE12229B7BFF7A0579451222A190002F3D
:10179400121FFE12229B7BFF7A0579521222A1901E
:1017A40000361215667BFF7A0579611222A17BFF50
:1017B4007A0579671222A190003A1215667BFF7AA6
:1017C4000579611222A17BFF7A0579741222A19016
:1017D400003EE0FFD394004010E4FCFDFE121571BE
:1017E4007BFF7A05797F1222A190003FE0FFE4FCA1
:1017F400FDFE1215717BFF7A0579851222A17BFF0C
:071804007A05798C0222A194
:081F99008B288A29892A8D2B6F
:101FA100E4F52CF52DF52EE52EC3952B504AAB28E3
:101FB100AA29A92A852E827583001208C0FFC3644D
:101FC1008094B0402AD3EF648094B95022EF3395C6
:101FD100E0FEEF24D0FBEE34FFFAAE2CAF2D7C00F7
:101FE1007D0A1208EDEF2BF52DEE3AF52C80057EDA
:0C1FF100FF7FFF22052E80AFAE2CAF2D2D
:011FFD0022C1
:10003E00752BFF752C05752DBC752E00752F057B48
:0E004E00017A007941121CB5EF600302012611
:10005C007B017A007941122498C3EF940FEE94003F
:10006C00500302010B7B017A0079467D04121F9923
:10007C008E238F247B017A00794B7D02121F998F7E
:10008C00257B017A00794E7D02121F998F26C3E5DC
:10009C002494D0E52394074054D3E5249433E523EA
:1000AC0094085049E525C394014042E525D3940CAE
:1000BC00503BE526C394014034AD25AF24AE23124A
:1000CC0023CAE526D39F5025AB26AD25AF24AE23FE
:1000DC001220BB7BFF7A0579C21222A190004A74D0
:1000EC002DF090004DF0E49000500201CA7BFF7A95
:1000FC000579CF1222A17BFF7A0579E70204777B81
:10010C00FF7A0679131222A17BFF7A06792B122231
:07011C00A17BFF7A06794583
:10012300020477752BFF752C06752D60752E0075EF
:100133002F057B017A007941121CB5EF600302029F
:010143000AB1
:10014400F523F524F5257B017A007941122498C31F
:10015400EF940DEE940050030201EF900046E0246A
:10016400D075F00AA4FFA3E024D02FF52390004912
:10017400E024D075F00AA4FFA3E024D02FF5249046
:10018400004CE024D075F00AA4FFA3E024D02FF59E
:1001940025E523C394185041E524C3943C503AE523
:1001A40025C3943C5033AB25AD24AF23121E637B8F
:1001B400FF7A0679661222A1900048743AF0900002
:1001C4004BF0E490004EF07B017A0079461222A1B4
:1001D4007BFF7A0579420204777BFF7A06797312F2
:1001E40022A17BFF7A06798B0204777BFF7A06795A
:1001F400131222A17BFF7A0679B01222A17BFF7A27
:030204000679C8B0
:10020700020477752BFF752C06752DE1752E007589
:100217002F087B017A007941121CB5EF700DFF1290
:10022700242B7BFF7A0679EA020477752BFF752C5E
:1002370007752D01752E00752F087B017A0079410E
:10024700121CB5EF700E7F0112242B7BFF7A077902
:100257000A020477752BFF752C07752D21752E0063
:10026700752F027B017A007941121CB5EF600302FA
:0202770004156C
:100279007B017A007941122498C3EF940FEE940020
:1002890050030203FB900043E024D075F00AA4FF59
:10029900A3E024D02FF523900046E024D075F00A7E
:1002A900A4FFA3E024D02FF524900049E024D075C1
:1002B900F00AA4FFA3E024D02FF525E4F526F527BD
:1002C90090004CE0FF3395E0FEEF24D0FFEE34FFC1
:1002D900FE7C037DE81208EDEF2527F527EE35268C
:1002E900F526A3E0FF3395E0FEEF24D0FFEE34FFBF
:1002F900FE7C007D641208EDEF2527F527EE3526F3
:10030900F526A3E0FF3395E0FEEF24D0FFEE34FF9E
:10031900FE7D0A1208EDEF2527F527EE3526F5268D
:10032900A3E0FF3395E0FEEF24D0FFEE34FFFEEFAC
:100339002527F527EE3526F526E523C3941840032E
:100349000203E1E524C3943C40030203E1E525C32C
:10035900943C40030203E1C3E5279432E526940067
:100369004076D3E527940FE5269427506B90001A21
:10037900E523F0A3E524F0A3E525F0A3E526F0A302
:10038900E527F09000197401F0E4900022F07BFF5A
:100399007A0779241222A17BFF7A0779341222A1E4
:1003A900900045743AF0900048F0E490004BF07BDF
:1003B900017A0079431222A17BFF7A07793B122245
:1003C900A1E4900050F07B017A00794C1222A17BC4
:1003D900FF7A0779460204777BFF7A07794B122265
:1003E900A17BFF7A0779651222A17BFF7A077988B9
:1003F900807C7BFF7A0679131222A17BFF7A077929
:0A0409009C1222A17BFF7A0779B64E
:100413008062752BFF752C07752DD1752E00752FF6
:10042300047B017A007941121CB5EF700B1223A2F1
:100433007BFF7A0779D6803C7BFF7A0779E7122224
:10044300A17BFF7A0779FE1222A17BFF7A08790A42
:100453001222A17BFF7A0879251222A17BFF7A0859
:1004630079421222A17BFF7A0879681222A17BFFCD
:080473007A08798B1222A12204
:1023FA00300D1512003EC20DE4F546FE7F20FD7B2E
:09240A00017A007941120A9622C0
:03002300021ECBEF
:101ECB00C0E0C083C082C0D075D000C00730984836
:051EDB00C298200D4338
:101EE000859922AF22122359E522640A6005E52272
:101EF000B40D1874412546F582E43400F583E4F00E
:101F0000E546D39400401CD20D8018E546C3941FCB
:101F10005011AF46054674412FF582E43400F58335
:031F2000E522F0C7
:101F2300309902C299D007D0D0D082D083D0E0328A
:10167E006027001900060001006400000000000051
:10168E00000000000000000000000000000000004C
:10169E000000000000000000000000011F00011EFD
:0716AE0000C10E41004000E5
:082564007F1EAE071FEE70FAA6
:01256C00224C
:1021EE00E4900000F0120006900001EEF0A3EFF074
:1021FE00122590900003EFF0122593900004EFF05B
:10220E00122596900005EFF0122599900006EFF03A
:10221E0012259C900007EFF01224E3900013020A9F
:01222E005956
:1021AC009000277401F0120006900028EEF0A3EFC7
:1021BC00F012259090002AEFF012259390002BEF4F
:1021CC00F012259690002CEFF012259990002DEF2F
:1021DC00F012259C90002EEFF01224E390002302C5
:0221EC000A598E
:1019D700900005E0FF7E007C0E7D101208EDAC063E
:1019E700AD07A3E075F03CA42DFFEC35F0FEA3E0B6
:1019F7007C002FFFEC3EAB07FA90000CE0FF7E0067
:101A07007C0E7D101208EDAC06AD07A3E075F03C27
:101A1700A42DFFEC35F0FEA3E07C002FFFEC3EFE8B
:101A2700C3EF9BEE9A500874802FFF74513EFEC39C
:101A3700EF9BFFEE9AAB07FA7C007D3CFE1208FF96
:101A4700900017EFF0AE02AF037C007D3C1208FF59
:031A5700A3EDF00C
:011A5A002269
:101A5B0090002CE0FF7E007C0E7D101208EDAC0692
:101A6B00AD07A3E075F03CA42DFFEC35F0FEA3E031
:101A7B007C002FFFEC3EAB07FA900033E0FF7E00BB
:101A8B007C0E7D101208EDAC06AD07A3E075F03CA3
:101A9B00A42DFFEC35F0FEA3E07C002FFFEC3EFE07
:101AAB00C3EF9BEE9A500874802FFF74513EFEC318
:101ABB00EF9BFFEE9AAB07FA7C007D3CFE1208FF12
:101ACB0090003EEFF0AE02AF037C007D3C1208FFAE
:031ADB00A3EDF088
:011ADE0022E5
:101ADF00120006900008EEF0A3EFF0122590900090
:101AEF000AEFF012259390000BEFF012259690005D
:101AFF000CEFF012259990000DEFF012259C90003D
:101B0F000EEFF01224E38F268E258D248C23900068
:101B1F0013E0F8A3E0F9A3E0FAA3E0FBC3E5269BEB
:101B2F00FFE5259AFEE52499FDE52398FC90000F2B
:101B3F00120A59AF26AE25AD24AC23900013120A1A
:071B4F00591219D70216BD5F
:101B560012000690002FEEF0A3EFF01225909000F1
:101B660031EFF0122593900032EFF0122596900097
:101B760033EFF0122599900034EFF012259C900077
:101B860035EFF01224E38F2E8E2D8D2C8C2B9000AA
:101B960023E0F8A3E0F9A3E0FAA3E0FBC3E52E9B5C
:101BA600FFE52D9AFEE52C99FDE52B98FC90003675
:101BB600120A59AF2EAE2DAD2CAC2B90003A120A5C
:071BC60059121A5B021764BB
:102268004390FC12258BE4900019F0A37406F0E467
:10227800A3F0A304F0A3E4F0A37464F0E4A3F0A330
:10228800F0A3F0A3F0A3120A6500000000E4F51F14
:03229800F51E220E
:100C4100E4F523209203432301209303432302204D
:100C5100940343230420950343230820960343234D
:100C610010209703432320900040E0F45523F524FE
:100C710030E02212256420921C900019E0601312CA
:100C810023A2E4F51FAB14AD13AF12121E01D20E55
:100C910080031223DEE52430E51212256420970C2F
:100CA100E51E045403F51E751F01D20EE52430E143
:100CB1006A122564209364E51E14601A14602714D7
:100CC10060392403705090001AE02401FFE433FEE0
:100CD1007C007D18801E90001BE02401FFE433FEA0
:100CE1007C007D3C800E90001CE02401FFE433FE7B
:100CF1007C007D3C1208FFEDF0801BC390001EE0DC
:100D010094DE90001DE09426500CA3E02432F09074
:100D1100001DE03400F0751F01D20EE52430E274AD
:100D210012256420946EE51E14601F146031146056
:100D3100432403705A90001AE0FF70047F17800368
:100D4100EF14FF90001AEFF0804590001BE0FF7058
:100D5100047F3B8003EF14FF90001BEFF080309085
:100D6100001CE0FF70047F3B8003EF14FF90001C28
:100D7100EFF0801BD390001EE0943290001DE094B0
:100D810000400CA3E024CEF090001DE034FFF0758C
:0A0D91001F01D20E900040E523F090
:010D9B002235
:1023DE009000197401F0E490001FF0900022F0F5C7
:0C23EE001FD20EAB14AD13AF12021E0183
:1023A200E4900019F0900022F090001FE06010E429
:1023B200F01225A21225A5E4FF122586121B562231
:1010F900900019E0700302120290001FE0700302D1
:1011090011A51224E38F268E258D248C239000238C
:10111900E0F8A3E0F9A3E0FAA3E0FBC3E5269BF519
:101129002AE5259AF529E52499F528E52398F5274F
:1011390090001DE0FEA3E0FFE4FCFDAB2AAA29A96B
:1011490028A827C3120A224032E490001FF0900019
:101159002204F01225A21225A5E4FF122586AF2646
:10116900AE25AD24AC23122483121B56E4F51FAB24
:1011790014AD13AF12121E01D20E22C390001EE04D
:10118900952AFE90001DE09529900020F0A3CEF04D
:10119900E51F64016063751F01D20E22900022E0F1
:1011A900704490001AE06512703CA3E06513703634
:1011B900A3E0B5143190001F7401F090001DE0FF09
:1011C900A3E0900020CFF0A3EFF01224E3900023D6
:1011D900120A591221AC12259F1224577F01122598
:1011E90086751F01D20E900022E0600DE51270098C
:0911F900E5137005E5147001F026
:0112020022C9
:100D9C0090001FE0602CA3E0FAA3E0FB7C007D0A2E
:100DAC00FFAE021208FF8D237C007D0AAF03AE025A
:100DBC001208FF7C007D0A1208FF8D24900020028F
:100DCC000E79E51E146032146054146075240360AF
:100DDC0003020EAA90001AE0FF75F00A8485F02336
:100DEC00EF75F00A8475F00A8485F024E4F525F596
:100DFC0026F527752803020EB790001BE0FF75F04F
:100E0C000A8485F023EF75F00A8475F00A8485F066
:100E1C0024E4F525F526F527752802020EB7900077
:100E2C001CE0FF75F00A8485F023EF75F00A8475D9
:100E3C00F00A8485F024E4F525F526F527752801BC
:100E4C00806990001DE0FAA3E0FB7C007D0AFFAEF8
:100E5C00021208FF8D237C007D0AAF03AE0212083C
:100E6C00FF7C007D0A1208FF8D2490001DA3E07CFE
:100E7C00007D64FFAE021208FF7C007D0A1208FFA1
:100E8C008D257C037DE8AF03AE021208FF7C007D4C
:100E9C000A1208FF8D26E4F527752805800DE4F568
:100EAC0028F527F526F525F524F52385262F852706
:0D0EBC0030852831AB25AD24AF230221681D
:0E251D00300E0AC20EE51FB40103120D9C22FF
:0716B5004400720000000078
:0D253800D2A500D2A600C2A500C2A60022B6
:0A255A00C2A500D2A600D2A50022FF
:0F24F200A20C92A500D2A600C2A600D2A500227D
:1024C100D2A500D2A60030A505C2A600D322C2A67D
:0324D10000C32223
:0B22EE00AF33AE32AD31AC30120A331A
:1022F900E4FEEF30E703D38001C392A5D2A600C262
:0D230900A600EF25E0FF0EBE08E80224C18B
:10236100E4FFD2A5FED2A600EF25E0FFA2A5E4334B
:102371004207C2A6000EBE08ECA20B920C1224F278
:012381002239
:10222F00AD071225387FA01222F9AF051222F9E56A
:10223F0033FF1222F978081222EE78101222EEAF35
:10224F0033AE32AD31AC307818120A331222F91294
:09225F00255A7F147E000223823F
:0218AB00AB0789
:1018AD00E4F544F543F542F5411225387FA01222A7
:1018BD00F9AF031222F91225387FA11222F9C20BBA
:1018CD00122361E48F44F543F542F541C20B122317
:1018DD0061E4FCFDFE7808120A46E5444FF544E547
:1018ED00434EF543E5424DF542E5414CF541C20B02
:1018FD00122361E4FCFDFE7810120A46E5444FF513
:10190D0044E5434EF543E5424DF542E5414CF54185
:10191D00D20B122361E4FCFDFE7818120A46E54451
:10192D004FF544E5434EF543E5424DF542E5414C57
:0D193D00F54112255AAF44AE43AD42AC4116
:01194A00227A
:05258B00D2A5D2A6223A
:102483008F2E8E2D8D2C8C2B8F338E328D318C3065
:05249300E4FF02222F0E
:06258000E4FF1218AB227B
:0300000002194B97
:0C194B00787FE4F6D8FD75814602199201
:1008A700BB010689828A83E0225002E722BBFE024F
:0908B700E32289828A83E4932282
:1008C000BB010CE58229F582E5833AF583E02250ED
:1008D00006E92582F8E622BBFE06E92582F8E22237
:0D08E000E58229F582E5833AF583E4932251
:1008ED00EF8DF0A4A8F0CF8CF0A428CE8DF0A42E1F
:0208FD00FE22D9
:1008FF00BC000BBE0029EF8DF084FFADF022E4CCDD
:10090F00F875F008EF2FFFEE33FEEC33FCEE9DECA5
:10091F00984005FCEE9DFE0FD5F0E9E4CEFD22EDEB
:10092F00F8F5F0EE8420D21CFEADF075F008EF2F35
:10093F00FFED33FD4007985006D5F0F222C398FD26
:05094F000FD5F0EA22C3
:1009540075F008758200EF2FFFEE33FECD33CDCC5A
:1009640033CCC58233C5829BED9AEC99E5829840DD
:100974000CF582EE9BFEED9AFDEC99FC0FD5F0D6BA
:10098400E4CEFBE4CDFAE4CCF9A88222B800C1B9E4
:100994000059BA002DEC8BF084CFCECDFCE5F0CB22
:1009A400F97818EF2FFFEE33FEED33FDEC33FCEB5B
:1009B40033FB10D703994004EB99FB0FD8E5E4F916
:1009C400FA227818EF2FFFEE33FEED33FDEC33FC03
:1009D400C933C910D7059BE99A4007EC9BFCE99AF7
:1009E400F90FD8E0E4C9FAE4CCFB2275F010EF2F3C
:1009F400FFEE33FEED33FDCC33CCC833C810D7073C
:100A04009BEC9AE899400AED9BFDEC9AFCE899F876
:0E0A14000FD5F0DAE4CDFBE4CCFAE4C8F92209
:100A2200EB9FF5F0EA9E42F0E99D42F0E89C45F02A
:010A320022A1
:100A3300E8600FECC313FCED13FDEE13FEEF13FFA1
:030A4300D8F122C5
:100A4600E8600FEFC333FFEE33FEED33FDEC33FC0E
:030A5600D8F122B2
:0C0A5900ECF0A3EDF0A3EEF0A3EFF02210
:100A6500A8828583F0D083D082120A7C120A7C1278
:100A75000A7C120A7CE473E493A3C583C5F0C5839D
:100A8500C8C582C8F0A3C583C5F0C583C8C582C8DB
:010A9500223E
:101CB5008B288A29892AAB2BAA2CA92D1208A7FEC5
:101CC500AB28AA29A92A1208A7FF6E702BEF600D71
:101CD500E52F152F7002152E14452E70037F002257
:101CE5007401252AF52AE43529F5297401252DF5F0
:101CF5002DE4352CF52C80BEAB28AA29A92A12087B
:101D0500A7FDD3EE6480F8ED64809840037F01223F
:0F1D1500AB2BAA2CA92D1208A7FFC3ED9FFF220D
:10249800E4FFFE1208A7600C0FEF70010E09E97047
:0524A800F20A80EF22A2
:100A9600EF4E6012EF60010EEDBB010B89828A8377
:100AA600F0A3DFFCDEFA2289F05007F709DFFCA984
:0C0AB600F022BBFEFCF309DFFCA9F022DB
:10195700021BCDE493A3F8E493A34003F68001F2BE
:1019670008DFF48029E493A3F85407240CC8C33391
:10197700C4540F4420C8834004F456800146F6DF60
:10198700E4800B0102040810204080901616E47EC4
:10199700019360BCA3FF543F30E509541FFEE49355
:1019A700A360010ECF54C025E060A840B8E493A31C
:1019B700FAE493A3F8E493A3C8C582C8CAC583CA47
:1019C700F0A3C8C582C8CAC583CADFE9DEE780BEFF
:0116BC00002D
:00000001FF
