:050DB000011A00C10260
:100D2F0020B32F20022CD202E51A7016751A011269
:100D3F000F24120EAD120E6C7F01120F1A120E82BB
:100D4F008018E4F51A120F27120F2AE4FF120F1A58
:100D5F00800830B30C300209C2027F147E00120EDD
:020D6F0032222E
:100E0F00D2AF7580FF120CDF120F00120E98120E68
:100E1F00BF120E52120D2F120E827F0A7E00120E7B
:030E2F003280F11D
:0A0EE4003F065B4F666D7D077F6FD0
:100DB5000317000000080F000000000000000001FC
:050DC500080001090116
:100E3200E4FDFCC3ED9FEC9E5015E4FBFA0BBB00F6
:0F0E4200010AEB64784A70F50DBD00010C80E4E5
:010E5100227E
:090EDA007F08780FE4F608DFFC44
:010EE30022EC
:100D7100AE07120EDAEB75F00A84E5F0900EE493FB
:100D8100F50FEB75F00A8493F510ED75F00A84E523
:100D9100F093F511ED75F00A8493F512EE75F00AF2
:0F0DA10084E5F093F513EE75F00A8493F51422B0
:100DEB00AE07120EDAEE900EE493F50FED93F510BD
:100DFB00EB93F511E52D93F512E52E93F513E52FF6
:040E0B0093F5142225
:100C2100D2A3E509F4FFE4FEEF30E703D38001C36B
:100C310092A0C2A1D2A1EF25E0FF0EBE08EA740F77
:100C41002508F8E6FFE4FEEF30E703D38001C39205
:100C5100A0C2A1D2A1EF25E0FF0EBE08EAC2A2D236
:100C6100A2C2A3E508045407F508E50925E0FFE55C
:0F0C710009C413131354014FF5097003750901DA
:010C80002251
:03003B0002096255
:10096200C0E0C0F0C083C082C0D075D000C000C05B
:1009720001C002C003C004C005C006C00730D918B8
:10098200C2D9850EEBE50DF5FB7499250EF50E74B3
:1009920003350DF50D120C2130D86BC2D8850BEA48
:1009A200E50AF5FAE4250BF50B7424350AF50A0578
:1009B2000CE50CC39464403B750C00B290120A2300
:1009C2000519E519C3943C40197519000518E51875
:1009D200943C400E7518000517E5179418400375EE
:1009E2001700120F33EF701EAB19AD18AF17120DAF
:1009F200718013E50C75F01484E5F07009120F3361
:100A0200EF6003120A23D007D006D005D004D0032A
:100A1200D002D001D000D0D0D082D083D0F0D0E0AC
:010A220032A1
:100CDF00E4F5D8F5E9F5F9F5D9750D03750E998594
:100CEF000EEBE50DF5FB7499250EF50E7403350D1E
:100CFF00F50D75DB49750A24750B00850BEAE50ABE
:100D0F00F5FAE4250BF50B7424350AF50A75DA4963
:100D1F00D2DED2AFE4F50CAB19AD18AF17020D71DF
:070F0000C291D290D2B2228F
:030F2400D2912245
:030F2700C2912252
:060F0E00A291E433FF2272
:020DCA00C10363
:100E98005389F0438901758C99758AC0D2A9C2908B
:050EA800C203C28C2210
:0E0EBF0020030A758C99758AC0D28CD203224A
:070F0700C28CC290C203225C
:060F1400A203E433FF22FA
:03000B00020EEEF4
:090EEE00758C99758AC0B290322E
:100DCC00013B000234000002320000043700000036
:0E0DDC0000C100C101013600013100013000EC
:100E5200D288D2A8E4F534F535F532F533F53AF512
:0A0E620039F538F537C200F53B22E0
:100E6C00200012E4F534F535D2A8D200F532F53372
:060E7C00D20175360222CE
:030F2A00C20022E0
:100EAD00E4F534F535F532F533F53AF539F538F530
:020EBD003722DA
:100A2300E536D394004005D53602D2010531E531D0
:100A3300C394025003020AC4E4F53130007CD3E5C9
:100A4300359400E53494004021AE34AF357C007D0D
:100A53003C1208007D0A1208128E328F33C3E5332D
:100A63009464E53294005008800075320075336455
:100A7300D3E5359400E5349400402AAE34AF357C99
:100A8300037DE8120935E47B05FAF9F81208A3E5BA
:100A93003A2FF53AE5393EF539E5383DF538E5378E
:100AA3003CF5378015E53A2432F53AE43539F53922
:100AB300E43538F538E43537F537E4F534F535D230
:040AC3000130001BE3
:100AC7000530E530C394034012E4F530E53BB4014B
:0B0AD700047F0280027F018F3BD201F0
:010AE20022F1
:100E8200300112C201E53BB40103020C81E53BB41F
:060E92000203120AE32234
:100C8100AE32AF337C037DE81208128C238D24AE83
:100C910032AF337C037DE8120812AB07E4F521750E
:100CA1002205AE23AF24FC7D0A120812AA05AE2349
:100CB100AF247C007D0A1208127C007D0A12081202
:100CC100AE05EB75F00A84ACF0EB75F00A84FFAD6C
:0E0CD10004AB068A2D85222E85212F020DEB05
:100AE300E47BE87A03F9F8AF3AAE39AD38AC3712A4
:100AF30008A38F298E288D278C26752101E47B0A74
:100B0300FAF9F81208A3AF038F22E47B0AFAF9F883
:100B1300AF29AE28AD27AC261208A3E47B0AFAF965
:100B2300F81208A3AF038F23E47B64FAF9F8AF2923
:100B3300AE28AD27AC261208A3E47B0AFAF9F81213
:100B430008A3AF038F24E47BE87A03F9F8AF29AE57
:100B530028AD27AC261208A3E47B0AFAF9F8120899
:100B6300A3AF038F25E47B107A27F9F8AF29AE28CA
:100B7300AD27AC261208A3E47B0AFAF9F81208A3FE
:100B8300AF0385232D85222E85212FAB24AD25028E
:020B93000DEB68
:030F2D00020C8132
:030F3000020AE3CF
:050F1A008F3BD2012213
:030F3300AF3B22AF
:050F1F00AE32AF3322E9
:090EF700AF3AAE39AD38AC372238
:03000300020ECD1D
:0D0ECD00C0E00535E53570020534D0E03297
:03000000020B955B
:0C0B9500787FE4F6D8FD75813B020BDC94
:10080000EF8DF0A4A8F0CF8CF0A428CE8DF0A42E0C
:02081000FE22C6
:10081200BC000BBE0029EF8DF084FFADF022E4CCCA
:10082200F875F008EF2FFFEE33FEEC33FCEE9DEC93
:10083200984005FCEE9DFE0FD5F0E9E4CEFD22EDD9
:10084200F8F5F0EE8420D21CFEADF075F008EF2F23
:10085200FFED33FD4007985006D5F0F222C398FD14
:050862000FD5F0EA22B1
:1008670075F008758200EF2FFFEE33FECD33CDCC48
:1008770033CCC58233C5829BED9AEC99E5829840CB
:100887000CF582EE9BFEED9AFDEC99FC0FD5F0D6A8
:10089700E4CEFBE4CDFAE4CCF9A88222B800C1B9D2
:1008A7000059BA002DEC8BF084CFCECDFCE5F0CB10
:1008B700F97818EF2FFFEE33FEED33FDEC33FCEB49
:1008C70033FB10D703994004EB99FB0FD8E5E4F904
:1008D700FA227818EF2FFFEE33FEED33FDEC33FCF1
:1008E700C933C910D7059BE99A4007EC9BFCE99AE5
:1008F700F90FD8E0E4C9FAE4CCFB2275F010EF2F2A
:10090700FFEE33FEED33FDCC33CCC833C810D70729
:100917009BEC9AE899400AED9BFDEC9AFCE899F864
:0E0927000FD5F0DAE4CDFBE4CCFAE4C8F922F7
:10093500EC8EF0A4CCC5F0CCCDF8EFA4CEC5F02D4F
:10094500FDE43CFCE8A42EC8C5F03DFDE43CFCEF0D
:0D095500A4FFE5F028FEE43DFDE43CFC229B
:100BA100020E0FE493A3F8E493A34003F68001F24D
:100BB10008DFF48029E493A3F85407240CC8C33355
:100BC100C4540F4420C8834004F456800146F6DF24
:100BD100E4800B0102040810204080900DB0E47EF7
:100BE100019360BCA3FF543F30E509541FFEE49319
:100BF100A360010ECF54C025E060A840B8E493A3E0
:100C0100FAE493A3F8E493A3C8C582C8CAC583CA0A
:100C1100F0A3C8C582C8CAC583CADFE9DEE780BEC2
:010DEA000008
:00000001FF
