:050DAF00011A00C10261
:100D2E0020B32F20022CD202E51A7016751A01126A
:100D3E000F25120EAC120E6B7F01120F1B120E81BD
:100D4E008018E4F51A120F28120F2BE4FF120F1B56
:100D5E00800830B30C300209C2027F147E00120EDE
:020D6E00312230
:100E0E00D2AF7580FF120CDE120F01120E97120E6A
:100E1E00BE120E51120D2E120E817F0A7E00120E80
:030E2E003180F11F
:0C0ED9003F065B4F666D7D077F6F39712F
:100DB4000317000000080F000000000000000001FD
:050DC400080001090117
:100E3100E4FDFCC3ED9FEC9E5015E4FBFA0BBB00F7
:0F0E4100010AEB64784A70F50DBD00010C80E4E6
:010E5000227F
:090EE5007F08780FE4F608DFFC39
:010EEE0022E1
:100D7000AE07120EE5EB75F00A84E5F0900ED993FC
:100D8000F50FEB75F00A8493F510ED75F00A84E524
:100D9000F093F511ED75F00A8493F512EE75F00AF3
:0F0DA00084E5F093F513EE75F00A8493F51422B1
:100DEA00AE07120EE5EE900ED993F50FED93F510BE
:100DFA00EB93F511E52D93F512E52E93F513E52FF7
:040E0A0093F5142226
:100C7E00D2A3E509F4FFE4FEEF30E703D38001C30E
:100C8E0092A0C2A1D2A1EF25E0FF0EBE08EA740F1A
:100C9E002508F8E6FFE4FEEF30E703D38001C392A8
:100CAE00A0C2A1D2A1EF25E0FF0EBE08EAC2A2D2D9
:100CBE00A2C2A3E508045407F508E50925E0FFE5FF
:0F0CCE0009C413131354014FF50970037509017D
:010CDD0022F4
:03003B0002096255
:10096200C0E0C0F0C083C082C0D075D000C000C05B
:1009720001C002C003C004C005C006C00730D918B8
:10098200C2D9850EEBE50DF5FB7499250EF50E74B3
:1009920003350DF50D120C7E30D86BC2D8850BEAEB
:1009A200E50AF5FAE4250BF50B7424350AF50A0578
:1009B2000CE50CC39464403B750C00B290120AD54E
:1009C2000519E519C3943C40197519000518E51875
:1009D200943C400E7518000517E5179418400375EE
:1009E2001700120F34EF701EAB19AD18AF17120DAE
:1009F200708013E50C75F01484E5F07009120F3461
:100A0200EF6003120AD5D007D006D005D004D00378
:100A1200D002D001D000D0D0D082D083D0F0D0E0AC
:010A220032A1
:100CDE00E4F5D8F5E9F5F9F5D9750D03750E998595
:100CEE000EEBE50DF5FB7499250EF50E7403350D1F
:100CFE00F50D75DB49750A24750B00850BEAE50ABF
:100D0E00F5FAE4250BF50B7424350AF50A75DA4964
:100D1E00D2DED2AFE4F50CAB19AD18AF17020D70E1
:070F0100C291D290D2B2228E
:030F2500D2912244
:030F2800C2912251
:060F0F00A291E433FF2271
:020DC900C10364
:100E97005389F0438901758C99758AC0D2A9C2908C
:050EA700C203C28C2211
:0E0EBE0020030A758C99758AC0D28CD203224B
:070F0800C28CC290C203225B
:060F1500A203E433FF22F9
:03000B00020EEFF3
:090EEF00758C99758AC0B290322D
:100DCB00013B000234000002320000043700000037
:0E0DDB0000C100C101013600013100013000ED
:100E5100D288D2A8E4F534F535F532F533F53AF513
:0A0E610039F538F537C200F53B22E1
:100E6B00200012E4F534F535D2A8D200F532F53373
:060E7B00D20175360222CF
:030F2B00C20022DF
:100EAC00E4F534F535F532F533F53AF539F538F531
:020EBC003722DB
:100AD500E536D394004005D53602D2010531E5311E
:100AE500C39401407BE4F53130006ED3E5359400C5
:100AF500E5349400401CAE34AF357C0F7DA0120860
:100B0500008E328F33C3E5339419E53294005008D3
:100B15008000753200753319D3E5359400E53494BA
:100B2500004021AE34AF357C0F7DA0120935E53A82
:100B35002FF53AE5393EF539E5383DF538E5373CE9
:100B4500F5378015E53A2464F53AE43539F539E4A5
:100B55003538F538E43537F537E4F534F535D20170
:030B650030001B42
:100B68000530E530C394034012E4F530E53BB401A9
:0B0B7800047F0280027F018F3BD2014E
:010B8300224F
:100E8100300112C201E53BB40103020C10E53BB491
:060E91000203120A2322F5
:100C100075210AAE32AF337C277D101208127C009A
:100C20007D0A1208128D22AE32AF337C037DE812AA
:100C300008127C007D0A1208128D23AE32AF337C7D
:100C4000007D641208127C007D0A120812AB05AE0A
:100C500032AF337C007D0A1208127C007D0A120834
:100C600012AA05AE32AF337C007D0A120812AF051E
:0E0C7000AD0285232D85222E85212F020DEA4F
:100A2300E47BE87A03F9F8AF3AAE39AD38AC371264
:100A330008A38F298E288D278C2675210BE47B1024
:100A43007A27F9F81208A3E47B0AFAF9F81208A343
:100A5300AF038F22E47BE87A03F9F8AF29AE28AD20
:100A630027AC261208A3E47B0AFAF9F81208A3AF0D
:100A7300038F23E47B64FAF9F8AF29AE28AD27ACE2
:100A8300261208A3E47B0AFAF9F81208A3AF038F2E
:100A930024E47B0AFAF9F8AF29AE28AD27AC261275
:100AA30008A3E47B0AFAF9F81208A3AF038F25E43D
:100AB3007B0AFAF9F8AF29AE28AD27AC261208A3B2
:100AC300AF0385232D85222E85212FAB24AD25024F
:020AD3000DEA2A
:030F2E00020C10A2
:030F3100020A238E
:050F1B008F3BD2012212
:030F3400AF3B22AE
:050F2000AE32AF3322E8
:090EF800AF3AAE39AD38AC372237
:03000300020ECC1E
:0D0ECC00C0E00535E53570020534D0E03298
:03000000020B846C
:0C0B8400787FE4F6D8FD75813B020BCBB6
:10080000EF8DF0A4A8F0CF8CF0A428CE8DF0A42E0C
:02081000FE22C6
:10081200BC000BBE0029EF8DF084FFADF022E4CCCA
:10082200F875F008EF2FFFEE33FEEC33FCEE9DEC93
:10083200984005FCEE9DFE0FD5F0E9E4CEFD22EDD9
:10084200F8F5F0EE8420D21CFEADF075F008EF2F23
:10085200FFED33FD4007985006D5F0F222C398FD14
:050862000FD5F0EA22B1
:1008670075F008758200EF2FFFEE33FECD33CDCC48
:1008770033CCC58233C5829BED9AEC99E5829840CB
:100887000CF582EE9BFEED9AFDEC99FC0FD5F0D6A8
:10089700E4CEFBE4CDFAE4CCF9A88222B800C1B9D2
:1008A7000059BA002DEC8BF084CFCECDFCE5F0CB10
:1008B700F97818EF2FFFEE33FEED33FDEC33FCEB49
:1008C70033FB10D703994004EB99FB0FD8E5E4F904
:1008D700FA227818EF2FFFEE33FEED33FDEC33FCF1
:1008E700C933C910D7059BE99A4007EC9BFCE99AE5
:1008F700F90FD8E0E4C9FAE4CCFB2275F010EF2F2A
:10090700FFEE33FEED33FDCC33CCC833C810D70729
:100917009BEC9AE899400AED9BFDEC9AFCE899F864
:0E0927000FD5F0DAE4CDFBE4CCFAE4C8F922F7
:10093500EC8EF0A4CCC5F0CCCDF8EFA4CEC5F02D4F
:10094500FDE43CFCE8A42EC8C5F03DFDE43CFCEF0D
:0D095500A4FFE5F028FEE43DFDE43CFC229B
:100B9000020E0EE493A3F8E493A34003F68001F25F
:100BA00008DFF48029E493A3F85407240CC8C33366
:100BB000C4540F4420C8834004F456800146F6DF35
:100BC000E4800B0102040810204080900DAFE47E09
:100BD000019360BCA3FF543F30E509541FFEE4932A
:100BE000A360010ECF54C025E060A840B8E493A3F1
:100BF000FAE493A3F8E493A3C8C582C8CAC583CA1C
:100C0000F0A3C8C582C8CAC583CADFE9DEE780BED3
:010DE9000009
:00000001FF
